{
  "_format": "hh-sol-artifact-1",
  "contractName": "PolyechoNFT",
  "sourceName": "contracts/PolyechoNFT.sol",
  "abi": [
    {
      "inputs": [],
      "stateMutability": "nonpayable",
      "type": "constructor"
    },
    {
      "anonymous": false,
      "inputs": [
        {
          "indexed": true,
          "internalType": "address",
          "name": "owner",
          "type": "address"
        },
        {
          "indexed": true,
          "internalType": "address",
          "name": "approved",
          "type": "address"
        },
        {
          "indexed": true,
          "internalType": "uint256",
          "name": "tokenId",
          "type": "uint256"
        }
      ],
      "name": "Approval",
      "type": "event"
    },
    {
      "anonymous": false,
      "inputs": [
        {
          "indexed": true,
          "internalType": "address",
          "name": "owner",
          "type": "address"
        },
        {
          "indexed": true,
          "internalType": "address",
          "name": "operator",
          "type": "address"
        },
        {
          "indexed": false,
          "internalType": "bool",
          "name": "approved",
          "type": "bool"
        }
      ],
      "name": "ApprovalForAll",
      "type": "event"
    },
    {
      "anonymous": false,
      "inputs": [
        {
          "indexed": false,
          "internalType": "string",
          "name": "name",
          "type": "string"
        }
      ],
      "name": "CollectionNameUpdated",
      "type": "event"
    },
    {
      "anonymous": false,
      "inputs": [
        {
          "indexed": false,
          "internalType": "address",
          "name": "_lister",
          "type": "address"
        },
        {
          "indexed": false,
          "internalType": "uint256",
          "name": "_tokenId",
          "type": "uint256"
        },
        {
          "indexed": false,
          "internalType": "uint256",
          "name": "_price",
          "type": "uint256"
        }
      ],
      "name": "ListedForSale",
      "type": "event"
    },
    {
      "anonymous": false,
      "inputs": [
        {
          "indexed": false,
          "internalType": "uint256",
          "name": "_tokenId",
          "type": "uint256"
        },
        {
          "indexed": false,
          "internalType": "address",
          "name": "_seller",
          "type": "address"
        },
        {
          "indexed": false,
          "internalType": "address",
          "name": "_buyer",
          "type": "address"
        },
        {
          "indexed": false,
          "internalType": "uint256",
          "name": "_price",
          "type": "uint256"
        }
      ],
      "name": "NftBought",
      "type": "event"
    },
    {
      "anonymous": false,
      "inputs": [
        {
          "indexed": true,
          "internalType": "address",
          "name": "previousOwner",
          "type": "address"
        },
        {
          "indexed": true,
          "internalType": "address",
          "name": "newOwner",
          "type": "address"
        }
      ],
      "name": "OwnershipTransferred",
      "type": "event"
    },
    {
      "anonymous": false,
      "inputs": [
        {
          "indexed": false,
          "internalType": "address",
          "name": "_lister",
          "type": "address"
        },
        {
          "indexed": false,
          "internalType": "uint256",
          "name": "_tokenId",
          "type": "uint256"
        }
      ],
      "name": "RemovedForSale",
      "type": "event"
    },
    {
      "anonymous": false,
      "inputs": [
        {
          "indexed": false,
          "internalType": "uint256",
          "name": "_tokenId",
          "type": "uint256"
        },
        {
          "indexed": false,
          "internalType": "uint256",
          "name": "_price",
          "type": "uint256"
        },
        {
          "indexed": false,
          "internalType": "address[]",
          "name": "_contributors",
          "type": "address[]"
        }
      ],
      "name": "RoyaltiesPaid",
      "type": "event"
    },
    {
      "anonymous": false,
      "inputs": [
        {
          "indexed": false,
          "internalType": "uint256",
          "name": "_tokenId",
          "type": "uint256"
        },
        {
          "indexed": false,
          "internalType": "uint256",
          "name": "_price",
          "type": "uint256"
        }
      ],
      "name": "SellerPaid",
      "type": "event"
    },
    {
      "anonymous": false,
      "inputs": [
        {
          "indexed": false,
          "internalType": "uint256",
          "name": "_tokenId",
          "type": "uint256"
        },
        {
          "indexed": false,
          "internalType": "string",
          "name": "_tokenURI",
          "type": "string"
        }
      ],
      "name": "TokenCreated",
      "type": "event"
    },
    {
      "anonymous": false,
      "inputs": [
        {
          "indexed": true,
          "internalType": "address",
          "name": "from",
          "type": "address"
        },
        {
          "indexed": true,
          "internalType": "address",
          "name": "to",
          "type": "address"
        },
        {
          "indexed": true,
          "internalType": "uint256",
          "name": "tokenId",
          "type": "uint256"
        }
      ],
      "name": "Transfer",
      "type": "event"
    },
    {
      "inputs": [
        {
          "internalType": "uint256",
          "name": "_tokenId",
          "type": "uint256"
        },
        {
          "internalType": "uint256",
          "name": "_price",
          "type": "uint256"
        }
      ],
      "name": "allowBuy",
      "outputs": [],
      "stateMutability": "nonpayable",
      "type": "function"
    },
    {
      "inputs": [
        {
          "internalType": "address",
          "name": "to",
          "type": "address"
        },
        {
          "internalType": "uint256",
          "name": "tokenId",
          "type": "uint256"
        }
      ],
      "name": "approve",
      "outputs": [],
      "stateMutability": "nonpayable",
      "type": "function"
    },
    {
      "inputs": [
        {
          "internalType": "address",
          "name": "owner",
          "type": "address"
        }
      ],
      "name": "balanceOf",
      "outputs": [
        {
          "internalType": "uint256",
          "name": "",
          "type": "uint256"
        }
      ],
      "stateMutability": "view",
      "type": "function"
    },
    {
      "inputs": [
        {
          "internalType": "uint256",
          "name": "_tokenId",
          "type": "uint256"
        }
      ],
      "name": "buy",
      "outputs": [],
      "stateMutability": "payable",
      "type": "function"
    },
    {
      "inputs": [],
      "name": "collectionName",
      "outputs": [
        {
          "internalType": "string",
          "name": "",
          "type": "string"
        }
      ],
      "stateMutability": "view",
      "type": "function"
    },
    {
      "inputs": [
        {
          "internalType": "uint256",
          "name": "_tokenId",
          "type": "uint256"
        }
      ],
      "name": "disallowBuy",
      "outputs": [],
      "stateMutability": "nonpayable",
      "type": "function"
    },
    {
      "inputs": [
        {
          "internalType": "uint256",
          "name": "tokenId",
          "type": "uint256"
        }
      ],
      "name": "getApproved",
      "outputs": [
        {
          "internalType": "address",
          "name": "",
          "type": "address"
        }
      ],
      "stateMutability": "view",
      "type": "function"
    },
    {
      "inputs": [
        {
          "internalType": "uint256",
          "name": "tokenId",
          "type": "uint256"
        }
      ],
      "name": "getContributors",
      "outputs": [
        {
          "internalType": "address[]",
          "name": "",
          "type": "address[]"
        }
      ],
      "stateMutability": "view",
      "type": "function"
    },
    {
      "inputs": [
        {
          "internalType": "address",
          "name": "owner",
          "type": "address"
        },
        {
          "internalType": "address",
          "name": "operator",
          "type": "address"
        }
      ],
      "name": "isApprovedForAll",
      "outputs": [
        {
          "internalType": "bool",
          "name": "",
          "type": "bool"
        }
      ],
      "stateMutability": "view",
      "type": "function"
    },
    {
      "inputs": [
        {
          "internalType": "address",
          "name": "_buyer",
          "type": "address"
        },
        {
          "internalType": "string",
          "name": "_metadataURI",
          "type": "string"
        },
        {
          "internalType": "address payable[]",
          "name": "_contributors",
          "type": "address[]"
        }
      ],
      "name": "mintAndBuy",
      "outputs": [
        {
          "internalType": "uint256",
          "name": "",
          "type": "uint256"
        },
        {
          "internalType": "string",
          "name": "",
          "type": "string"
        }
      ],
      "stateMutability": "payable",
      "type": "function"
    },
    {
      "inputs": [],
      "name": "mintPrice",
      "outputs": [
        {
          "internalType": "uint256",
          "name": "",
          "type": "uint256"
        }
      ],
      "stateMutability": "view",
      "type": "function"
    },
    {
      "inputs": [],
      "name": "name",
      "outputs": [
        {
          "internalType": "string",
          "name": "",
          "type": "string"
        }
      ],
      "stateMutability": "view",
      "type": "function"
    },
    {
      "inputs": [],
      "name": "owner",
      "outputs": [
        {
          "internalType": "address",
          "name": "",
          "type": "address"
        }
      ],
      "stateMutability": "view",
      "type": "function"
    },
    {
      "inputs": [
        {
          "internalType": "uint256",
          "name": "tokenId",
          "type": "uint256"
        }
      ],
      "name": "ownerOf",
      "outputs": [
        {
          "internalType": "address",
          "name": "",
          "type": "address"
        }
      ],
      "stateMutability": "view",
      "type": "function"
    },
    {
      "inputs": [],
      "name": "renounceOwnership",
      "outputs": [],
      "stateMutability": "nonpayable",
      "type": "function"
    },
    {
      "inputs": [
        {
          "internalType": "address",
          "name": "from",
          "type": "address"
        },
        {
          "internalType": "address",
          "name": "to",
          "type": "address"
        },
        {
          "internalType": "uint256",
          "name": "tokenId",
          "type": "uint256"
        }
      ],
      "name": "safeTransferFrom",
      "outputs": [],
      "stateMutability": "nonpayable",
      "type": "function"
    },
    {
      "inputs": [
        {
          "internalType": "address",
          "name": "from",
          "type": "address"
        },
        {
          "internalType": "address",
          "name": "to",
          "type": "address"
        },
        {
          "internalType": "uint256",
          "name": "tokenId",
          "type": "uint256"
        },
        {
          "internalType": "bytes",
          "name": "_data",
          "type": "bytes"
        }
      ],
      "name": "safeTransferFrom",
      "outputs": [],
      "stateMutability": "nonpayable",
      "type": "function"
    },
    {
      "inputs": [
        {
          "internalType": "address",
          "name": "operator",
          "type": "address"
        },
        {
          "internalType": "bool",
          "name": "approved",
          "type": "bool"
        }
      ],
      "name": "setApprovalForAll",
      "outputs": [],
      "stateMutability": "nonpayable",
      "type": "function"
    },
    {
      "inputs": [
        {
          "internalType": "bytes4",
          "name": "interfaceId",
          "type": "bytes4"
        }
      ],
      "name": "supportsInterface",
      "outputs": [
        {
          "internalType": "bool",
          "name": "",
          "type": "bool"
        }
      ],
      "stateMutability": "view",
      "type": "function"
    },
    {
      "inputs": [],
      "name": "symbol",
      "outputs": [
        {
          "internalType": "string",
          "name": "",
          "type": "string"
        }
      ],
      "stateMutability": "view",
      "type": "function"
    },
    {
      "inputs": [
        {
          "internalType": "uint256",
          "name": "",
          "type": "uint256"
        },
        {
          "internalType": "uint256",
          "name": "",
          "type": "uint256"
        }
      ],
      "name": "tokenIdToContributors",
      "outputs": [
        {
          "internalType": "address",
          "name": "",
          "type": "address"
        }
      ],
      "stateMutability": "view",
      "type": "function"
    },
    {
      "inputs": [
        {
          "internalType": "uint256",
          "name": "",
          "type": "uint256"
        }
      ],
      "name": "tokenIdToPrice",
      "outputs": [
        {
          "internalType": "uint256",
          "name": "",
          "type": "uint256"
        }
      ],
      "stateMutability": "view",
      "type": "function"
    },
    {
      "inputs": [
        {
          "internalType": "uint256",
          "name": "tokenId",
          "type": "uint256"
        }
      ],
      "name": "tokenURI",
      "outputs": [
        {
          "internalType": "string",
          "name": "",
          "type": "string"
        }
      ],
      "stateMutability": "view",
      "type": "function"
    },
    {
      "inputs": [
        {
          "internalType": "address",
          "name": "from",
          "type": "address"
        },
        {
          "internalType": "address",
          "name": "to",
          "type": "address"
        },
        {
          "internalType": "uint256",
          "name": "tokenId",
          "type": "uint256"
        }
      ],
      "name": "transferFrom",
      "outputs": [],
      "stateMutability": "nonpayable",
      "type": "function"
    },
    {
      "inputs": [
        {
          "internalType": "address",
          "name": "newOwner",
          "type": "address"
        }
      ],
      "name": "transferOwnership",
      "outputs": [],
      "stateMutability": "nonpayable",
      "type": "function"
    },
    {
      "inputs": [
        {
          "internalType": "string",
          "name": "_name",
          "type": "string"
        }
      ],
      "name": "updateCollectionName",
      "outputs": [],
      "stateMutability": "nonpayable",
      "type": "function"
    }
  ],
  "bytecode": "0x60806040526040518060400160405280600e81526020017f506f6c796563686f2054726565730000000000000000000000000000000000008152506008908051906020019062000051929190620001f4565b503480156200005f57600080fd5b506040518060400160405280600881526020017f506f6c796563686f0000000000000000000000000000000000000000000000008152506040518060400160405280600481526020017f4543484f000000000000000000000000000000000000000000000000000000008152508160009080519060200190620000e4929190620001f4565b508060019080519060200190620000fd929190620001f4565b50505062000120620001146200012660201b60201c565b6200012e60201b60201c565b62000309565b600033905090565b6000600660009054906101000a900473ffffffffffffffffffffffffffffffffffffffff16905081600660006101000a81548173ffffffffffffffffffffffffffffffffffffffff021916908373ffffffffffffffffffffffffffffffffffffffff1602179055508173ffffffffffffffffffffffffffffffffffffffff168173ffffffffffffffffffffffffffffffffffffffff167f8be0079c531659141344cd1fd0a4f28419497f9722a3daafe3b4186f6b6457e060405160405180910390a35050565b8280546200020290620002a4565b90600052602060002090601f01602090048101928262000226576000855562000272565b82601f106200024157805160ff191683800117855562000272565b8280016001018555821562000272579182015b828111156200027157825182559160200191906001019062000254565b5b50905062000281919062000285565b5090565b5b80821115620002a057600081600090555060010162000286565b5090565b60006002820490506001821680620002bd57607f821691505b60208210811415620002d457620002d3620002da565b5b50919050565b7f4e487b7100000000000000000000000000000000000000000000000000000000600052602260045260246000fd5b613f8f80620003196000396000f3fe6080604052600436106101815760003560e01c8063a22cb465116100d1578063d96a094a1161008a578063eb753e4711610064578063eb753e4714610583578063ef9dad8d146105b4578063f2fde38b146105f1578063f4812eb91461061a57610181565b8063d96a094a146104ff578063e5326ab11461051b578063e985e9c51461054657610181565b8063a22cb465146103f5578063aac0704a1461041e578063b88d4fde14610447578063bbb5e8d314610470578063c87b56dd14610499578063d4991312146104d657610181565b806342842e0e1161013e57806370a082311161011857806370a082311461034b578063715018a6146103885780638da5cb5b1461039f57806395d89b41146103ca57610181565b806342842e0e146102ba5780636352211e146102e35780636817c76c1461032057610181565b806301ffc9a71461018657806306fdde03146101c3578063081812fc146101ee578063095ea7b31461022b57806323b872dd146102545780633c1ab00f1461027d575b600080fd5b34801561019257600080fd5b506101ad60048036038101906101a891906129f3565b610657565b6040516101ba9190613090565b60405180910390f35b3480156101cf57600080fd5b506101d8610739565b6040516101e591906130cf565b60405180910390f35b3480156101fa57600080fd5b5061021560048036038101906102109190612a8a565b6107cb565b6040516102229190612fa7565b60405180910390f35b34801561023757600080fd5b50610252600480360381019061024d91906129b7565b610850565b005b34801561026057600080fd5b5061027b60048036038101906102769190612828565b610968565b005b34801561028957600080fd5b506102a4600480360381019061029f9190612a8a565b6109c8565b6040516102b1919061306e565b60405180910390f35b3480156102c657600080fd5b506102e160048036038101906102dc9190612828565b610ab1565b005b3480156102ef57600080fd5b5061030a60048036038101906103059190612a8a565b610ad1565b6040516103179190612fa7565b60405180910390f35b34801561032c57600080fd5b50610335610b83565b60405161034291906133b1565b60405180910390f35b34801561035757600080fd5b50610372600480360381019061036d919061279a565b610b8e565b60405161037f91906133b1565b60405180910390f35b34801561039457600080fd5b5061039d610c46565b005b3480156103ab57600080fd5b506103b4610cce565b6040516103c19190612fa7565b60405180910390f35b3480156103d657600080fd5b506103df610cf8565b6040516103ec91906130cf565b60405180910390f35b34801561040157600080fd5b5061041c600480360381019061041791906128f2565b610d8a565b005b34801561042a57600080fd5b5061044560048036038101906104409190612a45565b610da0565b005b34801561045357600080fd5b5061046e60048036038101906104699190612877565b610e6b565b005b34801561047c57600080fd5b5061049760048036038101906104929190612ab3565b610ecd565b005b3480156104a557600080fd5b506104c060048036038101906104bb9190612a8a565b610fdd565b6040516104cd91906130cf565b60405180910390f35b3480156104e257600080fd5b506104fd60048036038101906104f89190612a8a565b6110ca565b005b61051960048036038101906105149190612a8a565b611195565b005b34801561052757600080fd5b506105306114a9565b60405161053d91906130cf565b60405180910390f35b34801561055257600080fd5b5061056d600480360381019061056891906127ec565b611537565b60405161057a9190613090565b60405180910390f35b61059d6004803603810190610598919061292e565b6115cb565b6040516105ab929190613411565b60405180910390f35b3480156105c057600080fd5b506105db60048036038101906105d69190612ab3565b6117ad565b6040516105e89190612fa7565b60405180910390f35b3480156105fd57600080fd5b506106186004803603810190610613919061279a565b6117fb565b005b34801561062657600080fd5b50610641600480360381019061063c9190612a8a565b6118f3565b60405161064e91906133b1565b60405180910390f35b60007f80ac58cd000000000000000000000000000000000000000000000000000000007bffffffffffffffffffffffffffffffffffffffffffffffffffffffff1916827bffffffffffffffffffffffffffffffffffffffffffffffffffffffff1916148061072257507f5b5e139f000000000000000000000000000000000000000000000000000000007bffffffffffffffffffffffffffffffffffffffffffffffffffffffff1916827bffffffffffffffffffffffffffffffffffffffffffffffffffffffff1916145b8061073257506107318261190b565b5b9050919050565b60606000805461074890613799565b80601f016020809104026020016040519081016040528092919081815260200182805461077490613799565b80156107c15780601f10610796576101008083540402835291602001916107c1565b820191906000526020600020905b8154815290600101906020018083116107a457829003601f168201915b5050505050905090565b60006107d682611975565b610815576040517f08c379a000000000000000000000000000000000000000000000000000000000815260040161080c90613271565b60405180910390fd5b6004600083815260200190815260200160002060009054906101000a900473ffffffffffffffffffffffffffffffffffffffff169050919050565b600061085b82610ad1565b90508073ffffffffffffffffffffffffffffffffffffffff168373ffffffffffffffffffffffffffffffffffffffff1614156108cc576040517f08c379a00000000000000000000000000000000000000000000000000000000081526004016108c390613311565b60405180910390fd5b8073ffffffffffffffffffffffffffffffffffffffff166108eb6119e1565b73ffffffffffffffffffffffffffffffffffffffff16148061091a5750610919816109146119e1565b611537565b5b610959576040517f08c379a0000000000000000000000000000000000000000000000000000000008152600401610950906131f1565b60405180910390fd5b61096383836119e9565b505050565b6109796109736119e1565b82611aa2565b6109b8576040517f08c379a00000000000000000000000000000000000000000000000000000000081526004016109af90613371565b60405180910390fd5b6109c3838383611b80565b505050565b60606109d382611975565b610a12576040517f08c379a0000000000000000000000000000000000000000000000000000000008152600401610a0990613391565b60405180910390fd5b600a6000838152602001908152602001600020805480602002602001604051908101604052809291908181526020018280548015610aa557602002820191906000526020600020905b8160009054906101000a900473ffffffffffffffffffffffffffffffffffffffff1673ffffffffffffffffffffffffffffffffffffffff1681526020019060010190808311610a5b575b50505050509050919050565b610acc83838360405180602001604052806000815250610e6b565b505050565b6000806002600084815260200190815260200160002060009054906101000a900473ffffffffffffffffffffffffffffffffffffffff169050600073ffffffffffffffffffffffffffffffffffffffff168173ffffffffffffffffffffffffffffffffffffffff161415610b7a576040517f08c379a0000000000000000000000000000000000000000000000000000000008152600401610b7190613231565b60405180910390fd5b80915050919050565b662386f26fc1000081565b60008073ffffffffffffffffffffffffffffffffffffffff168273ffffffffffffffffffffffffffffffffffffffff161415610bff576040517f08c379a0000000000000000000000000000000000000000000000000000000008152600401610bf690613211565b60405180910390fd5b600360008373ffffffffffffffffffffffffffffffffffffffff1673ffffffffffffffffffffffffffffffffffffffff168152602001908152602001600020549050919050565b610c4e6119e1565b73ffffffffffffffffffffffffffffffffffffffff16610c6c610cce565b73ffffffffffffffffffffffffffffffffffffffff1614610cc2576040517f08c379a0000000000000000000000000000000000000000000000000000000008152600401610cb9906132b1565b60405180910390fd5b610ccc6000611de7565b565b6000600660009054906101000a900473ffffffffffffffffffffffffffffffffffffffff16905090565b606060018054610d0790613799565b80601f0160208091040260200160405190810160405280929190818152602001828054610d3390613799565b8015610d805780601f10610d5557610100808354040283529160200191610d80565b820191906000526020600020905b815481529060010190602001808311610d6357829003601f168201915b5050505050905090565b610d9c610d956119e1565b8383611ead565b5050565b610da86119e1565b73ffffffffffffffffffffffffffffffffffffffff16610dc6610cce565b73ffffffffffffffffffffffffffffffffffffffff1614610e1c576040517f08c379a0000000000000000000000000000000000000000000000000000000008152600401610e13906132b1565b60405180910390fd5b818160089190610e2d9291906124dd565b507f749b12147f7d973e04e6ebeac5a489b90a25371b87897f089b9bf3390746fdc88282604051610e5f9291906130ab565b60405180910390a15050565b610e7c610e766119e1565b83611aa2565b610ebb576040517f08c379a0000000000000000000000000000000000000000000000000000000008152600401610eb290613371565b60405180910390fd5b610ec78484848461201a565b50505050565b610ed682610ad1565b73ffffffffffffffffffffffffffffffffffffffff163373ffffffffffffffffffffffffffffffffffffffff1614610f43576040517f08c379a0000000000000000000000000000000000000000000000000000000008152600401610f3a90613331565b60405180910390fd5b60008111610f86576040517f08c379a0000000000000000000000000000000000000000000000000000000008152600401610f7d906132d1565b60405180910390fd5b80600b6000848152602001908152602001600020819055507fd8e0b128fee17f55fcc09b80146a7c91a1aa841f3dfbb2171e6fff11f71a9ab0338383604051610fd193929190613037565b60405180910390a15050565b6060610fe882611975565b611027576040517f08c379a000000000000000000000000000000000000000000000000000000000815260040161101e906132f1565b60405180910390fd5b60096000838152602001908152602001600020805461104590613799565b80601f016020809104026020016040519081016040528092919081815260200182805461107190613799565b80156110be5780601f10611093576101008083540402835291602001916110be565b820191906000526020600020905b8154815290600101906020018083116110a157829003601f168201915b50505050509050919050565b6110d381610ad1565b73ffffffffffffffffffffffffffffffffffffffff163373ffffffffffffffffffffffffffffffffffffffff1614611140576040517f08c379a000000000000000000000000000000000000000000000000000000000815260040161113790613331565b60405180910390fd5b6000600b6000838152602001908152602001600020819055507ff6b8277a836e8d69e173c05c5da9a781f0c1065dd5ff6a2fbdc995978e3631ea338260405161118a92919061300e565b60405180910390a150565b6000600b6000838152602001908152602001600020549050600081116111f0576040517f08c379a00000000000000000000000000000000000000000000000000000000081526004016111e790613111565b60405180910390fd5b803414611232576040517f08c379a000000000000000000000000000000000000000000000000000000000815260040161122990613291565b60405180910390fd5b600061123d83610ad1565b905061124933846119e9565b611254813385610ab1565b600061126a600a3461207690919063ffffffff16565b905060006112956009611287600a3461207690919063ffffffff16565b61208c90919063ffffffff16565b90506000600a6000878152602001908152602001600020905060005b818054905081101561138f5760008282815481106112f8577f4e487b7100000000000000000000000000000000000000000000000000000000600052603260045260246000fd5b9060005260206000200160009054906101000a900473ffffffffffffffffffffffffffffffffffffffff1690508073ffffffffffffffffffffffffffffffffffffffff166108fc84805490508761134f91906135f2565b9081150290604051600060405180830381858888f1935050505015801561137a573d6000803e3d6000fd5b5050808061138790613816565b9150506112b1565b508373ffffffffffffffffffffffffffffffffffffffff166108fc839081150290604051600060405180830381858888f193505050501580156113d6573d6000803e3d6000fd5b506000600b6000888152602001908152602001600020819055507f5837dc3eeed2d2b1d75de7e85c87404936759686b473d2cbc06bc59f96060cff8685333460405161142594939291906133cc565b60405180910390a17fc90e2b5bf9e462d07d9c1fc5201c35bb5dc9dd94df8124b2a19a8f98d64ccdb1868360405161145e929190613441565b60405180910390a17fad6f7101d3f53815713d2dd1e65366de1f3db3cf8f9a2d9a9a8119a1bd2b64078684836040516114999392919061346a565b60405180910390a1505050505050565b600880546114b690613799565b80601f01602080910402602001604051908101604052809291908181526020018280546114e290613799565b801561152f5780601f106115045761010080835404028352916020019161152f565b820191906000526020600020905b81548152906001019060200180831161151257829003601f168201915b505050505081565b6000600560008473ffffffffffffffffffffffffffffffffffffffff1673ffffffffffffffffffffffffffffffffffffffff16815260200190815260200160002060008373ffffffffffffffffffffffffffffffffffffffff1673ffffffffffffffffffffffffffffffffffffffff16815260200190815260200160002060009054906101000a900460ff16905092915050565b60006060662386f26fc10000341015611619576040517f08c379a000000000000000000000000000000000000000000000000000000000815260040161161090613351565b60405180910390fd5b61162360076120a2565b600061162f60076120b8565b905086866009600084815260200190815260200160002091906116539291906124dd565b508484600a60008481526020019081526020016000209190611676929190612563565b5061168188826120c6565b61168b88826119e9565b60005b858590508110156117545760008686838181106116d4577f4e487b7100000000000000000000000000000000000000000000000000000000600052603260045260246000fd5b90506020020160208101906116e991906127c3565b90508073ffffffffffffffffffffffffffffffffffffffff166108fc888890503461171491906135f2565b9081150290604051600060405180830381858888f1935050505015801561173f573d6000803e3d6000fd5b5050808061174c90613816565b91505061168e565b50600061176082610fdd565b90507f5d3ac5872118b949a1f8db596134a0e1587ecf18f2203bb1e3ea420c3c3f8fa98282604051611793929190613411565b60405180910390a181819350935050509550959350505050565b600a60205281600052604060002081815481106117c957600080fd5b906000526020600020016000915091509054906101000a900473ffffffffffffffffffffffffffffffffffffffff1681565b6118036119e1565b73ffffffffffffffffffffffffffffffffffffffff16611821610cce565b73ffffffffffffffffffffffffffffffffffffffff1614611877576040517f08c379a000000000000000000000000000000000000000000000000000000000815260040161186e906132b1565b60405180910390fd5b600073ffffffffffffffffffffffffffffffffffffffff168173ffffffffffffffffffffffffffffffffffffffff1614156118e7576040517f08c379a00000000000000000000000000000000000000000000000000000000081526004016118de90613131565b60405180910390fd5b6118f081611de7565b50565b600b6020528060005260406000206000915090505481565b60007f01ffc9a7000000000000000000000000000000000000000000000000000000007bffffffffffffffffffffffffffffffffffffffffffffffffffffffff1916827bffffffffffffffffffffffffffffffffffffffffffffffffffffffff1916149050919050565b60008073ffffffffffffffffffffffffffffffffffffffff166002600084815260200190815260200160002060009054906101000a900473ffffffffffffffffffffffffffffffffffffffff1673ffffffffffffffffffffffffffffffffffffffff1614159050919050565b600033905090565b816004600083815260200190815260200160002060006101000a81548173ffffffffffffffffffffffffffffffffffffffff021916908373ffffffffffffffffffffffffffffffffffffffff160217905550808273ffffffffffffffffffffffffffffffffffffffff16611a5c83610ad1565b73ffffffffffffffffffffffffffffffffffffffff167f8c5be1e5ebec7d5bd14f71427d1e84f3dd0314c0f7b2291e5b200ac8c7c3b92560405160405180910390a45050565b6000611aad82611975565b611aec576040517f08c379a0000000000000000000000000000000000000000000000000000000008152600401611ae3906131d1565b60405180910390fd5b6000611af783610ad1565b90508073ffffffffffffffffffffffffffffffffffffffff168473ffffffffffffffffffffffffffffffffffffffff161480611b6657508373ffffffffffffffffffffffffffffffffffffffff16611b4e846107cb565b73ffffffffffffffffffffffffffffffffffffffff16145b80611b775750611b768185611537565b5b91505092915050565b8273ffffffffffffffffffffffffffffffffffffffff16611ba082610ad1565b73ffffffffffffffffffffffffffffffffffffffff1614611bf6576040517f08c379a0000000000000000000000000000000000000000000000000000000008152600401611bed90613151565b60405180910390fd5b600073ffffffffffffffffffffffffffffffffffffffff168273ffffffffffffffffffffffffffffffffffffffff161415611c66576040517f08c379a0000000000000000000000000000000000000000000000000000000008152600401611c5d90613191565b60405180910390fd5b611c718383836120e4565b611c7c6000826119e9565b6001600360008573ffffffffffffffffffffffffffffffffffffffff1673ffffffffffffffffffffffffffffffffffffffff1681526020019081526020016000206000828254611ccc919061367d565b925050819055506001600360008473ffffffffffffffffffffffffffffffffffffffff1673ffffffffffffffffffffffffffffffffffffffff1681526020019081526020016000206000828254611d23919061359c565b92505081905550816002600083815260200190815260200160002060006101000a81548173ffffffffffffffffffffffffffffffffffffffff021916908373ffffffffffffffffffffffffffffffffffffffff160217905550808273ffffffffffffffffffffffffffffffffffffffff168473ffffffffffffffffffffffffffffffffffffffff167fddf252ad1be2c89b69c2b068fc378daa952ba7f163c4a11628f55a4df523b3ef60405160405180910390a4611de28383836120e9565b505050565b6000600660009054906101000a900473ffffffffffffffffffffffffffffffffffffffff16905081600660006101000a81548173ffffffffffffffffffffffffffffffffffffffff021916908373ffffffffffffffffffffffffffffffffffffffff1602179055508173ffffffffffffffffffffffffffffffffffffffff168173ffffffffffffffffffffffffffffffffffffffff167f8be0079c531659141344cd1fd0a4f28419497f9722a3daafe3b4186f6b6457e060405160405180910390a35050565b8173ffffffffffffffffffffffffffffffffffffffff168373ffffffffffffffffffffffffffffffffffffffff161415611f1c576040517f08c379a0000000000000000000000000000000000000000000000000000000008152600401611f13906131b1565b60405180910390fd5b80600560008573ffffffffffffffffffffffffffffffffffffffff1673ffffffffffffffffffffffffffffffffffffffff16815260200190815260200160002060008473ffffffffffffffffffffffffffffffffffffffff1673ffffffffffffffffffffffffffffffffffffffff16815260200190815260200160002060006101000a81548160ff0219169083151502179055508173ffffffffffffffffffffffffffffffffffffffff168373ffffffffffffffffffffffffffffffffffffffff167f17307eab39ab6107e8899845ad3d59bd9653f200f220920489ca2b5937696c318360405161200d9190613090565b60405180910390a3505050565b612025848484611b80565b612031848484846120ee565b612070576040517f08c379a0000000000000000000000000000000000000000000000000000000008152600401612067906130f1565b60405180910390fd5b50505050565b6000818361208491906135f2565b905092915050565b6000818361209a9190613623565b905092915050565b6001816000016000828254019250508190555050565b600081600001549050919050565b6120e0828260405180602001604052806000815250612285565b5050565b505050565b505050565b600061210f8473ffffffffffffffffffffffffffffffffffffffff166122e0565b15612278578373ffffffffffffffffffffffffffffffffffffffff1663150b7a026121386119e1565b8786866040518563ffffffff1660e01b815260040161215a9493929190612fc2565b602060405180830381600087803b15801561217457600080fd5b505af19250505080156121a557506040513d601f19601f820116820180604052508101906121a29190612a1c565b60015b612228573d80600081146121d5576040519150601f19603f3d011682016040523d82523d6000602084013e6121da565b606091505b50600081511415612220576040517f08c379a0000000000000000000000000000000000000000000000000000000008152600401612217906130f1565b60405180910390fd5b805181602001fd5b63150b7a0260e01b7bffffffffffffffffffffffffffffffffffffffffffffffffffffffff1916817bffffffffffffffffffffffffffffffffffffffffffffffffffffffff19161491505061227d565b600190505b949350505050565b61228f8383612303565b61229c60008484846120ee565b6122db576040517f08c379a00000000000000000000000000000000000000000000000000000000081526004016122d2906130f1565b60405180910390fd5b505050565b6000808273ffffffffffffffffffffffffffffffffffffffff163b119050919050565b600073ffffffffffffffffffffffffffffffffffffffff168273ffffffffffffffffffffffffffffffffffffffff161415612373576040517f08c379a000000000000000000000000000000000000000000000000000000000815260040161236a90613251565b60405180910390fd5b61237c81611975565b156123bc576040517f08c379a00000000000000000000000000000000000000000000000000000000081526004016123b390613171565b60405180910390fd5b6123c8600083836120e4565b6001600360008473ffffffffffffffffffffffffffffffffffffffff1673ffffffffffffffffffffffffffffffffffffffff1681526020019081526020016000206000828254612418919061359c565b92505081905550816002600083815260200190815260200160002060006101000a81548173ffffffffffffffffffffffffffffffffffffffff021916908373ffffffffffffffffffffffffffffffffffffffff160217905550808273ffffffffffffffffffffffffffffffffffffffff16600073ffffffffffffffffffffffffffffffffffffffff167fddf252ad1be2c89b69c2b068fc378daa952ba7f163c4a11628f55a4df523b3ef60405160405180910390a46124d9600083836120e9565b5050565b8280546124e990613799565b90600052602060002090601f01602090048101928261250b5760008555612552565b82601f1061252457803560ff1916838001178555612552565b82800160010185558215612552579182015b82811115612551578235825591602001919060010190612536565b5b50905061255f9190612603565b5090565b8280548282559060005260206000209081019282156125f2579160200282015b828111156125f157823573ffffffffffffffffffffffffffffffffffffffff168260006101000a81548173ffffffffffffffffffffffffffffffffffffffff021916908373ffffffffffffffffffffffffffffffffffffffff16021790555091602001919060010190612583565b5b5090506125ff9190612603565b5090565b5b8082111561261c576000816000905550600101612604565b5090565b600061263361262e846134cd565b6134a8565b90508281526020810184848401111561264b57600080fd5b612656848285613757565b509392505050565b60008135905061266d81613ee6565b92915050565b60008135905061268281613efd565b92915050565b60008083601f84011261269a57600080fd5b8235905067ffffffffffffffff8111156126b357600080fd5b6020830191508360208202830111156126cb57600080fd5b9250929050565b6000813590506126e181613f14565b92915050565b6000813590506126f681613f2b565b92915050565b60008151905061270b81613f2b565b92915050565b600082601f83011261272257600080fd5b8135612732848260208601612620565b91505092915050565b60008083601f84011261274d57600080fd5b8235905067ffffffffffffffff81111561276657600080fd5b60208301915083600182028301111561277e57600080fd5b9250929050565b60008135905061279481613f42565b92915050565b6000602082840312156127ac57600080fd5b60006127ba8482850161265e565b91505092915050565b6000602082840312156127d557600080fd5b60006127e384828501612673565b91505092915050565b600080604083850312156127ff57600080fd5b600061280d8582860161265e565b925050602061281e8582860161265e565b9150509250929050565b60008060006060848603121561283d57600080fd5b600061284b8682870161265e565b935050602061285c8682870161265e565b925050604061286d86828701612785565b9150509250925092565b6000806000806080858703121561288d57600080fd5b600061289b8782880161265e565b94505060206128ac8782880161265e565b93505060406128bd87828801612785565b925050606085013567ffffffffffffffff8111156128da57600080fd5b6128e687828801612711565b91505092959194509250565b6000806040838503121561290557600080fd5b60006129138582860161265e565b9250506020612924858286016126d2565b9150509250929050565b60008060008060006060868803121561294657600080fd5b60006129548882890161265e565b955050602086013567ffffffffffffffff81111561297157600080fd5b61297d8882890161273b565b9450945050604086013567ffffffffffffffff81111561299c57600080fd5b6129a888828901612688565b92509250509295509295909350565b600080604083850312156129ca57600080fd5b60006129d88582860161265e565b92505060206129e985828601612785565b9150509250929050565b600060208284031215612a0557600080fd5b6000612a13848285016126e7565b91505092915050565b600060208284031215612a2e57600080fd5b6000612a3c848285016126fc565b91505092915050565b60008060208385031215612a5857600080fd5b600083013567ffffffffffffffff811115612a7257600080fd5b612a7e8582860161273b565b92509250509250929050565b600060208284031215612a9c57600080fd5b6000612aaa84828501612785565b91505092915050565b60008060408385031215612ac657600080fd5b6000612ad485828601612785565b9250506020612ae585828601612785565b9150509250929050565b6000612afb8383612b07565b60208301905092915050565b612b10816136d1565b82525050565b612b1f816136d1565b82525050565b6000612b3082613523565b612b3a8185613569565b9350612b45836134fe565b8060005b83811015612b76578151612b5d8882612aef565b9750612b688361354f565b925050600181019050612b49565b5085935050505092915050565b6000612b8e8261352e565b612b988185613569565b9350612ba38361350e565b8060005b83811015612bdb57612bb88261391b565b612bc28882612aef565b9750612bcd8361355c565b925050600181019050612ba7565b5085935050505092915050565b612bf1816136f5565b82525050565b6000612c0282613539565b612c0c818561357a565b9350612c1c818560208601613766565b612c258161392e565b840191505092915050565b6000612c3c838561358b565b9350612c49838584613757565b612c528361392e565b840190509392505050565b6000612c6882613544565b612c72818561358b565b9350612c82818560208601613766565b612c8b8161392e565b840191505092915050565b6000612ca360328361358b565b9150612cae8261394c565b604082019050919050565b6000612cc6601a8361358b565b9150612cd18261399b565b602082019050919050565b6000612ce960268361358b565b9150612cf4826139c4565b604082019050919050565b6000612d0c60258361358b565b9150612d1782613a13565b604082019050919050565b6000612d2f601c8361358b565b9150612d3a82613a62565b602082019050919050565b6000612d5260248361358b565b9150612d5d82613a8b565b604082019050919050565b6000612d7560198361358b565b9150612d8082613ada565b602082019050919050565b6000612d98602c8361358b565b9150612da382613b03565b604082019050919050565b6000612dbb60388361358b565b9150612dc682613b52565b604082019050919050565b6000612dde602a8361358b565b9150612de982613ba1565b604082019050919050565b6000612e0160298361358b565b9150612e0c82613bf0565b604082019050919050565b6000612e2460208361358b565b9150612e2f82613c3f565b602082019050919050565b6000612e47602c8361358b565b9150612e5282613c68565b604082019050919050565b6000612e6a600f8361358b565b9150612e7582613cb7565b602082019050919050565b6000612e8d60208361358b565b9150612e9882613ce0565b602082019050919050565b6000612eb0600a8361358b565b9150612ebb82613d09565b602082019050919050565b6000612ed3602f8361358b565b9150612ede82613d32565b604082019050919050565b6000612ef660218361358b565b9150612f0182613d81565b604082019050919050565b6000612f1960178361358b565b9150612f2482613dd0565b602082019050919050565b6000612f3c60268361358b565b9150612f4782613df9565b604082019050919050565b6000612f5f60318361358b565b9150612f6a82613e48565b604082019050919050565b6000612f82602f8361358b565b9150612f8d82613e97565b604082019050919050565b612fa18161374d565b82525050565b6000602082019050612fbc6000830184612b16565b92915050565b6000608082019050612fd76000830187612b16565b612fe46020830186612b16565b612ff16040830185612f98565b81810360608301526130038184612bf7565b905095945050505050565b60006040820190506130236000830185612b16565b6130306020830184612f98565b9392505050565b600060608201905061304c6000830186612b16565b6130596020830185612f98565b6130666040830184612f98565b949350505050565b600060208201905081810360008301526130888184612b25565b905092915050565b60006020820190506130a56000830184612be8565b92915050565b600060208201905081810360008301526130c6818486612c30565b90509392505050565b600060208201905081810360008301526130e98184612c5d565b905092915050565b6000602082019050818103600083015261310a81612c96565b9050919050565b6000602082019050818103600083015261312a81612cb9565b9050919050565b6000602082019050818103600083015261314a81612cdc565b9050919050565b6000602082019050818103600083015261316a81612cff565b9050919050565b6000602082019050818103600083015261318a81612d22565b9050919050565b600060208201905081810360008301526131aa81612d45565b9050919050565b600060208201905081810360008301526131ca81612d68565b9050919050565b600060208201905081810360008301526131ea81612d8b565b9050919050565b6000602082019050818103600083015261320a81612dae565b9050919050565b6000602082019050818103600083015261322a81612dd1565b9050919050565b6000602082019050818103600083015261324a81612df4565b9050919050565b6000602082019050818103600083015261326a81612e17565b9050919050565b6000602082019050818103600083015261328a81612e3a565b9050919050565b600060208201905081810360008301526132aa81612e5d565b9050919050565b600060208201905081810360008301526132ca81612e80565b9050919050565b600060208201905081810360008301526132ea81612ea3565b9050919050565b6000602082019050818103600083015261330a81612ec6565b9050919050565b6000602082019050818103600083015261332a81612ee9565b9050919050565b6000602082019050818103600083015261334a81612f0c565b9050919050565b6000602082019050818103600083015261336a81612f2f565b9050919050565b6000602082019050818103600083015261338a81612f52565b9050919050565b600060208201905081810360008301526133aa81612f75565b9050919050565b60006020820190506133c66000830184612f98565b92915050565b60006080820190506133e16000830187612f98565b6133ee6020830186612b16565b6133fb6040830185612b16565b6134086060830184612f98565b95945050505050565b60006040820190506134266000830185612f98565b81810360208301526134388184612c5d565b90509392505050565b60006040820190506134566000830185612f98565b6134636020830184612f98565b9392505050565b600060608201905061347f6000830186612f98565b61348c6020830185612f98565b818103604083015261349e8184612b83565b9050949350505050565b60006134b26134c3565b90506134be82826137e5565b919050565b6000604051905090565b600067ffffffffffffffff8211156134e8576134e76138ec565b5b6134f18261392e565b9050602081019050919050565b6000819050602082019050919050565b60008190508160005260206000209050919050565b600081519050919050565b600081549050919050565b600081519050919050565b600081519050919050565b6000602082019050919050565b6000600182019050919050565b600082825260208201905092915050565b600082825260208201905092915050565b600082825260208201905092915050565b60006135a78261374d565b91506135b28361374d565b9250827fffffffffffffffffffffffffffffffffffffffffffffffffffffffffffffffff038211156135e7576135e661385f565b5b828201905092915050565b60006135fd8261374d565b91506136088361374d565b9250826136185761361761388e565b5b828204905092915050565b600061362e8261374d565b91506136398361374d565b9250817fffffffffffffffffffffffffffffffffffffffffffffffffffffffffffffffff04831182151516156136725761367161385f565b5b828202905092915050565b60006136888261374d565b91506136938361374d565b9250828210156136a6576136a561385f565b5b828203905092915050565b600073ffffffffffffffffffffffffffffffffffffffff82169050919050565b60006136dc8261372d565b9050919050565b60006136ee8261372d565b9050919050565b60008115159050919050565b60007fffffffff0000000000000000000000000000000000000000000000000000000082169050919050565b600073ffffffffffffffffffffffffffffffffffffffff82169050919050565b6000819050919050565b82818337600083830152505050565b60005b83811015613784578082015181840152602081019050613769565b83811115613793576000848401525b50505050565b600060028204905060018216806137b157607f821691505b602082108114156137c5576137c46138bd565b5b50919050565b60006137de6137d98361393f565b6136b1565b9050919050565b6137ee8261392e565b810181811067ffffffffffffffff8211171561380d5761380c6138ec565b5b80604052505050565b60006138218261374d565b91507fffffffffffffffffffffffffffffffffffffffffffffffffffffffffffffffff8214156138545761385361385f565b5b600182019050919050565b7f4e487b7100000000000000000000000000000000000000000000000000000000600052601160045260246000fd5b7f4e487b7100000000000000000000000000000000000000000000000000000000600052601260045260246000fd5b7f4e487b7100000000000000000000000000000000000000000000000000000000600052602260045260246000fd5b7f4e487b7100000000000000000000000000000000000000000000000000000000600052604160045260246000fd5b600061392782546137cb565b9050919050565b6000601f19601f8301169050919050565b60008160001c9050919050565b7f4552433732313a207472616e7366657220746f206e6f6e20455243373231526560008201527f63656976657220696d706c656d656e7465720000000000000000000000000000602082015250565b7f5468697320746f6b656e206973206e6f7420666f722073616c65000000000000600082015250565b7f4f776e61626c653a206e6577206f776e657220697320746865207a65726f206160008201527f6464726573730000000000000000000000000000000000000000000000000000602082015250565b7f4552433732313a207472616e736665722066726f6d20696e636f72726563742060008201527f6f776e6572000000000000000000000000000000000000000000000000000000602082015250565b7f4552433732313a20746f6b656e20616c7265616479206d696e74656400000000600082015250565b7f4552433732313a207472616e7366657220746f20746865207a65726f2061646460008201527f7265737300000000000000000000000000000000000000000000000000000000602082015250565b7f4552433732313a20617070726f766520746f2063616c6c657200000000000000600082015250565b7f4552433732313a206f70657261746f7220717565727920666f72206e6f6e657860008201527f697374656e7420746f6b656e0000000000000000000000000000000000000000602082015250565b7f4552433732313a20617070726f76652063616c6c6572206973206e6f74206f7760008201527f6e6572206e6f7220617070726f76656420666f7220616c6c0000000000000000602082015250565b7f4552433732313a2062616c616e636520717565727920666f7220746865207a6560008201527f726f206164647265737300000000000000000000000000000000000000000000602082015250565b7f4552433732313a206f776e657220717565727920666f72206e6f6e657869737460008201527f656e7420746f6b656e0000000000000000000000000000000000000000000000602082015250565b7f4552433732313a206d696e7420746f20746865207a65726f2061646472657373600082015250565b7f4552433732313a20617070726f76656420717565727920666f72206e6f6e657860008201527f697374656e7420746f6b656e0000000000000000000000000000000000000000602082015250565b7f496e636f72726563742076616c75650000000000000000000000000000000000600082015250565b7f4f776e61626c653a2063616c6c6572206973206e6f7420746865206f776e6572600082015250565b7f5072696365207a65726f00000000000000000000000000000000000000000000600082015250565b7f4552433732314d657461646174613a2055524920717565727920666f72206e6f60008201527f6e6578697374656e7420746f6b656e0000000000000000000000000000000000602082015250565b7f4552433732313a20617070726f76616c20746f2063757272656e74206f776e6560008201527f7200000000000000000000000000000000000000000000000000000000000000602082015250565b7f4e6f74206f776e6572206f66207468697320746f6b656e000000000000000000600082015250565b7f53656e742065746865722076616c7565206973206e6f7420656e6f756768207460008201527f6f206d696e740000000000000000000000000000000000000000000000000000602082015250565b7f4552433732313a207472616e736665722063616c6c6572206973206e6f74206f60008201527f776e6572206e6f7220617070726f766564000000000000000000000000000000602082015250565b7f4552433732313a20436f6e7472696275746f7220717565727920666f72206e6f60008201527f6e6578697374656e7420746f6b656e0000000000000000000000000000000000602082015250565b613eef816136d1565b8114613efa57600080fd5b50565b613f06816136e3565b8114613f1157600080fd5b50565b613f1d816136f5565b8114613f2857600080fd5b50565b613f3481613701565b8114613f3f57600080fd5b50565b613f4b8161374d565b8114613f5657600080fd5b5056fea264697066735822122024d42b20f5704e069792e4e4b8b64f2b2ef6fb2ac6da040cbf06410a85c3687264736f6c63430008040033",
  "linkReferences": {},
  "deployedLinkReferences": {}
}