{
	"_format": "hh-sol-artifact-1",
	"contractName": "ArborAudioCollections",
	"sourceName": "contracts/ArborAudioCollections.sol",
	"abi": [
		{
			"inputs": [],
			"stateMutability": "nonpayable",
			"type": "constructor"
		},
		{
			"anonymous": false,
			"inputs": [
				{
					"indexed": true,
					"internalType": "address",
					"name": "owner",
					"type": "address"
				},
				{
					"indexed": true,
					"internalType": "address",
					"name": "approved",
					"type": "address"
				},
				{
					"indexed": true,
					"internalType": "uint256",
					"name": "tokenId",
					"type": "uint256"
				}
			],
			"name": "Approval",
			"type": "event"
		},
		{
			"anonymous": false,
			"inputs": [
				{
					"indexed": true,
					"internalType": "address",
					"name": "owner",
					"type": "address"
				},
				{
					"indexed": true,
					"internalType": "address",
					"name": "operator",
					"type": "address"
				},
				{
					"indexed": false,
					"internalType": "bool",
					"name": "approved",
					"type": "bool"
				}
			],
			"name": "ApprovalForAll",
			"type": "event"
		},
		{
			"anonymous": false,
			"inputs": [
				{
					"indexed": false,
					"internalType": "string",
					"name": "name",
					"type": "string"
				}
			],
			"name": "CollectionNameUpdated",
			"type": "event"
		},
		{
			"anonymous": false,
			"inputs": [
				{
					"indexed": false,
					"internalType": "address",
					"name": "_lister",
					"type": "address"
				},
				{
					"indexed": false,
					"internalType": "uint256",
					"name": "_tokenId",
					"type": "uint256"
				},
				{
					"indexed": false,
					"internalType": "uint256",
					"name": "_price",
					"type": "uint256"
				}
			],
			"name": "ListedForSale",
			"type": "event"
		},
		{
			"anonymous": false,
			"inputs": [
				{
					"indexed": false,
					"internalType": "uint256",
					"name": "_tokenId",
					"type": "uint256"
				},
				{
					"indexed": false,
					"internalType": "address",
					"name": "_seller",
					"type": "address"
				},
				{
					"indexed": false,
					"internalType": "address",
					"name": "_buyer",
					"type": "address"
				},
				{
					"indexed": false,
					"internalType": "uint256",
					"name": "_price",
					"type": "uint256"
				}
			],
			"name": "NftBought",
			"type": "event"
		},
		{
			"anonymous": false,
			"inputs": [
				{
					"indexed": true,
					"internalType": "address",
					"name": "previousOwner",
					"type": "address"
				},
				{
					"indexed": true,
					"internalType": "address",
					"name": "newOwner",
					"type": "address"
				}
			],
			"name": "OwnershipTransferred",
			"type": "event"
		},
		{
			"anonymous": false,
			"inputs": [
				{
					"indexed": false,
					"internalType": "address",
					"name": "_lister",
					"type": "address"
				},
				{
					"indexed": false,
					"internalType": "uint256",
					"name": "_tokenId",
					"type": "uint256"
				}
			],
			"name": "RemovedForSale",
			"type": "event"
		},
		{
			"anonymous": false,
			"inputs": [
				{
					"indexed": false,
					"internalType": "uint256",
					"name": "_tokenId",
					"type": "uint256"
				},
				{
					"indexed": false,
					"internalType": "uint256",
					"name": "_price",
					"type": "uint256"
				},
				{
					"indexed": false,
					"internalType": "address[]",
					"name": "_contributors",
					"type": "address[]"
				}
			],
			"name": "RoyaltiesPaid",
			"type": "event"
		},
		{
			"anonymous": false,
			"inputs": [
				{
					"indexed": false,
					"internalType": "uint256",
					"name": "_tokenId",
					"type": "uint256"
				},
				{
					"indexed": false,
					"internalType": "uint256",
					"name": "_price",
					"type": "uint256"
				}
			],
			"name": "SellerPaid",
			"type": "event"
		},
		{
			"anonymous": false,
			"inputs": [
				{
					"indexed": false,
					"internalType": "uint256",
					"name": "_tokenId",
					"type": "uint256"
				},
				{
					"indexed": false,
					"internalType": "string",
					"name": "_tokenURI",
					"type": "string"
				}
			],
			"name": "TokenCreated",
			"type": "event"
		},
		{
			"anonymous": false,
			"inputs": [
				{
					"indexed": true,
					"internalType": "address",
					"name": "from",
					"type": "address"
				},
				{
					"indexed": true,
					"internalType": "address",
					"name": "to",
					"type": "address"
				},
				{
					"indexed": true,
					"internalType": "uint256",
					"name": "tokenId",
					"type": "uint256"
				}
			],
			"name": "Transfer",
			"type": "event"
		},
		{
			"inputs": [
				{
					"internalType": "uint256",
					"name": "_tokenId",
					"type": "uint256"
				},
				{
					"internalType": "uint256",
					"name": "_price",
					"type": "uint256"
				}
			],
			"name": "allowBuy",
			"outputs": [],
			"stateMutability": "nonpayable",
			"type": "function"
		},
		{
			"inputs": [
				{
					"internalType": "address",
					"name": "to",
					"type": "address"
				},
				{
					"internalType": "uint256",
					"name": "tokenId",
					"type": "uint256"
				}
			],
			"name": "approve",
			"outputs": [],
			"stateMutability": "nonpayable",
			"type": "function"
		},
		{
			"inputs": [
				{
					"internalType": "address",
					"name": "owner",
					"type": "address"
				}
			],
			"name": "balanceOf",
			"outputs": [
				{
					"internalType": "uint256",
					"name": "",
					"type": "uint256"
				}
			],
			"stateMutability": "view",
			"type": "function"
		},
		{
			"inputs": [
				{
					"internalType": "uint256",
					"name": "_tokenId",
					"type": "uint256"
				}
			],
			"name": "buy",
			"outputs": [],
			"stateMutability": "payable",
			"type": "function"
		},
		{
			"inputs": [
				{
					"internalType": "address payable",
					"name": "winner",
					"type": "address"
				},
				{
					"internalType": "uint256",
					"name": "_tokenId",
					"type": "uint256"
				}
			],
			"name": "buyDev",
			"outputs": [],
			"stateMutability": "payable",
			"type": "function"
		},
		{
			"inputs": [],
			"name": "collectionName",
			"outputs": [
				{
					"internalType": "string",
					"name": "",
					"type": "string"
				}
			],
			"stateMutability": "view",
			"type": "function"
		},
		{
			"inputs": [
				{
					"internalType": "uint256",
					"name": "_tokenId",
					"type": "uint256"
				}
			],
			"name": "disallowBuy",
			"outputs": [],
			"stateMutability": "nonpayable",
			"type": "function"
		},
		{
			"inputs": [
				{
					"internalType": "uint256",
					"name": "tokenId",
					"type": "uint256"
				}
			],
			"name": "getApproved",
			"outputs": [
				{
					"internalType": "address",
					"name": "",
					"type": "address"
				}
			],
			"stateMutability": "view",
			"type": "function"
		},
		{
			"inputs": [
				{
					"internalType": "uint256",
					"name": "tokenId",
					"type": "uint256"
				}
			],
			"name": "getContributors",
			"outputs": [
				{
					"internalType": "address[]",
					"name": "",
					"type": "address[]"
				}
			],
			"stateMutability": "view",
			"type": "function"
		},
		{
			"inputs": [
				{
					"internalType": "address",
					"name": "owner",
					"type": "address"
				},
				{
					"internalType": "address",
					"name": "operator",
					"type": "address"
				}
			],
			"name": "isApprovedForAll",
			"outputs": [
				{
					"internalType": "bool",
					"name": "",
					"type": "bool"
				}
			],
			"stateMutability": "view",
			"type": "function"
		},
		{
			"inputs": [
				{
					"internalType": "address",
					"name": "_buyer",
					"type": "address"
				},
				{
					"internalType": "string",
					"name": "_metadataURI",
					"type": "string"
				},
				{
					"internalType": "address payable[]",
					"name": "_contributors",
					"type": "address[]"
				}
			],
			"name": "mintAndBuy",
			"outputs": [
				{
					"internalType": "uint256",
					"name": "",
					"type": "uint256"
				},
				{
					"internalType": "string",
					"name": "",
					"type": "string"
				}
			],
			"stateMutability": "payable",
			"type": "function"
		},
		{
			"inputs": [],
			"name": "mintPrice",
			"outputs": [
				{
					"internalType": "uint256",
					"name": "",
					"type": "uint256"
				}
			],
			"stateMutability": "view",
			"type": "function"
		},
		{
			"inputs": [],
			"name": "name",
			"outputs": [
				{
					"internalType": "string",
					"name": "",
					"type": "string"
				}
			],
			"stateMutability": "view",
			"type": "function"
		},
		{
			"inputs": [],
			"name": "owner",
			"outputs": [
				{
					"internalType": "address",
					"name": "",
					"type": "address"
				}
			],
			"stateMutability": "view",
			"type": "function"
		},
		{
			"inputs": [
				{
					"internalType": "uint256",
					"name": "tokenId",
					"type": "uint256"
				}
			],
			"name": "ownerOf",
			"outputs": [
				{
					"internalType": "address",
					"name": "",
					"type": "address"
				}
			],
			"stateMutability": "view",
			"type": "function"
		},
		{
			"inputs": [],
			"name": "renounceOwnership",
			"outputs": [],
			"stateMutability": "nonpayable",
			"type": "function"
		},
		{
			"inputs": [
				{
					"internalType": "address",
					"name": "from",
					"type": "address"
				},
				{
					"internalType": "address",
					"name": "to",
					"type": "address"
				},
				{
					"internalType": "uint256",
					"name": "tokenId",
					"type": "uint256"
				}
			],
			"name": "safeTransferFrom",
			"outputs": [],
			"stateMutability": "nonpayable",
			"type": "function"
		},
		{
			"inputs": [
				{
					"internalType": "address",
					"name": "from",
					"type": "address"
				},
				{
					"internalType": "address",
					"name": "to",
					"type": "address"
				},
				{
					"internalType": "uint256",
					"name": "tokenId",
					"type": "uint256"
				},
				{
					"internalType": "bytes",
					"name": "data",
					"type": "bytes"
				}
			],
			"name": "safeTransferFrom",
			"outputs": [],
			"stateMutability": "nonpayable",
			"type": "function"
		},
		{
			"inputs": [
				{
					"internalType": "address",
					"name": "operator",
					"type": "address"
				},
				{
					"internalType": "bool",
					"name": "approved",
					"type": "bool"
				}
			],
			"name": "setApprovalForAll",
			"outputs": [],
			"stateMutability": "nonpayable",
			"type": "function"
		},
		{
			"inputs": [
				{
					"internalType": "bytes4",
					"name": "interfaceId",
					"type": "bytes4"
				}
			],
			"name": "supportsInterface",
			"outputs": [
				{
					"internalType": "bool",
					"name": "",
					"type": "bool"
				}
			],
			"stateMutability": "view",
			"type": "function"
		},
		{
			"inputs": [],
			"name": "symbol",
			"outputs": [
				{
					"internalType": "string",
					"name": "",
					"type": "string"
				}
			],
			"stateMutability": "view",
			"type": "function"
		},
		{
			"inputs": [
				{
					"internalType": "uint256",
					"name": "",
					"type": "uint256"
				},
				{
					"internalType": "uint256",
					"name": "",
					"type": "uint256"
				}
			],
			"name": "tokenIdToContributors",
			"outputs": [
				{
					"internalType": "address",
					"name": "",
					"type": "address"
				}
			],
			"stateMutability": "view",
			"type": "function"
		},
		{
			"inputs": [
				{
					"internalType": "uint256",
					"name": "",
					"type": "uint256"
				}
			],
			"name": "tokenIdToPrice",
			"outputs": [
				{
					"internalType": "uint256",
					"name": "",
					"type": "uint256"
				}
			],
			"stateMutability": "view",
			"type": "function"
		},
		{
			"inputs": [
				{
					"internalType": "uint256",
					"name": "tokenId",
					"type": "uint256"
				}
			],
			"name": "tokenURI",
			"outputs": [
				{
					"internalType": "string",
					"name": "",
					"type": "string"
				}
			],
			"stateMutability": "view",
			"type": "function"
		},
		{
			"inputs": [
				{
					"internalType": "address",
					"name": "from",
					"type": "address"
				},
				{
					"internalType": "address",
					"name": "to",
					"type": "address"
				},
				{
					"internalType": "uint256",
					"name": "tokenId",
					"type": "uint256"
				}
			],
			"name": "transferFrom",
			"outputs": [],
			"stateMutability": "nonpayable",
			"type": "function"
		},
		{
			"inputs": [
				{
					"internalType": "address",
					"name": "newOwner",
					"type": "address"
				}
			],
			"name": "transferOwnership",
			"outputs": [],
			"stateMutability": "nonpayable",
			"type": "function"
		},
		{
			"inputs": [
				{
					"internalType": "string",
					"name": "_name",
					"type": "string"
				}
			],
			"name": "updateCollectionName",
			"outputs": [],
			"stateMutability": "nonpayable",
			"type": "function"
		}
	],
	"bytecode": "0x60c0604052601060808190526f4172626f7220417564696f204e46547360801b60a090815262000033916008919062000120565b503480156200004157600080fd5b50604080518082018252600a8152694172626f72417564696f60b01b60208083019182528351808501909452600584526420a92127a960d91b908401528151919291620000919160009162000120565b508051620000a790600190602084019062000120565b505050620000c4620000be620000ca60201b60201c565b620000ce565b62000203565b3390565b600680546001600160a01b038381166001600160a01b0319831681179093556040519116919082907f8be0079c531659141344cd1fd0a4f28419497f9722a3daafe3b4186f6b6457e090600090a35050565b8280546200012e90620001c6565b90600052602060002090601f0160209004810192826200015257600085556200019d565b82601f106200016d57805160ff19168380011785556200019d565b828001600101855582156200019d579182015b828111156200019d57825182559160200191906001019062000180565b50620001ab929150620001af565b5090565b5b80821115620001ab5760008155600101620001b0565b600181811c90821680620001db57607f821691505b60208210811415620001fd57634e487b7160e01b600052602260045260246000fd5b50919050565b6124e880620002136000396000f3fe60806040526004361061019c5760003560e01c8063a22cb465116100ec578063e5326ab11161008a578063ef9dad8d11610064578063ef9dad8d146104c2578063f0a76f06146104e2578063f2fde38b146104f5578063f4812eb91461051557600080fd5b8063e5326ab114610443578063e985e9c514610458578063eb753e47146104a157600080fd5b8063bbb5e8d3116100c6578063bbb5e8d3146103d0578063c87b56dd146103f0578063d499131214610410578063d96a094a1461043057600080fd5b8063a22cb46514610370578063aac0704a14610390578063b88d4fde146103b057600080fd5b806342842e0e1161015957806370a082311161013357806370a0823114610308578063715018a6146103285780638da5cb5b1461033d57806395d89b411461035b57600080fd5b806342842e0e1461029f5780636352211e146102bf5780636817c76c146102df57600080fd5b806301ffc9a7146101a157806306fdde03146101d6578063081812fc146101f8578063095ea7b31461023057806323b872dd146102525780633c1ab00f14610272575b600080fd5b3480156101ad57600080fd5b506101c16101bc366004612072565b610542565b60405190151581526020015b60405180910390f35b3480156101e257600080fd5b506101eb610594565b6040516101cd9190612227565b34801561020457600080fd5b506102186102133660046120ea565b610626565b6040516001600160a01b0390911681526020016101cd565b34801561023c57600080fd5b5061025061024b366004612060565b61064d565b005b34801561025e57600080fd5b5061025061026d366004611e6c565b610768565b34801561027e57600080fd5b5061029261028d3660046120ea565b610799565b6040516101cd91906121ab565b3480156102ab57600080fd5b506102506102ba366004611e6c565b610882565b3480156102cb57600080fd5b506102186102da3660046120ea565b61089d565b3480156102eb57600080fd5b506102fa662386f26fc1000081565b6040519081526020016101cd565b34801561031457600080fd5b506102fa610323366004611ded565b6108fd565b34801561033457600080fd5b50610250610983565b34801561034957600080fd5b506006546001600160a01b0316610218565b34801561036757600080fd5b506101eb610997565b34801561037c57600080fd5b5061025061038b366004611f85565b6109a6565b34801561039c57600080fd5b506102506103ab3660046120aa565b6109b5565b3480156103bc57600080fd5b506102506103cb366004611eac565b610a07565b3480156103dc57600080fd5b506102506103eb366004612102565b610a3f565b3480156103fc57600080fd5b506101eb61040b3660046120ea565b610b2f565b34801561041c57600080fd5b5061025061042b3660046120ea565b610c42565b61025061043e3660046120ea565b610cf3565b34801561044f57600080fd5b506101eb610f53565b34801561046457600080fd5b506101c1610473366004611e34565b6001600160a01b03918216600090815260056020908152604080832093909416825291909152205460ff1690565b6104b46104af366004611fb6565b610fe1565b6040516101cd92919061231e565b3480156104ce57600080fd5b506102186104dd366004612102565b61119c565b6102506104f0366004611e09565b6111d4565b34801561050157600080fd5b50610250610510366004611ded565b61143c565b34801561052157600080fd5b506102fa6105303660046120ea565b600b6020526000908152604090205481565b60006001600160e01b031982166380ac58cd60e01b148061057357506001600160e01b03198216635b5e139f60e01b145b8061058e57506301ffc9a760e01b6001600160e01b03198316145b92915050565b6060600080546105a390612405565b80601f01602080910402602001604051908101604052809291908181526020018280546105cf90612405565b801561061c5780601f106105f15761010080835404028352916020019161061c565b820191906000526020600020905b8154815290600101906020018083116105ff57829003601f168201915b5050505050905090565b6000610631826114b5565b506000908152600460205260409020546001600160a01b031690565b60006106588261089d565b9050806001600160a01b0316836001600160a01b031614156106cb5760405162461bcd60e51b815260206004820152602160248201527f4552433732313a20617070726f76616c20746f2063757272656e74206f776e656044820152603960f91b60648201526084015b60405180910390fd5b336001600160a01b03821614806106e757506106e78133610473565b6107595760405162461bcd60e51b815260206004820152603d60248201527f4552433732313a20617070726f76652063616c6c6572206973206e6f7420746f60448201527f6b656e206f776e6572206f7220617070726f76656420666f7220616c6c00000060648201526084016106c2565b6107638383611514565b505050565b6107723382611582565b61078e5760405162461bcd60e51b81526004016106c29061223a565b610763838383611601565b6000818152600260205260409020546060906001600160a01b03166108185760405162461bcd60e51b815260206004820152602f60248201527f4552433732313a20436f6e7472696275746f7220717565727920666f72206e6f60448201526e3732bc34b9ba32b73a103a37b5b2b760891b60648201526084016106c2565b6000828152600a60209081526040918290208054835181840281018401909452808452909183018282801561087657602002820191906000526020600020905b81546001600160a01b03168152600190910190602001808311610858575b50505050509050919050565b61076383838360405180602001604052806000815250610a07565b6000818152600260205260408120546001600160a01b03168061058e5760405162461bcd60e51b8152602060048201526018602482015277115490cdcc8c4e881a5b9d985b1a59081d1bdad95b88125160421b60448201526064016106c2565b60006001600160a01b0382166109675760405162461bcd60e51b815260206004820152602960248201527f4552433732313a2061646472657373207a65726f206973206e6f7420612076616044820152683634b21037bbb732b960b91b60648201526084016106c2565b506001600160a01b031660009081526003602052604090205490565b61098b611772565b61099560006117cc565b565b6060600180546105a390612405565b6109b133838361181e565b5050565b6109bd611772565b6109c960088383611cba565b507f749b12147f7d973e04e6ebeac5a489b90a25371b87897f089b9bf3390746fdc882826040516109fb9291906121f8565b60405180910390a15050565b610a113383611582565b610a2d5760405162461bcd60e51b81526004016106c29061223a565b610a39848484846118ed565b50505050565b610a488261089d565b6001600160a01b0316336001600160a01b031614610aa25760405162461bcd60e51b81526020600482015260176024820152762737ba1037bbb732b91037b3103a3434b9903a37b5b2b760491b60448201526064016106c2565b60008111610adf5760405162461bcd60e51b815260206004820152600a6024820152695072696365207a65726f60b01b60448201526064016106c2565b6000828152600b602090815260409182902083905581513381529081018490529081018290527fd8e0b128fee17f55fcc09b80146a7c91a1aa841f3dfbb2171e6fff11f71a9ab0906060016109fb565b6000818152600260205260409020546060906001600160a01b0316610bae5760405162461bcd60e51b815260206004820152602f60248201527f4552433732314d657461646174613a2055524920717565727920666f72206e6f60448201526e3732bc34b9ba32b73a103a37b5b2b760891b60648201526084016106c2565b60008281526009602052604090208054610bc790612405565b80601f0160208091040260200160405190810160405280929190818152602001828054610bf390612405565b80156108765780601f10610c1557610100808354040283529160200191610876565b820191906000526020600020905b815481529060010190602001808311610c235750939695505050505050565b610c4b8161089d565b6001600160a01b0316336001600160a01b031614610ca55760405162461bcd60e51b81526020600482015260176024820152762737ba1037bbb732b91037b3103a3434b9903a37b5b2b760491b60448201526064016106c2565b6000818152600b602090815260408083209290925581513381529081018390527ff6b8277a836e8d69e173c05c5da9a781f0c1065dd5ff6a2fbdc995978e3631ea910160405180910390a150565b6000818152600b602052604090205480610d4f5760405162461bcd60e51b815260206004820152601a60248201527f5468697320746f6b656e206973206e6f7420666f722073616c6500000000000060448201526064016106c2565b6000610d5a8361089d565b9050610d663384611514565b610d71813385610882565b6000610d7e34600a611920565b90506000610d986009610d9234600a611920565b90611933565b6000868152600a602052604081209192505b8154811015610e3d576000828281548110610dd557634e487b7160e01b600052603260045260246000fd5b60009182526020909120015483546001600160a01b03909116915081906108fc90610e0090886123af565b6040518115909202916000818181858888f19350505050158015610e28573d6000803e3d6000fd5b50508080610e3590612440565b915050610daa565b506040516001600160a01b0385169083156108fc029084906000818181858888f19350505050158015610e74573d6000803e3d6000fd5b506000868152600b602090815260408083209290925581518881526001600160a01b03871691810191909152338183015234606082015290517f5837dc3eeed2d2b1d75de7e85c87404936759686b473d2cbc06bc59f96060cff9181900360800190a160408051878152602081018490527fc90e2b5bf9e462d07d9c1fc5201c35bb5dc9dd94df8124b2a19a8f98d64ccdb1910160405180910390a17fad6f7101d3f53815713d2dd1e65366de1f3db3cf8f9a2d9a9a8119a1bd2b6407868483604051610f4393929190612337565b60405180910390a1505050505050565b60088054610f6090612405565b80601f0160208091040260200160405190810160405280929190818152602001828054610f8c90612405565b8015610fd95780601f10610fae57610100808354040283529160200191610fd9565b820191906000526020600020905b815481529060010190602001808311610fbc57829003601f168201915b505050505081565b60006060662386f26fc1000034101561104b5760405162461bcd60e51b815260206004820152602660248201527f53656e742065746865722076616c7565206973206e6f7420656e6f75676820746044820152651bc81b5a5b9d60d21b60648201526084016106c2565b611059600780546001019055565b600061106460075490565b6000818152600960205260409020909150611080908888611cba565b506000818152600a6020526040902061109a908686611d3e565b506110a5888261193f565b6110af8882611514565b60005b848110156111475760008686838181106110dc57634e487b7160e01b600052603260045260246000fd5b90506020020160208101906110f19190611ded565b90506001600160a01b0381166108fc61110a88346123af565b6040518115909202916000818181858888f19350505050158015611132573d6000803e3d6000fd5b5050808061113f90612440565b9150506110b2565b50600061115382610b2f565b90507f5d3ac5872118b949a1f8db596134a0e1587ecf18f2203bb1e3ea420c3c3f8fa9828260405161118692919061231e565b60405180910390a1909890975095505050505050565b600a60205281600052604060002081815481106111b857600080fd5b6000918252602090912001546001600160a01b03169150829050565b6000818152600b6020526040902054806112305760405162461bcd60e51b815260206004820152601a60248201527f5468697320746f6b656e206973206e6f7420666f722073616c6500000000000060448201526064016106c2565b600061123b8361089d565b90506112478484611514565b611252818585610882565b600061125f34600a611920565b905060006112736009610d9234600a611920565b6000868152600a602052604081209192505b81548110156113185760008282815481106112b057634e487b7160e01b600052603260045260246000fd5b60009182526020909120015483546001600160a01b03909116915081906108fc906112db90886123af565b6040518115909202916000818181858888f19350505050158015611303573d6000803e3d6000fd5b5050808061131090612440565b915050611285565b506040516001600160a01b0385169083156108fc029084906000818181858888f1935050505015801561134f573d6000803e3d6000fd5b506000868152600b602052604080822091909155517f5837dc3eeed2d2b1d75de7e85c87404936759686b473d2cbc06bc59f96060cff906113b790889087908b9034909384526001600160a01b03928316602085015291166040830152606082015260800190565b60405180910390a160408051878152602081018490527fc90e2b5bf9e462d07d9c1fc5201c35bb5dc9dd94df8124b2a19a8f98d64ccdb1910160405180910390a17fad6f7101d3f53815713d2dd1e65366de1f3db3cf8f9a2d9a9a8119a1bd2b640786848360405161142b93929190612337565b60405180910390a150505050505050565b611444611772565b6001600160a01b0381166114a95760405162461bcd60e51b815260206004820152602660248201527f4f776e61626c653a206e6577206f776e657220697320746865207a65726f206160448201526564647265737360d01b60648201526084016106c2565b6114b2816117cc565b50565b6000818152600260205260409020546001600160a01b03166114b25760405162461bcd60e51b8152602060048201526018602482015277115490cdcc8c4e881a5b9d985b1a59081d1bdad95b88125160421b60448201526064016106c2565b600081815260046020526040902080546001600160a01b0319166001600160a01b03841690811790915581906115498261089d565b6001600160a01b03167f8c5be1e5ebec7d5bd14f71427d1e84f3dd0314c0f7b2291e5b200ac8c7c3b92560405160405180910390a45050565b60008061158e8361089d565b9050806001600160a01b0316846001600160a01b031614806115d557506001600160a01b0380821660009081526005602090815260408083209388168352929052205460ff165b806115f95750836001600160a01b03166115ee84610626565b6001600160a01b0316145b949350505050565b826001600160a01b03166116148261089d565b6001600160a01b03161461163a5760405162461bcd60e51b81526004016106c2906122d9565b6001600160a01b03821661169c5760405162461bcd60e51b8152602060048201526024808201527f4552433732313a207472616e7366657220746f20746865207a65726f206164646044820152637265737360e01b60648201526084016106c2565b6116a98383836001611959565b826001600160a01b03166116bc8261089d565b6001600160a01b0316146116e25760405162461bcd60e51b81526004016106c2906122d9565b600081815260046020908152604080832080546001600160a01b03199081169091556001600160a01b0387811680865260038552838620805460001901905590871680865283862080546001019055868652600290945282852080549092168417909155905184937fddf252ad1be2c89b69c2b068fc378daa952ba7f163c4a11628f55a4df523b3ef91a4505050565b6006546001600160a01b031633146109955760405162461bcd60e51b815260206004820181905260248201527f4f776e61626c653a2063616c6c6572206973206e6f7420746865206f776e657260448201526064016106c2565b600680546001600160a01b038381166001600160a01b0319831681179093556040519116919082907f8be0079c531659141344cd1fd0a4f28419497f9722a3daafe3b4186f6b6457e090600090a35050565b816001600160a01b0316836001600160a01b031614156118805760405162461bcd60e51b815260206004820152601960248201527f4552433732313a20617070726f766520746f2063616c6c65720000000000000060448201526064016106c2565b6001600160a01b03838116600081815260056020908152604080832094871680845294825291829020805460ff191686151590811790915591519182527f17307eab39ab6107e8899845ad3d59bd9653f200f220920489ca2b5937696c31910160405180910390a3505050565b6118f8848484611601565b611904848484846119e1565b610a395760405162461bcd60e51b81526004016106c290612287565b600061192c82846123af565b9392505050565b600061192c82846123cf565b6109b1828260405180602001604052806000815250611aee565b6001811115610a39576001600160a01b0384161561199f576001600160a01b038416600090815260036020526040812080548392906119999084906123ee565b90915550505b6001600160a01b03831615610a39576001600160a01b038316600090815260036020526040812080548392906119d6908490612397565b909155505050505050565b60006001600160a01b0384163b15611ae357604051630a85bd0160e11b81526001600160a01b0385169063150b7a0290611a2590339089908890889060040161216e565b602060405180830381600087803b158015611a3f57600080fd5b505af1925050508015611a6f575060408051601f3d908101601f19168201909252611a6c9181019061208e565b60015b611ac9573d808015611a9d576040519150601f19603f3d011682016040523d82523d6000602084013e611aa2565b606091505b508051611ac15760405162461bcd60e51b81526004016106c290612287565b805181602001fd5b6001600160e01b031916630a85bd0160e11b1490506115f9565b506001949350505050565b611af88383611b21565b611b0560008484846119e1565b6107635760405162461bcd60e51b81526004016106c290612287565b6001600160a01b038216611b775760405162461bcd60e51b815260206004820181905260248201527f4552433732313a206d696e7420746f20746865207a65726f206164647265737360448201526064016106c2565b6000818152600260205260409020546001600160a01b031615611bdc5760405162461bcd60e51b815260206004820152601c60248201527f4552433732313a20746f6b656e20616c7265616479206d696e7465640000000060448201526064016106c2565b611bea600083836001611959565b6000818152600260205260409020546001600160a01b031615611c4f5760405162461bcd60e51b815260206004820152601c60248201527f4552433732313a20746f6b656e20616c7265616479206d696e7465640000000060448201526064016106c2565b6001600160a01b038216600081815260036020908152604080832080546001019055848352600290915280822080546001600160a01b0319168417905551839291907fddf252ad1be2c89b69c2b068fc378daa952ba7f163c4a11628f55a4df523b3ef908290a45050565b828054611cc690612405565b90600052602060002090601f016020900481019282611ce85760008555611d2e565b82601f10611d015782800160ff19823516178555611d2e565b82800160010185558215611d2e579182015b82811115611d2e578235825591602001919060010190611d13565b50611d3a929150611d91565b5090565b828054828255906000526020600020908101928215611d2e579160200282015b82811115611d2e5781546001600160a01b0319166001600160a01b03843516178255602090920191600190910190611d5e565b5b80821115611d3a5760008155600101611d92565b60008083601f840112611db7578182fd5b50813567ffffffffffffffff811115611dce578182fd5b602083019150836020828501011115611de657600080fd5b9250929050565b600060208284031215611dfe578081fd5b813561192c81612487565b60008060408385031215611e1b578081fd5b8235611e2681612487565b946020939093013593505050565b60008060408385031215611e46578182fd5b8235611e5181612487565b91506020830135611e6181612487565b809150509250929050565b600080600060608486031215611e80578081fd5b8335611e8b81612487565b92506020840135611e9b81612487565b929592945050506040919091013590565b60008060008060808587031215611ec1578081fd5b8435611ecc81612487565b93506020850135611edc81612487565b925060408501359150606085013567ffffffffffffffff80821115611eff578283fd5b818701915087601f830112611f12578283fd5b813581811115611f2457611f24612471565b604051601f8201601f19908116603f01168101908382118183101715611f4c57611f4c612471565b816040528281528a6020848701011115611f64578586fd5b82602086016020830137918201602001949094529598949750929550505050565b60008060408385031215611f97578182fd5b8235611fa281612487565b915060208301358015158114611e61578182fd5b600080600080600060608688031215611fcd578081fd5b8535611fd881612487565b9450602086013567ffffffffffffffff80821115611ff4578283fd5b61200089838a01611da6565b90965094506040880135915080821115612018578283fd5b818801915088601f83011261202b578283fd5b813581811115612039578384fd5b8960208260051b850101111561204d578384fd5b9699959850939650602001949392505050565b60008060408385031215611e1b578182fd5b600060208284031215612083578081fd5b813561192c8161249c565b60006020828403121561209f578081fd5b815161192c8161249c565b600080602083850312156120bc578182fd5b823567ffffffffffffffff8111156120d2578283fd5b6120de85828601611da6565b90969095509350505050565b6000602082840312156120fb578081fd5b5035919050565b60008060408385031215612114578182fd5b50508035926020909101359150565b60008151808452815b818110156121485760208185018101518683018201520161212c565b818111156121595782602083870101525b50601f01601f19169290920160200192915050565b6001600160a01b03858116825284166020820152604081018390526080606082018190526000906121a190830184612123565b9695505050505050565b6020808252825182820181905260009190848201906040850190845b818110156121ec5783516001600160a01b0316835292840192918401916001016121c7565b50909695505050505050565b60208152816020820152818360408301376000818301604090810191909152601f909201601f19160101919050565b60208152600061192c6020830184612123565b6020808252602d908201527f4552433732313a2063616c6c6572206973206e6f7420746f6b656e206f776e6560408201526c1c881bdc88185c1c1c9bdd9959609a1b606082015260800190565b60208082526032908201527f4552433732313a207472616e7366657220746f206e6f6e20455243373231526560408201527131b2b4bb32b91034b6b83632b6b2b73a32b960711b606082015260800190565b60208082526025908201527f4552433732313a207472616e736665722066726f6d20696e636f72726563742060408201526437bbb732b960d91b606082015260800190565b8281526040602082015260006115f96040830184612123565b60006060820185835260208581850152606060408501528185548084526080860191508685528285209350845b818110156123895784546001600160a01b031683526001948501949284019201612364565b509098975050505050505050565b600082198211156123aa576123aa61245b565b500190565b6000826123ca57634e487b7160e01b81526012600452602481fd5b500490565b60008160001904831182151516156123e9576123e961245b565b500290565b6000828210156124005761240061245b565b500390565b600181811c9082168061241957607f821691505b6020821081141561243a57634e487b7160e01b600052602260045260246000fd5b50919050565b60006000198214156124545761245461245b565b5060010190565b634e487b7160e01b600052601160045260246000fd5b634e487b7160e01b600052604160045260246000fd5b6001600160a01b03811681146114b257600080fd5b6001600160e01b0319811681146114b257600080fdfea2646970667358221220b6f7c660f47d223288391d6dbc612e20f352ff0ee07b99c253778b6c2e0a5eaf64736f6c63430008040033",
	"linkReferences": {},
	"deployedLinkReferences": {}
}