{
	"_format": "hh-sol-artifact-1",
	"contractName": "BlindAuction",
	"sourceName": "contracts/BlindAuction.sol",
	"abi": [
		{
			"inputs": [],
			"name": "AuctionEndAlreadyCalled",
			"type": "error"
		},
		{
			"inputs": [],
			"name": "OnlyAuctioneer",
			"type": "error"
		},
		{
			"inputs": [],
			"name": "OnlyWinner",
			"type": "error"
		},
		{
			"inputs": [
				{
					"internalType": "uint256",
					"name": "time",
					"type": "uint256"
				}
			],
			"name": "TooEarly",
			"type": "error"
		},
		{
			"inputs": [
				{
					"internalType": "uint256",
					"name": "time",
					"type": "uint256"
				}
			],
			"name": "TooLate",
			"type": "error"
		},
		{
			"anonymous": false,
			"inputs": [
				{
					"indexed": false,
					"internalType": "address",
					"name": "winner",
					"type": "address"
				},
				{
					"indexed": false,
					"internalType": "uint256",
					"name": "highestBid",
					"type": "uint256"
				}
			],
			"name": "AuctionEnded",
			"type": "event"
		},
		{
			"anonymous": false,
			"inputs": [
				{
					"indexed": false,
					"internalType": "uint8",
					"name": "version",
					"type": "uint8"
				}
			],
			"name": "Initialized",
			"type": "event"
		},
		{
			"anonymous": false,
			"inputs": [
				{
					"indexed": false,
					"internalType": "address",
					"name": "highestBidder",
					"type": "address"
				}
			],
			"name": "WinnerPaid",
			"type": "event"
		},
		{
			"inputs": [],
			"name": "DEPOSIT_AMOUNT",
			"outputs": [
				{
					"internalType": "uint256",
					"name": "",
					"type": "uint256"
				}
			],
			"stateMutability": "view",
			"type": "function"
		},
		{
			"inputs": [],
			"name": "MAX_BIDS",
			"outputs": [
				{
					"internalType": "uint8",
					"name": "",
					"type": "uint8"
				}
			],
			"stateMutability": "view",
			"type": "function"
		},
		{
			"inputs": [],
			"name": "THREE_DAYS",
			"outputs": [
				{
					"internalType": "uint256",
					"name": "",
					"type": "uint256"
				}
			],
			"stateMutability": "view",
			"type": "function"
		},
		{
			"inputs": [
				{
					"internalType": "uint256",
					"name": "",
					"type": "uint256"
				}
			],
			"name": "amounts",
			"outputs": [
				{
					"internalType": "string",
					"name": "",
					"type": "string"
				}
			],
			"stateMutability": "view",
			"type": "function"
		},
		{
			"inputs": [],
			"name": "auctionEnd",
			"outputs": [],
			"stateMutability": "nonpayable",
			"type": "function"
		},
		{
			"inputs": [],
			"name": "auctioneer",
			"outputs": [
				{
					"internalType": "address",
					"name": "",
					"type": "address"
				}
			],
			"stateMutability": "view",
			"type": "function"
		},
		{
			"inputs": [],
			"name": "beneficiary",
			"outputs": [
				{
					"internalType": "address payable",
					"name": "",
					"type": "address"
				}
			],
			"stateMutability": "view",
			"type": "function"
		},
		{
			"inputs": [
				{
					"internalType": "bytes32",
					"name": "blindedBid",
					"type": "bytes32"
				}
			],
			"name": "bid",
			"outputs": [],
			"stateMutability": "payable",
			"type": "function"
		},
		{
			"inputs": [
				{
					"internalType": "bytes32",
					"name": "blindedBid",
					"type": "bytes32"
				},
				{
					"internalType": "string",
					"name": "amount",
					"type": "string"
				},
				{
					"internalType": "string",
					"name": "secret",
					"type": "string"
				}
			],
			"name": "bidDev",
			"outputs": [],
			"stateMutability": "payable",
			"type": "function"
		},
		{
			"inputs": [],
			"name": "biddingEnd",
			"outputs": [
				{
					"internalType": "uint256",
					"name": "",
					"type": "uint256"
				}
			],
			"stateMutability": "view",
			"type": "function"
		},
		{
			"inputs": [
				{
					"internalType": "uint256",
					"name": "",
					"type": "uint256"
				}
			],
			"name": "bids",
			"outputs": [
				{
					"internalType": "bytes32",
					"name": "",
					"type": "bytes32"
				}
			],
			"stateMutability": "view",
			"type": "function"
		},
		{
			"inputs": [
				{
					"internalType": "address",
					"name": "",
					"type": "address"
				}
			],
			"name": "deposits",
			"outputs": [
				{
					"internalType": "uint256",
					"name": "",
					"type": "uint256"
				}
			],
			"stateMutability": "view",
			"type": "function"
		},
		{
			"inputs": [],
			"name": "ended",
			"outputs": [
				{
					"internalType": "bool",
					"name": "",
					"type": "bool"
				}
			],
			"stateMutability": "view",
			"type": "function"
		},
		{
			"inputs": [],
			"name": "getBids",
			"outputs": [
				{
					"internalType": "bytes32[]",
					"name": "",
					"type": "bytes32[]"
				}
			],
			"stateMutability": "view",
			"type": "function"
		},
		{
			"inputs": [],
			"name": "getBidsDev",
			"outputs": [
				{
					"internalType": "bytes32[]",
					"name": "",
					"type": "bytes32[]"
				},
				{
					"internalType": "string[]",
					"name": "",
					"type": "string[]"
				},
				{
					"internalType": "string[]",
					"name": "",
					"type": "string[]"
				}
			],
			"stateMutability": "view",
			"type": "function"
		},
		{
			"inputs": [],
			"name": "getData",
			"outputs": [
				{
					"internalType": "address",
					"name": "",
					"type": "address"
				},
				{
					"internalType": "address",
					"name": "",
					"type": "address"
				},
				{
					"internalType": "address",
					"name": "",
					"type": "address"
				},
				{
					"internalType": "uint256",
					"name": "",
					"type": "uint256"
				}
			],
			"stateMutability": "view",
			"type": "function"
		},
		{
			"inputs": [
				{
					"internalType": "uint256[2]",
					"name": "a",
					"type": "uint256[2]"
				},
				{
					"internalType": "uint256[2][2]",
					"name": "b",
					"type": "uint256[2][2]"
				},
				{
					"internalType": "uint256[2]",
					"name": "c",
					"type": "uint256[2]"
				},
				{
					"internalType": "uint256[10]",
					"name": "input",
					"type": "uint256[10]"
				}
			],
			"name": "getHighestBidder",
			"outputs": [],
			"stateMutability": "nonpayable",
			"type": "function"
		},
		{
			"inputs": [
				{
					"internalType": "uint256[2]",
					"name": "a",
					"type": "uint256[2]"
				},
				{
					"internalType": "uint256[2][2]",
					"name": "b",
					"type": "uint256[2][2]"
				},
				{
					"internalType": "uint256[2]",
					"name": "c",
					"type": "uint256[2]"
				},
				{
					"internalType": "uint256[10]",
					"name": "input",
					"type": "uint256[10]"
				}
			],
			"name": "getHighestBidderDev",
			"outputs": [],
			"stateMutability": "nonpayable",
			"type": "function"
		},
		{
			"inputs": [
				{
					"internalType": "bytes32",
					"name": "",
					"type": "bytes32"
				}
			],
			"name": "hashedBidsToBidders",
			"outputs": [
				{
					"internalType": "address",
					"name": "",
					"type": "address"
				}
			],
			"stateMutability": "view",
			"type": "function"
		},
		{
			"inputs": [],
			"name": "highestBid",
			"outputs": [
				{
					"internalType": "uint256",
					"name": "",
					"type": "uint256"
				}
			],
			"stateMutability": "view",
			"type": "function"
		},
		{
			"inputs": [],
			"name": "highestBidder",
			"outputs": [
				{
					"internalType": "address",
					"name": "",
					"type": "address"
				}
			],
			"stateMutability": "view",
			"type": "function"
		},
		{
			"inputs": [
				{
					"internalType": "address",
					"name": "_auctioneer",
					"type": "address"
				},
				{
					"internalType": "address",
					"name": "_verifierAddress",
					"type": "address"
				},
				{
					"internalType": "uint256",
					"name": "_biddingTime",
					"type": "uint256"
				},
				{
					"internalType": "uint256",
					"name": "_revealTime",
					"type": "uint256"
				},
				{
					"internalType": "address payable",
					"name": "_beneficiaryAddress",
					"type": "address"
				},
				{
					"internalType": "address payable",
					"name": "_nft",
					"type": "address"
				}
			],
			"name": "initialize",
			"outputs": [],
			"stateMutability": "nonpayable",
			"type": "function"
		},
		{
			"inputs": [],
			"name": "nft",
			"outputs": [
				{
					"internalType": "address payable",
					"name": "",
					"type": "address"
				}
			],
			"stateMutability": "view",
			"type": "function"
		},
		{
			"inputs": [],
			"name": "paymentEnd",
			"outputs": [
				{
					"internalType": "uint256",
					"name": "",
					"type": "uint256"
				}
			],
			"stateMutability": "view",
			"type": "function"
		},
		{
			"inputs": [],
			"name": "revealEnd",
			"outputs": [
				{
					"internalType": "uint256",
					"name": "",
					"type": "uint256"
				}
			],
			"stateMutability": "view",
			"type": "function"
		},
		{
			"inputs": [
				{
					"internalType": "uint256",
					"name": "",
					"type": "uint256"
				}
			],
			"name": "secrets",
			"outputs": [
				{
					"internalType": "string",
					"name": "",
					"type": "string"
				}
			],
			"stateMutability": "view",
			"type": "function"
		},
		{
			"inputs": [],
			"name": "verifierContractAddress",
			"outputs": [
				{
					"internalType": "address",
					"name": "",
					"type": "address"
				}
			],
			"stateMutability": "view",
			"type": "function"
		},
		{
			"inputs": [
				{
					"internalType": "uint256[2]",
					"name": "a",
					"type": "uint256[2]"
				},
				{
					"internalType": "uint256[2][2]",
					"name": "b",
					"type": "uint256[2][2]"
				},
				{
					"internalType": "uint256[2]",
					"name": "c",
					"type": "uint256[2]"
				},
				{
					"internalType": "uint256[10]",
					"name": "input",
					"type": "uint256[10]"
				}
			],
			"name": "verifyProof",
			"outputs": [
				{
					"internalType": "bool",
					"name": "",
					"type": "bool"
				}
			],
			"stateMutability": "view",
			"type": "function"
		},
		{
			"inputs": [],
			"name": "winnerPaid",
			"outputs": [
				{
					"internalType": "bool",
					"name": "",
					"type": "bool"
				}
			],
			"stateMutability": "view",
			"type": "function"
		},
		{
			"inputs": [],
			"name": "winnerPay",
			"outputs": [],
			"stateMutability": "payable",
			"type": "function"
		}
	],
	"bytecode": "0x608060405234801561001057600080fd5b50611e84806100206000396000f3fe6080604052600436106101cd5760003560e01c8063957bb1e0116100f7578063d5d5f8e111610095578063f38780e211610064578063f38780e214610554578063f3bb70f614610573578063f588b15714610593578063fc7e286d146105b357600080fd5b8063d5d5f8e1146104d1578063dc311ff3146104f8578063de9702a414610518578063ec6925a71461053857600080fd5b8063be4e694e116100d1578063be4e694e14610464578063cdd7e77b1461047b578063d2d101621461049b578063d57bde79146104bb57600080fd5b8063957bb1e014610419578063a6e664771461042c578063b81c78ec1461044257600080fd5b806345f0a44f1161016f5780635ec2c7bf1161013e5780635ec2c7bf146103ad5780636ae8483b146103cd5780638ce1a5d0146103f157806391f90157146103f957600080fd5b806345f0a44f1461031157806347ccca021461033e5780634c3188e8146103645780635a8363471461037757600080fd5b806338af3eed116101ab57806338af3eed1461023c5780633bc5de3014610274578063423b217f146102db5780634423c5f1146102f157600080fd5b806312fa6feb146101d25780632a24f46c146102015780633137328514610218575b600080fd5b3480156101de57600080fd5b506007546101ec9060ff1681565b60405190151581526020015b60405180910390f35b34801561020d57600080fd5b506102166105e0565b005b34801561022457600080fd5b5061022e60065481565b6040519081526020016101f8565b34801561024857600080fd5b5060025461025c906001600160a01b031681565b6040516001600160a01b0390911681526020016101f8565b34801561028057600080fd5b506102a6600254600354600d54600e546001600160a01b03938416949284169390911691565b6040516101f894939291906001600160a01b039485168152928416602084015292166040820152606081019190915260800190565b3480156102e757600080fd5b5061022e60045481565b3480156102fd57600080fd5b5061022e61030c366004611a34565b610757565b34801561031d57600080fd5b5061033161032c366004611a34565b610778565b6040516101f89190611c9c565b34801561034a57600080fd5b5060005461025c906201000090046001600160a01b031681565b610216610372366004611a4c565b610824565b34801561038357600080fd5b5061025c610392366004611a34565b600b602052600090815260409020546001600160a01b031681565b3480156103b957600080fd5b5060035461025c906001600160a01b031681565b3480156103d957600080fd5b506103e26109f7565b6040516101f893929190611bd5565b610216610c3b565b34801561040557600080fd5b50600d5461025c906001600160a01b031681565b610216610427366004611a34565b610d4b565b34801561043857600080fd5b5061022e60055481565b34801561044e57600080fd5b50610457610e9b565b6040516101f89190611bc2565b34801561047057600080fd5b5061022e6203f48081565b34801561048757600080fd5b5061021661049636600461192a565b610f1b565b3480156104a757600080fd5b506102166104b63660046118bb565b611212565b3480156104c757600080fd5b5061022e600e5481565b3480156104dd57600080fd5b506104e6600481565b60405160ff90911681526020016101f8565b34801561050457600080fd5b5061021661051336600461192a565b6113b0565b34801561052457600080fd5b50610331610533366004611a34565b61169f565b34801561054457600080fd5b5061022e670de0b6b3a764000081565b34801561056057600080fd5b506007546101ec90610100900460ff1681565b34801561057f57600080fd5b506101ec61058e36600461192a565b6116af565b34801561059f57600080fd5b5060015461025c906001600160a01b031681565b3480156105bf57600080fd5b5061022e6105ce366004611898565b600a6020526000908152604090205481565b60065480421161060b57604051630a8d68c960e21b8152600481018290526024015b60405180910390fd5b6003546001600160a01b031633146106365760405163484218e160e01b815260040160405180910390fd5b60075460ff161561065a57604051630c39fb9f60e31b815260040160405180910390fd5b600d54600e54604080516001600160a01b03909316835260208301919091527fdaec4582d5d9595688c8c98545fdd1c696d41c6aeaeb636737e84ed2f5c00eda910160405180910390a16007805460ff191660019081179182905561010090910460ff161515141561070657600254600e546040516001600160a01b039092169181156108fc0291906000818181858888f19350505050158015610702573d6000803e3d6000fd5b5050565b600254600d546001600160a01b039081166000908152600a6020526040808220549051929093169280156108fc02929091818181858888f19350505050158015610702573d6000803e3d6000fd5b50565b600c818154811061076757600080fd5b600091825260209091200154905081565b6008818154811061078857600080fd5b9060005260206000200160009150905080546107a390611de8565b80601f01602080910402602001604051908101604052809291908181526020018280546107cf90611de8565b801561081c5780601f106107f15761010080835404028352916020019161081c565b820191906000526020600020905b8154815290600101906020018083116107ff57829003601f168201915b505050505081565b600c546004116108695760405162461bcd60e51b815260206004820152601060248201526f1b585e08189a591cc81c995858da195960821b6044820152606401610602565b670de0b6b3a764000034146108ba5760405162461bcd60e51b81526020600482015260176024820152763232b837b9b4ba1036bab9ba10313290189032ba3432b960491b6044820152606401610602565b336000908152600a6020526040902054156109125760405162461bcd60e51b81526020600482015260186024820152776f6e6c79206f6e652062696420706572206164647265737360401b6044820152606401610602565b336000818152600a60209081526040808320349055888352600b909152812080546001600160a01b03191690921790915560088054600181018255915261097c907ff3f7a9fe364faab93b216da50a3214154f22a0a2b415b23a84c8169e8b636ee301858561176c565b50600980546001810182556000919091526109ba907f6e1540171b6c0c960b71a7020d9f60077f6af931a8bbf590da0223dacf75c7af01838361176c565b5050600c80546001810182556000919091527fdf6966c971051c3d54ec59162606531493a51404a002842f56009d7e5cf4a8c70193909355505050565b6060806060600454804211610a2257604051630a8d68c960e21b815260048101829052602401610602565b600854600414610a3157600080fd5b600c6008600982805480602002602001604051908101604052809291908181526020018280548015610a8257602002820191906000526020600020905b815481526020019060010190808311610a6e575b5050505050925081805480602002602001604051908101604052809291908181526020016000905b82821015610b56578382906000526020600020018054610ac990611de8565b80601f0160208091040260200160405190810160405280929190818152602001828054610af590611de8565b8015610b425780601f10610b1757610100808354040283529160200191610b42565b820191906000526020600020905b815481529060010190602001808311610b2557829003601f168201915b505050505081526020019060010190610aaa565b50505050915080805480602002602001604051908101604052809291908181526020016000905b82821015610c29578382906000526020600020018054610b9c90611de8565b80601f0160208091040260200160405190810160405280929190818152602001828054610bc890611de8565b8015610c155780601f10610bea57610100808354040283529160200191610c15565b820191906000526020600020905b815481529060010190602001808311610bf857829003601f168201915b505050505081526020019060010190610b7d565b50505050905093509350935050909192565b600554804211610c6157604051630a8d68c960e21b815260048101829052602401610602565b600d546001600160a01b03163314610c8c5760405163760576b960e01b815260040160405180910390fd5b600d546001600160a01b03166000908152600a6020526040902054600e54610cb49190611dd1565b3414610cf95760405162461bcd60e51b81526020600482015260146024820152731a5b9cdd59999a58da595b9d081c185e5b595b9d60621b6044820152606401610602565b6007805461ff001916610100179055600d546040516001600160a01b0390911681527f64014c1a2c6becea8e4509cf23cceabaf8a80dc774aaf936a72be51a68b40d519060200160405180910390a150565b600c54600411610d905760405162461bcd60e51b815260206004820152601060248201526f1b585e08189a591cc81c995858da195960821b6044820152606401610602565b670de0b6b3a76400003414610de15760405162461bcd60e51b81526020600482015260176024820152763232b837b9b4ba1036bab9ba10313290189032ba3432b960491b6044820152606401610602565b336000908152600a602052604090205415610e395760405162461bcd60e51b81526020600482015260186024820152776f6e6c79206f6e652062696420706572206164647265737360401b6044820152606401610602565b336000818152600a60209081526040808320349055848352600b909152812080546001600160a01b031916909217909155600c805460018101825591527fdf6966c971051c3d54ec59162606531493a51404a002842f56009d7e5cf4a8c70155565b6060600454804211610ec357604051630a8d68c960e21b815260048101829052602401610602565b600c805480602002602001604051908101604052809291908181526020018280548015610f0f57602002820191906000526020600020905b815481526020019060010190808311610efb575b505050505091505b5090565b6003546001600160a01b03163314610f465760405163484218e160e01b815260040160405180910390fd5b600c5460005b8160ff168160ff161015610fed57600c8160ff1681548110610f7e57634e487b7160e01b600052603260045260246000fd5b90600052602060002001548383836002610f989190611d8d565b610fa29190611d8d565b60ff16600a8110610fc357634e487b7160e01b600052603260045260246000fd5b602002015114610fe55760405162461bcd60e51b815260040161060290611caf565b600101610f4c565b50600d546001600160a01b0316156110435760405162461bcd60e51b8152602060048201526019602482015278189a591cc81dd95c9948185b1c9958591e481d185b1b1a5959603a1b6044820152606401610602565b61104f858585856116af565b15156001146110955760405162461bcd60e51b81526020600482015260126024820152711c1c9bdbd9881a5cc81b9bdd081d985b1a5960721b6044820152606401610602565b81516110a990670de0b6b3a7640000611db2565b600e556020828101516000908152600b9091526040902054600d80546001600160a01b0319166001600160a01b0390921691909117905560025b6110f160ff8316600a611dd1565b8160ff16101561120a576000600b818561110b8686611d8d565b60ff16600a811061112c57634e487b7160e01b600052603260045260246000fd5b6020908102919091015182528181019290925260409081016000908120546001600160a01b0316808252600a90935220549091501580159061117c5750600d546001600160a01b03828116911614155b80156111af5750838260ff16600a81106111a657634e487b7160e01b600052603260045260246000fd5b60200201516001145b15611201576001600160a01b0381166000818152600a6020526040808220805490839055905190929183156108fc02918491818181858888f193505050501580156111fe573d6000803e3d6000fd5b50505b506001016110e3565b505050505050565b600054610100900460ff16158080156112325750600054600160ff909116105b8061124c5750303b15801561124c575060005460ff166001145b6112af5760405162461bcd60e51b815260206004820152602e60248201527f496e697469616c697a61626c653a20636f6e747261637420697320616c72656160448201526d191e481a5b9a5d1a585b1a5e995960921b6064820152608401610602565b6000805460ff1916600117905580156112d2576000805461ff0019166101001790555b600380546001600160a01b03808a166001600160a01b0319928316179092556001805489841690831617905560028054928616929091169190911790556113198542611d75565b6004819055611329908590611d75565b600581905561133c906203f48090611d75565b6006556000805462010000600160b01b031916620100006001600160a01b0385160217905580156113a7576000805461ff0019169055604051600181527f7f26b83ff96e1f2b6a682f133852f6798a09c465da95921460cefb38474024989060200160405180910390a15b50505050505050565b6003546001600160a01b031633146113db5760405163484218e160e01b815260040160405180910390fd5b600c5460005b8160ff168160ff16101561148257600c8160ff168154811061141357634e487b7160e01b600052603260045260246000fd5b9060005260206000200154838383600261142d9190611d8d565b6114379190611d8d565b60ff16600a811061145857634e487b7160e01b600052603260045260246000fd5b60200201511461147a5760405162461bcd60e51b815260040161060290611caf565b6001016113e1565b50600d546001600160a01b0316156114d85760405162461bcd60e51b8152602060048201526019602482015278189a591cc81dd95c9948185b1c9958591e481d185b1b1a5959603a1b6044820152606401610602565b6114e4858585856116af565b151560011461152a5760405162461bcd60e51b81526020600482015260126024820152711c1c9bdbd9881a5cc81b9bdd081d985b1a5960721b6044820152606401610602565b815161153e90670de0b6b3a7640000611db2565b600e556020828101516000908152600b9091526040902054600d80546001600160a01b0319166001600160a01b0390921691909117905560025b61158660ff8316600a611dd1565b8160ff16101561120a576000600b81856115a08686611d8d565b60ff16600a81106115c157634e487b7160e01b600052603260045260246000fd5b6020908102919091015182528181019290925260409081016000908120546001600160a01b0316808252600a9093522054909150158015906116115750600d546001600160a01b03828116911614155b80156116445750838260ff16600a811061163b57634e487b7160e01b600052603260045260246000fd5b60200201516001145b15611696576001600160a01b0381166000818152600a6020526040808220805490839055905190929183156108fc02918491818181858888f19350505050158015611693573d6000803e3d6000fd5b50505b50600101611578565b6009818154811061078857600080fd5b6003546000906001600160a01b031633146116dd5760405163484218e160e01b815260040160405180910390fd5b6001546040516379ddb87b60e11b81526001600160a01b039091169063f3bb70f690611713908890889088908890600401611c18565b60206040518083038186803b15801561172b57600080fd5b505afa15801561173f573d6000803e3d6000fd5b505050506040513d601f19601f820116820180604052508101906117639190611a14565b95945050505050565b82805461177890611de8565b90600052602060002090601f01602090048101928261179a57600085556117e0565b82601f106117b35782800160ff198235161785556117e0565b828001600101855582156117e0579182015b828111156117e05782358255916020019190600101906117c5565b50610f179291505b80821115610f1757600081556001016117e8565b600082601f83011261180c578081fd5b611814611d0c565b808385604086011115611825578384fd5b835b6002811015611846578135845260209384019390910190600101611827565b509095945050505050565b60008083601f840112611862578182fd5b50813567ffffffffffffffff811115611879578182fd5b60208301915083602082850101111561189157600080fd5b9250929050565b6000602082840312156118a9578081fd5b81356118b481611e39565b9392505050565b60008060008060008060c087890312156118d3578182fd5b86356118de81611e39565b955060208701356118ee81611e39565b94506040870135935060608701359250608087013561190c81611e39565b915060a087013561191c81611e39565b809150509295509295509295565b600080600080610240808688031215611941578485fd5b61194b87876117fc565b9450604087605f88011261195d578485fd5b611965611d0c565b8082890160c08a018b811115611979578889fd5b885b60028110156119a25761198e8d846117fc565b85526020909401939185019160010161197b565b508298506119b08c826117fc565b975050505050508661011f8701126119c6578182fd5b6119ce611d43565b80610100880189848a0111156119e2578485fd5b8493505b600a841015611a06578035835260019390930192602092830192016119e6565b509598949750929550505050565b600060208284031215611a25578081fd5b815180151581146118b4578182fd5b600060208284031215611a45578081fd5b5035919050565b600080600080600060608688031215611a63578081fd5b85359450602086013567ffffffffffffffff80821115611a81578283fd5b611a8d89838a01611851565b90965094506040880135915080821115611aa5578283fd5b50611ab288828901611851565b969995985093965092949392505050565b6000815180845260208085019450808401835b83811015611af257815187529582019590820190600101611ad6565b509495945050505050565b6000815180845260208085019450848260051b8601828601855b85811015611b41578383038952611b2f838351611b77565b98850198925090840190600101611b17565b5090979650505050505050565b8060005b6002811015611b71578151845260209384019390910190600101611b52565b50505050565b60008151808452815b81811015611b9c57602081850181015186830182015201611b80565b81811115611bad5782602083870101525b50601f01601f19169290920160200192915050565b6020815260006118b46020830184611ac3565b606081526000611be86060830186611ac3565b8281036020840152611bfa8186611afd565b90508281036040840152611c0e8185611afd565b9695505050505050565b6102408101611c278287611b4e565b60408083018660005b6002811015611c5757611c44838351611b4e565b9183019160209190910190600101611c30565b50505050611c6860c0830185611b4e565b61010082018360005b600a811015611c90578151835260209283019290910190600101611c71565b50505095945050505050565b6020815260006118b46020830184611b77565b6020808252603d908201527f626c696e6465644269647320696e7075747320746f2070726f6f6620646f206e60408201527f6f74206d617463682061756374696f6e20626c696e6465642062696473000000606082015260800190565b6040805190810167ffffffffffffffff81118282101715611d3d57634e487b7160e01b600052604160045260246000fd5b60405290565b604051610140810167ffffffffffffffff81118282101715611d3d57634e487b7160e01b600052604160045260246000fd5b60008219821115611d8857611d88611e23565b500190565b600060ff821660ff84168060ff03821115611daa57611daa611e23565b019392505050565b6000816000190483118215151615611dcc57611dcc611e23565b500290565b600082821015611de357611de3611e23565b500390565b600181811c90821680611dfc57607f821691505b60208210811415611e1d57634e487b7160e01b600052602260045260246000fd5b50919050565b634e487b7160e01b600052601160045260246000fd5b6001600160a01b038116811461075457600080fdfea26469706673582212208e5412507fe98a21344537ee5e98bc58e250e8985efb070b9708bc3dff7e8d6964736f6c63430008040033",
	"linkReferences": {},
	"deployedLinkReferences": {}
}