{
	"_format": "hh-sol-artifact-1",
	"contractName": "BlindAuctionFactory",
	"sourceName": "contracts/BlindAuctionFactory.sol",
	"abi": [
		{
			"inputs": [
				{
					"internalType": "address",
					"name": "_implementation",
					"type": "address"
				},
				{
					"internalType": "address",
					"name": "_verifier",
					"type": "address"
				},
				{
					"internalType": "address payable",
					"name": "_nft",
					"type": "address"
				}
			],
			"stateMutability": "nonpayable",
			"type": "constructor"
		},
		{
			"anonymous": false,
			"inputs": [
				{
					"indexed": false,
					"internalType": "address",
					"name": "blindAuctionContract",
					"type": "address"
				},
				{
					"indexed": false,
					"internalType": "address",
					"name": "beneficiary",
					"type": "address"
				},
				{
					"indexed": false,
					"internalType": "uint256",
					"name": "numAuctions",
					"type": "uint256"
				},
				{
					"indexed": false,
					"internalType": "address[]",
					"name": "blindAuctionProxies",
					"type": "address[]"
				},
				{
					"indexed": false,
					"internalType": "bytes32",
					"name": "_nftId",
					"type": "bytes32"
				}
			],
			"name": "BlindAuctionCloneCreated",
			"type": "event"
		},
		{
			"inputs": [
				{
					"internalType": "bytes32",
					"name": "",
					"type": "bytes32"
				}
			],
			"name": "auctionAddress",
			"outputs": [
				{
					"internalType": "address",
					"name": "",
					"type": "address"
				}
			],
			"stateMutability": "view",
			"type": "function"
		},
		{
			"inputs": [
				{
					"internalType": "uint256",
					"name": "",
					"type": "uint256"
				}
			],
			"name": "blindAuctionProxies",
			"outputs": [
				{
					"internalType": "address",
					"name": "",
					"type": "address"
				}
			],
			"stateMutability": "view",
			"type": "function"
		},
		{
			"inputs": [
				{
					"internalType": "uint256",
					"name": "_biddingTime",
					"type": "uint256"
				},
				{
					"internalType": "uint256",
					"name": "_revealTime",
					"type": "uint256"
				},
				{
					"internalType": "address payable",
					"name": "_beneficiaryAddress",
					"type": "address"
				},
				{
					"internalType": "bytes32",
					"name": "_nftId",
					"type": "bytes32"
				}
			],
			"name": "createBlindAuctionProxy",
			"outputs": [
				{
					"internalType": "address",
					"name": "blindAuctionProxyContract",
					"type": "address"
				}
			],
			"stateMutability": "payable",
			"type": "function"
		},
		{
			"inputs": [],
			"name": "getAllAuctions",
			"outputs": [
				{
					"internalType": "address[]",
					"name": "",
					"type": "address[]"
				}
			],
			"stateMutability": "view",
			"type": "function"
		},
		{
			"inputs": [
				{
					"internalType": "uint8",
					"name": "id",
					"type": "uint8"
				}
			],
			"name": "getAuctionById",
			"outputs": [
				{
					"internalType": "address",
					"name": "",
					"type": "address"
				}
			],
			"stateMutability": "view",
			"type": "function"
		},
		{
			"inputs": [],
			"name": "implementation",
			"outputs": [
				{
					"internalType": "address",
					"name": "",
					"type": "address"
				}
			],
			"stateMutability": "view",
			"type": "function"
		},
		{
			"inputs": [],
			"name": "nft",
			"outputs": [
				{
					"internalType": "address payable",
					"name": "",
					"type": "address"
				}
			],
			"stateMutability": "view",
			"type": "function"
		},
		{
			"inputs": [],
			"name": "verifierContract",
			"outputs": [
				{
					"internalType": "address",
					"name": "",
					"type": "address"
				}
			],
			"stateMutability": "view",
			"type": "function"
		}
	],
	"bytecode": "0x608060405234801561001057600080fd5b506040516106bf3803806106bf83398101604081905261002f91610071565b600080546001600160a01b039485166001600160a01b0319918216179091556001805493851693821693909317909255600380549190931691161790556100d5565b600080600060608486031215610085578283fd5b8351610090816100bd565b60208501519093506100a1816100bd565b60408501519092506100b2816100bd565b809150509250925092565b6001600160a01b03811681146100d257600080fd5b50565b6105db806100e46000396000f3fe60806040526004361061007b5760003560e01c8063b587d81b1161004e578063b587d81b14610133578063cbd2bdfd14610146578063cf69568814610168578063fd2ba8bf1461018857600080fd5b80630221db611461008057806347ccca02146100bd5780635c60da1b146100dd57806382531708146100fd575b600080fd5b34801561008c57600080fd5b506100a061009b3660046104bb565b6101a8565b6040516001600160a01b0390911681526020015b60405180910390f35b3480156100c957600080fd5b506003546100a0906001600160a01b031681565b3480156100e957600080fd5b506000546100a0906001600160a01b031681565b34801561010957600080fd5b506100a061011836600461045a565b6004602052600090815260409020546001600160a01b031681565b6100a0610141366004610472565b6101e9565b34801561015257600080fd5b5061015b610330565b6040516100b49190610558565b34801561017457600080fd5b506001546100a0906001600160a01b031681565b34801561019457600080fd5b506100a06101a336600461045a565b610392565b600060028260ff16815481106101ce57634e487b7160e01b600052603260045260246000fd5b6000918252602090912001546001600160a01b031692915050565b600080546101ff906001600160a01b03166103bc565b60015460035460405163696880b160e11b81523360048201526001600160a01b0392831660248201526044810189905260648101889052868316608482015290821660a482015291925082169063d2d101629060c401600060405180830381600087803b15801561026f57600080fd5b505af1158015610283573d6000803e3d6000fd5b5050600280546001810182557f405787fa12a823e0f2b7631cc41b3ba8828b3321ca811111fa75cd3aa3bb5ace0180546001600160a01b0386166001600160a01b031991821681179092556000878152600460205260409081902080549092169092179055815490517f7f6b5009179d7c8eab9eb6ba2d87d2ce4005bb776b0e5fc1f9b3cea39ad395a794506103209350859288929188906104e3565b60405180910390a1949350505050565b6060600280548060200260200160405190810160405280929190818152602001828054801561038857602002820191906000526020600020905b81546001600160a01b0316815260019091019060200180831161036a575b5050505050905090565b600281815481106103a257600080fd5b6000918252602090912001546001600160a01b0316905081565b6000763d602d80600a3d3981f3363d3d373d3d3d363d730000008260601b60e81c176000526e5af43d82803e903d91602b57fd5bf38260781b17602052603760096000f090506001600160a01b0381166104555760405162461bcd60e51b8152602060048201526016602482015275115490cc4c4d8dce8818dc99585d194819985a5b195960521b604482015260640160405180910390fd5b919050565b60006020828403121561046b578081fd5b5035919050565b60008060008060808587031215610487578283fd5b843593506020850135925060408501356001600160a01b03811681146104ab578283fd5b9396929550929360600135925050565b6000602082840312156104cc578081fd5b813560ff811681146104dc578182fd5b9392505050565b600060a0820160018060a01b03808916845260208189168186015287604086015260a0606086015282875480855260c0870191508886528286209450855b8181101561053f578554851683526001958601959284019201610521565b5050809450505050508260808301529695505050505050565b6020808252825182820181905260009190848201906040850190845b818110156105995783516001600160a01b031683529284019291840191600101610574565b5090969550505050505056fea2646970667358221220412e4a5e4e0e20ad1f9171365c3245979eb8633bbe5a29496ff8a231934f2c0e64736f6c63430008040033",
	"linkReferences": {},
	"deployedLinkReferences": {}
}