{
	"_format": "hh-sol-artifact-1",
	"contractName": "HighestBidderVerifier",
	"sourceName": "contracts/HighestBidderVerifier.sol",
	"abi": [
		{
			"inputs": [
				{
					"internalType": "uint256[2]",
					"name": "a",
					"type": "uint256[2]"
				},
				{
					"internalType": "uint256[2][2]",
					"name": "b",
					"type": "uint256[2][2]"
				},
				{
					"internalType": "uint256[2]",
					"name": "c",
					"type": "uint256[2]"
				},
				{
					"internalType": "uint256[10]",
					"name": "input",
					"type": "uint256[10]"
				}
			],
			"name": "verifyProof",
			"outputs": [
				{
					"internalType": "bool",
					"name": "r",
					"type": "bool"
				}
			],
			"stateMutability": "view",
			"type": "function"
		}
	],
	"bytecode": "0x608060405234801561001057600080fd5b50611757806100206000396000f3fe608060405234801561001057600080fd5b506004361061002b5760003560e01c8063f3bb70f614610030575b600080fd5b61004361003e36600461152f565b610057565b604051901515815260200160405180910390f35b60006100616113a0565b604080518082018252875181526020808901518183015290835281516080810183528751518184019081528851830151606083015281528251808401845288830180515182525183015181840152818301528382015281518083018352865181528682015181830152838301528151600a8082526101608201909352600092909182016101408036833701905050905060005b600a81101561015f578481600a811061011d57634e487b7160e01b600052603260045260246000fd5b602002015182828151811061014257634e487b7160e01b600052603260045260246000fd5b602090810291909101015280610157816116d0565b9150506100f4565b5061016a8183610188565b61017957600192505050610180565b6000925050505b949350505050565b60007f30644e72e131a029b85045b68181585d2833e84879b9709143e1f593f0000001816101b46103b7565b9050806080015151855160016101ca9190611682565b146102115760405162461bcd60e51b81526020600482015260126024820152711d995c9a599a595c8b5898590b5a5b9c1d5d60721b60448201526064015b60405180910390fd5b604080518082019091526000808252602082018190525b865181101561032c578387828151811061025257634e487b7160e01b600052603260045260246000fd5b6020026020010151106102a75760405162461bcd60e51b815260206004820152601f60248201527f76657269666965722d6774652d736e61726b2d7363616c61722d6669656c64006044820152606401610208565b6103188261031385608001518460016102c09190611682565b815181106102de57634e487b7160e01b600052603260045260246000fd5b60200260200101518a858151811061030657634e487b7160e01b600052603260045260246000fd5b6020026020010151610ba9565b610c45565b915080610324816116d0565b915050610228565b5061036381836080015160008151811061035657634e487b7160e01b600052603260045260246000fd5b6020026020010151610c45565b90506103996103758660000151610cdd565b8660200151846000015185602001518587604001518b604001518960600151610d7c565b6103a957600193505050506103b1565b600093505050505b92915050565b6103bf6113f1565b6040805180820182527f2d4d9aa7e302d9df41749d5507949d05dbea33fbb16c643b22f599a2be6df2e281527f14bedd503c37ceb061d8ec60209fe345ce89830a19230301f076caff004d19266020808301919091529083528151608080820184527f0967032fcbf776d1afc985f88877f182d38480a653f2decaa9794cbc3bf3060c8285019081527f0e187847ad4c798374d0d6732bf501847dd68bc0e071241e0213bc7fc13db7ab606080850191909152908352845180860186527f304cfbd1e08a704a99f5e847d93f8c3caafddec46b7a0d379da69a4d112346a781527f1739c1b1a457a8c7313123d24d2f9192f896b7c63eea05a9d57f06547ad0cec8818601528385015285840192909252835180820185527f198e9393920d483a7260bfb731fb5d25f1aa493335a9e71297e485b7aef312c28186018181527f1800deef121f1e76426a00665e5c4479674322d4f75edadd46debd5cd992f6ed838601819052908352865180880188527f090689d0585ff075ec9e99ad690c3395bc4b313370b38ef355acdadcd122975b8082527f12c85ea5db8c6deb4aab71808dcb408fe3d1e7690c43d37b4ce6cc0166fa7daa82890181905285890192909252898901949094528751948501885284880192835284860191909152908352855180870187529182528185015281840152908401528151600b8082526101808201909352919082015b60408051808201909152600080825260208201528152602001906001900390816105c857505060808201908152604080518082019091527f0b32c6a53d093fe18663efdc6fb7c7f8ed78943f98439cac671094ea98f97c1d81527f1456ef50f7326cab43f55fe5f4110c1441f023092c2c92a66622266f8a5f7b9a60208201529051805160009061066957634e487b7160e01b600052603260045260246000fd5b602002602001018190525060405180604001604052807f1e8e1027860a0810539e531ad9633f1f01022e4aa6e6daa2b2047e73246a026381526020017f18922d6c00eed5a4acb0bafe3f5dc67e7f55bd852873ab22b0127ea9609e759381525081608001516001815181106106ee57634e487b7160e01b600052603260045260246000fd5b602002602001018190525060405180604001604052807f2bfb1c507489bc6f643276e4bf3ea9fc3ab5190160fed5a90eb18592e9672ec081526020017f167d6859a82fa83c454ea6dde2dae9259d16e9800af5bede503f8034b138c17b815250816080015160028151811061077357634e487b7160e01b600052603260045260246000fd5b602002602001018190525060405180604001604052807f2b301abc87f89bf60f86f5a8aec7e33534d4c32cc152bd57b02a6a16a59ac35981526020017f280e613a6b2ba904a39bac125d33b51ae5be0be38a78f9005e196c4fe1554e2c81525081608001516003815181106107f857634e487b7160e01b600052603260045260246000fd5b602002602001018190525060405180604001604052807f243cbf15a32aa586e4ce0fa61e718c2c34af655cde5456089da3cffed890d57281526020017f0963f27ad56932834e32f897d253c5ed2dd7ea1ddcfc49ad44b54dd9759bcff1815250816080015160048151811061087d57634e487b7160e01b600052603260045260246000fd5b602002602001018190525060405180604001604052807f10a24ef814f701115615593b4db1b25a31c0e19eceb06742450ee1652642964981526020017f1cb4164f26fbf4b3a37335e481a6866f3b2ffcaf647ace634b087ea4d2d3dacb815250816080015160058151811061090257634e487b7160e01b600052603260045260246000fd5b602002602001018190525060405180604001604052807f1e3f9a040569c6bf999312ff527bd50d3e437d9b069558dd1137d7c36731127781526020017f0bfc03cdf4180226fd77b410f0d64f76c5c3a6fc9f9f0bd692bfe53860c85818815250816080015160068151811061098757634e487b7160e01b600052603260045260246000fd5b602002602001018190525060405180604001604052807f1fdfcf38446de78b408562478c0bd379fd142d73c5dbeb84086a39b6ae45e0ba81526020017f017fedb7fc9b5fc3a81627410b1313facf955e55e78a9eb5e295f70daf4d5c7f8152508160800151600781518110610a0c57634e487b7160e01b600052603260045260246000fd5b602002602001018190525060405180604001604052807f1a75506f39eb896d1033901b5471581301392863bd6b67eedbfe52ba2a073e7c81526020017f2e28f894438ddf4a94a3ce1ec1c426c9f11ed954493eb8f398ae82ac5d88a46b8152508160800151600881518110610a9157634e487b7160e01b600052603260045260246000fd5b602002602001018190525060405180604001604052807f1f25f731efcfdf57209e1da5b3358a0a28de8e784e4fef32fef2e6874241f4b581526020017f11e343741dbd3c2dc2fff1d97f4d8f341d39e2547c2736f5b0d82fe6f678ca268152508160800151600981518110610b1657634e487b7160e01b600052603260045260246000fd5b602002602001018190525060405180604001604052807f2cfe39eac01d93e3cd277cab1633d07510efc3cb0f6c4f97d5b9696a6a44bb1381526020017f083a8138e5f89d7f520b5e30d698eef417b84f988d4e1e8e9bdefd1f9ec9473a8152508160800151600a81518110610b9b57634e487b7160e01b600052603260045260246000fd5b602002602001018190525090565b6040805180820190915260008082526020820152610bc5611442565b835181526020808501519082015260408101839052600060608360808460076107d05a03fa9050808015610bf857610bfa565bfe5b5080610c3d5760405162461bcd60e51b81526020600482015260126024820152711c185a5c9a5b99cb5b5d5b0b59985a5b195960721b6044820152606401610208565b505092915050565b6040805180820190915260008082526020820152610c61611460565b8351815260208085015181830152835160408301528301516060808301919091526000908360c08460066107d05a03fa9050808015610bf8575080610c3d5760405162461bcd60e51b81526020600482015260126024820152711c185a5c9a5b99cb5859190b59985a5b195960721b6044820152606401610208565b604080518082019091526000808252602082015281517f30644e72e131a029b85045b68181585d97816a916871ca8d3c208c16d87cfd4790158015610d2457506020830151155b15610d445750506040805180820190915260008082526020820152919050565b604051806040016040528084600001518152602001828560200151610d6991906116eb565b610d7390846116b9565b90529392505050565b60408051600480825260a08201909252600091829190816020015b6040805180820190915260008082526020820152815260200190600190039081610d9757505060408051600480825260a0820190925291925060009190602082015b610de161147e565b815260200190600190039081610dd95790505090508a82600081518110610e1857634e487b7160e01b600052603260045260246000fd5b60200260200101819052508882600181518110610e4557634e487b7160e01b600052603260045260246000fd5b60200260200101819052508682600281518110610e7257634e487b7160e01b600052603260045260246000fd5b60200260200101819052508482600381518110610e9f57634e487b7160e01b600052603260045260246000fd5b60200260200101819052508981600081518110610ecc57634e487b7160e01b600052603260045260246000fd5b60200260200101819052508781600181518110610ef957634e487b7160e01b600052603260045260246000fd5b60200260200101819052508581600281518110610f2657634e487b7160e01b600052603260045260246000fd5b60200260200101819052508381600381518110610f5357634e487b7160e01b600052603260045260246000fd5b6020026020010181905250610f688282610f77565b9b9a5050505050505050505050565b60008151835114610fc35760405162461bcd60e51b81526020600482015260166024820152751c185a5c9a5b99cb5b195b99dd1a1ccb59985a5b195960521b6044820152606401610208565b82516000610fd282600661169a565b905060008167ffffffffffffffff811115610ffd57634e487b7160e01b600052604160045260246000fd5b604051908082528060200260200182016040528015611026578160200160208202803683370190505b50905060005b838110156113255786818151811061105457634e487b7160e01b600052603260045260246000fd5b6020026020010151600001518282600661106e919061169a565b611079906000611682565b8151811061109757634e487b7160e01b600052603260045260246000fd5b6020026020010181815250508681815181106110c357634e487b7160e01b600052603260045260246000fd5b602002602001015160200151828260066110dd919061169a565b6110e8906001611682565b8151811061110657634e487b7160e01b600052603260045260246000fd5b60200260200101818152505085818151811061113257634e487b7160e01b600052603260045260246000fd5b602090810291909101015151518261114b83600661169a565b611156906002611682565b8151811061117457634e487b7160e01b600052603260045260246000fd5b6020026020010181815250508581815181106111a057634e487b7160e01b600052603260045260246000fd5b602090810291909101810151510151826111bb83600661169a565b6111c6906003611682565b815181106111e457634e487b7160e01b600052603260045260246000fd5b60200260200101818152505085818151811061121057634e487b7160e01b600052603260045260246000fd5b60200260200101516020015160006002811061123c57634e487b7160e01b600052603260045260246000fd5b60200201518261124d83600661169a565b611258906004611682565b8151811061127657634e487b7160e01b600052603260045260246000fd5b6020026020010181815250508581815181106112a257634e487b7160e01b600052603260045260246000fd5b6020026020010151602001516001600281106112ce57634e487b7160e01b600052603260045260246000fd5b6020020151826112df83600661169a565b6112ea906005611682565b8151811061130857634e487b7160e01b600052603260045260246000fd5b60209081029190910101528061131d816116d0565b91505061102c565b5061132e61149e565b6000602082602086026020860160086107d05a03fa9050808015610bf85750806113925760405162461bcd60e51b81526020600482015260156024820152741c185a5c9a5b99cb5bdc18dbd9194b59985a5b1959605a1b6044820152606401610208565b505115159695505050505050565b6040805160a0810190915260006060820181815260808301919091528152602081016113ca61147e565b81526020016113ec604051806040016040528060008152602001600081525090565b905290565b6040805160e08101909152600060a0820181815260c083019190915281526020810161141b61147e565b815260200161142861147e565b815260200161143561147e565b8152602001606081525090565b60405180606001604052806003906020820280368337509192915050565b60405180608001604052806004906020820280368337509192915050565b60405180604001604052806114916114bc565b81526020016113ec6114bc565b60405180602001604052806001906020820280368337509192915050565b60405180604001604052806002906020820280368337509192915050565b600082601f8301126114ea578081fd5b6114f2611619565b808385604086011115611503578384fd5b835b6002811015611524578135845260209384019390910190600101611505565b509095945050505050565b600080600080610240808688031215611546578485fd5b61155087876114da565b9450604087605f880112611562578485fd5b61156a611619565b8082890160c08a018b81111561157e578889fd5b885b60028110156115a7576115938d846114da565b855260209094019391850191600101611580565b508298506115b58c826114da565b975050505050508661011f8701126115cb578182fd5b6115d3611650565b80610100880189848a0111156115e7578485fd5b8493505b600a84101561160b578035835260019390930192602092830192016115eb565b509598949750929550505050565b6040805190810167ffffffffffffffff8111828210171561164a57634e487b7160e01b600052604160045260246000fd5b60405290565b604051610140810167ffffffffffffffff8111828210171561164a57634e487b7160e01b600052604160045260246000fd5b600082198211156116955761169561170b565b500190565b60008160001904831182151516156116b4576116b461170b565b500290565b6000828210156116cb576116cb61170b565b500390565b60006000198214156116e4576116e461170b565b5060010190565b60008261170657634e487b7160e01b81526012600452602481fd5b500690565b634e487b7160e01b600052601160045260246000fdfea2646970667358221220ca77c4c601993c916838dd59d94121000ab0df0972f1b10ae74bfca067eab37864736f6c63430008040033",
	"linkReferences": {},
	"deployedLinkReferences": {}
}