{
  "_format": "hh-sol-artifact-1",
  "contractName": "PolyechoNFT",
  "sourceName": "contracts/PolyechoNFT.sol",
  "abi": [
    {
      "inputs": [],
      "stateMutability": "nonpayable",
      "type": "constructor"
    },
    {
      "anonymous": false,
      "inputs": [
        {
          "indexed": true,
          "internalType": "address",
          "name": "owner",
          "type": "address"
        },
        {
          "indexed": true,
          "internalType": "address",
          "name": "approved",
          "type": "address"
        },
        {
          "indexed": true,
          "internalType": "uint256",
          "name": "tokenId",
          "type": "uint256"
        }
      ],
      "name": "Approval",
      "type": "event"
    },
    {
      "anonymous": false,
      "inputs": [
        {
          "indexed": true,
          "internalType": "address",
          "name": "owner",
          "type": "address"
        },
        {
          "indexed": true,
          "internalType": "address",
          "name": "operator",
          "type": "address"
        },
        {
          "indexed": false,
          "internalType": "bool",
          "name": "approved",
          "type": "bool"
        }
      ],
      "name": "ApprovalForAll",
      "type": "event"
    },
    {
      "anonymous": false,
      "inputs": [
        {
          "indexed": false,
          "internalType": "string",
          "name": "name",
          "type": "string"
        }
      ],
      "name": "CollectionNameUpdated",
      "type": "event"
    },
    {
      "anonymous": false,
      "inputs": [
        {
          "indexed": false,
          "internalType": "address",
          "name": "_lister",
          "type": "address"
        },
        {
          "indexed": false,
          "internalType": "uint256",
          "name": "_tokenId",
          "type": "uint256"
        },
        {
          "indexed": false,
          "internalType": "uint256",
          "name": "_price",
          "type": "uint256"
        }
      ],
      "name": "ListedForSale",
      "type": "event"
    },
    {
      "anonymous": false,
      "inputs": [
        {
          "indexed": false,
          "internalType": "uint256",
          "name": "_tokenId",
          "type": "uint256"
        },
        {
          "indexed": false,
          "internalType": "address",
          "name": "_seller",
          "type": "address"
        },
        {
          "indexed": false,
          "internalType": "address",
          "name": "_buyer",
          "type": "address"
        },
        {
          "indexed": false,
          "internalType": "uint256",
          "name": "_price",
          "type": "uint256"
        }
      ],
      "name": "NftBought",
      "type": "event"
    },
    {
      "anonymous": false,
      "inputs": [
        {
          "indexed": true,
          "internalType": "address",
          "name": "previousOwner",
          "type": "address"
        },
        {
          "indexed": true,
          "internalType": "address",
          "name": "newOwner",
          "type": "address"
        }
      ],
      "name": "OwnershipTransferred",
      "type": "event"
    },
    {
      "anonymous": false,
      "inputs": [
        {
          "indexed": false,
          "internalType": "address",
          "name": "_lister",
          "type": "address"
        },
        {
          "indexed": false,
          "internalType": "uint256",
          "name": "_tokenId",
          "type": "uint256"
        }
      ],
      "name": "RemovedForSale",
      "type": "event"
    },
    {
      "anonymous": false,
      "inputs": [
        {
          "indexed": false,
          "internalType": "uint256",
          "name": "_tokenId",
          "type": "uint256"
        },
        {
          "indexed": false,
          "internalType": "uint256",
          "name": "_price",
          "type": "uint256"
        },
        {
          "indexed": false,
          "internalType": "address[]",
          "name": "_contributors",
          "type": "address[]"
        }
      ],
      "name": "RoyaltiesPaid",
      "type": "event"
    },
    {
      "anonymous": false,
      "inputs": [
        {
          "indexed": false,
          "internalType": "uint256",
          "name": "_tokenId",
          "type": "uint256"
        },
        {
          "indexed": false,
          "internalType": "uint256",
          "name": "_price",
          "type": "uint256"
        }
      ],
      "name": "SellerPaid",
      "type": "event"
    },
    {
      "anonymous": false,
      "inputs": [
        {
          "indexed": false,
          "internalType": "uint256",
          "name": "_tokenId",
          "type": "uint256"
        },
        {
          "indexed": false,
          "internalType": "string",
          "name": "_tokenURI",
          "type": "string"
        }
      ],
      "name": "TokenCreated",
      "type": "event"
    },
    {
      "anonymous": false,
      "inputs": [
        {
          "indexed": true,
          "internalType": "address",
          "name": "from",
          "type": "address"
        },
        {
          "indexed": true,
          "internalType": "address",
          "name": "to",
          "type": "address"
        },
        {
          "indexed": true,
          "internalType": "uint256",
          "name": "tokenId",
          "type": "uint256"
        }
      ],
      "name": "Transfer",
      "type": "event"
    },
    {
      "inputs": [
        {
          "internalType": "uint256",
          "name": "_tokenId",
          "type": "uint256"
        },
        {
          "internalType": "uint256",
          "name": "_price",
          "type": "uint256"
        }
      ],
      "name": "allowBuy",
      "outputs": [],
      "stateMutability": "nonpayable",
      "type": "function"
    },
    {
      "inputs": [
        {
          "internalType": "address",
          "name": "to",
          "type": "address"
        },
        {
          "internalType": "uint256",
          "name": "tokenId",
          "type": "uint256"
        }
      ],
      "name": "approve",
      "outputs": [],
      "stateMutability": "nonpayable",
      "type": "function"
    },
    {
      "inputs": [
        {
          "internalType": "address",
          "name": "owner",
          "type": "address"
        }
      ],
      "name": "balanceOf",
      "outputs": [
        {
          "internalType": "uint256",
          "name": "",
          "type": "uint256"
        }
      ],
      "stateMutability": "view",
      "type": "function"
    },
    {
      "inputs": [
        {
          "internalType": "uint256",
          "name": "_tokenId",
          "type": "uint256"
        }
      ],
      "name": "buy",
      "outputs": [],
      "stateMutability": "payable",
      "type": "function"
    },
    {
      "inputs": [],
      "name": "collectionName",
      "outputs": [
        {
          "internalType": "string",
          "name": "",
          "type": "string"
        }
      ],
      "stateMutability": "view",
      "type": "function"
    },
    {
      "inputs": [
        {
          "internalType": "uint256",
          "name": "_tokenId",
          "type": "uint256"
        }
      ],
      "name": "disallowBuy",
      "outputs": [],
      "stateMutability": "nonpayable",
      "type": "function"
    },
    {
      "inputs": [
        {
          "internalType": "uint256",
          "name": "tokenId",
          "type": "uint256"
        }
      ],
      "name": "getApproved",
      "outputs": [
        {
          "internalType": "address",
          "name": "",
          "type": "address"
        }
      ],
      "stateMutability": "view",
      "type": "function"
    },
    {
      "inputs": [
        {
          "internalType": "uint256",
          "name": "tokenId",
          "type": "uint256"
        }
      ],
      "name": "getContributors",
      "outputs": [
        {
          "internalType": "address[]",
          "name": "",
          "type": "address[]"
        }
      ],
      "stateMutability": "view",
      "type": "function"
    },
    {
      "inputs": [
        {
          "internalType": "address",
          "name": "owner",
          "type": "address"
        },
        {
          "internalType": "address",
          "name": "operator",
          "type": "address"
        }
      ],
      "name": "isApprovedForAll",
      "outputs": [
        {
          "internalType": "bool",
          "name": "",
          "type": "bool"
        }
      ],
      "stateMutability": "view",
      "type": "function"
    },
    {
      "inputs": [
        {
          "internalType": "address",
          "name": "_buyer",
          "type": "address"
        },
        {
          "internalType": "string",
          "name": "_metadataURI",
          "type": "string"
        },
        {
          "internalType": "address payable[]",
          "name": "_contributors",
          "type": "address[]"
        }
      ],
      "name": "mintAndBuy",
      "outputs": [
        {
          "internalType": "uint256",
          "name": "",
          "type": "uint256"
        },
        {
          "internalType": "string",
          "name": "",
          "type": "string"
        }
      ],
      "stateMutability": "payable",
      "type": "function"
    },
    {
      "inputs": [],
      "name": "mintPrice",
      "outputs": [
        {
          "internalType": "uint256",
          "name": "",
          "type": "uint256"
        }
      ],
      "stateMutability": "view",
      "type": "function"
    },
    {
      "inputs": [],
      "name": "name",
      "outputs": [
        {
          "internalType": "string",
          "name": "",
          "type": "string"
        }
      ],
      "stateMutability": "view",
      "type": "function"
    },
    {
      "inputs": [],
      "name": "owner",
      "outputs": [
        {
          "internalType": "address",
          "name": "",
          "type": "address"
        }
      ],
      "stateMutability": "view",
      "type": "function"
    },
    {
      "inputs": [
        {
          "internalType": "uint256",
          "name": "tokenId",
          "type": "uint256"
        }
      ],
      "name": "ownerOf",
      "outputs": [
        {
          "internalType": "address",
          "name": "",
          "type": "address"
        }
      ],
      "stateMutability": "view",
      "type": "function"
    },
    {
      "inputs": [],
      "name": "renounceOwnership",
      "outputs": [],
      "stateMutability": "nonpayable",
      "type": "function"
    },
    {
      "inputs": [
        {
          "internalType": "address",
          "name": "from",
          "type": "address"
        },
        {
          "internalType": "address",
          "name": "to",
          "type": "address"
        },
        {
          "internalType": "uint256",
          "name": "tokenId",
          "type": "uint256"
        }
      ],
      "name": "safeTransferFrom",
      "outputs": [],
      "stateMutability": "nonpayable",
      "type": "function"
    },
    {
      "inputs": [
        {
          "internalType": "address",
          "name": "from",
          "type": "address"
        },
        {
          "internalType": "address",
          "name": "to",
          "type": "address"
        },
        {
          "internalType": "uint256",
          "name": "tokenId",
          "type": "uint256"
        },
        {
          "internalType": "bytes",
          "name": "_data",
          "type": "bytes"
        }
      ],
      "name": "safeTransferFrom",
      "outputs": [],
      "stateMutability": "nonpayable",
      "type": "function"
    },
    {
      "inputs": [
        {
          "internalType": "address",
          "name": "operator",
          "type": "address"
        },
        {
          "internalType": "bool",
          "name": "approved",
          "type": "bool"
        }
      ],
      "name": "setApprovalForAll",
      "outputs": [],
      "stateMutability": "nonpayable",
      "type": "function"
    },
    {
      "inputs": [
        {
          "internalType": "bytes4",
          "name": "interfaceId",
          "type": "bytes4"
        }
      ],
      "name": "supportsInterface",
      "outputs": [
        {
          "internalType": "bool",
          "name": "",
          "type": "bool"
        }
      ],
      "stateMutability": "view",
      "type": "function"
    },
    {
      "inputs": [],
      "name": "symbol",
      "outputs": [
        {
          "internalType": "string",
          "name": "",
          "type": "string"
        }
      ],
      "stateMutability": "view",
      "type": "function"
    },
    {
      "inputs": [
        {
          "internalType": "uint256",
          "name": "",
          "type": "uint256"
        },
        {
          "internalType": "uint256",
          "name": "",
          "type": "uint256"
        }
      ],
      "name": "tokenIdToContributors",
      "outputs": [
        {
          "internalType": "address",
          "name": "",
          "type": "address"
        }
      ],
      "stateMutability": "view",
      "type": "function"
    },
    {
      "inputs": [
        {
          "internalType": "uint256",
          "name": "",
          "type": "uint256"
        }
      ],
      "name": "tokenIdToPrice",
      "outputs": [
        {
          "internalType": "uint256",
          "name": "",
          "type": "uint256"
        }
      ],
      "stateMutability": "view",
      "type": "function"
    },
    {
      "inputs": [
        {
          "internalType": "uint256",
          "name": "tokenId",
          "type": "uint256"
        }
      ],
      "name": "tokenURI",
      "outputs": [
        {
          "internalType": "string",
          "name": "",
          "type": "string"
        }
      ],
      "stateMutability": "view",
      "type": "function"
    },
    {
      "inputs": [
        {
          "internalType": "address",
          "name": "from",
          "type": "address"
        },
        {
          "internalType": "address",
          "name": "to",
          "type": "address"
        },
        {
          "internalType": "uint256",
          "name": "tokenId",
          "type": "uint256"
        }
      ],
      "name": "transferFrom",
      "outputs": [],
      "stateMutability": "nonpayable",
      "type": "function"
    },
    {
      "inputs": [
        {
          "internalType": "address",
          "name": "newOwner",
          "type": "address"
        }
      ],
      "name": "transferOwnership",
      "outputs": [],
      "stateMutability": "nonpayable",
      "type": "function"
    },
    {
      "inputs": [
        {
          "internalType": "string",
          "name": "_name",
          "type": "string"
        }
      ],
      "name": "updateCollectionName",
      "outputs": [],
      "stateMutability": "nonpayable",
      "type": "function"
    }
  ],
  "bytecode": "0x60c0604052600e60808190526d506f6c796563686f20547265657360901b60a09081526200003191600891906200011b565b503480156200003f57600080fd5b506040805180820182526008815267506f6c796563686f60c01b6020808301918252835180850190945260048452634543484f60e01b9084015281519192916200008c916000916200011b565b508051620000a29060019060208401906200011b565b505050620000bf620000b9620000c560201b60201c565b620000c9565b620001fe565b3390565b600680546001600160a01b038381166001600160a01b0319831681179093556040519116919082907f8be0079c531659141344cd1fd0a4f28419497f9722a3daafe3b4186f6b6457e090600090a35050565b8280546200012990620001c1565b90600052602060002090601f0160209004810192826200014d576000855562000198565b82601f106200016857805160ff191683800117855562000198565b8280016001018555821562000198579182015b82811115620001985782518255916020019190600101906200017b565b50620001a6929150620001aa565b5090565b5b80821115620001a65760008155600101620001ab565b600181811c90821680620001d657607f821691505b60208210811415620001f857634e487b7160e01b600052602260045260246000fd5b50919050565b61226c806200020e6000396000f3fe6080604052600436106101815760003560e01c8063a22cb465116100d1578063d96a094a1161008a578063eb753e4711610064578063eb753e4714610486578063ef9dad8d146104a7578063f2fde38b146104c7578063f4812eb9146104e757600080fd5b8063d96a094a14610415578063e5326ab114610428578063e985e9c51461043d57600080fd5b8063a22cb46514610355578063aac0704a14610375578063b88d4fde14610395578063bbb5e8d3146103b5578063c87b56dd146103d5578063d4991312146103f557600080fd5b806342842e0e1161013e57806370a082311161011857806370a08231146102ed578063715018a61461030d5780638da5cb5b1461032257806395d89b411461034057600080fd5b806342842e0e146102845780636352211e146102a45780636817c76c146102c457600080fd5b806301ffc9a71461018657806306fdde03146101bb578063081812fc146101dd578063095ea7b31461021557806323b872dd146102375780633c1ab00f14610257575b600080fd5b34801561019257600080fd5b506101a66101a1366004611e02565b610514565b60405190151581526020015b60405180910390f35b3480156101c757600080fd5b506101d0610566565b6040516101b29190611fb7565b3480156101e957600080fd5b506101fd6101f8366004611e7a565b6105f8565b6040516001600160a01b0390911681526020016101b2565b34801561022157600080fd5b50610235610230366004611dd7565b610692565b005b34801561024357600080fd5b50610235610252366004611be3565b6107a8565b34801561026357600080fd5b50610277610272366004611e7a565b6107d9565b6040516101b29190611f3b565b34801561029057600080fd5b5061023561029f366004611be3565b6108c2565b3480156102b057600080fd5b506101fd6102bf366004611e7a565b6108dd565b3480156102d057600080fd5b506102df662386f26fc1000081565b6040519081526020016101b2565b3480156102f957600080fd5b506102df610308366004611b8f565b610954565b34801561031957600080fd5b506102356109db565b34801561032e57600080fd5b506006546001600160a01b03166101fd565b34801561034c57600080fd5b506101d0610a11565b34801561036157600080fd5b50610235610370366004611cfc565b610a20565b34801561038157600080fd5b50610235610390366004611e3a565b610a2f565b3480156103a157600080fd5b506102356103b0366004611c23565b610aa3565b3480156103c157600080fd5b506102356103d0366004611e92565b610adb565b3480156103e157600080fd5b506101d06103f0366004611e7a565b610bcb565b34801561040157600080fd5b50610235610410366004611e7a565b610cde565b610235610423366004611e7a565b610d8f565b34801561043457600080fd5b506101d0611030565b34801561044957600080fd5b506101a6610458366004611bab565b6001600160a01b03918216600090815260056020908152604080832093909416825291909152205460ff1690565b610499610494366004611d2d565b6110be565b6040516101b29291906120a2565b3480156104b357600080fd5b506101fd6104c2366004611e92565b611279565b3480156104d357600080fd5b506102356104e2366004611b8f565b6112b1565b3480156104f357600080fd5b506102df610502366004611e7a565b600b6020526000908152604090205481565b60006001600160e01b031982166380ac58cd60e01b148061054557506001600160e01b03198216635b5e139f60e01b145b8061056057506301ffc9a760e01b6001600160e01b03198316145b92915050565b60606000805461057590612189565b80601f01602080910402602001604051908101604052809291908181526020018280546105a190612189565b80156105ee5780601f106105c3576101008083540402835291602001916105ee565b820191906000526020600020905b8154815290600101906020018083116105d157829003601f168201915b5050505050905090565b6000818152600260205260408120546001600160a01b03166106765760405162461bcd60e51b815260206004820152602c60248201527f4552433732313a20617070726f76656420717565727920666f72206e6f6e657860448201526b34b9ba32b73a103a37b5b2b760a11b60648201526084015b60405180910390fd5b506000908152600460205260409020546001600160a01b031690565b600061069d826108dd565b9050806001600160a01b0316836001600160a01b0316141561070b5760405162461bcd60e51b815260206004820152602160248201527f4552433732313a20617070726f76616c20746f2063757272656e74206f776e656044820152603960f91b606482015260840161066d565b336001600160a01b038216148061072757506107278133610458565b6107995760405162461bcd60e51b815260206004820152603860248201527f4552433732313a20617070726f76652063616c6c6572206973206e6f74206f7760448201527f6e6572206e6f7220617070726f76656420666f7220616c6c0000000000000000606482015260840161066d565b6107a3838361134c565b505050565b6107b233826113ba565b6107ce5760405162461bcd60e51b815260040161066d90612051565b6107a38383836114b1565b6000818152600260205260409020546060906001600160a01b03166108585760405162461bcd60e51b815260206004820152602f60248201527f4552433732313a20436f6e7472696275746f7220717565727920666f72206e6f60448201526e3732bc34b9ba32b73a103a37b5b2b760891b606482015260840161066d565b6000828152600a6020908152604091829020805483518184028101840190945280845290918301828280156108b657602002820191906000526020600020905b81546001600160a01b03168152600190910190602001808311610898575b50505050509050919050565b6107a383838360405180602001604052806000815250610aa3565b6000818152600260205260408120546001600160a01b0316806105605760405162461bcd60e51b815260206004820152602960248201527f4552433732313a206f776e657220717565727920666f72206e6f6e657869737460448201526832b73a103a37b5b2b760b91b606482015260840161066d565b60006001600160a01b0382166109bf5760405162461bcd60e51b815260206004820152602a60248201527f4552433732313a2062616c616e636520717565727920666f7220746865207a65604482015269726f206164647265737360b01b606482015260840161066d565b506001600160a01b031660009081526003602052604090205490565b6006546001600160a01b03163314610a055760405162461bcd60e51b815260040161066d9061201c565b610a0f600061164d565b565b60606001805461057590612189565b610a2b33838361169f565b5050565b6006546001600160a01b03163314610a595760405162461bcd60e51b815260040161066d9061201c565b610a6560088383611a5c565b507f749b12147f7d973e04e6ebeac5a489b90a25371b87897f089b9bf3390746fdc88282604051610a97929190611f88565b60405180910390a15050565b610aad33836113ba565b610ac95760405162461bcd60e51b815260040161066d90612051565b610ad58484848461176e565b50505050565b610ae4826108dd565b6001600160a01b0316336001600160a01b031614610b3e5760405162461bcd60e51b81526020600482015260176024820152762737ba1037bbb732b91037b3103a3434b9903a37b5b2b760491b604482015260640161066d565b60008111610b7b5760405162461bcd60e51b815260206004820152600a6024820152695072696365207a65726f60b01b604482015260640161066d565b6000828152600b602090815260409182902083905581513381529081018490529081018290527fd8e0b128fee17f55fcc09b80146a7c91a1aa841f3dfbb2171e6fff11f71a9ab090606001610a97565b6000818152600260205260409020546060906001600160a01b0316610c4a5760405162461bcd60e51b815260206004820152602f60248201527f4552433732314d657461646174613a2055524920717565727920666f72206e6f60448201526e3732bc34b9ba32b73a103a37b5b2b760891b606482015260840161066d565b60008281526009602052604090208054610c6390612189565b80601f0160208091040260200160405190810160405280929190818152602001828054610c8f90612189565b80156108b65780601f10610cb1576101008083540402835291602001916108b6565b820191906000526020600020905b815481529060010190602001808311610cbf5750939695505050505050565b610ce7816108dd565b6001600160a01b0316336001600160a01b031614610d415760405162461bcd60e51b81526020600482015260176024820152762737ba1037bbb732b91037b3103a3434b9903a37b5b2b760491b604482015260640161066d565b6000818152600b602090815260408083209290925581513381529081018390527ff6b8277a836e8d69e173c05c5da9a781f0c1065dd5ff6a2fbdc995978e3631ea910160405180910390a150565b6000818152600b602052604090205480610deb5760405162461bcd60e51b815260206004820152601a60248201527f5468697320746f6b656e206973206e6f7420666f722073616c65000000000000604482015260640161066d565b803414610e2c5760405162461bcd60e51b815260206004820152600f60248201526e496e636f72726563742076616c756560881b604482015260640161066d565b6000610e37836108dd565b9050610e43338461134c565b610e4e8133856108c2565b6000610e5b34600a6117a1565b90506000610e756009610e6f34600a6117a1565b906117b4565b6000868152600a602052604081209192505b8154811015610f1a576000828281548110610eb257634e487b7160e01b600052603260045260246000fd5b60009182526020909120015483546001600160a01b03909116915081906108fc90610edd9088612133565b6040518115909202916000818181858888f19350505050158015610f05573d6000803e3d6000fd5b50508080610f12906121c4565b915050610e87565b506040516001600160a01b0385169083156108fc029084906000818181858888f19350505050158015610f51573d6000803e3d6000fd5b506000868152600b602090815260408083209290925581518881526001600160a01b03871691810191909152338183015234606082015290517f5837dc3eeed2d2b1d75de7e85c87404936759686b473d2cbc06bc59f96060cff9181900360800190a160408051878152602081018490527fc90e2b5bf9e462d07d9c1fc5201c35bb5dc9dd94df8124b2a19a8f98d64ccdb1910160405180910390a17fad6f7101d3f53815713d2dd1e65366de1f3db3cf8f9a2d9a9a8119a1bd2b6407868483604051611020939291906120bb565b60405180910390a1505050505050565b6008805461103d90612189565b80601f016020809104026020016040519081016040528092919081815260200182805461106990612189565b80156110b65780601f1061108b576101008083540402835291602001916110b6565b820191906000526020600020905b81548152906001019060200180831161109957829003601f168201915b505050505081565b60006060662386f26fc100003410156111285760405162461bcd60e51b815260206004820152602660248201527f53656e742065746865722076616c7565206973206e6f7420656e6f75676820746044820152651bc81b5a5b9d60d21b606482015260840161066d565b611136600780546001019055565b600061114160075490565b600081815260096020526040902090915061115d908888611a5c565b506000818152600a60205260409020611177908686611ae0565b5061118288826117c0565b61118c888261134c565b60005b848110156112245760008686838181106111b957634e487b7160e01b600052603260045260246000fd5b90506020020160208101906111ce9190611b8f565b90506001600160a01b0381166108fc6111e78834612133565b6040518115909202916000818181858888f1935050505015801561120f573d6000803e3d6000fd5b5050808061121c906121c4565b91505061118f565b50600061123082610bcb565b90507f5d3ac5872118b949a1f8db596134a0e1587ecf18f2203bb1e3ea420c3c3f8fa982826040516112639291906120a2565b60405180910390a1909890975095505050505050565b600a602052816000526040600020818154811061129557600080fd5b6000918252602090912001546001600160a01b03169150829050565b6006546001600160a01b031633146112db5760405162461bcd60e51b815260040161066d9061201c565b6001600160a01b0381166113405760405162461bcd60e51b815260206004820152602660248201527f4f776e61626c653a206e6577206f776e657220697320746865207a65726f206160448201526564647265737360d01b606482015260840161066d565b6113498161164d565b50565b600081815260046020526040902080546001600160a01b0319166001600160a01b0384169081179091558190611381826108dd565b6001600160a01b03167f8c5be1e5ebec7d5bd14f71427d1e84f3dd0314c0f7b2291e5b200ac8c7c3b92560405160405180910390a45050565b6000818152600260205260408120546001600160a01b03166114335760405162461bcd60e51b815260206004820152602c60248201527f4552433732313a206f70657261746f7220717565727920666f72206e6f6e657860448201526b34b9ba32b73a103a37b5b2b760a11b606482015260840161066d565b600061143e836108dd565b9050806001600160a01b0316846001600160a01b031614806114795750836001600160a01b031661146e846105f8565b6001600160a01b0316145b806114a957506001600160a01b0380821660009081526005602090815260408083209388168352929052205460ff165b949350505050565b826001600160a01b03166114c4826108dd565b6001600160a01b0316146115285760405162461bcd60e51b815260206004820152602560248201527f4552433732313a207472616e736665722066726f6d20696e636f72726563742060448201526437bbb732b960d91b606482015260840161066d565b6001600160a01b03821661158a5760405162461bcd60e51b8152602060048201526024808201527f4552433732313a207472616e7366657220746f20746865207a65726f206164646044820152637265737360e01b606482015260840161066d565b61159560008261134c565b6001600160a01b03831660009081526003602052604081208054600192906115be908490612172565b90915550506001600160a01b03821660009081526003602052604081208054600192906115ec90849061211b565b909155505060008181526002602052604080822080546001600160a01b0319166001600160a01b0386811691821790925591518493918716917fddf252ad1be2c89b69c2b068fc378daa952ba7f163c4a11628f55a4df523b3ef91a4505050565b600680546001600160a01b038381166001600160a01b0319831681179093556040519116919082907f8be0079c531659141344cd1fd0a4f28419497f9722a3daafe3b4186f6b6457e090600090a35050565b816001600160a01b0316836001600160a01b031614156117015760405162461bcd60e51b815260206004820152601960248201527f4552433732313a20617070726f766520746f2063616c6c657200000000000000604482015260640161066d565b6001600160a01b03838116600081815260056020908152604080832094871680845294825291829020805460ff191686151590811790915591519182527f17307eab39ab6107e8899845ad3d59bd9653f200f220920489ca2b5937696c31910160405180910390a3505050565b6117798484846114b1565b611785848484846117da565b610ad55760405162461bcd60e51b815260040161066d90611fca565b60006117ad8284612133565b9392505050565b60006117ad8284612153565b610a2b8282604051806020016040528060008152506118e7565b60006001600160a01b0384163b156118dc57604051630a85bd0160e11b81526001600160a01b0385169063150b7a029061181e903390899088908890600401611efe565b602060405180830381600087803b15801561183857600080fd5b505af1925050508015611868575060408051601f3d908101601f1916820190925261186591810190611e1e565b60015b6118c2573d808015611896576040519150601f19603f3d011682016040523d82523d6000602084013e61189b565b606091505b5080516118ba5760405162461bcd60e51b815260040161066d90611fca565b805181602001fd5b6001600160e01b031916630a85bd0160e11b1490506114a9565b506001949350505050565b6118f1838361191a565b6118fe60008484846117da565b6107a35760405162461bcd60e51b815260040161066d90611fca565b6001600160a01b0382166119705760405162461bcd60e51b815260206004820181905260248201527f4552433732313a206d696e7420746f20746865207a65726f2061646472657373604482015260640161066d565b6000818152600260205260409020546001600160a01b0316156119d55760405162461bcd60e51b815260206004820152601c60248201527f4552433732313a20746f6b656e20616c7265616479206d696e74656400000000604482015260640161066d565b6001600160a01b03821660009081526003602052604081208054600192906119fe90849061211b565b909155505060008181526002602052604080822080546001600160a01b0319166001600160a01b03861690811790915590518392907fddf252ad1be2c89b69c2b068fc378daa952ba7f163c4a11628f55a4df523b3ef908290a45050565b828054611a6890612189565b90600052602060002090601f016020900481019282611a8a5760008555611ad0565b82601f10611aa35782800160ff19823516178555611ad0565b82800160010185558215611ad0579182015b82811115611ad0578235825591602001919060010190611ab5565b50611adc929150611b33565b5090565b828054828255906000526020600020908101928215611ad0579160200282015b82811115611ad05781546001600160a01b0319166001600160a01b03843516178255602090920191600190910190611b00565b5b80821115611adc5760008155600101611b34565b60008083601f840112611b59578182fd5b50813567ffffffffffffffff811115611b70578182fd5b602083019150836020828501011115611b8857600080fd5b9250929050565b600060208284031215611ba0578081fd5b81356117ad8161220b565b60008060408385031215611bbd578081fd5b8235611bc88161220b565b91506020830135611bd88161220b565b809150509250929050565b600080600060608486031215611bf7578081fd5b8335611c028161220b565b92506020840135611c128161220b565b929592945050506040919091013590565b60008060008060808587031215611c38578081fd5b8435611c438161220b565b93506020850135611c538161220b565b925060408501359150606085013567ffffffffffffffff80821115611c76578283fd5b818701915087601f830112611c89578283fd5b813581811115611c9b57611c9b6121f5565b604051601f8201601f19908116603f01168101908382118183101715611cc357611cc36121f5565b816040528281528a6020848701011115611cdb578586fd5b82602086016020830137918201602001949094529598949750929550505050565b60008060408385031215611d0e578182fd5b8235611d198161220b565b915060208301358015158114611bd8578182fd5b600080600080600060608688031215611d44578081fd5b8535611d4f8161220b565b9450602086013567ffffffffffffffff80821115611d6b578283fd5b611d7789838a01611b48565b90965094506040880135915080821115611d8f578283fd5b818801915088601f830112611da2578283fd5b813581811115611db0578384fd5b8960208260051b8501011115611dc4578384fd5b9699959850939650602001949392505050565b60008060408385031215611de9578182fd5b8235611df48161220b565b946020939093013593505050565b600060208284031215611e13578081fd5b81356117ad81612220565b600060208284031215611e2f578081fd5b81516117ad81612220565b60008060208385031215611e4c578182fd5b823567ffffffffffffffff811115611e62578283fd5b611e6e85828601611b48565b90969095509350505050565b600060208284031215611e8b578081fd5b5035919050565b60008060408385031215611ea4578182fd5b50508035926020909101359150565b60008151808452815b81811015611ed857602081850181015186830182015201611ebc565b81811115611ee95782602083870101525b50601f01601f19169290920160200192915050565b6001600160a01b0385811682528416602082015260408101839052608060608201819052600090611f3190830184611eb3565b9695505050505050565b6020808252825182820181905260009190848201906040850190845b81811015611f7c5783516001600160a01b031683529284019291840191600101611f57565b50909695505050505050565b60208152816020820152818360408301376000818301604090810191909152601f909201601f19160101919050565b6020815260006117ad6020830184611eb3565b60208082526032908201527f4552433732313a207472616e7366657220746f206e6f6e20455243373231526560408201527131b2b4bb32b91034b6b83632b6b2b73a32b960711b606082015260800190565b6020808252818101527f4f776e61626c653a2063616c6c6572206973206e6f7420746865206f776e6572604082015260600190565b60208082526031908201527f4552433732313a207472616e736665722063616c6c6572206973206e6f74206f6040820152701ddb995c881b9bdc88185c1c1c9bdd9959607a1b606082015260800190565b8281526040602082015260006114a96040830184611eb3565b60006060820185835260208581850152606060408501528185548084526080860191508685528285209350845b8181101561210d5784546001600160a01b0316835260019485019492840192016120e8565b509098975050505050505050565b6000821982111561212e5761212e6121df565b500190565b60008261214e57634e487b7160e01b81526012600452602481fd5b500490565b600081600019048311821515161561216d5761216d6121df565b500290565b600082821015612184576121846121df565b500390565b600181811c9082168061219d57607f821691505b602082108114156121be57634e487b7160e01b600052602260045260246000fd5b50919050565b60006000198214156121d8576121d86121df565b5060010190565b634e487b7160e01b600052601160045260246000fd5b634e487b7160e01b600052604160045260246000fd5b6001600160a01b038116811461134957600080fd5b6001600160e01b03198116811461134957600080fdfea264697066735822122069aee0c28ec2c20cc12a0422459c2849c2f29e3c75190de19d3c4f7a16f9c07664736f6c63430008040033",
  "linkReferences": {},
  "deployedLinkReferences": {}
}