{
  "contractName": "PolyechoSample",
  "abi": [
    {
      "inputs": [],
      "stateMutability": "nonpayable",
      "type": "constructor"
    },
    {
      "anonymous": false,
      "inputs": [
        {
          "indexed": true,
          "internalType": "address",
          "name": "owner",
          "type": "address"
        },
        {
          "indexed": true,
          "internalType": "address",
          "name": "approved",
          "type": "address"
        },
        {
          "indexed": true,
          "internalType": "uint256",
          "name": "tokenId",
          "type": "uint256"
        }
      ],
      "name": "Approval",
      "type": "event"
    },
    {
      "anonymous": false,
      "inputs": [
        {
          "indexed": true,
          "internalType": "address",
          "name": "owner",
          "type": "address"
        },
        {
          "indexed": true,
          "internalType": "address",
          "name": "operator",
          "type": "address"
        },
        {
          "indexed": false,
          "internalType": "bool",
          "name": "approved",
          "type": "bool"
        }
      ],
      "name": "ApprovalForAll",
      "type": "event"
    },
    {
      "anonymous": false,
      "inputs": [
        {
          "indexed": false,
          "internalType": "string",
          "name": "name",
          "type": "string"
        }
      ],
      "name": "NameUpdated",
      "type": "event"
    },
    {
      "anonymous": false,
      "inputs": [
        {
          "indexed": true,
          "internalType": "address",
          "name": "previousOwner",
          "type": "address"
        },
        {
          "indexed": true,
          "internalType": "address",
          "name": "newOwner",
          "type": "address"
        }
      ],
      "name": "OwnershipTransferred",
      "type": "event"
    },
    {
      "anonymous": false,
      "inputs": [
        {
          "indexed": false,
          "internalType": "string",
          "name": "tokenURI",
          "type": "string"
        }
      ],
      "name": "TokenCreated",
      "type": "event"
    },
    {
      "anonymous": false,
      "inputs": [
        {
          "indexed": true,
          "internalType": "address",
          "name": "from",
          "type": "address"
        },
        {
          "indexed": true,
          "internalType": "address",
          "name": "to",
          "type": "address"
        },
        {
          "indexed": true,
          "internalType": "uint256",
          "name": "tokenId",
          "type": "uint256"
        }
      ],
      "name": "Transfer",
      "type": "event"
    },
    {
      "inputs": [
        {
          "internalType": "address",
          "name": "to",
          "type": "address"
        },
        {
          "internalType": "uint256",
          "name": "tokenId",
          "type": "uint256"
        }
      ],
      "name": "approve",
      "outputs": [],
      "stateMutability": "nonpayable",
      "type": "function"
    },
    {
      "inputs": [
        {
          "internalType": "address",
          "name": "owner",
          "type": "address"
        }
      ],
      "name": "balanceOf",
      "outputs": [
        {
          "internalType": "uint256",
          "name": "",
          "type": "uint256"
        }
      ],
      "stateMutability": "view",
      "type": "function"
    },
    {
      "inputs": [],
      "name": "companyName",
      "outputs": [
        {
          "internalType": "string",
          "name": "",
          "type": "string"
        }
      ],
      "stateMutability": "view",
      "type": "function"
    },
    {
      "inputs": [
        {
          "internalType": "uint256",
          "name": "",
          "type": "uint256"
        },
        {
          "internalType": "uint256",
          "name": "",
          "type": "uint256"
        }
      ],
      "name": "contributors",
      "outputs": [
        {
          "internalType": "address",
          "name": "",
          "type": "address"
        }
      ],
      "stateMutability": "view",
      "type": "function"
    },
    {
      "inputs": [],
      "name": "displayName",
      "outputs": [
        {
          "internalType": "string",
          "name": "",
          "type": "string"
        }
      ],
      "stateMutability": "view",
      "type": "function"
    },
    {
      "inputs": [
        {
          "internalType": "uint256",
          "name": "tokenId",
          "type": "uint256"
        }
      ],
      "name": "getApproved",
      "outputs": [
        {
          "internalType": "address",
          "name": "",
          "type": "address"
        }
      ],
      "stateMutability": "view",
      "type": "function"
    },
    {
      "inputs": [
        {
          "internalType": "address",
          "name": "owner",
          "type": "address"
        },
        {
          "internalType": "address",
          "name": "operator",
          "type": "address"
        }
      ],
      "name": "isApprovedForAll",
      "outputs": [
        {
          "internalType": "bool",
          "name": "",
          "type": "bool"
        }
      ],
      "stateMutability": "view",
      "type": "function"
    },
    {
      "inputs": [],
      "name": "mintPrice",
      "outputs": [
        {
          "internalType": "uint256",
          "name": "",
          "type": "uint256"
        }
      ],
      "stateMutability": "view",
      "type": "function"
    },
    {
      "inputs": [],
      "name": "name",
      "outputs": [
        {
          "internalType": "string",
          "name": "",
          "type": "string"
        }
      ],
      "stateMutability": "view",
      "type": "function"
    },
    {
      "inputs": [],
      "name": "owner",
      "outputs": [
        {
          "internalType": "address",
          "name": "",
          "type": "address"
        }
      ],
      "stateMutability": "view",
      "type": "function"
    },
    {
      "inputs": [
        {
          "internalType": "uint256",
          "name": "tokenId",
          "type": "uint256"
        }
      ],
      "name": "ownerOf",
      "outputs": [
        {
          "internalType": "address",
          "name": "",
          "type": "address"
        }
      ],
      "stateMutability": "view",
      "type": "function"
    },
    {
      "inputs": [],
      "name": "renounceOwnership",
      "outputs": [],
      "stateMutability": "nonpayable",
      "type": "function"
    },
    {
      "inputs": [
        {
          "internalType": "address",
          "name": "from",
          "type": "address"
        },
        {
          "internalType": "address",
          "name": "to",
          "type": "address"
        },
        {
          "internalType": "uint256",
          "name": "tokenId",
          "type": "uint256"
        }
      ],
      "name": "safeTransferFrom",
      "outputs": [],
      "stateMutability": "nonpayable",
      "type": "function"
    },
    {
      "inputs": [
        {
          "internalType": "address",
          "name": "from",
          "type": "address"
        },
        {
          "internalType": "address",
          "name": "to",
          "type": "address"
        },
        {
          "internalType": "uint256",
          "name": "tokenId",
          "type": "uint256"
        },
        {
          "internalType": "bytes",
          "name": "_data",
          "type": "bytes"
        }
      ],
      "name": "safeTransferFrom",
      "outputs": [],
      "stateMutability": "nonpayable",
      "type": "function"
    },
    {
      "inputs": [
        {
          "internalType": "address",
          "name": "operator",
          "type": "address"
        },
        {
          "internalType": "bool",
          "name": "approved",
          "type": "bool"
        }
      ],
      "name": "setApprovalForAll",
      "outputs": [],
      "stateMutability": "nonpayable",
      "type": "function"
    },
    {
      "inputs": [
        {
          "internalType": "bytes4",
          "name": "interfaceId",
          "type": "bytes4"
        }
      ],
      "name": "supportsInterface",
      "outputs": [
        {
          "internalType": "bool",
          "name": "",
          "type": "bool"
        }
      ],
      "stateMutability": "view",
      "type": "function"
    },
    {
      "inputs": [],
      "name": "symbol",
      "outputs": [
        {
          "internalType": "string",
          "name": "",
          "type": "string"
        }
      ],
      "stateMutability": "view",
      "type": "function"
    },
    {
      "inputs": [
        {
          "internalType": "address",
          "name": "from",
          "type": "address"
        },
        {
          "internalType": "address",
          "name": "to",
          "type": "address"
        },
        {
          "internalType": "uint256",
          "name": "tokenId",
          "type": "uint256"
        }
      ],
      "name": "transferFrom",
      "outputs": [],
      "stateMutability": "nonpayable",
      "type": "function"
    },
    {
      "inputs": [
        {
          "internalType": "address",
          "name": "newOwner",
          "type": "address"
        }
      ],
      "name": "transferOwnership",
      "outputs": [],
      "stateMutability": "nonpayable",
      "type": "function"
    },
    {
      "inputs": [
        {
          "internalType": "string",
          "name": "_name",
          "type": "string"
        }
      ],
      "name": "updateName",
      "outputs": [],
      "stateMutability": "nonpayable",
      "type": "function"
    },
    {
      "inputs": [
        {
          "internalType": "uint256",
          "name": "tokenId",
          "type": "uint256"
        }
      ],
      "name": "getContributors",
      "outputs": [
        {
          "internalType": "address[]",
          "name": "",
          "type": "address[]"
        }
      ],
      "stateMutability": "view",
      "type": "function"
    },
    {
      "inputs": [
        {
          "internalType": "uint256",
          "name": "tokenId",
          "type": "uint256"
        }
      ],
      "name": "tokenURI",
      "outputs": [
        {
          "internalType": "string",
          "name": "",
          "type": "string"
        }
      ],
      "stateMutability": "view",
      "type": "function"
    },
    {
      "inputs": [
        {
          "internalType": "address",
          "name": "_buyer",
          "type": "address"
        },
        {
          "internalType": "string",
          "name": "_metadataURI",
          "type": "string"
        },
        {
          "internalType": "address payable[]",
          "name": "_contributors",
          "type": "address[]"
        }
      ],
      "name": "mint",
      "outputs": [
        {
          "internalType": "string",
          "name": "",
          "type": "string"
        }
      ],
      "stateMutability": "payable",
      "type": "function"
    }
  ],
  "bytecode": "0x60806040526040518060400160405280601581526020017f53616d706c656420506f6c794563686f204e4654210000000000000000000000815250600890805190602001906200005192919062000242565b506040518060400160405280600881526020017f506f6c794563686f000000000000000000000000000000000000000000000000815250600990805190602001906200009f92919062000242565b50348015620000ad57600080fd5b506040518060400160405280600e81526020017f506f6c794563686f53616d706c650000000000000000000000000000000000008152506040518060400160405280600381526020017f504553000000000000000000000000000000000000000000000000000000000081525081600090805190602001906200013292919062000242565b5080600190805190602001906200014b92919062000242565b5050506200016e620001626200017460201b60201c565b6200017c60201b60201c565b62000357565b600033905090565b6000600660009054906101000a900473ffffffffffffffffffffffffffffffffffffffff16905081600660006101000a81548173ffffffffffffffffffffffffffffffffffffffff021916908373ffffffffffffffffffffffffffffffffffffffff1602179055508173ffffffffffffffffffffffffffffffffffffffff168173ffffffffffffffffffffffffffffffffffffffff167f8be0079c531659141344cd1fd0a4f28419497f9722a3daafe3b4186f6b6457e060405160405180910390a35050565b8280546200025090620002f2565b90600052602060002090601f016020900481019282620002745760008555620002c0565b82601f106200028f57805160ff1916838001178555620002c0565b82800160010185558215620002c0579182015b82811115620002bf578251825591602001919060010190620002a2565b5b509050620002cf9190620002d3565b5090565b5b80821115620002ee576000816000905550600101620002d4565b5090565b600060028204905060018216806200030b57607f821691505b6020821081141562000322576200032162000328565b5b50919050565b7f4e487b7100000000000000000000000000000000000000000000000000000000600052602260045260246000fd5b6135e480620003676000396000f3fe6080604052600436106101405760003560e01c806370a08231116100b6578063b88d4fde1161006f578063b88d4fde1461046e578063c87b56dd14610497578063e67e63f4146104d4578063e985e9c514610504578063f2fde38b14610541578063f5ec2eed1461056a57610140565b806370a0823114610372578063715018a6146103af57806384da92a7146103c65780638da5cb5b146103ef57806395d89b411461041a578063a22cb4651461044557610140565b80633c1ab00f116101085780633c1ab00f1461023c57806342842e0e146102795780634affb260146102a257806354346b66146102cd5780636352211e1461030a5780636817c76c1461034757610140565b806301ffc9a71461014557806306fdde0314610182578063081812fc146101ad578063095ea7b3146101ea57806323b872dd14610213575b600080fd5b34801561015157600080fd5b5061016c6004803603810190610167919061247a565b610595565b60405161017991906129c6565b60405180910390f35b34801561018e57600080fd5b50610197610677565b6040516101a49190612a05565b60405180910390f35b3480156101b957600080fd5b506101d460048036038101906101cf9190612511565b610709565b6040516101e1919061293d565b60405180910390f35b3480156101f657600080fd5b50610211600480360381019061020c919061243e565b61078e565b005b34801561021f57600080fd5b5061023a600480360381019061023591906122af565b6108a6565b005b34801561024857600080fd5b50610263600480360381019061025e9190612511565b610906565b60405161027091906129a4565b60405180910390f35b34801561028557600080fd5b506102a0600480360381019061029b91906122af565b6109ef565b005b3480156102ae57600080fd5b506102b7610a0f565b6040516102c49190612a05565b60405180910390f35b3480156102d957600080fd5b506102f460048036038101906102ef919061253a565b610a9d565b604051610301919061293d565b60405180910390f35b34801561031657600080fd5b50610331600480360381019061032c9190612511565b610aeb565b60405161033e919061293d565b60405180910390f35b34801561035357600080fd5b5061035c610b9d565b6040516103699190612c67565b60405180910390f35b34801561037e57600080fd5b5061039960048036038101906103949190612221565b610ba8565b6040516103a69190612c67565b60405180910390f35b3480156103bb57600080fd5b506103c4610c60565b005b3480156103d257600080fd5b506103ed60048036038101906103e891906124cc565b610ce8565b005b3480156103fb57600080fd5b50610404610db3565b604051610411919061293d565b60405180910390f35b34801561042657600080fd5b5061042f610ddd565b60405161043c9190612a05565b60405180910390f35b34801561045157600080fd5b5061046c60048036038101906104679190612379565b610e6f565b005b34801561047a57600080fd5b50610495600480360381019061049091906122fe565b610e85565b005b3480156104a357600080fd5b506104be60048036038101906104b99190612511565b610ee7565b6040516104cb9190612a05565b60405180910390f35b6104ee60048036038101906104e991906123b5565b610fd4565b6040516104fb9190612a05565b60405180910390f35b34801561051057600080fd5b5061052b60048036038101906105269190612273565b6111a4565b60405161053891906129c6565b60405180910390f35b34801561054d57600080fd5b5061056860048036038101906105639190612221565b611238565b005b34801561057657600080fd5b5061057f611330565b60405161058c9190612a05565b60405180910390f35b60007f80ac58cd000000000000000000000000000000000000000000000000000000007bffffffffffffffffffffffffffffffffffffffffffffffffffffffff1916827bffffffffffffffffffffffffffffffffffffffffffffffffffffffff1916148061066057507f5b5e139f000000000000000000000000000000000000000000000000000000007bffffffffffffffffffffffffffffffffffffffffffffffffffffffff1916827bffffffffffffffffffffffffffffffffffffffffffffffffffffffff1916145b80610670575061066f826113be565b5b9050919050565b60606000805461068690612ecc565b80601f01602080910402602001604051908101604052809291908181526020018280546106b290612ecc565b80156106ff5780601f106106d4576101008083540402835291602001916106ff565b820191906000526020600020905b8154815290600101906020018083116106e257829003601f168201915b5050505050905090565b600061071482611428565b610753576040517f08c379a000000000000000000000000000000000000000000000000000000000815260040161074a90612b87565b60405180910390fd5b6004600083815260200190815260200160002060009054906101000a900473ffffffffffffffffffffffffffffffffffffffff169050919050565b600061079982610aeb565b90508073ffffffffffffffffffffffffffffffffffffffff168373ffffffffffffffffffffffffffffffffffffffff16141561080a576040517f08c379a000000000000000000000000000000000000000000000000000000000815260040161080190612be7565b60405180910390fd5b8073ffffffffffffffffffffffffffffffffffffffff16610829611494565b73ffffffffffffffffffffffffffffffffffffffff161480610858575061085781610852611494565b6111a4565b5b610897576040517f08c379a000000000000000000000000000000000000000000000000000000000815260040161088e90612b07565b60405180910390fd5b6108a1838361149c565b505050565b6108b76108b1611494565b82611555565b6108f6576040517f08c379a00000000000000000000000000000000000000000000000000000000081526004016108ed90612c27565b60405180910390fd5b610901838383611633565b505050565b606061091182611428565b610950576040517f08c379a000000000000000000000000000000000000000000000000000000000815260040161094790612c47565b60405180910390fd5b600a60008381526020019081526020016000208054806020026020016040519081016040528092919081815260200182805480156109e357602002820191906000526020600020905b8160009054906101000a900473ffffffffffffffffffffffffffffffffffffffff1673ffffffffffffffffffffffffffffffffffffffff1681526020019060010190808311610999575b50505050509050919050565b610a0a83838360405180602001604052806000815250610e85565b505050565b60088054610a1c90612ecc565b80601f0160208091040260200160405190810160405280929190818152602001828054610a4890612ecc565b8015610a955780601f10610a6a57610100808354040283529160200191610a95565b820191906000526020600020905b815481529060010190602001808311610a7857829003601f168201915b505050505081565b600a6020528160005260406000208181548110610ab957600080fd5b906000526020600020016000915091509054906101000a900473ffffffffffffffffffffffffffffffffffffffff1681565b6000806002600084815260200190815260200160002060009054906101000a900473ffffffffffffffffffffffffffffffffffffffff169050600073ffffffffffffffffffffffffffffffffffffffff168173ffffffffffffffffffffffffffffffffffffffff161415610b94576040517f08c379a0000000000000000000000000000000000000000000000000000000008152600401610b8b90612b47565b60405180910390fd5b80915050919050565b662386f26fc1000081565b60008073ffffffffffffffffffffffffffffffffffffffff168273ffffffffffffffffffffffffffffffffffffffff161415610c19576040517f08c379a0000000000000000000000000000000000000000000000000000000008152600401610c1090612b27565b60405180910390fd5b600360008373ffffffffffffffffffffffffffffffffffffffff1673ffffffffffffffffffffffffffffffffffffffff168152602001908152602001600020549050919050565b610c68611494565b73ffffffffffffffffffffffffffffffffffffffff16610c86610db3565b73ffffffffffffffffffffffffffffffffffffffff1614610cdc576040517f08c379a0000000000000000000000000000000000000000000000000000000008152600401610cd390612ba7565b60405180910390fd5b610ce6600061189a565b565b610cf0611494565b73ffffffffffffffffffffffffffffffffffffffff16610d0e610db3565b73ffffffffffffffffffffffffffffffffffffffff1614610d64576040517f08c379a0000000000000000000000000000000000000000000000000000000008152600401610d5b90612ba7565b60405180910390fd5b818160089190610d75929190611f64565b507f9f7688a97f1ac51fe03bac18af18d6810f9f11f0db08c59b1938a9ac825ef7448282604051610da79291906129e1565b60405180910390a15050565b6000600660009054906101000a900473ffffffffffffffffffffffffffffffffffffffff16905090565b606060018054610dec90612ecc565b80601f0160208091040260200160405190810160405280929190818152602001828054610e1890612ecc565b8015610e655780601f10610e3a57610100808354040283529160200191610e65565b820191906000526020600020905b815481529060010190602001808311610e4857829003601f168201915b5050505050905090565b610e81610e7a611494565b8383611960565b5050565b610e96610e90611494565b83611555565b610ed5576040517f08c379a0000000000000000000000000000000000000000000000000000000008152600401610ecc90612c27565b60405180910390fd5b610ee184848484611acd565b50505050565b6060610ef282611428565b610f31576040517f08c379a0000000000000000000000000000000000000000000000000000000008152600401610f2890612bc7565b60405180910390fd5b600b60008381526020019081526020016000208054610f4f90612ecc565b80601f0160208091040260200160405190810160405280929190818152602001828054610f7b90612ecc565b8015610fc85780601f10610f9d57610100808354040283529160200191610fc8565b820191906000526020600020905b815481529060010190602001808311610fab57829003601f168201915b50505050509050919050565b6060662386f26fc10000341015611020576040517f08c379a000000000000000000000000000000000000000000000000000000000815260040161101790612c07565b60405180910390fd5b600061102c6007611b29565b90508585600b60008481526020019081526020016000209190611050929190611f64565b508383600a60008481526020019081526020016000209190611073929190611fea565b5061107e8782611b37565b60005b848490508110156111475760008585838181106110c7577f4e487b7100000000000000000000000000000000000000000000000000000000600052603260045260246000fd5b90506020020160208101906110dc919061224a565b90508073ffffffffffffffffffffffffffffffffffffffff166108fc87879050346111079190612d9f565b9081150290604051600060405180830381858888f19350505050158015611132573d6000803e3d6000fd5b5050808061113f90612f2f565b915050611081565b50600061115382610ee7565b90507fc380bb6abc247ec4ba5a3fd8ac5f6c39b8f37ce3baf14a7fb316ac4c6eca6631816040516111849190612a05565b60405180910390a16111966007611b55565b809250505095945050505050565b6000600560008473ffffffffffffffffffffffffffffffffffffffff1673ffffffffffffffffffffffffffffffffffffffff16815260200190815260200160002060008373ffffffffffffffffffffffffffffffffffffffff1673ffffffffffffffffffffffffffffffffffffffff16815260200190815260200160002060009054906101000a900460ff16905092915050565b611240611494565b73ffffffffffffffffffffffffffffffffffffffff1661125e610db3565b73ffffffffffffffffffffffffffffffffffffffff16146112b4576040517f08c379a00000000000000000000000000000000000000000000000000000000081526004016112ab90612ba7565b60405180910390fd5b600073ffffffffffffffffffffffffffffffffffffffff168173ffffffffffffffffffffffffffffffffffffffff161415611324576040517f08c379a000000000000000000000000000000000000000000000000000000000815260040161131b90612a47565b60405180910390fd5b61132d8161189a565b50565b6009805461133d90612ecc565b80601f016020809104026020016040519081016040528092919081815260200182805461136990612ecc565b80156113b65780601f1061138b576101008083540402835291602001916113b6565b820191906000526020600020905b81548152906001019060200180831161139957829003601f168201915b505050505081565b60007f01ffc9a7000000000000000000000000000000000000000000000000000000007bffffffffffffffffffffffffffffffffffffffffffffffffffffffff1916827bffffffffffffffffffffffffffffffffffffffffffffffffffffffff1916149050919050565b60008073ffffffffffffffffffffffffffffffffffffffff166002600084815260200190815260200160002060009054906101000a900473ffffffffffffffffffffffffffffffffffffffff1673ffffffffffffffffffffffffffffffffffffffff1614159050919050565b600033905090565b816004600083815260200190815260200160002060006101000a81548173ffffffffffffffffffffffffffffffffffffffff021916908373ffffffffffffffffffffffffffffffffffffffff160217905550808273ffffffffffffffffffffffffffffffffffffffff1661150f83610aeb565b73ffffffffffffffffffffffffffffffffffffffff167f8c5be1e5ebec7d5bd14f71427d1e84f3dd0314c0f7b2291e5b200ac8c7c3b92560405160405180910390a45050565b600061156082611428565b61159f576040517f08c379a000000000000000000000000000000000000000000000000000000000815260040161159690612ae7565b60405180910390fd5b60006115aa83610aeb565b90508073ffffffffffffffffffffffffffffffffffffffff168473ffffffffffffffffffffffffffffffffffffffff16148061161957508373ffffffffffffffffffffffffffffffffffffffff1661160184610709565b73ffffffffffffffffffffffffffffffffffffffff16145b8061162a575061162981856111a4565b5b91505092915050565b8273ffffffffffffffffffffffffffffffffffffffff1661165382610aeb565b73ffffffffffffffffffffffffffffffffffffffff16146116a9576040517f08c379a00000000000000000000000000000000000000000000000000000000081526004016116a090612a67565b60405180910390fd5b600073ffffffffffffffffffffffffffffffffffffffff168273ffffffffffffffffffffffffffffffffffffffff161415611719576040517f08c379a000000000000000000000000000000000000000000000000000000000815260040161171090612aa7565b60405180910390fd5b611724838383611b6b565b61172f60008261149c565b6001600360008573ffffffffffffffffffffffffffffffffffffffff1673ffffffffffffffffffffffffffffffffffffffff168152602001908152602001600020600082825461177f9190612dd0565b925050819055506001600360008473ffffffffffffffffffffffffffffffffffffffff1673ffffffffffffffffffffffffffffffffffffffff16815260200190815260200160002060008282546117d69190612d49565b92505081905550816002600083815260200190815260200160002060006101000a81548173ffffffffffffffffffffffffffffffffffffffff021916908373ffffffffffffffffffffffffffffffffffffffff160217905550808273ffffffffffffffffffffffffffffffffffffffff168473ffffffffffffffffffffffffffffffffffffffff167fddf252ad1be2c89b69c2b068fc378daa952ba7f163c4a11628f55a4df523b3ef60405160405180910390a4611895838383611b70565b505050565b6000600660009054906101000a900473ffffffffffffffffffffffffffffffffffffffff16905081600660006101000a81548173ffffffffffffffffffffffffffffffffffffffff021916908373ffffffffffffffffffffffffffffffffffffffff1602179055508173ffffffffffffffffffffffffffffffffffffffff168173ffffffffffffffffffffffffffffffffffffffff167f8be0079c531659141344cd1fd0a4f28419497f9722a3daafe3b4186f6b6457e060405160405180910390a35050565b8173ffffffffffffffffffffffffffffffffffffffff168373ffffffffffffffffffffffffffffffffffffffff1614156119cf576040517f08c379a00000000000000000000000000000000000000000000000000000000081526004016119c690612ac7565b60405180910390fd5b80600560008573ffffffffffffffffffffffffffffffffffffffff1673ffffffffffffffffffffffffffffffffffffffff16815260200190815260200160002060008473ffffffffffffffffffffffffffffffffffffffff1673ffffffffffffffffffffffffffffffffffffffff16815260200190815260200160002060006101000a81548160ff0219169083151502179055508173ffffffffffffffffffffffffffffffffffffffff168373ffffffffffffffffffffffffffffffffffffffff167f17307eab39ab6107e8899845ad3d59bd9653f200f220920489ca2b5937696c3183604051611ac091906129c6565b60405180910390a3505050565b611ad8848484611633565b611ae484848484611b75565b611b23576040517f08c379a0000000000000000000000000000000000000000000000000000000008152600401611b1a90612a27565b60405180910390fd5b50505050565b600081600001549050919050565b611b51828260405180602001604052806000815250611d0c565b5050565b6001816000016000828254019250508190555050565b505050565b505050565b6000611b968473ffffffffffffffffffffffffffffffffffffffff16611d67565b15611cff578373ffffffffffffffffffffffffffffffffffffffff1663150b7a02611bbf611494565b8786866040518563ffffffff1660e01b8152600401611be19493929190612958565b602060405180830381600087803b158015611bfb57600080fd5b505af1925050508015611c2c57506040513d601f19601f82011682018060405250810190611c2991906124a3565b60015b611caf573d8060008114611c5c576040519150601f19603f3d011682016040523d82523d6000602084013e611c61565b606091505b50600081511415611ca7576040517f08c379a0000000000000000000000000000000000000000000000000000000008152600401611c9e90612a27565b60405180910390fd5b805181602001fd5b63150b7a0260e01b7bffffffffffffffffffffffffffffffffffffffffffffffffffffffff1916817bffffffffffffffffffffffffffffffffffffffffffffffffffffffff191614915050611d04565b600190505b949350505050565b611d168383611d8a565b611d236000848484611b75565b611d62576040517f08c379a0000000000000000000000000000000000000000000000000000000008152600401611d5990612a27565b60405180910390fd5b505050565b6000808273ffffffffffffffffffffffffffffffffffffffff163b119050919050565b600073ffffffffffffffffffffffffffffffffffffffff168273ffffffffffffffffffffffffffffffffffffffff161415611dfa576040517f08c379a0000000000000000000000000000000000000000000000000000000008152600401611df190612b67565b60405180910390fd5b611e0381611428565b15611e43576040517f08c379a0000000000000000000000000000000000000000000000000000000008152600401611e3a90612a87565b60405180910390fd5b611e4f60008383611b6b565b6001600360008473ffffffffffffffffffffffffffffffffffffffff1673ffffffffffffffffffffffffffffffffffffffff1681526020019081526020016000206000828254611e9f9190612d49565b92505081905550816002600083815260200190815260200160002060006101000a81548173ffffffffffffffffffffffffffffffffffffffff021916908373ffffffffffffffffffffffffffffffffffffffff160217905550808273ffffffffffffffffffffffffffffffffffffffff16600073ffffffffffffffffffffffffffffffffffffffff167fddf252ad1be2c89b69c2b068fc378daa952ba7f163c4a11628f55a4df523b3ef60405160405180910390a4611f6060008383611b70565b5050565b828054611f7090612ecc565b90600052602060002090601f016020900481019282611f925760008555611fd9565b82601f10611fab57803560ff1916838001178555611fd9565b82800160010185558215611fd9579182015b82811115611fd8578235825591602001919060010190611fbd565b5b509050611fe6919061208a565b5090565b828054828255906000526020600020908101928215612079579160200282015b8281111561207857823573ffffffffffffffffffffffffffffffffffffffff168260006101000a81548173ffffffffffffffffffffffffffffffffffffffff021916908373ffffffffffffffffffffffffffffffffffffffff1602179055509160200191906001019061200a565b5b509050612086919061208a565b5090565b5b808211156120a357600081600090555060010161208b565b5090565b60006120ba6120b584612ca7565b612c82565b9050828152602081018484840111156120d257600080fd5b6120dd848285612e8a565b509392505050565b6000813590506120f48161353b565b92915050565b60008135905061210981613552565b92915050565b60008083601f84011261212157600080fd5b8235905067ffffffffffffffff81111561213a57600080fd5b60208301915083602082028301111561215257600080fd5b9250929050565b60008135905061216881613569565b92915050565b60008135905061217d81613580565b92915050565b60008151905061219281613580565b92915050565b600082601f8301126121a957600080fd5b81356121b98482602086016120a7565b91505092915050565b60008083601f8401126121d457600080fd5b8235905067ffffffffffffffff8111156121ed57600080fd5b60208301915083600182028301111561220557600080fd5b9250929050565b60008135905061221b81613597565b92915050565b60006020828403121561223357600080fd5b6000612241848285016120e5565b91505092915050565b60006020828403121561225c57600080fd5b600061226a848285016120fa565b91505092915050565b6000806040838503121561228657600080fd5b6000612294858286016120e5565b92505060206122a5858286016120e5565b9150509250929050565b6000806000606084860312156122c457600080fd5b60006122d2868287016120e5565b93505060206122e3868287016120e5565b92505060406122f48682870161220c565b9150509250925092565b6000806000806080858703121561231457600080fd5b6000612322878288016120e5565b9450506020612333878288016120e5565b93505060406123448782880161220c565b925050606085013567ffffffffffffffff81111561236157600080fd5b61236d87828801612198565b91505092959194509250565b6000806040838503121561238c57600080fd5b600061239a858286016120e5565b92505060206123ab85828601612159565b9150509250929050565b6000806000806000606086880312156123cd57600080fd5b60006123db888289016120e5565b955050602086013567ffffffffffffffff8111156123f857600080fd5b612404888289016121c2565b9450945050604086013567ffffffffffffffff81111561242357600080fd5b61242f8882890161210f565b92509250509295509295909350565b6000806040838503121561245157600080fd5b600061245f858286016120e5565b92505060206124708582860161220c565b9150509250929050565b60006020828403121561248c57600080fd5b600061249a8482850161216e565b91505092915050565b6000602082840312156124b557600080fd5b60006124c384828501612183565b91505092915050565b600080602083850312156124df57600080fd5b600083013567ffffffffffffffff8111156124f957600080fd5b612505858286016121c2565b92509250509250929050565b60006020828403121561252357600080fd5b60006125318482850161220c565b91505092915050565b6000806040838503121561254d57600080fd5b600061255b8582860161220c565b925050602061256c8582860161220c565b9150509250929050565b6000612582838361258e565b60208301905092915050565b61259781612e04565b82525050565b6125a681612e04565b82525050565b60006125b782612ce8565b6125c18185612d16565b93506125cc83612cd8565b8060005b838110156125fd5781516125e48882612576565b97506125ef83612d09565b9250506001810190506125d0565b5085935050505092915050565b61261381612e28565b82525050565b600061262482612cf3565b61262e8185612d27565b935061263e818560208601612e99565b61264781613034565b840191505092915050565b600061265e8385612d38565b935061266b838584612e8a565b61267483613034565b840190509392505050565b600061268a82612cfe565b6126948185612d38565b93506126a4818560208601612e99565b6126ad81613034565b840191505092915050565b60006126c5603283612d38565b91506126d082613045565b604082019050919050565b60006126e8602683612d38565b91506126f382613094565b604082019050919050565b600061270b602583612d38565b9150612716826130e3565b604082019050919050565b600061272e601c83612d38565b915061273982613132565b602082019050919050565b6000612751602483612d38565b915061275c8261315b565b604082019050919050565b6000612774601983612d38565b915061277f826131aa565b602082019050919050565b6000612797602c83612d38565b91506127a2826131d3565b604082019050919050565b60006127ba603883612d38565b91506127c582613222565b604082019050919050565b60006127dd602a83612d38565b91506127e882613271565b604082019050919050565b6000612800602983612d38565b915061280b826132c0565b604082019050919050565b6000612823602083612d38565b915061282e8261330f565b602082019050919050565b6000612846602c83612d38565b915061285182613338565b604082019050919050565b6000612869602083612d38565b915061287482613387565b602082019050919050565b600061288c602f83612d38565b9150612897826133b0565b604082019050919050565b60006128af602183612d38565b91506128ba826133ff565b604082019050919050565b60006128d2602683612d38565b91506128dd8261344e565b604082019050919050565b60006128f5603183612d38565b91506129008261349d565b604082019050919050565b6000612918602f83612d38565b9150612923826134ec565b604082019050919050565b61293781612e80565b82525050565b6000602082019050612952600083018461259d565b92915050565b600060808201905061296d600083018761259d565b61297a602083018661259d565b612987604083018561292e565b81810360608301526129998184612619565b905095945050505050565b600060208201905081810360008301526129be81846125ac565b905092915050565b60006020820190506129db600083018461260a565b92915050565b600060208201905081810360008301526129fc818486612652565b90509392505050565b60006020820190508181036000830152612a1f818461267f565b905092915050565b60006020820190508181036000830152612a40816126b8565b9050919050565b60006020820190508181036000830152612a60816126db565b9050919050565b60006020820190508181036000830152612a80816126fe565b9050919050565b60006020820190508181036000830152612aa081612721565b9050919050565b60006020820190508181036000830152612ac081612744565b9050919050565b60006020820190508181036000830152612ae081612767565b9050919050565b60006020820190508181036000830152612b008161278a565b9050919050565b60006020820190508181036000830152612b20816127ad565b9050919050565b60006020820190508181036000830152612b40816127d0565b9050919050565b60006020820190508181036000830152612b60816127f3565b9050919050565b60006020820190508181036000830152612b8081612816565b9050919050565b60006020820190508181036000830152612ba081612839565b9050919050565b60006020820190508181036000830152612bc08161285c565b9050919050565b60006020820190508181036000830152612be08161287f565b9050919050565b60006020820190508181036000830152612c00816128a2565b9050919050565b60006020820190508181036000830152612c20816128c5565b9050919050565b60006020820190508181036000830152612c40816128e8565b9050919050565b60006020820190508181036000830152612c608161290b565b9050919050565b6000602082019050612c7c600083018461292e565b92915050565b6000612c8c612c9d565b9050612c988282612efe565b919050565b6000604051905090565b600067ffffffffffffffff821115612cc257612cc1613005565b5b612ccb82613034565b9050602081019050919050565b6000819050602082019050919050565b600081519050919050565b600081519050919050565b600081519050919050565b6000602082019050919050565b600082825260208201905092915050565b600082825260208201905092915050565b600082825260208201905092915050565b6000612d5482612e80565b9150612d5f83612e80565b9250827fffffffffffffffffffffffffffffffffffffffffffffffffffffffffffffffff03821115612d9457612d93612f78565b5b828201905092915050565b6000612daa82612e80565b9150612db583612e80565b925082612dc557612dc4612fa7565b5b828204905092915050565b6000612ddb82612e80565b9150612de683612e80565b925082821015612df957612df8612f78565b5b828203905092915050565b6000612e0f82612e60565b9050919050565b6000612e2182612e60565b9050919050565b60008115159050919050565b60007fffffffff0000000000000000000000000000000000000000000000000000000082169050919050565b600073ffffffffffffffffffffffffffffffffffffffff82169050919050565b6000819050919050565b82818337600083830152505050565b60005b83811015612eb7578082015181840152602081019050612e9c565b83811115612ec6576000848401525b50505050565b60006002820490506001821680612ee457607f821691505b60208210811415612ef857612ef7612fd6565b5b50919050565b612f0782613034565b810181811067ffffffffffffffff82111715612f2657612f25613005565b5b80604052505050565b6000612f3a82612e80565b91507fffffffffffffffffffffffffffffffffffffffffffffffffffffffffffffffff821415612f6d57612f6c612f78565b5b600182019050919050565b7f4e487b7100000000000000000000000000000000000000000000000000000000600052601160045260246000fd5b7f4e487b7100000000000000000000000000000000000000000000000000000000600052601260045260246000fd5b7f4e487b7100000000000000000000000000000000000000000000000000000000600052602260045260246000fd5b7f4e487b7100000000000000000000000000000000000000000000000000000000600052604160045260246000fd5b6000601f19601f8301169050919050565b7f4552433732313a207472616e7366657220746f206e6f6e20455243373231526560008201527f63656976657220696d706c656d656e7465720000000000000000000000000000602082015250565b7f4f776e61626c653a206e6577206f776e657220697320746865207a65726f206160008201527f6464726573730000000000000000000000000000000000000000000000000000602082015250565b7f4552433732313a207472616e736665722066726f6d20696e636f72726563742060008201527f6f776e6572000000000000000000000000000000000000000000000000000000602082015250565b7f4552433732313a20746f6b656e20616c7265616479206d696e74656400000000600082015250565b7f4552433732313a207472616e7366657220746f20746865207a65726f2061646460008201527f7265737300000000000000000000000000000000000000000000000000000000602082015250565b7f4552433732313a20617070726f766520746f2063616c6c657200000000000000600082015250565b7f4552433732313a206f70657261746f7220717565727920666f72206e6f6e657860008201527f697374656e7420746f6b656e0000000000000000000000000000000000000000602082015250565b7f4552433732313a20617070726f76652063616c6c6572206973206e6f74206f7760008201527f6e6572206e6f7220617070726f76656420666f7220616c6c0000000000000000602082015250565b7f4552433732313a2062616c616e636520717565727920666f7220746865207a6560008201527f726f206164647265737300000000000000000000000000000000000000000000602082015250565b7f4552433732313a206f776e657220717565727920666f72206e6f6e657869737460008201527f656e7420746f6b656e0000000000000000000000000000000000000000000000602082015250565b7f4552433732313a206d696e7420746f20746865207a65726f2061646472657373600082015250565b7f4552433732313a20617070726f76656420717565727920666f72206e6f6e657860008201527f697374656e7420746f6b656e0000000000000000000000000000000000000000602082015250565b7f4f776e61626c653a2063616c6c6572206973206e6f7420746865206f776e6572600082015250565b7f4552433732314d657461646174613a2055524920717565727920666f72206e6f60008201527f6e6578697374656e7420746f6b656e0000000000000000000000000000000000602082015250565b7f4552433732313a20617070726f76616c20746f2063757272656e74206f776e6560008201527f7200000000000000000000000000000000000000000000000000000000000000602082015250565b7f53656e742065746865722076616c7565206973206e6f7420656e6f756768207460008201527f6f206d696e740000000000000000000000000000000000000000000000000000602082015250565b7f4552433732313a207472616e736665722063616c6c6572206973206e6f74206f60008201527f776e6572206e6f7220617070726f766564000000000000000000000000000000602082015250565b7f4552433732313a20436f6e7472696275746f7220717565727920666f72206e6f60008201527f6e6578697374656e7420746f6b656e0000000000000000000000000000000000602082015250565b61354481612e04565b811461354f57600080fd5b50565b61355b81612e16565b811461356657600080fd5b50565b61357281612e28565b811461357d57600080fd5b50565b61358981612e34565b811461359457600080fd5b50565b6135a081612e80565b81146135ab57600080fd5b5056fea2646970667358221220d4cd1ee1a8610b898e69739546acf5faec2ad092bd6210b340befffcd0610a9664736f6c63430008010033",
  "immutableReferences": {},
  "source": "// contracts/GameItem.sol\n// SPDX-License-Identifier: MIT\npragma solidity >=0.8.0;\n\nimport \"@openzeppelin/contracts/token/ERC721/ERC721.sol\";\nimport \"@openzeppelin/contracts/utils/Counters.sol\";\nimport \"@openzeppelin/contracts/access/Ownable.sol\";\n\ncontract PolyechoSample is ERC721, Ownable {\n    using Counters for Counters.Counter;\n    Counters.Counter private _tokenIds;\n\n    // Fields\n    string public displayName = \"Sampled PolyEcho NFT!\";\n    string public companyName = \"PolyEcho\";\n    mapping(uint256 => address[]) public contributors;\n    mapping(uint256 => string) tokenURIs;\n    uint256 public constant mintPrice = 10000000000000000; // 0.01 ETH\n    // Events\n    event NameUpdated(string name);\n    event TokenCreated(string tokenURI);\n\n    constructor() ERC721(\"PolyEchoSample\", \"PES\") {}\n\n    function updateName(string calldata _name) external onlyOwner {\n        displayName = _name;\n        emit NameUpdated(_name);\n    }\n\n    function getContributors(uint256 tokenId)\n        public\n        view\n        returns (address[] memory)\n    {\n        require(\n            _exists(tokenId),\n            \"ERC721: Contributor query for nonexistent token\"\n        );\n\n        return contributors[tokenId];\n    }\n\n    function tokenURI(uint256 tokenId)\n        public\n        view\n        override\n        returns (string memory)\n    {\n        require(\n            _exists(tokenId),\n            \"ERC721Metadata: URI query for nonexistent token\"\n        );\n        return tokenURIs[tokenId];\n    }\n\n    function mint(\n        address _buyer,\n        string calldata _metadataURI,\n        address payable[] calldata _contributors\n    ) public payable returns (string memory) {\n        require(\n            msg.value >= mintPrice,\n            \"Sent ether value is not enough to mint\"\n        );\n\n        uint256 tokenId = _tokenIds.current();\n        tokenURIs[tokenId] = _metadataURI;\n        contributors[tokenId] = _contributors;\n\n        _safeMint(_buyer, tokenId);\n\n        for (uint256 i = 0; i < _contributors.length; i++) {\n            address payable contributor = _contributors[i];\n            contributor.transfer(msg.value / _contributors.length);\n        }\n\n        string memory newURI = tokenURI(tokenId);\n        emit TokenCreated(newURI);\n\n        _tokenIds.increment();\n        return newURI;\n    }\n}\n",
  "sourcePath": "/Users/shaula/Library/Mobile Documents/com~apple~CloudDocs/repos/ethden-hack-web/web3/contracts/PolyechoSample.sol",
  "compiler": {
    "name": "solc",
    "version": "0.8.1+commit.df193b15.Emscripten.clang"
  },
  "schemaVersion": "3.4.3",
  "updatedAt": "2022-02-20T13:15:14.258Z",
  "devdoc": {
    "kind": "dev",
    "methods": {
      "approve(address,uint256)": {
        "details": "See {IERC721-approve}."
      },
      "balanceOf(address)": {
        "details": "See {IERC721-balanceOf}."
      },
      "getApproved(uint256)": {
        "details": "See {IERC721-getApproved}."
      },
      "isApprovedForAll(address,address)": {
        "details": "See {IERC721-isApprovedForAll}."
      },
      "name()": {
        "details": "See {IERC721Metadata-name}."
      },
      "owner()": {
        "details": "Returns the address of the current owner."
      },
      "ownerOf(uint256)": {
        "details": "See {IERC721-ownerOf}."
      },
      "renounceOwnership()": {
        "details": "Leaves the contract without owner. It will not be possible to call `onlyOwner` functions anymore. Can only be called by the current owner. NOTE: Renouncing ownership will leave the contract without an owner, thereby removing any functionality that is only available to the owner."
      },
      "safeTransferFrom(address,address,uint256)": {
        "details": "See {IERC721-safeTransferFrom}."
      },
      "safeTransferFrom(address,address,uint256,bytes)": {
        "details": "See {IERC721-safeTransferFrom}."
      },
      "setApprovalForAll(address,bool)": {
        "details": "See {IERC721-setApprovalForAll}."
      },
      "supportsInterface(bytes4)": {
        "details": "See {IERC165-supportsInterface}."
      },
      "symbol()": {
        "details": "See {IERC721Metadata-symbol}."
      },
      "tokenURI(uint256)": {
        "details": "See {IERC721Metadata-tokenURI}."
      },
      "transferFrom(address,address,uint256)": {
        "details": "See {IERC721-transferFrom}."
      },
      "transferOwnership(address)": {
        "details": "Transfers ownership of the contract to a new account (`newOwner`). Can only be called by the current owner."
      }
    },
    "version": 1
  },
  "userdoc": {
    "kind": "user",
    "methods": {},
    "version": 1
  }
}