{
  "contractName": "PolyEchoNFT",
  "abi": [
    {
      "inputs": [],
      "stateMutability": "nonpayable",
      "type": "constructor"
    },
    {
      "anonymous": false,
      "inputs": [
        {
          "indexed": true,
          "internalType": "address",
          "name": "owner",
          "type": "address"
        },
        {
          "indexed": true,
          "internalType": "address",
          "name": "approved",
          "type": "address"
        },
        {
          "indexed": true,
          "internalType": "uint256",
          "name": "tokenId",
          "type": "uint256"
        }
      ],
      "name": "Approval",
      "type": "event"
    },
    {
      "anonymous": false,
      "inputs": [
        {
          "indexed": true,
          "internalType": "address",
          "name": "owner",
          "type": "address"
        },
        {
          "indexed": true,
          "internalType": "address",
          "name": "operator",
          "type": "address"
        },
        {
          "indexed": false,
          "internalType": "bool",
          "name": "approved",
          "type": "bool"
        }
      ],
      "name": "ApprovalForAll",
      "type": "event"
    },
    {
      "anonymous": false,
      "inputs": [
        {
          "indexed": false,
          "internalType": "string",
          "name": "name",
          "type": "string"
        }
      ],
      "name": "NameUpdated",
      "type": "event"
    },
    {
      "anonymous": false,
      "inputs": [
        {
          "indexed": false,
          "internalType": "uint256",
          "name": "_tokenId",
          "type": "uint256"
        },
        {
          "indexed": false,
          "internalType": "address",
          "name": "_seller",
          "type": "address"
        },
        {
          "indexed": false,
          "internalType": "address",
          "name": "_buyer",
          "type": "address"
        },
        {
          "indexed": false,
          "internalType": "uint256",
          "name": "_price",
          "type": "uint256"
        }
      ],
      "name": "NftBought",
      "type": "event"
    },
    {
      "anonymous": false,
      "inputs": [
        {
          "indexed": true,
          "internalType": "address",
          "name": "previousOwner",
          "type": "address"
        },
        {
          "indexed": true,
          "internalType": "address",
          "name": "newOwner",
          "type": "address"
        }
      ],
      "name": "OwnershipTransferred",
      "type": "event"
    },
    {
      "anonymous": false,
      "inputs": [
        {
          "indexed": false,
          "internalType": "uint256",
          "name": "_tokenId",
          "type": "uint256"
        },
        {
          "indexed": false,
          "internalType": "uint256",
          "name": "_price",
          "type": "uint256"
        },
        {
          "indexed": false,
          "internalType": "address[]",
          "name": "_contributors",
          "type": "address[]"
        }
      ],
      "name": "RoyaltiesPaid",
      "type": "event"
    },
    {
      "anonymous": false,
      "inputs": [
        {
          "indexed": false,
          "internalType": "uint256",
          "name": "_tokenId",
          "type": "uint256"
        },
        {
          "indexed": false,
          "internalType": "uint256",
          "name": "_price",
          "type": "uint256"
        }
      ],
      "name": "SellerPaid",
      "type": "event"
    },
    {
      "anonymous": false,
      "inputs": [
        {
          "indexed": false,
          "internalType": "uint256",
          "name": "_tokenId",
          "type": "uint256"
        },
        {
          "indexed": false,
          "internalType": "string",
          "name": "_tokenURI",
          "type": "string"
        }
      ],
      "name": "TokenCreated",
      "type": "event"
    },
    {
      "anonymous": false,
      "inputs": [
        {
          "indexed": true,
          "internalType": "address",
          "name": "from",
          "type": "address"
        },
        {
          "indexed": true,
          "internalType": "address",
          "name": "to",
          "type": "address"
        },
        {
          "indexed": true,
          "internalType": "uint256",
          "name": "tokenId",
          "type": "uint256"
        }
      ],
      "name": "Transfer",
      "type": "event"
    },
    {
      "inputs": [
        {
          "internalType": "address",
          "name": "to",
          "type": "address"
        },
        {
          "internalType": "uint256",
          "name": "tokenId",
          "type": "uint256"
        }
      ],
      "name": "approve",
      "outputs": [],
      "stateMutability": "nonpayable",
      "type": "function"
    },
    {
      "inputs": [
        {
          "internalType": "address",
          "name": "owner",
          "type": "address"
        }
      ],
      "name": "balanceOf",
      "outputs": [
        {
          "internalType": "uint256",
          "name": "",
          "type": "uint256"
        }
      ],
      "stateMutability": "view",
      "type": "function"
    },
    {
      "inputs": [],
      "name": "companyName",
      "outputs": [
        {
          "internalType": "string",
          "name": "",
          "type": "string"
        }
      ],
      "stateMutability": "view",
      "type": "function"
    },
    {
      "inputs": [],
      "name": "displayName",
      "outputs": [
        {
          "internalType": "string",
          "name": "",
          "type": "string"
        }
      ],
      "stateMutability": "view",
      "type": "function"
    },
    {
      "inputs": [
        {
          "internalType": "uint256",
          "name": "tokenId",
          "type": "uint256"
        }
      ],
      "name": "getApproved",
      "outputs": [
        {
          "internalType": "address",
          "name": "",
          "type": "address"
        }
      ],
      "stateMutability": "view",
      "type": "function"
    },
    {
      "inputs": [
        {
          "internalType": "address",
          "name": "owner",
          "type": "address"
        },
        {
          "internalType": "address",
          "name": "operator",
          "type": "address"
        }
      ],
      "name": "isApprovedForAll",
      "outputs": [
        {
          "internalType": "bool",
          "name": "",
          "type": "bool"
        }
      ],
      "stateMutability": "view",
      "type": "function"
    },
    {
      "inputs": [],
      "name": "mintPrice",
      "outputs": [
        {
          "internalType": "uint256",
          "name": "",
          "type": "uint256"
        }
      ],
      "stateMutability": "view",
      "type": "function"
    },
    {
      "inputs": [],
      "name": "name",
      "outputs": [
        {
          "internalType": "string",
          "name": "",
          "type": "string"
        }
      ],
      "stateMutability": "view",
      "type": "function"
    },
    {
      "inputs": [],
      "name": "owner",
      "outputs": [
        {
          "internalType": "address",
          "name": "",
          "type": "address"
        }
      ],
      "stateMutability": "view",
      "type": "function"
    },
    {
      "inputs": [
        {
          "internalType": "uint256",
          "name": "tokenId",
          "type": "uint256"
        }
      ],
      "name": "ownerOf",
      "outputs": [
        {
          "internalType": "address",
          "name": "",
          "type": "address"
        }
      ],
      "stateMutability": "view",
      "type": "function"
    },
    {
      "inputs": [],
      "name": "renounceOwnership",
      "outputs": [],
      "stateMutability": "nonpayable",
      "type": "function"
    },
    {
      "inputs": [
        {
          "internalType": "address",
          "name": "from",
          "type": "address"
        },
        {
          "internalType": "address",
          "name": "to",
          "type": "address"
        },
        {
          "internalType": "uint256",
          "name": "tokenId",
          "type": "uint256"
        }
      ],
      "name": "safeTransferFrom",
      "outputs": [],
      "stateMutability": "nonpayable",
      "type": "function"
    },
    {
      "inputs": [
        {
          "internalType": "address",
          "name": "from",
          "type": "address"
        },
        {
          "internalType": "address",
          "name": "to",
          "type": "address"
        },
        {
          "internalType": "uint256",
          "name": "tokenId",
          "type": "uint256"
        },
        {
          "internalType": "bytes",
          "name": "_data",
          "type": "bytes"
        }
      ],
      "name": "safeTransferFrom",
      "outputs": [],
      "stateMutability": "nonpayable",
      "type": "function"
    },
    {
      "inputs": [
        {
          "internalType": "address",
          "name": "operator",
          "type": "address"
        },
        {
          "internalType": "bool",
          "name": "approved",
          "type": "bool"
        }
      ],
      "name": "setApprovalForAll",
      "outputs": [],
      "stateMutability": "nonpayable",
      "type": "function"
    },
    {
      "inputs": [
        {
          "internalType": "bytes4",
          "name": "interfaceId",
          "type": "bytes4"
        }
      ],
      "name": "supportsInterface",
      "outputs": [
        {
          "internalType": "bool",
          "name": "",
          "type": "bool"
        }
      ],
      "stateMutability": "view",
      "type": "function"
    },
    {
      "inputs": [],
      "name": "symbol",
      "outputs": [
        {
          "internalType": "string",
          "name": "",
          "type": "string"
        }
      ],
      "stateMutability": "view",
      "type": "function"
    },
    {
      "inputs": [
        {
          "internalType": "uint256",
          "name": "",
          "type": "uint256"
        },
        {
          "internalType": "uint256",
          "name": "",
          "type": "uint256"
        }
      ],
      "name": "tokenIdToContributors",
      "outputs": [
        {
          "internalType": "address",
          "name": "",
          "type": "address"
        }
      ],
      "stateMutability": "view",
      "type": "function"
    },
    {
      "inputs": [
        {
          "internalType": "uint256",
          "name": "",
          "type": "uint256"
        }
      ],
      "name": "tokenIdToPrice",
      "outputs": [
        {
          "internalType": "uint256",
          "name": "",
          "type": "uint256"
        }
      ],
      "stateMutability": "view",
      "type": "function"
    },
    {
      "inputs": [
        {
          "internalType": "address",
          "name": "from",
          "type": "address"
        },
        {
          "internalType": "address",
          "name": "to",
          "type": "address"
        },
        {
          "internalType": "uint256",
          "name": "tokenId",
          "type": "uint256"
        }
      ],
      "name": "transferFrom",
      "outputs": [],
      "stateMutability": "nonpayable",
      "type": "function"
    },
    {
      "inputs": [
        {
          "internalType": "address",
          "name": "newOwner",
          "type": "address"
        }
      ],
      "name": "transferOwnership",
      "outputs": [],
      "stateMutability": "nonpayable",
      "type": "function"
    },
    {
      "inputs": [
        {
          "internalType": "string",
          "name": "_name",
          "type": "string"
        }
      ],
      "name": "updateDisplayName",
      "outputs": [],
      "stateMutability": "nonpayable",
      "type": "function"
    },
    {
      "inputs": [
        {
          "internalType": "uint256",
          "name": "tokenId",
          "type": "uint256"
        }
      ],
      "name": "getContributors",
      "outputs": [
        {
          "internalType": "address[]",
          "name": "",
          "type": "address[]"
        }
      ],
      "stateMutability": "view",
      "type": "function"
    },
    {
      "inputs": [
        {
          "internalType": "uint256",
          "name": "tokenId",
          "type": "uint256"
        }
      ],
      "name": "tokenURI",
      "outputs": [
        {
          "internalType": "string",
          "name": "",
          "type": "string"
        }
      ],
      "stateMutability": "view",
      "type": "function"
    },
    {
      "inputs": [
        {
          "internalType": "address",
          "name": "_buyer",
          "type": "address"
        },
        {
          "internalType": "string",
          "name": "_metadataURI",
          "type": "string"
        },
        {
          "internalType": "address payable[]",
          "name": "_contributors",
          "type": "address[]"
        }
      ],
      "name": "mintAndBuy",
      "outputs": [
        {
          "internalType": "uint256",
          "name": "",
          "type": "uint256"
        },
        {
          "internalType": "string",
          "name": "",
          "type": "string"
        }
      ],
      "stateMutability": "payable",
      "type": "function"
    },
    {
      "inputs": [
        {
          "internalType": "uint256",
          "name": "_tokenId",
          "type": "uint256"
        },
        {
          "internalType": "uint256",
          "name": "_price",
          "type": "uint256"
        }
      ],
      "name": "allowBuy",
      "outputs": [],
      "stateMutability": "nonpayable",
      "type": "function"
    },
    {
      "inputs": [
        {
          "internalType": "uint256",
          "name": "_tokenId",
          "type": "uint256"
        }
      ],
      "name": "disallowBuy",
      "outputs": [],
      "stateMutability": "nonpayable",
      "type": "function"
    },
    {
      "inputs": [
        {
          "internalType": "uint256",
          "name": "_tokenId",
          "type": "uint256"
        }
      ],
      "name": "buy",
      "outputs": [],
      "stateMutability": "payable",
      "type": "function"
    }
  ],
  "bytecode": "0x60806040526040518060400160405280601281526020017f506f6c794563686f20417564696f204e46540000000000000000000000000000815250600890805190602001906200005192919062000242565b506040518060400160405280600881526020017f506f6c794563686f000000000000000000000000000000000000000000000000815250600990805190602001906200009f92919062000242565b50348015620000ad57600080fd5b506040518060400160405280600881526020017f506f6c794563686f0000000000000000000000000000000000000000000000008152506040518060400160405280600481526020017f4543484f0000000000000000000000000000000000000000000000000000000081525081600090805190602001906200013292919062000242565b5080600190805190602001906200014b92919062000242565b5050506200016e620001626200017460201b60201c565b6200017c60201b60201c565b62000357565b600033905090565b6000600660009054906101000a900473ffffffffffffffffffffffffffffffffffffffff16905081600660006101000a81548173ffffffffffffffffffffffffffffffffffffffff021916908373ffffffffffffffffffffffffffffffffffffffff1602179055508173ffffffffffffffffffffffffffffffffffffffff168173ffffffffffffffffffffffffffffffffffffffff167f8be0079c531659141344cd1fd0a4f28419497f9722a3daafe3b4186f6b6457e060405160405180910390a35050565b8280546200025090620002f2565b90600052602060002090601f016020900481019282620002745760008555620002c0565b82601f106200028f57805160ff1916838001178555620002c0565b82800160010185558215620002c0579182015b82811115620002bf578251825591602001919060010190620002a2565b5b509050620002cf9190620002d3565b5090565b5b80821115620002ee576000816000905550600101620002d4565b5090565b600060028204905060018216806200030b57607f821691505b6020821081141562000322576200032162000328565b5b50919050565b7f4e487b7100000000000000000000000000000000000000000000000000000000600052602260045260246000fd5b613f8f80620003676000396000f3fe60806040526004361061019c5760003560e01c80638da5cb5b116100ec578063d96a094a1161008a578063ef9dad8d11610064578063ef9dad8d146105cf578063f2fde38b1461060c578063f4812eb914610635578063f5ec2eed146106725761019c565b8063d96a094a14610545578063e985e9c514610561578063eb753e471461059e5761019c565b8063b88d4fde116100c6578063b88d4fde1461048d578063bbb5e8d3146104b6578063c87b56dd146104df578063d49913121461051c5761019c565b80638da5cb5b1461040e57806395d89b4114610439578063a22cb465146104645761019c565b8063401d3518116101595780636352211e116101335780636352211e146103525780636817c76c1461038f57806370a08231146103ba578063715018a6146103f75761019c565b8063401d3518146102d557806342842e0e146102fe5780634affb260146103275761019c565b806301ffc9a7146101a157806306fdde03146101de578063081812fc14610209578063095ea7b31461024657806323b872dd1461026f5780633c1ab00f14610298575b600080fd5b3480156101ad57600080fd5b506101c860048036038101906101c39190612a53565b61069d565b6040516101d59190613090565b60405180910390f35b3480156101ea57600080fd5b506101f361077f565b60405161020091906130cf565b60405180910390f35b34801561021557600080fd5b50610230600480360381019061022b9190612aea565b610811565b60405161023d9190613007565b60405180910390f35b34801561025257600080fd5b5061026d60048036038101906102689190612a17565b610896565b005b34801561027b57600080fd5b5061029660048036038101906102919190612888565b6109ae565b005b3480156102a457600080fd5b506102bf60048036038101906102ba9190612aea565b610a0e565b6040516102cc919061306e565b60405180910390f35b3480156102e157600080fd5b506102fc60048036038101906102f79190612aa5565b610af7565b005b34801561030a57600080fd5b5061032560048036038101906103209190612888565b610bc2565b005b34801561033357600080fd5b5061033c610be2565b60405161034991906130cf565b60405180910390f35b34801561035e57600080fd5b5061037960048036038101906103749190612aea565b610c70565b6040516103869190613007565b60405180910390f35b34801561039b57600080fd5b506103a4610d22565b6040516103b191906133b1565b60405180910390f35b3480156103c657600080fd5b506103e160048036038101906103dc91906127fa565b610d2d565b6040516103ee91906133b1565b60405180910390f35b34801561040357600080fd5b5061040c610de5565b005b34801561041a57600080fd5b50610423610e6d565b6040516104309190613007565b60405180910390f35b34801561044557600080fd5b5061044e610e97565b60405161045b91906130cf565b60405180910390f35b34801561047057600080fd5b5061048b60048036038101906104869190612952565b610f29565b005b34801561049957600080fd5b506104b460048036038101906104af91906128d7565b610f3f565b005b3480156104c257600080fd5b506104dd60048036038101906104d89190612b13565b610fa1565b005b3480156104eb57600080fd5b5061050660048036038101906105019190612aea565b611076565b60405161051391906130cf565b60405180910390f35b34801561052857600080fd5b50610543600480360381019061053e9190612aea565b611163565b005b61055f600480360381019061055a9190612aea565b6111f5565b005b34801561056d57600080fd5b506105886004803603810190610583919061284c565b611509565b6040516105959190613090565b60405180910390f35b6105b860048036038101906105b3919061298e565b61159d565b6040516105c6929190613411565b60405180910390f35b3480156105db57600080fd5b506105f660048036038101906105f19190612b13565b61177f565b6040516106039190613007565b60405180910390f35b34801561061857600080fd5b50610633600480360381019061062e91906127fa565b6117cd565b005b34801561064157600080fd5b5061065c60048036038101906106579190612aea565b6118c5565b60405161066991906133b1565b60405180910390f35b34801561067e57600080fd5b506106876118dd565b60405161069491906130cf565b60405180910390f35b60007f80ac58cd000000000000000000000000000000000000000000000000000000007bffffffffffffffffffffffffffffffffffffffffffffffffffffffff1916827bffffffffffffffffffffffffffffffffffffffffffffffffffffffff1916148061076857507f5b5e139f000000000000000000000000000000000000000000000000000000007bffffffffffffffffffffffffffffffffffffffffffffffffffffffff1916827bffffffffffffffffffffffffffffffffffffffffffffffffffffffff1916145b8061077857506107778261196b565b5b9050919050565b60606000805461078e90613799565b80601f01602080910402602001604051908101604052809291908181526020018280546107ba90613799565b80156108075780601f106107dc57610100808354040283529160200191610807565b820191906000526020600020905b8154815290600101906020018083116107ea57829003601f168201915b5050505050905090565b600061081c826119d5565b61085b576040517f08c379a000000000000000000000000000000000000000000000000000000000815260040161085290613271565b60405180910390fd5b6004600083815260200190815260200160002060009054906101000a900473ffffffffffffffffffffffffffffffffffffffff169050919050565b60006108a182610c70565b90508073ffffffffffffffffffffffffffffffffffffffff168373ffffffffffffffffffffffffffffffffffffffff161415610912576040517f08c379a000000000000000000000000000000000000000000000000000000000815260040161090990613311565b60405180910390fd5b8073ffffffffffffffffffffffffffffffffffffffff16610931611a41565b73ffffffffffffffffffffffffffffffffffffffff161480610960575061095f8161095a611a41565b611509565b5b61099f576040517f08c379a0000000000000000000000000000000000000000000000000000000008152600401610996906131f1565b60405180910390fd5b6109a98383611a49565b505050565b6109bf6109b9611a41565b82611b02565b6109fe576040517f08c379a00000000000000000000000000000000000000000000000000000000081526004016109f590613371565b60405180910390fd5b610a09838383611be0565b505050565b6060610a19826119d5565b610a58576040517f08c379a0000000000000000000000000000000000000000000000000000000008152600401610a4f90613391565b60405180910390fd5b600b6000838152602001908152602001600020805480602002602001604051908101604052809291908181526020018280548015610aeb57602002820191906000526020600020905b8160009054906101000a900473ffffffffffffffffffffffffffffffffffffffff1673ffffffffffffffffffffffffffffffffffffffff1681526020019060010190808311610aa1575b50505050509050919050565b610aff611a41565b73ffffffffffffffffffffffffffffffffffffffff16610b1d610e6d565b73ffffffffffffffffffffffffffffffffffffffff1614610b73576040517f08c379a0000000000000000000000000000000000000000000000000000000008152600401610b6a906132b1565b60405180910390fd5b818160089190610b8492919061253d565b507f9f7688a97f1ac51fe03bac18af18d6810f9f11f0db08c59b1938a9ac825ef7448282604051610bb69291906130ab565b60405180910390a15050565b610bdd83838360405180602001604052806000815250610f3f565b505050565b60088054610bef90613799565b80601f0160208091040260200160405190810160405280929190818152602001828054610c1b90613799565b8015610c685780601f10610c3d57610100808354040283529160200191610c68565b820191906000526020600020905b815481529060010190602001808311610c4b57829003601f168201915b505050505081565b6000806002600084815260200190815260200160002060009054906101000a900473ffffffffffffffffffffffffffffffffffffffff169050600073ffffffffffffffffffffffffffffffffffffffff168173ffffffffffffffffffffffffffffffffffffffff161415610d19576040517f08c379a0000000000000000000000000000000000000000000000000000000008152600401610d1090613231565b60405180910390fd5b80915050919050565b662386f26fc1000081565b60008073ffffffffffffffffffffffffffffffffffffffff168273ffffffffffffffffffffffffffffffffffffffff161415610d9e576040517f08c379a0000000000000000000000000000000000000000000000000000000008152600401610d9590613211565b60405180910390fd5b600360008373ffffffffffffffffffffffffffffffffffffffff1673ffffffffffffffffffffffffffffffffffffffff168152602001908152602001600020549050919050565b610ded611a41565b73ffffffffffffffffffffffffffffffffffffffff16610e0b610e6d565b73ffffffffffffffffffffffffffffffffffffffff1614610e61576040517f08c379a0000000000000000000000000000000000000000000000000000000008152600401610e58906132b1565b60405180910390fd5b610e6b6000611e47565b565b6000600660009054906101000a900473ffffffffffffffffffffffffffffffffffffffff16905090565b606060018054610ea690613799565b80601f0160208091040260200160405190810160405280929190818152602001828054610ed290613799565b8015610f1f5780601f10610ef457610100808354040283529160200191610f1f565b820191906000526020600020905b815481529060010190602001808311610f0257829003601f168201915b5050505050905090565b610f3b610f34611a41565b8383611f0d565b5050565b610f50610f4a611a41565b83611b02565b610f8f576040517f08c379a0000000000000000000000000000000000000000000000000000000008152600401610f8690613371565b60405180910390fd5b610f9b8484848461207a565b50505050565b610faa82610c70565b73ffffffffffffffffffffffffffffffffffffffff163373ffffffffffffffffffffffffffffffffffffffff1614611017576040517f08c379a000000000000000000000000000000000000000000000000000000000815260040161100e90613331565b60405180910390fd5b6000811161105a576040517f08c379a0000000000000000000000000000000000000000000000000000000008152600401611051906132d1565b60405180910390fd5b80600c6000848152602001908152602001600020819055505050565b6060611081826119d5565b6110c0576040517f08c379a00000000000000000000000000000000000000000000000000000000081526004016110b7906132f1565b60405180910390fd5b600a600083815260200190815260200160002080546110de90613799565b80601f016020809104026020016040519081016040528092919081815260200182805461110a90613799565b80156111575780601f1061112c57610100808354040283529160200191611157565b820191906000526020600020905b81548152906001019060200180831161113a57829003601f168201915b50505050509050919050565b61116c81610c70565b73ffffffffffffffffffffffffffffffffffffffff163373ffffffffffffffffffffffffffffffffffffffff16146111d9576040517f08c379a00000000000000000000000000000000000000000000000000000000081526004016111d090613331565b60405180910390fd5b6000600c60008381526020019081526020016000208190555050565b6000600c600083815260200190815260200160002054905060008111611250576040517f08c379a000000000000000000000000000000000000000000000000000000000815260040161124790613111565b60405180910390fd5b803414611292576040517f08c379a000000000000000000000000000000000000000000000000000000000815260040161128990613291565b60405180910390fd5b600061129d83610c70565b90506112a93384611a49565b6112b4813385610bc2565b60006112ca600a346120d690919063ffffffff16565b905060006112f560096112e7600a346120d690919063ffffffff16565b6120ec90919063ffffffff16565b90506000600b6000878152602001908152602001600020905060005b81805490508110156113ef576000828281548110611358577f4e487b7100000000000000000000000000000000000000000000000000000000600052603260045260246000fd5b9060005260206000200160009054906101000a900473ffffffffffffffffffffffffffffffffffffffff1690508073ffffffffffffffffffffffffffffffffffffffff166108fc8480549050876113af91906135f2565b9081150290604051600060405180830381858888f193505050501580156113da573d6000803e3d6000fd5b505080806113e790613816565b915050611311565b508373ffffffffffffffffffffffffffffffffffffffff166108fc839081150290604051600060405180830381858888f19350505050158015611436573d6000803e3d6000fd5b506000600c6000888152602001908152602001600020819055507f5837dc3eeed2d2b1d75de7e85c87404936759686b473d2cbc06bc59f96060cff8685333460405161148594939291906133cc565b60405180910390a17fc90e2b5bf9e462d07d9c1fc5201c35bb5dc9dd94df8124b2a19a8f98d64ccdb186836040516114be929190613441565b60405180910390a17fad6f7101d3f53815713d2dd1e65366de1f3db3cf8f9a2d9a9a8119a1bd2b64078684836040516114f99392919061346a565b60405180910390a1505050505050565b6000600560008473ffffffffffffffffffffffffffffffffffffffff1673ffffffffffffffffffffffffffffffffffffffff16815260200190815260200160002060008373ffffffffffffffffffffffffffffffffffffffff1673ffffffffffffffffffffffffffffffffffffffff16815260200190815260200160002060009054906101000a900460ff16905092915050565b60006060662386f26fc100003410156115eb576040517f08c379a00000000000000000000000000000000000000000000000000000000081526004016115e290613351565b60405180910390fd5b6115f56007612102565b60006116016007612118565b90508686600a6000848152602001908152602001600020919061162592919061253d565b508484600b600084815260200190815260200160002091906116489291906125c3565b506116538882612126565b61165d8882611a49565b60005b858590508110156117265760008686838181106116a6577f4e487b7100000000000000000000000000000000000000000000000000000000600052603260045260246000fd5b90506020020160208101906116bb9190612823565b90508073ffffffffffffffffffffffffffffffffffffffff166108fc88889050346116e691906135f2565b9081150290604051600060405180830381858888f19350505050158015611711573d6000803e3d6000fd5b5050808061171e90613816565b915050611660565b50600061173282611076565b90507f5d3ac5872118b949a1f8db596134a0e1587ecf18f2203bb1e3ea420c3c3f8fa98282604051611765929190613411565b60405180910390a181819350935050509550959350505050565b600b602052816000526040600020818154811061179b57600080fd5b906000526020600020016000915091509054906101000a900473ffffffffffffffffffffffffffffffffffffffff1681565b6117d5611a41565b73ffffffffffffffffffffffffffffffffffffffff166117f3610e6d565b73ffffffffffffffffffffffffffffffffffffffff1614611849576040517f08c379a0000000000000000000000000000000000000000000000000000000008152600401611840906132b1565b60405180910390fd5b600073ffffffffffffffffffffffffffffffffffffffff168173ffffffffffffffffffffffffffffffffffffffff1614156118b9576040517f08c379a00000000000000000000000000000000000000000000000000000000081526004016118b090613131565b60405180910390fd5b6118c281611e47565b50565b600c6020528060005260406000206000915090505481565b600980546118ea90613799565b80601f016020809104026020016040519081016040528092919081815260200182805461191690613799565b80156119635780601f1061193857610100808354040283529160200191611963565b820191906000526020600020905b81548152906001019060200180831161194657829003601f168201915b505050505081565b60007f01ffc9a7000000000000000000000000000000000000000000000000000000007bffffffffffffffffffffffffffffffffffffffffffffffffffffffff1916827bffffffffffffffffffffffffffffffffffffffffffffffffffffffff1916149050919050565b60008073ffffffffffffffffffffffffffffffffffffffff166002600084815260200190815260200160002060009054906101000a900473ffffffffffffffffffffffffffffffffffffffff1673ffffffffffffffffffffffffffffffffffffffff1614159050919050565b600033905090565b816004600083815260200190815260200160002060006101000a81548173ffffffffffffffffffffffffffffffffffffffff021916908373ffffffffffffffffffffffffffffffffffffffff160217905550808273ffffffffffffffffffffffffffffffffffffffff16611abc83610c70565b73ffffffffffffffffffffffffffffffffffffffff167f8c5be1e5ebec7d5bd14f71427d1e84f3dd0314c0f7b2291e5b200ac8c7c3b92560405160405180910390a45050565b6000611b0d826119d5565b611b4c576040517f08c379a0000000000000000000000000000000000000000000000000000000008152600401611b43906131d1565b60405180910390fd5b6000611b5783610c70565b90508073ffffffffffffffffffffffffffffffffffffffff168473ffffffffffffffffffffffffffffffffffffffff161480611bc657508373ffffffffffffffffffffffffffffffffffffffff16611bae84610811565b73ffffffffffffffffffffffffffffffffffffffff16145b80611bd75750611bd68185611509565b5b91505092915050565b8273ffffffffffffffffffffffffffffffffffffffff16611c0082610c70565b73ffffffffffffffffffffffffffffffffffffffff1614611c56576040517f08c379a0000000000000000000000000000000000000000000000000000000008152600401611c4d90613151565b60405180910390fd5b600073ffffffffffffffffffffffffffffffffffffffff168273ffffffffffffffffffffffffffffffffffffffff161415611cc6576040517f08c379a0000000000000000000000000000000000000000000000000000000008152600401611cbd90613191565b60405180910390fd5b611cd1838383612144565b611cdc600082611a49565b6001600360008573ffffffffffffffffffffffffffffffffffffffff1673ffffffffffffffffffffffffffffffffffffffff1681526020019081526020016000206000828254611d2c919061367d565b925050819055506001600360008473ffffffffffffffffffffffffffffffffffffffff1673ffffffffffffffffffffffffffffffffffffffff1681526020019081526020016000206000828254611d83919061359c565b92505081905550816002600083815260200190815260200160002060006101000a81548173ffffffffffffffffffffffffffffffffffffffff021916908373ffffffffffffffffffffffffffffffffffffffff160217905550808273ffffffffffffffffffffffffffffffffffffffff168473ffffffffffffffffffffffffffffffffffffffff167fddf252ad1be2c89b69c2b068fc378daa952ba7f163c4a11628f55a4df523b3ef60405160405180910390a4611e42838383612149565b505050565b6000600660009054906101000a900473ffffffffffffffffffffffffffffffffffffffff16905081600660006101000a81548173ffffffffffffffffffffffffffffffffffffffff021916908373ffffffffffffffffffffffffffffffffffffffff1602179055508173ffffffffffffffffffffffffffffffffffffffff168173ffffffffffffffffffffffffffffffffffffffff167f8be0079c531659141344cd1fd0a4f28419497f9722a3daafe3b4186f6b6457e060405160405180910390a35050565b8173ffffffffffffffffffffffffffffffffffffffff168373ffffffffffffffffffffffffffffffffffffffff161415611f7c576040517f08c379a0000000000000000000000000000000000000000000000000000000008152600401611f73906131b1565b60405180910390fd5b80600560008573ffffffffffffffffffffffffffffffffffffffff1673ffffffffffffffffffffffffffffffffffffffff16815260200190815260200160002060008473ffffffffffffffffffffffffffffffffffffffff1673ffffffffffffffffffffffffffffffffffffffff16815260200190815260200160002060006101000a81548160ff0219169083151502179055508173ffffffffffffffffffffffffffffffffffffffff168373ffffffffffffffffffffffffffffffffffffffff167f17307eab39ab6107e8899845ad3d59bd9653f200f220920489ca2b5937696c318360405161206d9190613090565b60405180910390a3505050565b612085848484611be0565b6120918484848461214e565b6120d0576040517f08c379a00000000000000000000000000000000000000000000000000000000081526004016120c7906130f1565b60405180910390fd5b50505050565b600081836120e491906135f2565b905092915050565b600081836120fa9190613623565b905092915050565b6001816000016000828254019250508190555050565b600081600001549050919050565b6121408282604051806020016040528060008152506122e5565b5050565b505050565b505050565b600061216f8473ffffffffffffffffffffffffffffffffffffffff16612340565b156122d8578373ffffffffffffffffffffffffffffffffffffffff1663150b7a02612198611a41565b8786866040518563ffffffff1660e01b81526004016121ba9493929190613022565b602060405180830381600087803b1580156121d457600080fd5b505af192505050801561220557506040513d601f19601f820116820180604052508101906122029190612a7c565b60015b612288573d8060008114612235576040519150601f19603f3d011682016040523d82523d6000602084013e61223a565b606091505b50600081511415612280576040517f08c379a0000000000000000000000000000000000000000000000000000000008152600401612277906130f1565b60405180910390fd5b805181602001fd5b63150b7a0260e01b7bffffffffffffffffffffffffffffffffffffffffffffffffffffffff1916817bffffffffffffffffffffffffffffffffffffffffffffffffffffffff1916149150506122dd565b600190505b949350505050565b6122ef8383612363565b6122fc600084848461214e565b61233b576040517f08c379a0000000000000000000000000000000000000000000000000000000008152600401612332906130f1565b60405180910390fd5b505050565b6000808273ffffffffffffffffffffffffffffffffffffffff163b119050919050565b600073ffffffffffffffffffffffffffffffffffffffff168273ffffffffffffffffffffffffffffffffffffffff1614156123d3576040517f08c379a00000000000000000000000000000000000000000000000000000000081526004016123ca90613251565b60405180910390fd5b6123dc816119d5565b1561241c576040517f08c379a000000000000000000000000000000000000000000000000000000000815260040161241390613171565b60405180910390fd5b61242860008383612144565b6001600360008473ffffffffffffffffffffffffffffffffffffffff1673ffffffffffffffffffffffffffffffffffffffff1681526020019081526020016000206000828254612478919061359c565b92505081905550816002600083815260200190815260200160002060006101000a81548173ffffffffffffffffffffffffffffffffffffffff021916908373ffffffffffffffffffffffffffffffffffffffff160217905550808273ffffffffffffffffffffffffffffffffffffffff16600073ffffffffffffffffffffffffffffffffffffffff167fddf252ad1be2c89b69c2b068fc378daa952ba7f163c4a11628f55a4df523b3ef60405160405180910390a461253960008383612149565b5050565b82805461254990613799565b90600052602060002090601f01602090048101928261256b57600085556125b2565b82601f1061258457803560ff19168380011785556125b2565b828001600101855582156125b2579182015b828111156125b1578235825591602001919060010190612596565b5b5090506125bf9190612663565b5090565b828054828255906000526020600020908101928215612652579160200282015b8281111561265157823573ffffffffffffffffffffffffffffffffffffffff168260006101000a81548173ffffffffffffffffffffffffffffffffffffffff021916908373ffffffffffffffffffffffffffffffffffffffff160217905550916020019190600101906125e3565b5b50905061265f9190612663565b5090565b5b8082111561267c576000816000905550600101612664565b5090565b600061269361268e846134cd565b6134a8565b9050828152602081018484840111156126ab57600080fd5b6126b6848285613757565b509392505050565b6000813590506126cd81613ee6565b92915050565b6000813590506126e281613efd565b92915050565b60008083601f8401126126fa57600080fd5b8235905067ffffffffffffffff81111561271357600080fd5b60208301915083602082028301111561272b57600080fd5b9250929050565b60008135905061274181613f14565b92915050565b60008135905061275681613f2b565b92915050565b60008151905061276b81613f2b565b92915050565b600082601f83011261278257600080fd5b8135612792848260208601612680565b91505092915050565b60008083601f8401126127ad57600080fd5b8235905067ffffffffffffffff8111156127c657600080fd5b6020830191508360018202830111156127de57600080fd5b9250929050565b6000813590506127f481613f42565b92915050565b60006020828403121561280c57600080fd5b600061281a848285016126be565b91505092915050565b60006020828403121561283557600080fd5b6000612843848285016126d3565b91505092915050565b6000806040838503121561285f57600080fd5b600061286d858286016126be565b925050602061287e858286016126be565b9150509250929050565b60008060006060848603121561289d57600080fd5b60006128ab868287016126be565b93505060206128bc868287016126be565b92505060406128cd868287016127e5565b9150509250925092565b600080600080608085870312156128ed57600080fd5b60006128fb878288016126be565b945050602061290c878288016126be565b935050604061291d878288016127e5565b925050606085013567ffffffffffffffff81111561293a57600080fd5b61294687828801612771565b91505092959194509250565b6000806040838503121561296557600080fd5b6000612973858286016126be565b925050602061298485828601612732565b9150509250929050565b6000806000806000606086880312156129a657600080fd5b60006129b4888289016126be565b955050602086013567ffffffffffffffff8111156129d157600080fd5b6129dd8882890161279b565b9450945050604086013567ffffffffffffffff8111156129fc57600080fd5b612a08888289016126e8565b92509250509295509295909350565b60008060408385031215612a2a57600080fd5b6000612a38858286016126be565b9250506020612a49858286016127e5565b9150509250929050565b600060208284031215612a6557600080fd5b6000612a7384828501612747565b91505092915050565b600060208284031215612a8e57600080fd5b6000612a9c8482850161275c565b91505092915050565b60008060208385031215612ab857600080fd5b600083013567ffffffffffffffff811115612ad257600080fd5b612ade8582860161279b565b92509250509250929050565b600060208284031215612afc57600080fd5b6000612b0a848285016127e5565b91505092915050565b60008060408385031215612b2657600080fd5b6000612b34858286016127e5565b9250506020612b45858286016127e5565b9150509250929050565b6000612b5b8383612b67565b60208301905092915050565b612b70816136d1565b82525050565b612b7f816136d1565b82525050565b6000612b9082613523565b612b9a8185613569565b9350612ba5836134fe565b8060005b83811015612bd6578151612bbd8882612b4f565b9750612bc88361354f565b925050600181019050612ba9565b5085935050505092915050565b6000612bee8261352e565b612bf88185613569565b9350612c038361350e565b8060005b83811015612c3b57612c188261391b565b612c228882612b4f565b9750612c2d8361355c565b925050600181019050612c07565b5085935050505092915050565b612c51816136f5565b82525050565b6000612c6282613539565b612c6c818561357a565b9350612c7c818560208601613766565b612c858161392e565b840191505092915050565b6000612c9c838561358b565b9350612ca9838584613757565b612cb28361392e565b840190509392505050565b6000612cc882613544565b612cd2818561358b565b9350612ce2818560208601613766565b612ceb8161392e565b840191505092915050565b6000612d0360328361358b565b9150612d0e8261394c565b604082019050919050565b6000612d26601a8361358b565b9150612d318261399b565b602082019050919050565b6000612d4960268361358b565b9150612d54826139c4565b604082019050919050565b6000612d6c60258361358b565b9150612d7782613a13565b604082019050919050565b6000612d8f601c8361358b565b9150612d9a82613a62565b602082019050919050565b6000612db260248361358b565b9150612dbd82613a8b565b604082019050919050565b6000612dd560198361358b565b9150612de082613ada565b602082019050919050565b6000612df8602c8361358b565b9150612e0382613b03565b604082019050919050565b6000612e1b60388361358b565b9150612e2682613b52565b604082019050919050565b6000612e3e602a8361358b565b9150612e4982613ba1565b604082019050919050565b6000612e6160298361358b565b9150612e6c82613bf0565b604082019050919050565b6000612e8460208361358b565b9150612e8f82613c3f565b602082019050919050565b6000612ea7602c8361358b565b9150612eb282613c68565b604082019050919050565b6000612eca600f8361358b565b9150612ed582613cb7565b602082019050919050565b6000612eed60208361358b565b9150612ef882613ce0565b602082019050919050565b6000612f10600a8361358b565b9150612f1b82613d09565b602082019050919050565b6000612f33602f8361358b565b9150612f3e82613d32565b604082019050919050565b6000612f5660218361358b565b9150612f6182613d81565b604082019050919050565b6000612f7960178361358b565b9150612f8482613dd0565b602082019050919050565b6000612f9c60268361358b565b9150612fa782613df9565b604082019050919050565b6000612fbf60318361358b565b9150612fca82613e48565b604082019050919050565b6000612fe2602f8361358b565b9150612fed82613e97565b604082019050919050565b6130018161374d565b82525050565b600060208201905061301c6000830184612b76565b92915050565b60006080820190506130376000830187612b76565b6130446020830186612b76565b6130516040830185612ff8565b81810360608301526130638184612c57565b905095945050505050565b600060208201905081810360008301526130888184612b85565b905092915050565b60006020820190506130a56000830184612c48565b92915050565b600060208201905081810360008301526130c6818486612c90565b90509392505050565b600060208201905081810360008301526130e98184612cbd565b905092915050565b6000602082019050818103600083015261310a81612cf6565b9050919050565b6000602082019050818103600083015261312a81612d19565b9050919050565b6000602082019050818103600083015261314a81612d3c565b9050919050565b6000602082019050818103600083015261316a81612d5f565b9050919050565b6000602082019050818103600083015261318a81612d82565b9050919050565b600060208201905081810360008301526131aa81612da5565b9050919050565b600060208201905081810360008301526131ca81612dc8565b9050919050565b600060208201905081810360008301526131ea81612deb565b9050919050565b6000602082019050818103600083015261320a81612e0e565b9050919050565b6000602082019050818103600083015261322a81612e31565b9050919050565b6000602082019050818103600083015261324a81612e54565b9050919050565b6000602082019050818103600083015261326a81612e77565b9050919050565b6000602082019050818103600083015261328a81612e9a565b9050919050565b600060208201905081810360008301526132aa81612ebd565b9050919050565b600060208201905081810360008301526132ca81612ee0565b9050919050565b600060208201905081810360008301526132ea81612f03565b9050919050565b6000602082019050818103600083015261330a81612f26565b9050919050565b6000602082019050818103600083015261332a81612f49565b9050919050565b6000602082019050818103600083015261334a81612f6c565b9050919050565b6000602082019050818103600083015261336a81612f8f565b9050919050565b6000602082019050818103600083015261338a81612fb2565b9050919050565b600060208201905081810360008301526133aa81612fd5565b9050919050565b60006020820190506133c66000830184612ff8565b92915050565b60006080820190506133e16000830187612ff8565b6133ee6020830186612b76565b6133fb6040830185612b76565b6134086060830184612ff8565b95945050505050565b60006040820190506134266000830185612ff8565b81810360208301526134388184612cbd565b90509392505050565b60006040820190506134566000830185612ff8565b6134636020830184612ff8565b9392505050565b600060608201905061347f6000830186612ff8565b61348c6020830185612ff8565b818103604083015261349e8184612be3565b9050949350505050565b60006134b26134c3565b90506134be82826137e5565b919050565b6000604051905090565b600067ffffffffffffffff8211156134e8576134e76138ec565b5b6134f18261392e565b9050602081019050919050565b6000819050602082019050919050565b60008190508160005260206000209050919050565b600081519050919050565b600081549050919050565b600081519050919050565b600081519050919050565b6000602082019050919050565b6000600182019050919050565b600082825260208201905092915050565b600082825260208201905092915050565b600082825260208201905092915050565b60006135a78261374d565b91506135b28361374d565b9250827fffffffffffffffffffffffffffffffffffffffffffffffffffffffffffffffff038211156135e7576135e661385f565b5b828201905092915050565b60006135fd8261374d565b91506136088361374d565b9250826136185761361761388e565b5b828204905092915050565b600061362e8261374d565b91506136398361374d565b9250817fffffffffffffffffffffffffffffffffffffffffffffffffffffffffffffffff04831182151516156136725761367161385f565b5b828202905092915050565b60006136888261374d565b91506136938361374d565b9250828210156136a6576136a561385f565b5b828203905092915050565b600073ffffffffffffffffffffffffffffffffffffffff82169050919050565b60006136dc8261372d565b9050919050565b60006136ee8261372d565b9050919050565b60008115159050919050565b60007fffffffff0000000000000000000000000000000000000000000000000000000082169050919050565b600073ffffffffffffffffffffffffffffffffffffffff82169050919050565b6000819050919050565b82818337600083830152505050565b60005b83811015613784578082015181840152602081019050613769565b83811115613793576000848401525b50505050565b600060028204905060018216806137b157607f821691505b602082108114156137c5576137c46138bd565b5b50919050565b60006137de6137d98361393f565b6136b1565b9050919050565b6137ee8261392e565b810181811067ffffffffffffffff8211171561380d5761380c6138ec565b5b80604052505050565b60006138218261374d565b91507fffffffffffffffffffffffffffffffffffffffffffffffffffffffffffffffff8214156138545761385361385f565b5b600182019050919050565b7f4e487b7100000000000000000000000000000000000000000000000000000000600052601160045260246000fd5b7f4e487b7100000000000000000000000000000000000000000000000000000000600052601260045260246000fd5b7f4e487b7100000000000000000000000000000000000000000000000000000000600052602260045260246000fd5b7f4e487b7100000000000000000000000000000000000000000000000000000000600052604160045260246000fd5b600061392782546137cb565b9050919050565b6000601f19601f8301169050919050565b60008160001c9050919050565b7f4552433732313a207472616e7366657220746f206e6f6e20455243373231526560008201527f63656976657220696d706c656d656e7465720000000000000000000000000000602082015250565b7f5468697320746f6b656e206973206e6f7420666f722073616c65000000000000600082015250565b7f4f776e61626c653a206e6577206f776e657220697320746865207a65726f206160008201527f6464726573730000000000000000000000000000000000000000000000000000602082015250565b7f4552433732313a207472616e736665722066726f6d20696e636f72726563742060008201527f6f776e6572000000000000000000000000000000000000000000000000000000602082015250565b7f4552433732313a20746f6b656e20616c7265616479206d696e74656400000000600082015250565b7f4552433732313a207472616e7366657220746f20746865207a65726f2061646460008201527f7265737300000000000000000000000000000000000000000000000000000000602082015250565b7f4552433732313a20617070726f766520746f2063616c6c657200000000000000600082015250565b7f4552433732313a206f70657261746f7220717565727920666f72206e6f6e657860008201527f697374656e7420746f6b656e0000000000000000000000000000000000000000602082015250565b7f4552433732313a20617070726f76652063616c6c6572206973206e6f74206f7760008201527f6e6572206e6f7220617070726f76656420666f7220616c6c0000000000000000602082015250565b7f4552433732313a2062616c616e636520717565727920666f7220746865207a6560008201527f726f206164647265737300000000000000000000000000000000000000000000602082015250565b7f4552433732313a206f776e657220717565727920666f72206e6f6e657869737460008201527f656e7420746f6b656e0000000000000000000000000000000000000000000000602082015250565b7f4552433732313a206d696e7420746f20746865207a65726f2061646472657373600082015250565b7f4552433732313a20617070726f76656420717565727920666f72206e6f6e657860008201527f697374656e7420746f6b656e0000000000000000000000000000000000000000602082015250565b7f496e636f72726563742076616c75650000000000000000000000000000000000600082015250565b7f4f776e61626c653a2063616c6c6572206973206e6f7420746865206f776e6572600082015250565b7f5072696365207a65726f00000000000000000000000000000000000000000000600082015250565b7f4552433732314d657461646174613a2055524920717565727920666f72206e6f60008201527f6e6578697374656e7420746f6b656e0000000000000000000000000000000000602082015250565b7f4552433732313a20617070726f76616c20746f2063757272656e74206f776e6560008201527f7200000000000000000000000000000000000000000000000000000000000000602082015250565b7f4e6f74206f776e6572206f66207468697320746f6b656e000000000000000000600082015250565b7f53656e742065746865722076616c7565206973206e6f7420656e6f756768207460008201527f6f206d696e740000000000000000000000000000000000000000000000000000602082015250565b7f4552433732313a207472616e736665722063616c6c6572206973206e6f74206f60008201527f776e6572206e6f7220617070726f766564000000000000000000000000000000602082015250565b7f4552433732313a20436f6e7472696275746f7220717565727920666f72206e6f60008201527f6e6578697374656e7420746f6b656e0000000000000000000000000000000000602082015250565b613eef816136d1565b8114613efa57600080fd5b50565b613f06816136e3565b8114613f1157600080fd5b50565b613f1d816136f5565b8114613f2857600080fd5b50565b613f3481613701565b8114613f3f57600080fd5b50565b613f4b8161374d565b8114613f5657600080fd5b5056fea2646970667358221220f4f13e171e5f263b15fa417c87c38a362e1bc1035b1f21cb9e0c6c6217c4941864736f6c63430008010033",
  "immutableReferences": {},
  "source": "// SPDX-License-Identifier: MIT\npragma solidity >=0.8.0;\n\nimport \"@openzeppelin/contracts/token/ERC721/ERC721.sol\";\nimport \"@openzeppelin/contracts/utils/Counters.sol\";\nimport \"@openzeppelin/contracts/access/Ownable.sol\";\nimport \"@openzeppelin/contracts/utils/math/SafeMath.sol\";\n\n\ncontract PolyEchoNFT is ERC721, Ownable {\n\t  using SafeMath for uint256;\n    using Counters for Counters.Counter;\n    Counters.Counter private _tokenIds;\n\n    // Fields\n    string public displayName = \"PolyEcho Audio NFT\";\n    string public companyName = \"PolyEcho\";\n    uint256 public constant mintPrice = 10000000000000000; // 0.01 ETH\n\n\t\t// Events\n    event NameUpdated(string name);\n    event TokenCreated(uint256 _tokenId, string _tokenURI);\n\t\tevent NftBought(uint256 _tokenId, address _seller, address _buyer, uint256 _price);\n\t\tevent SellerPaid(uint256 _tokenId, uint256 _price);\n\t\tevent RoyaltiesPaid(uint256 _tokenId, uint256 _price, address[] _contributors);\n\n\t\t// Mapping of tokenIDs to their current data points\n    mapping(uint256 => string) tokenIdToUri;\n    mapping(uint256 => address[]) public tokenIdToContributors;\n    mapping (uint256 => uint256) public tokenIdToPrice;\n\n    constructor() ERC721(\"PolyEcho\", \"ECHO\") {}\n\n    function updateDisplayName(string calldata _name) external onlyOwner {\n        displayName = _name;\n        emit NameUpdated(_name);\n    }\n\n    function getContributors(uint256 tokenId)\n        public\n        view\n        returns (address[] memory)\n    {\n        require(\n            _exists(tokenId),\n            \"ERC721: Contributor query for nonexistent token\"\n        );\n\n        return tokenIdToContributors[tokenId];\n    }\n\n    function tokenURI(uint256 tokenId)\n        public\n        view\n        override\n        returns (string memory)\n    {\n        require(\n            _exists(tokenId),\n            \"ERC721Metadata: URI query for nonexistent token\"\n        );\n        return tokenIdToUri[tokenId];\n    }\n\n\t\t// Both mints a new token and pays out value equally to stem contributors\n    function mintAndBuy(\n        address _buyer,\n        string calldata _metadataURI,\n        address payable[] calldata _contributors\n    ) public payable returns (uint256, string memory) {\n\t\t\t\t// Require sender is paying the mint price\n        require(\n            msg.value >= mintPrice,\n            \"Sent ether value is not enough to mint\"\n        );\n\n\t\t\t\t// Update local state\n\t\t\t\t// Auto-increment, also we can start minting from 1 instead of 0\n\t\t\t\t_tokenIds.increment();\n        uint256 newTokenId = _tokenIds.current();\n        tokenIdToUri[newTokenId] = _metadataURI;\n        tokenIdToContributors[newTokenId] = _contributors;\n\n\t\t\t\t// Mint the new token for the buyer\n\t\t\t\t// Buyer becomes owner\n        _safeMint(_buyer, newTokenId);\n\t\t\t\t// Pre-approve buyer as operator for token\n\t\t\t\t_approve(_buyer, newTokenId);\n\n\n\t\t\t\t// Payout out value sent from buyer equally to contributors\n        for (uint256 i = 0; i < _contributors.length; i++) {\n            address payable contributor = _contributors[i];\n            contributor.transfer(msg.value / _contributors.length);\n        }\n\n\t\t\t\t// Emit event with new metadata url\n        string memory newTokenURI = tokenURI(newTokenId);\n        emit TokenCreated(newTokenId, newTokenURI);\n\n\t\t\t\t// Return back a tuple with new metadataURL and tokenId\n        return (newTokenId, newTokenURI);\n    }\n\n\t\t// This is called when an owner wants to list the NFT for sale and sets a price.\n    function allowBuy(uint256 _tokenId, uint256 _price) external {\n\t\t\t\t// Only an owner can list it\n        require(msg.sender == ownerOf(_tokenId), 'Not owner of this token');\n\t\t\t\t// Required a sale price\n        require(_price > 0, 'Price zero');\n\n\t\t\t\t// Set the sale price\n        tokenIdToPrice[_tokenId] = _price;\n    }\n\n\t\t// This is called when an owner wants to remove the NFT from being for sale.\n    function disallowBuy(uint256 _tokenId) external {\n\t\t\t\t// Only an owner can unlist it\n        require(msg.sender == ownerOf(_tokenId), 'Not owner of this token');\n\n\t\t\t\t// Unlist the tokenId, null price\n        tokenIdToPrice[_tokenId] = 0;\n    }\n\n\t\t// This is called when a caller wants to buy a token at its sale price\n\t\t// The msg.sender is already pre-approved to buy the token, as set in allowBuy()\n    function buy(uint256 _tokenId) external payable {\n\t\t\t\t// Get the current sale price\n        uint256 price = tokenIdToPrice[_tokenId];\n\n\t\t\t\t// Check if for sale, based off of zero value\n        require(price > 0, 'This token is not for sale');\n\n\t\t\t\t// Check for right sale price\n        require(msg.value == price, 'Incorrect value');\n\n\t\t\t\t// Make the transfer of ownership\n\t\t\t\t// Approve any buyer, rather than seller manually approving a buyer/offer\n        address seller = ownerOf(_tokenId);\n\t\t\t\t_approve(msg.sender, _tokenId);\n\t\t\t\tsafeTransferFrom(seller, msg.sender, _tokenId);\n\n\t\t\t\t// Make the transfer of funds from sale price\n\t\t\t\t// 10% - Royalties to all contributors, evenly split\n\t\t\t\t// 90% - Sale proceeds to seller\n\t\t\t\tuint256 royaltiesCut = msg.value.div(10);\n\t\t\t\tuint256 sellersCut = msg.value.div(10).mul(9);\n\t\t\t\taddress[] storage contributors = tokenIdToContributors[_tokenId];\n\n\t\t\t\t// Payout out royalties evently amongst contributors\n        for (uint256 i = 0; i < contributors.length; i++) {\n            address contributor = contributors[i];\n            payable(contributor).transfer(royaltiesCut / contributors.length);\n        }\n\n\t\t\t\t// Pay out the sellers cut\n        payable(seller).transfer(sellersCut);\n\n\t\t\t\t// The NFT is not for sale anymore, set zero value\n\t\t\t\ttokenIdToPrice[_tokenId] = 0;\n\n\t\t\t\t// Emit events\n        emit NftBought(_tokenId, seller, msg.sender, msg.value);\n\t\t\t\temit SellerPaid(_tokenId, sellersCut);\n\t\t\t\temit RoyaltiesPaid(_tokenId, royaltiesCut, contributors);\n    }\n}\n",
  "sourcePath": "/Users/shaula/Library/Mobile Documents/com~apple~CloudDocs/repos/ethden-hack-web/web3/contracts/PolyEchoNFT.sol",
  "compiler": {
    "name": "solc",
    "version": "0.8.1+commit.df193b15.Emscripten.clang"
  },
  "schemaVersion": "3.4.3",
  "updatedAt": "2022-03-20T05:11:07.392Z",
  "devdoc": {
    "kind": "dev",
    "methods": {
      "approve(address,uint256)": {
        "details": "See {IERC721-approve}."
      },
      "balanceOf(address)": {
        "details": "See {IERC721-balanceOf}."
      },
      "getApproved(uint256)": {
        "details": "See {IERC721-getApproved}."
      },
      "isApprovedForAll(address,address)": {
        "details": "See {IERC721-isApprovedForAll}."
      },
      "name()": {
        "details": "See {IERC721Metadata-name}."
      },
      "owner()": {
        "details": "Returns the address of the current owner."
      },
      "ownerOf(uint256)": {
        "details": "See {IERC721-ownerOf}."
      },
      "renounceOwnership()": {
        "details": "Leaves the contract without owner. It will not be possible to call `onlyOwner` functions anymore. Can only be called by the current owner. NOTE: Renouncing ownership will leave the contract without an owner, thereby removing any functionality that is only available to the owner."
      },
      "safeTransferFrom(address,address,uint256)": {
        "details": "See {IERC721-safeTransferFrom}."
      },
      "safeTransferFrom(address,address,uint256,bytes)": {
        "details": "See {IERC721-safeTransferFrom}."
      },
      "setApprovalForAll(address,bool)": {
        "details": "See {IERC721-setApprovalForAll}."
      },
      "supportsInterface(bytes4)": {
        "details": "See {IERC165-supportsInterface}."
      },
      "symbol()": {
        "details": "See {IERC721Metadata-symbol}."
      },
      "tokenURI(uint256)": {
        "details": "See {IERC721Metadata-tokenURI}."
      },
      "transferFrom(address,address,uint256)": {
        "details": "See {IERC721-transferFrom}."
      },
      "transferOwnership(address)": {
        "details": "Transfers ownership of the contract to a new account (`newOwner`). Can only be called by the current owner."
      }
    },
    "version": 1
  },
  "userdoc": {
    "kind": "user",
    "methods": {},
    "version": 1
  }
}