{
  "contractName": "PolyEchoNFT",
  "abi": [
    {
      "inputs": [],
      "stateMutability": "nonpayable",
      "type": "constructor"
    },
    {
      "anonymous": false,
      "inputs": [
        {
          "indexed": true,
          "internalType": "address",
          "name": "owner",
          "type": "address"
        },
        {
          "indexed": true,
          "internalType": "address",
          "name": "approved",
          "type": "address"
        },
        {
          "indexed": true,
          "internalType": "uint256",
          "name": "tokenId",
          "type": "uint256"
        }
      ],
      "name": "Approval",
      "type": "event"
    },
    {
      "anonymous": false,
      "inputs": [
        {
          "indexed": true,
          "internalType": "address",
          "name": "owner",
          "type": "address"
        },
        {
          "indexed": true,
          "internalType": "address",
          "name": "operator",
          "type": "address"
        },
        {
          "indexed": false,
          "internalType": "bool",
          "name": "approved",
          "type": "bool"
        }
      ],
      "name": "ApprovalForAll",
      "type": "event"
    },
    {
      "anonymous": false,
      "inputs": [
        {
          "indexed": false,
          "internalType": "address",
          "name": "_lister",
          "type": "address"
        },
        {
          "indexed": false,
          "internalType": "uint256",
          "name": "_tokenId",
          "type": "uint256"
        },
        {
          "indexed": false,
          "internalType": "uint256",
          "name": "_price",
          "type": "uint256"
        }
      ],
      "name": "ListedForSale",
      "type": "event"
    },
    {
      "anonymous": false,
      "inputs": [
        {
          "indexed": false,
          "internalType": "string",
          "name": "name",
          "type": "string"
        }
      ],
      "name": "NameUpdated",
      "type": "event"
    },
    {
      "anonymous": false,
      "inputs": [
        {
          "indexed": false,
          "internalType": "uint256",
          "name": "_tokenId",
          "type": "uint256"
        },
        {
          "indexed": false,
          "internalType": "address",
          "name": "_seller",
          "type": "address"
        },
        {
          "indexed": false,
          "internalType": "address",
          "name": "_buyer",
          "type": "address"
        },
        {
          "indexed": false,
          "internalType": "uint256",
          "name": "_price",
          "type": "uint256"
        }
      ],
      "name": "NftBought",
      "type": "event"
    },
    {
      "anonymous": false,
      "inputs": [
        {
          "indexed": true,
          "internalType": "address",
          "name": "previousOwner",
          "type": "address"
        },
        {
          "indexed": true,
          "internalType": "address",
          "name": "newOwner",
          "type": "address"
        }
      ],
      "name": "OwnershipTransferred",
      "type": "event"
    },
    {
      "anonymous": false,
      "inputs": [
        {
          "indexed": false,
          "internalType": "address",
          "name": "_lister",
          "type": "address"
        },
        {
          "indexed": false,
          "internalType": "uint256",
          "name": "_tokenId",
          "type": "uint256"
        }
      ],
      "name": "RemovedForSale",
      "type": "event"
    },
    {
      "anonymous": false,
      "inputs": [
        {
          "indexed": false,
          "internalType": "uint256",
          "name": "_tokenId",
          "type": "uint256"
        },
        {
          "indexed": false,
          "internalType": "uint256",
          "name": "_price",
          "type": "uint256"
        },
        {
          "indexed": false,
          "internalType": "address[]",
          "name": "_contributors",
          "type": "address[]"
        }
      ],
      "name": "RoyaltiesPaid",
      "type": "event"
    },
    {
      "anonymous": false,
      "inputs": [
        {
          "indexed": false,
          "internalType": "uint256",
          "name": "_tokenId",
          "type": "uint256"
        },
        {
          "indexed": false,
          "internalType": "uint256",
          "name": "_price",
          "type": "uint256"
        }
      ],
      "name": "SellerPaid",
      "type": "event"
    },
    {
      "anonymous": false,
      "inputs": [
        {
          "indexed": false,
          "internalType": "uint256",
          "name": "_tokenId",
          "type": "uint256"
        },
        {
          "indexed": false,
          "internalType": "string",
          "name": "_tokenURI",
          "type": "string"
        }
      ],
      "name": "TokenCreated",
      "type": "event"
    },
    {
      "anonymous": false,
      "inputs": [
        {
          "indexed": true,
          "internalType": "address",
          "name": "from",
          "type": "address"
        },
        {
          "indexed": true,
          "internalType": "address",
          "name": "to",
          "type": "address"
        },
        {
          "indexed": true,
          "internalType": "uint256",
          "name": "tokenId",
          "type": "uint256"
        }
      ],
      "name": "Transfer",
      "type": "event"
    },
    {
      "inputs": [
        {
          "internalType": "address",
          "name": "to",
          "type": "address"
        },
        {
          "internalType": "uint256",
          "name": "tokenId",
          "type": "uint256"
        }
      ],
      "name": "approve",
      "outputs": [],
      "stateMutability": "nonpayable",
      "type": "function"
    },
    {
      "inputs": [
        {
          "internalType": "address",
          "name": "owner",
          "type": "address"
        }
      ],
      "name": "balanceOf",
      "outputs": [
        {
          "internalType": "uint256",
          "name": "",
          "type": "uint256"
        }
      ],
      "stateMutability": "view",
      "type": "function",
      "constant": true
    },
    {
      "inputs": [],
      "name": "companyName",
      "outputs": [
        {
          "internalType": "string",
          "name": "",
          "type": "string"
        }
      ],
      "stateMutability": "view",
      "type": "function",
      "constant": true
    },
    {
      "inputs": [],
      "name": "displayName",
      "outputs": [
        {
          "internalType": "string",
          "name": "",
          "type": "string"
        }
      ],
      "stateMutability": "view",
      "type": "function",
      "constant": true
    },
    {
      "inputs": [
        {
          "internalType": "uint256",
          "name": "tokenId",
          "type": "uint256"
        }
      ],
      "name": "getApproved",
      "outputs": [
        {
          "internalType": "address",
          "name": "",
          "type": "address"
        }
      ],
      "stateMutability": "view",
      "type": "function",
      "constant": true
    },
    {
      "inputs": [
        {
          "internalType": "address",
          "name": "owner",
          "type": "address"
        },
        {
          "internalType": "address",
          "name": "operator",
          "type": "address"
        }
      ],
      "name": "isApprovedForAll",
      "outputs": [
        {
          "internalType": "bool",
          "name": "",
          "type": "bool"
        }
      ],
      "stateMutability": "view",
      "type": "function",
      "constant": true
    },
    {
      "inputs": [],
      "name": "mintPrice",
      "outputs": [
        {
          "internalType": "uint256",
          "name": "",
          "type": "uint256"
        }
      ],
      "stateMutability": "view",
      "type": "function",
      "constant": true
    },
    {
      "inputs": [],
      "name": "name",
      "outputs": [
        {
          "internalType": "string",
          "name": "",
          "type": "string"
        }
      ],
      "stateMutability": "view",
      "type": "function",
      "constant": true
    },
    {
      "inputs": [],
      "name": "owner",
      "outputs": [
        {
          "internalType": "address",
          "name": "",
          "type": "address"
        }
      ],
      "stateMutability": "view",
      "type": "function",
      "constant": true
    },
    {
      "inputs": [
        {
          "internalType": "uint256",
          "name": "tokenId",
          "type": "uint256"
        }
      ],
      "name": "ownerOf",
      "outputs": [
        {
          "internalType": "address",
          "name": "",
          "type": "address"
        }
      ],
      "stateMutability": "view",
      "type": "function",
      "constant": true
    },
    {
      "inputs": [],
      "name": "renounceOwnership",
      "outputs": [],
      "stateMutability": "nonpayable",
      "type": "function"
    },
    {
      "inputs": [
        {
          "internalType": "address",
          "name": "from",
          "type": "address"
        },
        {
          "internalType": "address",
          "name": "to",
          "type": "address"
        },
        {
          "internalType": "uint256",
          "name": "tokenId",
          "type": "uint256"
        }
      ],
      "name": "safeTransferFrom",
      "outputs": [],
      "stateMutability": "nonpayable",
      "type": "function"
    },
    {
      "inputs": [
        {
          "internalType": "address",
          "name": "from",
          "type": "address"
        },
        {
          "internalType": "address",
          "name": "to",
          "type": "address"
        },
        {
          "internalType": "uint256",
          "name": "tokenId",
          "type": "uint256"
        },
        {
          "internalType": "bytes",
          "name": "_data",
          "type": "bytes"
        }
      ],
      "name": "safeTransferFrom",
      "outputs": [],
      "stateMutability": "nonpayable",
      "type": "function"
    },
    {
      "inputs": [
        {
          "internalType": "address",
          "name": "operator",
          "type": "address"
        },
        {
          "internalType": "bool",
          "name": "approved",
          "type": "bool"
        }
      ],
      "name": "setApprovalForAll",
      "outputs": [],
      "stateMutability": "nonpayable",
      "type": "function"
    },
    {
      "inputs": [
        {
          "internalType": "bytes4",
          "name": "interfaceId",
          "type": "bytes4"
        }
      ],
      "name": "supportsInterface",
      "outputs": [
        {
          "internalType": "bool",
          "name": "",
          "type": "bool"
        }
      ],
      "stateMutability": "view",
      "type": "function",
      "constant": true
    },
    {
      "inputs": [],
      "name": "symbol",
      "outputs": [
        {
          "internalType": "string",
          "name": "",
          "type": "string"
        }
      ],
      "stateMutability": "view",
      "type": "function",
      "constant": true
    },
    {
      "inputs": [
        {
          "internalType": "uint256",
          "name": "",
          "type": "uint256"
        },
        {
          "internalType": "uint256",
          "name": "",
          "type": "uint256"
        }
      ],
      "name": "tokenIdToContributors",
      "outputs": [
        {
          "internalType": "address",
          "name": "",
          "type": "address"
        }
      ],
      "stateMutability": "view",
      "type": "function",
      "constant": true
    },
    {
      "inputs": [
        {
          "internalType": "uint256",
          "name": "",
          "type": "uint256"
        }
      ],
      "name": "tokenIdToPrice",
      "outputs": [
        {
          "internalType": "uint256",
          "name": "",
          "type": "uint256"
        }
      ],
      "stateMutability": "view",
      "type": "function",
      "constant": true
    },
    {
      "inputs": [
        {
          "internalType": "address",
          "name": "from",
          "type": "address"
        },
        {
          "internalType": "address",
          "name": "to",
          "type": "address"
        },
        {
          "internalType": "uint256",
          "name": "tokenId",
          "type": "uint256"
        }
      ],
      "name": "transferFrom",
      "outputs": [],
      "stateMutability": "nonpayable",
      "type": "function"
    },
    {
      "inputs": [
        {
          "internalType": "address",
          "name": "newOwner",
          "type": "address"
        }
      ],
      "name": "transferOwnership",
      "outputs": [],
      "stateMutability": "nonpayable",
      "type": "function"
    },
    {
      "inputs": [
        {
          "internalType": "string",
          "name": "_name",
          "type": "string"
        }
      ],
      "name": "updateDisplayName",
      "outputs": [],
      "stateMutability": "nonpayable",
      "type": "function"
    },
    {
      "inputs": [
        {
          "internalType": "uint256",
          "name": "tokenId",
          "type": "uint256"
        }
      ],
      "name": "getContributors",
      "outputs": [
        {
          "internalType": "address[]",
          "name": "",
          "type": "address[]"
        }
      ],
      "stateMutability": "view",
      "type": "function",
      "constant": true
    },
    {
      "inputs": [
        {
          "internalType": "uint256",
          "name": "tokenId",
          "type": "uint256"
        }
      ],
      "name": "tokenURI",
      "outputs": [
        {
          "internalType": "string",
          "name": "",
          "type": "string"
        }
      ],
      "stateMutability": "view",
      "type": "function",
      "constant": true
    },
    {
      "inputs": [
        {
          "internalType": "address",
          "name": "_buyer",
          "type": "address"
        },
        {
          "internalType": "string",
          "name": "_metadataURI",
          "type": "string"
        },
        {
          "internalType": "address payable[]",
          "name": "_contributors",
          "type": "address[]"
        }
      ],
      "name": "mintAndBuy",
      "outputs": [
        {
          "internalType": "uint256",
          "name": "",
          "type": "uint256"
        },
        {
          "internalType": "string",
          "name": "",
          "type": "string"
        }
      ],
      "stateMutability": "payable",
      "type": "function",
      "payable": true
    },
    {
      "inputs": [
        {
          "internalType": "uint256",
          "name": "_tokenId",
          "type": "uint256"
        },
        {
          "internalType": "uint256",
          "name": "_price",
          "type": "uint256"
        }
      ],
      "name": "allowBuy",
      "outputs": [],
      "stateMutability": "nonpayable",
      "type": "function"
    },
    {
      "inputs": [
        {
          "internalType": "uint256",
          "name": "_tokenId",
          "type": "uint256"
        }
      ],
      "name": "disallowBuy",
      "outputs": [],
      "stateMutability": "nonpayable",
      "type": "function"
    },
    {
      "inputs": [
        {
          "internalType": "uint256",
          "name": "_tokenId",
          "type": "uint256"
        }
      ],
      "name": "buy",
      "outputs": [],
      "stateMutability": "payable",
      "type": "function",
      "payable": true
    }
  ],
  "bytecode": "0x60806040526040518060400160405280601281526020017f506f6c794563686f20417564696f204e46540000000000000000000000000000815250600890805190602001906200005192919062000242565b506040518060400160405280600881526020017f506f6c794563686f000000000000000000000000000000000000000000000000815250600990805190602001906200009f92919062000242565b50348015620000ad57600080fd5b506040518060400160405280600881526020017f506f6c794563686f0000000000000000000000000000000000000000000000008152506040518060400160405280600481526020017f4543484f0000000000000000000000000000000000000000000000000000000081525081600090805190602001906200013292919062000242565b5080600190805190602001906200014b92919062000242565b5050506200016e620001626200017460201b60201c565b6200017c60201b60201c565b62000357565b600033905090565b6000600660009054906101000a900473ffffffffffffffffffffffffffffffffffffffff16905081600660006101000a81548173ffffffffffffffffffffffffffffffffffffffff021916908373ffffffffffffffffffffffffffffffffffffffff1602179055508173ffffffffffffffffffffffffffffffffffffffff168173ffffffffffffffffffffffffffffffffffffffff167f8be0079c531659141344cd1fd0a4f28419497f9722a3daafe3b4186f6b6457e060405160405180910390a35050565b8280546200025090620002f2565b90600052602060002090601f016020900481019282620002745760008555620002c0565b82601f106200028f57805160ff1916838001178555620002c0565b82800160010185558215620002c0579182015b82811115620002bf578251825591602001919060010190620002a2565b5b509050620002cf9190620002d3565b5090565b5b80821115620002ee576000816000905550600101620002d4565b5090565b600060028204905060018216806200030b57607f821691505b6020821081141562000322576200032162000328565b5b50919050565b7f4e487b7100000000000000000000000000000000000000000000000000000000600052602260045260246000fd5b61406380620003676000396000f3fe60806040526004361061019c5760003560e01c80638da5cb5b116100ec578063d96a094a1161008a578063ef9dad8d11610064578063ef9dad8d146105cf578063f2fde38b1461060c578063f4812eb914610635578063f5ec2eed146106725761019c565b8063d96a094a14610545578063e985e9c514610561578063eb753e471461059e5761019c565b8063b88d4fde116100c6578063b88d4fde1461048d578063bbb5e8d3146104b6578063c87b56dd146104df578063d49913121461051c5761019c565b80638da5cb5b1461040e57806395d89b4114610439578063a22cb465146104645761019c565b8063401d3518116101595780636352211e116101335780636352211e146103525780636817c76c1461038f57806370a08231146103ba578063715018a6146103f75761019c565b8063401d3518146102d557806342842e0e146102fe5780634affb260146103275761019c565b806301ffc9a7146101a157806306fdde03146101de578063081812fc14610209578063095ea7b31461024657806323b872dd1461026f5780633c1ab00f14610298575b600080fd5b3480156101ad57600080fd5b506101c860048036038101906101c39190612ac7565b61069d565b6040516101d59190613164565b60405180910390f35b3480156101ea57600080fd5b506101f361077f565b60405161020091906131a3565b60405180910390f35b34801561021557600080fd5b50610230600480360381019061022b9190612b5e565b610811565b60405161023d919061307b565b60405180910390f35b34801561025257600080fd5b5061026d60048036038101906102689190612a8b565b610896565b005b34801561027b57600080fd5b50610296600480360381019061029191906128fc565b6109ae565b005b3480156102a457600080fd5b506102bf60048036038101906102ba9190612b5e565b610a0e565b6040516102cc9190613142565b60405180910390f35b3480156102e157600080fd5b506102fc60048036038101906102f79190612b19565b610af7565b005b34801561030a57600080fd5b50610325600480360381019061032091906128fc565b610bc2565b005b34801561033357600080fd5b5061033c610be2565b60405161034991906131a3565b60405180910390f35b34801561035e57600080fd5b5061037960048036038101906103749190612b5e565b610c70565b604051610386919061307b565b60405180910390f35b34801561039b57600080fd5b506103a4610d22565b6040516103b19190613485565b60405180910390f35b3480156103c657600080fd5b506103e160048036038101906103dc919061286e565b610d2d565b6040516103ee9190613485565b60405180910390f35b34801561040357600080fd5b5061040c610de5565b005b34801561041a57600080fd5b50610423610e6d565b604051610430919061307b565b60405180910390f35b34801561044557600080fd5b5061044e610e97565b60405161045b91906131a3565b60405180910390f35b34801561047057600080fd5b5061048b600480360381019061048691906129c6565b610f29565b005b34801561049957600080fd5b506104b460048036038101906104af919061294b565b610f3f565b005b3480156104c257600080fd5b506104dd60048036038101906104d89190612b87565b610fa1565b005b3480156104eb57600080fd5b5061050660048036038101906105019190612b5e565b6110b1565b60405161051391906131a3565b60405180910390f35b34801561052857600080fd5b50610543600480360381019061053e9190612b5e565b61119e565b005b61055f600480360381019061055a9190612b5e565b611269565b005b34801561056d57600080fd5b50610588600480360381019061058391906128c0565b61157d565b6040516105959190613164565b60405180910390f35b6105b860048036038101906105b39190612a02565b611611565b6040516105c69291906134e5565b60405180910390f35b3480156105db57600080fd5b506105f660048036038101906105f19190612b87565b6117f3565b604051610603919061307b565b60405180910390f35b34801561061857600080fd5b50610633600480360381019061062e919061286e565b611841565b005b34801561064157600080fd5b5061065c60048036038101906106579190612b5e565b611939565b6040516106699190613485565b60405180910390f35b34801561067e57600080fd5b50610687611951565b60405161069491906131a3565b60405180910390f35b60007f80ac58cd000000000000000000000000000000000000000000000000000000007bffffffffffffffffffffffffffffffffffffffffffffffffffffffff1916827bffffffffffffffffffffffffffffffffffffffffffffffffffffffff1916148061076857507f5b5e139f000000000000000000000000000000000000000000000000000000007bffffffffffffffffffffffffffffffffffffffffffffffffffffffff1916827bffffffffffffffffffffffffffffffffffffffffffffffffffffffff1916145b806107785750610777826119df565b5b9050919050565b60606000805461078e9061386d565b80601f01602080910402602001604051908101604052809291908181526020018280546107ba9061386d565b80156108075780601f106107dc57610100808354040283529160200191610807565b820191906000526020600020905b8154815290600101906020018083116107ea57829003601f168201915b5050505050905090565b600061081c82611a49565b61085b576040517f08c379a000000000000000000000000000000000000000000000000000000000815260040161085290613345565b60405180910390fd5b6004600083815260200190815260200160002060009054906101000a900473ffffffffffffffffffffffffffffffffffffffff169050919050565b60006108a182610c70565b90508073ffffffffffffffffffffffffffffffffffffffff168373ffffffffffffffffffffffffffffffffffffffff161415610912576040517f08c379a0000000000000000000000000000000000000000000000000000000008152600401610909906133e5565b60405180910390fd5b8073ffffffffffffffffffffffffffffffffffffffff16610931611ab5565b73ffffffffffffffffffffffffffffffffffffffff161480610960575061095f8161095a611ab5565b61157d565b5b61099f576040517f08c379a0000000000000000000000000000000000000000000000000000000008152600401610996906132c5565b60405180910390fd5b6109a98383611abd565b505050565b6109bf6109b9611ab5565b82611b76565b6109fe576040517f08c379a00000000000000000000000000000000000000000000000000000000081526004016109f590613445565b60405180910390fd5b610a09838383611c54565b505050565b6060610a1982611a49565b610a58576040517f08c379a0000000000000000000000000000000000000000000000000000000008152600401610a4f90613465565b60405180910390fd5b600b6000838152602001908152602001600020805480602002602001604051908101604052809291908181526020018280548015610aeb57602002820191906000526020600020905b8160009054906101000a900473ffffffffffffffffffffffffffffffffffffffff1673ffffffffffffffffffffffffffffffffffffffff1681526020019060010190808311610aa1575b50505050509050919050565b610aff611ab5565b73ffffffffffffffffffffffffffffffffffffffff16610b1d610e6d565b73ffffffffffffffffffffffffffffffffffffffff1614610b73576040517f08c379a0000000000000000000000000000000000000000000000000000000008152600401610b6a90613385565b60405180910390fd5b818160089190610b849291906125b1565b507f9f7688a97f1ac51fe03bac18af18d6810f9f11f0db08c59b1938a9ac825ef7448282604051610bb692919061317f565b60405180910390a15050565b610bdd83838360405180602001604052806000815250610f3f565b505050565b60088054610bef9061386d565b80601f0160208091040260200160405190810160405280929190818152602001828054610c1b9061386d565b8015610c685780601f10610c3d57610100808354040283529160200191610c68565b820191906000526020600020905b815481529060010190602001808311610c4b57829003601f168201915b505050505081565b6000806002600084815260200190815260200160002060009054906101000a900473ffffffffffffffffffffffffffffffffffffffff169050600073ffffffffffffffffffffffffffffffffffffffff168173ffffffffffffffffffffffffffffffffffffffff161415610d19576040517f08c379a0000000000000000000000000000000000000000000000000000000008152600401610d1090613305565b60405180910390fd5b80915050919050565b662386f26fc1000081565b60008073ffffffffffffffffffffffffffffffffffffffff168273ffffffffffffffffffffffffffffffffffffffff161415610d9e576040517f08c379a0000000000000000000000000000000000000000000000000000000008152600401610d95906132e5565b60405180910390fd5b600360008373ffffffffffffffffffffffffffffffffffffffff1673ffffffffffffffffffffffffffffffffffffffff168152602001908152602001600020549050919050565b610ded611ab5565b73ffffffffffffffffffffffffffffffffffffffff16610e0b610e6d565b73ffffffffffffffffffffffffffffffffffffffff1614610e61576040517f08c379a0000000000000000000000000000000000000000000000000000000008152600401610e5890613385565b60405180910390fd5b610e6b6000611ebb565b565b6000600660009054906101000a900473ffffffffffffffffffffffffffffffffffffffff16905090565b606060018054610ea69061386d565b80601f0160208091040260200160405190810160405280929190818152602001828054610ed29061386d565b8015610f1f5780601f10610ef457610100808354040283529160200191610f1f565b820191906000526020600020905b815481529060010190602001808311610f0257829003601f168201915b5050505050905090565b610f3b610f34611ab5565b8383611f81565b5050565b610f50610f4a611ab5565b83611b76565b610f8f576040517f08c379a0000000000000000000000000000000000000000000000000000000008152600401610f8690613445565b60405180910390fd5b610f9b848484846120ee565b50505050565b610faa82610c70565b73ffffffffffffffffffffffffffffffffffffffff163373ffffffffffffffffffffffffffffffffffffffff1614611017576040517f08c379a000000000000000000000000000000000000000000000000000000000815260040161100e90613405565b60405180910390fd5b6000811161105a576040517f08c379a0000000000000000000000000000000000000000000000000000000008152600401611051906133a5565b60405180910390fd5b80600c6000848152602001908152602001600020819055507fd8e0b128fee17f55fcc09b80146a7c91a1aa841f3dfbb2171e6fff11f71a9ab03383836040516110a59392919061310b565b60405180910390a15050565b60606110bc82611a49565b6110fb576040517f08c379a00000000000000000000000000000000000000000000000000000000081526004016110f2906133c5565b60405180910390fd5b600a600083815260200190815260200160002080546111199061386d565b80601f01602080910402602001604051908101604052809291908181526020018280546111459061386d565b80156111925780601f1061116757610100808354040283529160200191611192565b820191906000526020600020905b81548152906001019060200180831161117557829003601f168201915b50505050509050919050565b6111a781610c70565b73ffffffffffffffffffffffffffffffffffffffff163373ffffffffffffffffffffffffffffffffffffffff1614611214576040517f08c379a000000000000000000000000000000000000000000000000000000000815260040161120b90613405565b60405180910390fd5b6000600c6000838152602001908152602001600020819055507ff6b8277a836e8d69e173c05c5da9a781f0c1065dd5ff6a2fbdc995978e3631ea338260405161125e9291906130e2565b60405180910390a150565b6000600c6000838152602001908152602001600020549050600081116112c4576040517f08c379a00000000000000000000000000000000000000000000000000000000081526004016112bb906131e5565b60405180910390fd5b803414611306576040517f08c379a00000000000000000000000000000000000000000000000000000000081526004016112fd90613365565b60405180910390fd5b600061131183610c70565b905061131d3384611abd565b611328813385610bc2565b600061133e600a3461214a90919063ffffffff16565b90506000611369600961135b600a3461214a90919063ffffffff16565b61216090919063ffffffff16565b90506000600b6000878152602001908152602001600020905060005b81805490508110156114635760008282815481106113cc577f4e487b7100000000000000000000000000000000000000000000000000000000600052603260045260246000fd5b9060005260206000200160009054906101000a900473ffffffffffffffffffffffffffffffffffffffff1690508073ffffffffffffffffffffffffffffffffffffffff166108fc84805490508761142391906136c6565b9081150290604051600060405180830381858888f1935050505015801561144e573d6000803e3d6000fd5b5050808061145b906138ea565b915050611385565b508373ffffffffffffffffffffffffffffffffffffffff166108fc839081150290604051600060405180830381858888f193505050501580156114aa573d6000803e3d6000fd5b506000600c6000888152602001908152602001600020819055507f5837dc3eeed2d2b1d75de7e85c87404936759686b473d2cbc06bc59f96060cff868533346040516114f994939291906134a0565b60405180910390a17fc90e2b5bf9e462d07d9c1fc5201c35bb5dc9dd94df8124b2a19a8f98d64ccdb18683604051611532929190613515565b60405180910390a17fad6f7101d3f53815713d2dd1e65366de1f3db3cf8f9a2d9a9a8119a1bd2b640786848360405161156d9392919061353e565b60405180910390a1505050505050565b6000600560008473ffffffffffffffffffffffffffffffffffffffff1673ffffffffffffffffffffffffffffffffffffffff16815260200190815260200160002060008373ffffffffffffffffffffffffffffffffffffffff1673ffffffffffffffffffffffffffffffffffffffff16815260200190815260200160002060009054906101000a900460ff16905092915050565b60006060662386f26fc1000034101561165f576040517f08c379a000000000000000000000000000000000000000000000000000000000815260040161165690613425565b60405180910390fd5b6116696007612176565b6000611675600761218c565b90508686600a600084815260200190815260200160002091906116999291906125b1565b508484600b600084815260200190815260200160002091906116bc929190612637565b506116c7888261219a565b6116d18882611abd565b60005b8585905081101561179a57600086868381811061171a577f4e487b7100000000000000000000000000000000000000000000000000000000600052603260045260246000fd5b905060200201602081019061172f9190612897565b90508073ffffffffffffffffffffffffffffffffffffffff166108fc888890503461175a91906136c6565b9081150290604051600060405180830381858888f19350505050158015611785573d6000803e3d6000fd5b50508080611792906138ea565b9150506116d4565b5060006117a6826110b1565b90507f5d3ac5872118b949a1f8db596134a0e1587ecf18f2203bb1e3ea420c3c3f8fa982826040516117d99291906134e5565b60405180910390a181819350935050509550959350505050565b600b602052816000526040600020818154811061180f57600080fd5b906000526020600020016000915091509054906101000a900473ffffffffffffffffffffffffffffffffffffffff1681565b611849611ab5565b73ffffffffffffffffffffffffffffffffffffffff16611867610e6d565b73ffffffffffffffffffffffffffffffffffffffff16146118bd576040517f08c379a00000000000000000000000000000000000000000000000000000000081526004016118b490613385565b60405180910390fd5b600073ffffffffffffffffffffffffffffffffffffffff168173ffffffffffffffffffffffffffffffffffffffff16141561192d576040517f08c379a000000000000000000000000000000000000000000000000000000000815260040161192490613205565b60405180910390fd5b61193681611ebb565b50565b600c6020528060005260406000206000915090505481565b6009805461195e9061386d565b80601f016020809104026020016040519081016040528092919081815260200182805461198a9061386d565b80156119d75780601f106119ac576101008083540402835291602001916119d7565b820191906000526020600020905b8154815290600101906020018083116119ba57829003601f168201915b505050505081565b60007f01ffc9a7000000000000000000000000000000000000000000000000000000007bffffffffffffffffffffffffffffffffffffffffffffffffffffffff1916827bffffffffffffffffffffffffffffffffffffffffffffffffffffffff1916149050919050565b60008073ffffffffffffffffffffffffffffffffffffffff166002600084815260200190815260200160002060009054906101000a900473ffffffffffffffffffffffffffffffffffffffff1673ffffffffffffffffffffffffffffffffffffffff1614159050919050565b600033905090565b816004600083815260200190815260200160002060006101000a81548173ffffffffffffffffffffffffffffffffffffffff021916908373ffffffffffffffffffffffffffffffffffffffff160217905550808273ffffffffffffffffffffffffffffffffffffffff16611b3083610c70565b73ffffffffffffffffffffffffffffffffffffffff167f8c5be1e5ebec7d5bd14f71427d1e84f3dd0314c0f7b2291e5b200ac8c7c3b92560405160405180910390a45050565b6000611b8182611a49565b611bc0576040517f08c379a0000000000000000000000000000000000000000000000000000000008152600401611bb7906132a5565b60405180910390fd5b6000611bcb83610c70565b90508073ffffffffffffffffffffffffffffffffffffffff168473ffffffffffffffffffffffffffffffffffffffff161480611c3a57508373ffffffffffffffffffffffffffffffffffffffff16611c2284610811565b73ffffffffffffffffffffffffffffffffffffffff16145b80611c4b5750611c4a818561157d565b5b91505092915050565b8273ffffffffffffffffffffffffffffffffffffffff16611c7482610c70565b73ffffffffffffffffffffffffffffffffffffffff1614611cca576040517f08c379a0000000000000000000000000000000000000000000000000000000008152600401611cc190613225565b60405180910390fd5b600073ffffffffffffffffffffffffffffffffffffffff168273ffffffffffffffffffffffffffffffffffffffff161415611d3a576040517f08c379a0000000000000000000000000000000000000000000000000000000008152600401611d3190613265565b60405180910390fd5b611d458383836121b8565b611d50600082611abd565b6001600360008573ffffffffffffffffffffffffffffffffffffffff1673ffffffffffffffffffffffffffffffffffffffff1681526020019081526020016000206000828254611da09190613751565b925050819055506001600360008473ffffffffffffffffffffffffffffffffffffffff1673ffffffffffffffffffffffffffffffffffffffff1681526020019081526020016000206000828254611df79190613670565b92505081905550816002600083815260200190815260200160002060006101000a81548173ffffffffffffffffffffffffffffffffffffffff021916908373ffffffffffffffffffffffffffffffffffffffff160217905550808273ffffffffffffffffffffffffffffffffffffffff168473ffffffffffffffffffffffffffffffffffffffff167fddf252ad1be2c89b69c2b068fc378daa952ba7f163c4a11628f55a4df523b3ef60405160405180910390a4611eb68383836121bd565b505050565b6000600660009054906101000a900473ffffffffffffffffffffffffffffffffffffffff16905081600660006101000a81548173ffffffffffffffffffffffffffffffffffffffff021916908373ffffffffffffffffffffffffffffffffffffffff1602179055508173ffffffffffffffffffffffffffffffffffffffff168173ffffffffffffffffffffffffffffffffffffffff167f8be0079c531659141344cd1fd0a4f28419497f9722a3daafe3b4186f6b6457e060405160405180910390a35050565b8173ffffffffffffffffffffffffffffffffffffffff168373ffffffffffffffffffffffffffffffffffffffff161415611ff0576040517f08c379a0000000000000000000000000000000000000000000000000000000008152600401611fe790613285565b60405180910390fd5b80600560008573ffffffffffffffffffffffffffffffffffffffff1673ffffffffffffffffffffffffffffffffffffffff16815260200190815260200160002060008473ffffffffffffffffffffffffffffffffffffffff1673ffffffffffffffffffffffffffffffffffffffff16815260200190815260200160002060006101000a81548160ff0219169083151502179055508173ffffffffffffffffffffffffffffffffffffffff168373ffffffffffffffffffffffffffffffffffffffff167f17307eab39ab6107e8899845ad3d59bd9653f200f220920489ca2b5937696c31836040516120e19190613164565b60405180910390a3505050565b6120f9848484611c54565b612105848484846121c2565b612144576040517f08c379a000000000000000000000000000000000000000000000000000000000815260040161213b906131c5565b60405180910390fd5b50505050565b6000818361215891906136c6565b905092915050565b6000818361216e91906136f7565b905092915050565b6001816000016000828254019250508190555050565b600081600001549050919050565b6121b4828260405180602001604052806000815250612359565b5050565b505050565b505050565b60006121e38473ffffffffffffffffffffffffffffffffffffffff166123b4565b1561234c578373ffffffffffffffffffffffffffffffffffffffff1663150b7a0261220c611ab5565b8786866040518563ffffffff1660e01b815260040161222e9493929190613096565b602060405180830381600087803b15801561224857600080fd5b505af192505050801561227957506040513d601f19601f820116820180604052508101906122769190612af0565b60015b6122fc573d80600081146122a9576040519150601f19603f3d011682016040523d82523d6000602084013e6122ae565b606091505b506000815114156122f4576040517f08c379a00000000000000000000000000000000000000000000000000000000081526004016122eb906131c5565b60405180910390fd5b805181602001fd5b63150b7a0260e01b7bffffffffffffffffffffffffffffffffffffffffffffffffffffffff1916817bffffffffffffffffffffffffffffffffffffffffffffffffffffffff191614915050612351565b600190505b949350505050565b61236383836123d7565b61237060008484846121c2565b6123af576040517f08c379a00000000000000000000000000000000000000000000000000000000081526004016123a6906131c5565b60405180910390fd5b505050565b6000808273ffffffffffffffffffffffffffffffffffffffff163b119050919050565b600073ffffffffffffffffffffffffffffffffffffffff168273ffffffffffffffffffffffffffffffffffffffff161415612447576040517f08c379a000000000000000000000000000000000000000000000000000000000815260040161243e90613325565b60405180910390fd5b61245081611a49565b15612490576040517f08c379a000000000000000000000000000000000000000000000000000000000815260040161248790613245565b60405180910390fd5b61249c600083836121b8565b6001600360008473ffffffffffffffffffffffffffffffffffffffff1673ffffffffffffffffffffffffffffffffffffffff16815260200190815260200160002060008282546124ec9190613670565b92505081905550816002600083815260200190815260200160002060006101000a81548173ffffffffffffffffffffffffffffffffffffffff021916908373ffffffffffffffffffffffffffffffffffffffff160217905550808273ffffffffffffffffffffffffffffffffffffffff16600073ffffffffffffffffffffffffffffffffffffffff167fddf252ad1be2c89b69c2b068fc378daa952ba7f163c4a11628f55a4df523b3ef60405160405180910390a46125ad600083836121bd565b5050565b8280546125bd9061386d565b90600052602060002090601f0160209004810192826125df5760008555612626565b82601f106125f857803560ff1916838001178555612626565b82800160010185558215612626579182015b8281111561262557823582559160200191906001019061260a565b5b50905061263391906126d7565b5090565b8280548282559060005260206000209081019282156126c6579160200282015b828111156126c557823573ffffffffffffffffffffffffffffffffffffffff168260006101000a81548173ffffffffffffffffffffffffffffffffffffffff021916908373ffffffffffffffffffffffffffffffffffffffff16021790555091602001919060010190612657565b5b5090506126d391906126d7565b5090565b5b808211156126f05760008160009055506001016126d8565b5090565b6000612707612702846135a1565b61357c565b90508281526020810184848401111561271f57600080fd5b61272a84828561382b565b509392505050565b60008135905061274181613fba565b92915050565b60008135905061275681613fd1565b92915050565b60008083601f84011261276e57600080fd5b8235905067ffffffffffffffff81111561278757600080fd5b60208301915083602082028301111561279f57600080fd5b9250929050565b6000813590506127b581613fe8565b92915050565b6000813590506127ca81613fff565b92915050565b6000815190506127df81613fff565b92915050565b600082601f8301126127f657600080fd5b81356128068482602086016126f4565b91505092915050565b60008083601f84011261282157600080fd5b8235905067ffffffffffffffff81111561283a57600080fd5b60208301915083600182028301111561285257600080fd5b9250929050565b60008135905061286881614016565b92915050565b60006020828403121561288057600080fd5b600061288e84828501612732565b91505092915050565b6000602082840312156128a957600080fd5b60006128b784828501612747565b91505092915050565b600080604083850312156128d357600080fd5b60006128e185828601612732565b92505060206128f285828601612732565b9150509250929050565b60008060006060848603121561291157600080fd5b600061291f86828701612732565b935050602061293086828701612732565b925050604061294186828701612859565b9150509250925092565b6000806000806080858703121561296157600080fd5b600061296f87828801612732565b945050602061298087828801612732565b935050604061299187828801612859565b925050606085013567ffffffffffffffff8111156129ae57600080fd5b6129ba878288016127e5565b91505092959194509250565b600080604083850312156129d957600080fd5b60006129e785828601612732565b92505060206129f8858286016127a6565b9150509250929050565b600080600080600060608688031215612a1a57600080fd5b6000612a2888828901612732565b955050602086013567ffffffffffffffff811115612a4557600080fd5b612a518882890161280f565b9450945050604086013567ffffffffffffffff811115612a7057600080fd5b612a7c8882890161275c565b92509250509295509295909350565b60008060408385031215612a9e57600080fd5b6000612aac85828601612732565b9250506020612abd85828601612859565b9150509250929050565b600060208284031215612ad957600080fd5b6000612ae7848285016127bb565b91505092915050565b600060208284031215612b0257600080fd5b6000612b10848285016127d0565b91505092915050565b60008060208385031215612b2c57600080fd5b600083013567ffffffffffffffff811115612b4657600080fd5b612b528582860161280f565b92509250509250929050565b600060208284031215612b7057600080fd5b6000612b7e84828501612859565b91505092915050565b60008060408385031215612b9a57600080fd5b6000612ba885828601612859565b9250506020612bb985828601612859565b9150509250929050565b6000612bcf8383612bdb565b60208301905092915050565b612be4816137a5565b82525050565b612bf3816137a5565b82525050565b6000612c04826135f7565b612c0e818561363d565b9350612c19836135d2565b8060005b83811015612c4a578151612c318882612bc3565b9750612c3c83613623565b925050600181019050612c1d565b5085935050505092915050565b6000612c6282613602565b612c6c818561363d565b9350612c77836135e2565b8060005b83811015612caf57612c8c826139ef565b612c968882612bc3565b9750612ca183613630565b925050600181019050612c7b565b5085935050505092915050565b612cc5816137c9565b82525050565b6000612cd68261360d565b612ce0818561364e565b9350612cf081856020860161383a565b612cf981613a02565b840191505092915050565b6000612d10838561365f565b9350612d1d83858461382b565b612d2683613a02565b840190509392505050565b6000612d3c82613618565b612d46818561365f565b9350612d5681856020860161383a565b612d5f81613a02565b840191505092915050565b6000612d7760328361365f565b9150612d8282613a20565b604082019050919050565b6000612d9a601a8361365f565b9150612da582613a6f565b602082019050919050565b6000612dbd60268361365f565b9150612dc882613a98565b604082019050919050565b6000612de060258361365f565b9150612deb82613ae7565b604082019050919050565b6000612e03601c8361365f565b9150612e0e82613b36565b602082019050919050565b6000612e2660248361365f565b9150612e3182613b5f565b604082019050919050565b6000612e4960198361365f565b9150612e5482613bae565b602082019050919050565b6000612e6c602c8361365f565b9150612e7782613bd7565b604082019050919050565b6000612e8f60388361365f565b9150612e9a82613c26565b604082019050919050565b6000612eb2602a8361365f565b9150612ebd82613c75565b604082019050919050565b6000612ed560298361365f565b9150612ee082613cc4565b604082019050919050565b6000612ef860208361365f565b9150612f0382613d13565b602082019050919050565b6000612f1b602c8361365f565b9150612f2682613d3c565b604082019050919050565b6000612f3e600f8361365f565b9150612f4982613d8b565b602082019050919050565b6000612f6160208361365f565b9150612f6c82613db4565b602082019050919050565b6000612f84600a8361365f565b9150612f8f82613ddd565b602082019050919050565b6000612fa7602f8361365f565b9150612fb282613e06565b604082019050919050565b6000612fca60218361365f565b9150612fd582613e55565b604082019050919050565b6000612fed60178361365f565b9150612ff882613ea4565b602082019050919050565b600061301060268361365f565b915061301b82613ecd565b604082019050919050565b600061303360318361365f565b915061303e82613f1c565b604082019050919050565b6000613056602f8361365f565b915061306182613f6b565b604082019050919050565b61307581613821565b82525050565b60006020820190506130906000830184612bea565b92915050565b60006080820190506130ab6000830187612bea565b6130b86020830186612bea565b6130c5604083018561306c565b81810360608301526130d78184612ccb565b905095945050505050565b60006040820190506130f76000830185612bea565b613104602083018461306c565b9392505050565b60006060820190506131206000830186612bea565b61312d602083018561306c565b61313a604083018461306c565b949350505050565b6000602082019050818103600083015261315c8184612bf9565b905092915050565b60006020820190506131796000830184612cbc565b92915050565b6000602082019050818103600083015261319a818486612d04565b90509392505050565b600060208201905081810360008301526131bd8184612d31565b905092915050565b600060208201905081810360008301526131de81612d6a565b9050919050565b600060208201905081810360008301526131fe81612d8d565b9050919050565b6000602082019050818103600083015261321e81612db0565b9050919050565b6000602082019050818103600083015261323e81612dd3565b9050919050565b6000602082019050818103600083015261325e81612df6565b9050919050565b6000602082019050818103600083015261327e81612e19565b9050919050565b6000602082019050818103600083015261329e81612e3c565b9050919050565b600060208201905081810360008301526132be81612e5f565b9050919050565b600060208201905081810360008301526132de81612e82565b9050919050565b600060208201905081810360008301526132fe81612ea5565b9050919050565b6000602082019050818103600083015261331e81612ec8565b9050919050565b6000602082019050818103600083015261333e81612eeb565b9050919050565b6000602082019050818103600083015261335e81612f0e565b9050919050565b6000602082019050818103600083015261337e81612f31565b9050919050565b6000602082019050818103600083015261339e81612f54565b9050919050565b600060208201905081810360008301526133be81612f77565b9050919050565b600060208201905081810360008301526133de81612f9a565b9050919050565b600060208201905081810360008301526133fe81612fbd565b9050919050565b6000602082019050818103600083015261341e81612fe0565b9050919050565b6000602082019050818103600083015261343e81613003565b9050919050565b6000602082019050818103600083015261345e81613026565b9050919050565b6000602082019050818103600083015261347e81613049565b9050919050565b600060208201905061349a600083018461306c565b92915050565b60006080820190506134b5600083018761306c565b6134c26020830186612bea565b6134cf6040830185612bea565b6134dc606083018461306c565b95945050505050565b60006040820190506134fa600083018561306c565b818103602083015261350c8184612d31565b90509392505050565b600060408201905061352a600083018561306c565b613537602083018461306c565b9392505050565b6000606082019050613553600083018661306c565b613560602083018561306c565b81810360408301526135728184612c57565b9050949350505050565b6000613586613597565b905061359282826138b9565b919050565b6000604051905090565b600067ffffffffffffffff8211156135bc576135bb6139c0565b5b6135c582613a02565b9050602081019050919050565b6000819050602082019050919050565b60008190508160005260206000209050919050565b600081519050919050565b600081549050919050565b600081519050919050565b600081519050919050565b6000602082019050919050565b6000600182019050919050565b600082825260208201905092915050565b600082825260208201905092915050565b600082825260208201905092915050565b600061367b82613821565b915061368683613821565b9250827fffffffffffffffffffffffffffffffffffffffffffffffffffffffffffffffff038211156136bb576136ba613933565b5b828201905092915050565b60006136d182613821565b91506136dc83613821565b9250826136ec576136eb613962565b5b828204905092915050565b600061370282613821565b915061370d83613821565b9250817fffffffffffffffffffffffffffffffffffffffffffffffffffffffffffffffff048311821515161561374657613745613933565b5b828202905092915050565b600061375c82613821565b915061376783613821565b92508282101561377a57613779613933565b5b828203905092915050565b600073ffffffffffffffffffffffffffffffffffffffff82169050919050565b60006137b082613801565b9050919050565b60006137c282613801565b9050919050565b60008115159050919050565b60007fffffffff0000000000000000000000000000000000000000000000000000000082169050919050565b600073ffffffffffffffffffffffffffffffffffffffff82169050919050565b6000819050919050565b82818337600083830152505050565b60005b8381101561385857808201518184015260208101905061383d565b83811115613867576000848401525b50505050565b6000600282049050600182168061388557607f821691505b6020821081141561389957613898613991565b5b50919050565b60006138b26138ad83613a13565b613785565b9050919050565b6138c282613a02565b810181811067ffffffffffffffff821117156138e1576138e06139c0565b5b80604052505050565b60006138f582613821565b91507fffffffffffffffffffffffffffffffffffffffffffffffffffffffffffffffff82141561392857613927613933565b5b600182019050919050565b7f4e487b7100000000000000000000000000000000000000000000000000000000600052601160045260246000fd5b7f4e487b7100000000000000000000000000000000000000000000000000000000600052601260045260246000fd5b7f4e487b7100000000000000000000000000000000000000000000000000000000600052602260045260246000fd5b7f4e487b7100000000000000000000000000000000000000000000000000000000600052604160045260246000fd5b60006139fb825461389f565b9050919050565b6000601f19601f8301169050919050565b60008160001c9050919050565b7f4552433732313a207472616e7366657220746f206e6f6e20455243373231526560008201527f63656976657220696d706c656d656e7465720000000000000000000000000000602082015250565b7f5468697320746f6b656e206973206e6f7420666f722073616c65000000000000600082015250565b7f4f776e61626c653a206e6577206f776e657220697320746865207a65726f206160008201527f6464726573730000000000000000000000000000000000000000000000000000602082015250565b7f4552433732313a207472616e736665722066726f6d20696e636f72726563742060008201527f6f776e6572000000000000000000000000000000000000000000000000000000602082015250565b7f4552433732313a20746f6b656e20616c7265616479206d696e74656400000000600082015250565b7f4552433732313a207472616e7366657220746f20746865207a65726f2061646460008201527f7265737300000000000000000000000000000000000000000000000000000000602082015250565b7f4552433732313a20617070726f766520746f2063616c6c657200000000000000600082015250565b7f4552433732313a206f70657261746f7220717565727920666f72206e6f6e657860008201527f697374656e7420746f6b656e0000000000000000000000000000000000000000602082015250565b7f4552433732313a20617070726f76652063616c6c6572206973206e6f74206f7760008201527f6e6572206e6f7220617070726f76656420666f7220616c6c0000000000000000602082015250565b7f4552433732313a2062616c616e636520717565727920666f7220746865207a6560008201527f726f206164647265737300000000000000000000000000000000000000000000602082015250565b7f4552433732313a206f776e657220717565727920666f72206e6f6e657869737460008201527f656e7420746f6b656e0000000000000000000000000000000000000000000000602082015250565b7f4552433732313a206d696e7420746f20746865207a65726f2061646472657373600082015250565b7f4552433732313a20617070726f76656420717565727920666f72206e6f6e657860008201527f697374656e7420746f6b656e0000000000000000000000000000000000000000602082015250565b7f496e636f72726563742076616c75650000000000000000000000000000000000600082015250565b7f4f776e61626c653a2063616c6c6572206973206e6f7420746865206f776e6572600082015250565b7f5072696365207a65726f00000000000000000000000000000000000000000000600082015250565b7f4552433732314d657461646174613a2055524920717565727920666f72206e6f60008201527f6e6578697374656e7420746f6b656e0000000000000000000000000000000000602082015250565b7f4552433732313a20617070726f76616c20746f2063757272656e74206f776e6560008201527f7200000000000000000000000000000000000000000000000000000000000000602082015250565b7f4e6f74206f776e6572206f66207468697320746f6b656e000000000000000000600082015250565b7f53656e742065746865722076616c7565206973206e6f7420656e6f756768207460008201527f6f206d696e740000000000000000000000000000000000000000000000000000602082015250565b7f4552433732313a207472616e736665722063616c6c6572206973206e6f74206f60008201527f776e6572206e6f7220617070726f766564000000000000000000000000000000602082015250565b7f4552433732313a20436f6e7472696275746f7220717565727920666f72206e6f60008201527f6e6578697374656e7420746f6b656e0000000000000000000000000000000000602082015250565b613fc3816137a5565b8114613fce57600080fd5b50565b613fda816137b7565b8114613fe557600080fd5b50565b613ff1816137c9565b8114613ffc57600080fd5b50565b614008816137d5565b811461401357600080fd5b50565b61401f81613821565b811461402a57600080fd5b5056fea26469706673582212205538123e61e223f7f4590e9f4f900a7e3038a4c76f9f0b43b10583255f1171c264736f6c63430008010033",
  "immutableReferences": {},
  "source": "// SPDX-License-Identifier: MIT\npragma solidity >=0.8.0;\n\nimport \"@openzeppelin/contracts/token/ERC721/ERC721.sol\";\nimport \"@openzeppelin/contracts/utils/Counters.sol\";\nimport \"@openzeppelin/contracts/access/Ownable.sol\";\nimport \"@openzeppelin/contracts/utils/math/SafeMath.sol\";\n\n\ncontract PolyEchoNFT is ERC721, Ownable {\n\t  using SafeMath for uint256;\n    using Counters for Counters.Counter;\n    Counters.Counter private _tokenIds;\n\n    // Fields\n    string public displayName = \"PolyEcho Audio NFT\";\n    string public companyName = \"PolyEcho\";\n    uint256 public constant mintPrice = 10000000000000000; // 0.01 ETH\n\n\t\t// Events\n    event NameUpdated(string name);\n    event TokenCreated(uint256 _tokenId, string _tokenURI);\n\t\tevent NftBought(uint256 _tokenId, address _seller, address _buyer, uint256 _price);\n\t\tevent ListedForSale(address _lister, uint256 _tokenId, uint256 _price);\n\t\tevent RemovedForSale(address _lister, uint256 _tokenId);\n\t\tevent SellerPaid(uint256 _tokenId, uint256 _price);\n\t\tevent RoyaltiesPaid(uint256 _tokenId, uint256 _price, address[] _contributors);\n\n\t\t// Mapping of tokenIDs to their current data points\n    mapping(uint256 => string) tokenIdToUri;\n    mapping(uint256 => address[]) public tokenIdToContributors;\n    mapping (uint256 => uint256) public tokenIdToPrice;\n\n    constructor() ERC721(\"PolyEcho\", \"ECHO\") {}\n\n    function updateDisplayName(string calldata _name) external onlyOwner {\n        displayName = _name;\n        emit NameUpdated(_name);\n    }\n\n    function getContributors(uint256 tokenId)\n        public\n        view\n        returns (address[] memory)\n    {\n        require(\n            _exists(tokenId),\n            \"ERC721: Contributor query for nonexistent token\"\n        );\n\n        return tokenIdToContributors[tokenId];\n    }\n\n    function tokenURI(uint256 tokenId)\n        public\n        view\n        override\n        returns (string memory)\n    {\n        require(\n            _exists(tokenId),\n            \"ERC721Metadata: URI query for nonexistent token\"\n        );\n        return tokenIdToUri[tokenId];\n    }\n\n\t\t// Both mints a new token and pays out value equally to stem contributors\n    function mintAndBuy(\n        address _buyer,\n        string calldata _metadataURI,\n        address payable[] calldata _contributors\n    ) public payable returns (uint256, string memory) {\n\t\t\t\t// Require sender is paying the mint price\n        require(\n            msg.value >= mintPrice,\n            \"Sent ether value is not enough to mint\"\n        );\n\n\t\t\t\t// Update local state\n\t\t\t\t// Auto-increment, also we can start minting from 1 instead of 0\n\t\t\t\t_tokenIds.increment();\n        uint256 newTokenId = _tokenIds.current();\n        tokenIdToUri[newTokenId] = _metadataURI;\n        tokenIdToContributors[newTokenId] = _contributors;\n\n\t\t\t\t// Mint the new token for the buyer\n\t\t\t\t// Buyer becomes owner\n        _safeMint(_buyer, newTokenId);\n\t\t\t\t// Pre-approve buyer as operator for token\n\t\t\t\t_approve(_buyer, newTokenId);\n\n\n\t\t\t\t// Payout out value sent from buyer equally to contributors\n        for (uint256 i = 0; i < _contributors.length; i++) {\n            address payable contributor = _contributors[i];\n            contributor.transfer(msg.value / _contributors.length);\n        }\n\n\t\t\t\t// Emit event with new metadata url\n        string memory newTokenURI = tokenURI(newTokenId);\n        emit TokenCreated(newTokenId, newTokenURI);\n\n\t\t\t\t// Return back a tuple with new metadataURL and tokenId\n        return (newTokenId, newTokenURI);\n    }\n\n\t\t// This is called when an owner wants to list the NFT for sale and sets a price.\n    function allowBuy(uint256 _tokenId, uint256 _price) external {\n\t\t\t\t// Only an owner can list it\n        require(msg.sender == ownerOf(_tokenId), 'Not owner of this token');\n\t\t\t\t// Required a sale price\n        require(_price > 0, 'Price zero');\n\n\t\t\t\t// Set the sale price\n        tokenIdToPrice[_tokenId] = _price;\n\n\t\t\t\t// Emit the event\n\t\t\t\temit ListedForSale(msg.sender, _tokenId, _price);\n    }\n\n\t\t// This is called when an owner wants to remove the NFT from being for sale.\n    function disallowBuy(uint256 _tokenId) external {\n\t\t\t\t// Only an owner can unlist it\n        require(msg.sender == ownerOf(_tokenId), 'Not owner of this token');\n\n\t\t\t\t// Unlist the tokenId, null price\n        tokenIdToPrice[_tokenId] = 0;\n\n\t\t\t\t// Emit the event\n\t\t\t\temit RemovedForSale(msg.sender, _tokenId);\n    }\n\n\t\t// This is called when a caller wants to buy a token at its sale price\n\t\t// The msg.sender is already pre-approved to buy the token, as set in allowBuy()\n    function buy(uint256 _tokenId) external payable {\n\t\t\t\t// Get the current sale price\n        uint256 price = tokenIdToPrice[_tokenId];\n\n\t\t\t\t// Check if for sale, based off of zero value\n        require(price > 0, 'This token is not for sale');\n\n\t\t\t\t// Check for right sale price\n        require(msg.value == price, 'Incorrect value');\n\n\t\t\t\t// Make the transfer of ownership\n\t\t\t\t// Approve any buyer, rather than seller manually approving a buyer/offer\n        address seller = ownerOf(_tokenId);\n\t\t\t\t_approve(msg.sender, _tokenId);\n\t\t\t\tsafeTransferFrom(seller, msg.sender, _tokenId);\n\n\t\t\t\t// Make the transfer of funds from sale price\n\t\t\t\t// 10% - Royalties to all contributors, evenly split\n\t\t\t\t// 90% - Sale proceeds to seller\n\t\t\t\tuint256 royaltiesCut = msg.value.div(10);\n\t\t\t\tuint256 sellersCut = msg.value.div(10).mul(9);\n\t\t\t\taddress[] storage contributors = tokenIdToContributors[_tokenId];\n\n\t\t\t\t// Payout out royalties evently amongst contributors\n        for (uint256 i = 0; i < contributors.length; i++) {\n            address contributor = contributors[i];\n            payable(contributor).transfer(royaltiesCut / contributors.length);\n        }\n\n\t\t\t\t// Pay out the sellers cut\n        payable(seller).transfer(sellersCut);\n\n\t\t\t\t// The NFT is not for sale anymore, set zero value\n\t\t\t\ttokenIdToPrice[_tokenId] = 0;\n\n\t\t\t\t// Emit events\n        emit NftBought(_tokenId, seller, msg.sender, msg.value);\n\t\t\t\temit SellerPaid(_tokenId, sellersCut);\n\t\t\t\temit RoyaltiesPaid(_tokenId, royaltiesCut, contributors);\n    }\n}\n",
  "sourcePath": "/Users/shaula/Library/Mobile Documents/com~apple~CloudDocs/repos/polyecho-web/web3/contracts/PolyEchoNFT.sol",
  "compiler": {
    "name": "solc",
    "version": "0.8.1+commit.df193b15.Emscripten.clang"
  },
  "schemaVersion": "3.4.3",
  "updatedAt": "2022-03-21T14:42:24.508Z",
  "networkType": "ethereum",
  "devdoc": {
    "kind": "dev",
    "methods": {
      "approve(address,uint256)": {
        "details": "See {IERC721-approve}."
      },
      "balanceOf(address)": {
        "details": "See {IERC721-balanceOf}."
      },
      "getApproved(uint256)": {
        "details": "See {IERC721-getApproved}."
      },
      "isApprovedForAll(address,address)": {
        "details": "See {IERC721-isApprovedForAll}."
      },
      "name()": {
        "details": "See {IERC721Metadata-name}."
      },
      "owner()": {
        "details": "Returns the address of the current owner."
      },
      "ownerOf(uint256)": {
        "details": "See {IERC721-ownerOf}."
      },
      "renounceOwnership()": {
        "details": "Leaves the contract without owner. It will not be possible to call `onlyOwner` functions anymore. Can only be called by the current owner. NOTE: Renouncing ownership will leave the contract without an owner, thereby removing any functionality that is only available to the owner."
      },
      "safeTransferFrom(address,address,uint256)": {
        "details": "See {IERC721-safeTransferFrom}."
      },
      "safeTransferFrom(address,address,uint256,bytes)": {
        "details": "See {IERC721-safeTransferFrom}."
      },
      "setApprovalForAll(address,bool)": {
        "details": "See {IERC721-setApprovalForAll}."
      },
      "supportsInterface(bytes4)": {
        "details": "See {IERC165-supportsInterface}."
      },
      "symbol()": {
        "details": "See {IERC721Metadata-symbol}."
      },
      "tokenURI(uint256)": {
        "details": "See {IERC721Metadata-tokenURI}."
      },
      "transferFrom(address,address,uint256)": {
        "details": "See {IERC721-transferFrom}."
      },
      "transferOwnership(address)": {
        "details": "Transfers ownership of the contract to a new account (`newOwner`). Can only be called by the current owner."
      }
    },
    "version": 1
  },
  "userdoc": {
    "kind": "user",
    "methods": {},
    "version": 1
  }
}