{
  "contractName": "PolyechoSample",
  "abi": [
    {
      "inputs": [],
      "stateMutability": "nonpayable",
      "type": "constructor"
    },
    {
      "anonymous": false,
      "inputs": [
        {
          "indexed": true,
          "internalType": "address",
          "name": "owner",
          "type": "address"
        },
        {
          "indexed": true,
          "internalType": "address",
          "name": "approved",
          "type": "address"
        },
        {
          "indexed": true,
          "internalType": "uint256",
          "name": "tokenId",
          "type": "uint256"
        }
      ],
      "name": "Approval",
      "type": "event"
    },
    {
      "anonymous": false,
      "inputs": [
        {
          "indexed": true,
          "internalType": "address",
          "name": "owner",
          "type": "address"
        },
        {
          "indexed": true,
          "internalType": "address",
          "name": "operator",
          "type": "address"
        },
        {
          "indexed": false,
          "internalType": "bool",
          "name": "approved",
          "type": "bool"
        }
      ],
      "name": "ApprovalForAll",
      "type": "event"
    },
    {
      "anonymous": false,
      "inputs": [
        {
          "indexed": false,
          "internalType": "string",
          "name": "name",
          "type": "string"
        }
      ],
      "name": "NameUpdated",
      "type": "event"
    },
    {
      "anonymous": false,
      "inputs": [
        {
          "indexed": true,
          "internalType": "address",
          "name": "previousOwner",
          "type": "address"
        },
        {
          "indexed": true,
          "internalType": "address",
          "name": "newOwner",
          "type": "address"
        }
      ],
      "name": "OwnershipTransferred",
      "type": "event"
    },
    {
      "anonymous": false,
      "inputs": [
        {
          "indexed": false,
          "internalType": "string",
          "name": "tokenURI",
          "type": "string"
        }
      ],
      "name": "TokenCreated",
      "type": "event"
    },
    {
      "anonymous": false,
      "inputs": [
        {
          "indexed": true,
          "internalType": "address",
          "name": "from",
          "type": "address"
        },
        {
          "indexed": true,
          "internalType": "address",
          "name": "to",
          "type": "address"
        },
        {
          "indexed": true,
          "internalType": "uint256",
          "name": "tokenId",
          "type": "uint256"
        }
      ],
      "name": "Transfer",
      "type": "event"
    },
    {
      "inputs": [
        {
          "internalType": "address",
          "name": "to",
          "type": "address"
        },
        {
          "internalType": "uint256",
          "name": "tokenId",
          "type": "uint256"
        }
      ],
      "name": "approve",
      "outputs": [],
      "stateMutability": "nonpayable",
      "type": "function"
    },
    {
      "inputs": [
        {
          "internalType": "address",
          "name": "owner",
          "type": "address"
        }
      ],
      "name": "balanceOf",
      "outputs": [
        {
          "internalType": "uint256",
          "name": "",
          "type": "uint256"
        }
      ],
      "stateMutability": "view",
      "type": "function",
      "constant": true
    },
    {
      "inputs": [],
      "name": "companyName",
      "outputs": [
        {
          "internalType": "string",
          "name": "",
          "type": "string"
        }
      ],
      "stateMutability": "view",
      "type": "function",
      "constant": true
    },
    {
      "inputs": [
        {
          "internalType": "uint256",
          "name": "",
          "type": "uint256"
        },
        {
          "internalType": "uint256",
          "name": "",
          "type": "uint256"
        }
      ],
      "name": "contributors",
      "outputs": [
        {
          "internalType": "address",
          "name": "",
          "type": "address"
        }
      ],
      "stateMutability": "view",
      "type": "function",
      "constant": true
    },
    {
      "inputs": [],
      "name": "displayName",
      "outputs": [
        {
          "internalType": "string",
          "name": "",
          "type": "string"
        }
      ],
      "stateMutability": "view",
      "type": "function",
      "constant": true
    },
    {
      "inputs": [
        {
          "internalType": "uint256",
          "name": "tokenId",
          "type": "uint256"
        }
      ],
      "name": "getApproved",
      "outputs": [
        {
          "internalType": "address",
          "name": "",
          "type": "address"
        }
      ],
      "stateMutability": "view",
      "type": "function",
      "constant": true
    },
    {
      "inputs": [
        {
          "internalType": "address",
          "name": "owner",
          "type": "address"
        },
        {
          "internalType": "address",
          "name": "operator",
          "type": "address"
        }
      ],
      "name": "isApprovedForAll",
      "outputs": [
        {
          "internalType": "bool",
          "name": "",
          "type": "bool"
        }
      ],
      "stateMutability": "view",
      "type": "function",
      "constant": true
    },
    {
      "inputs": [],
      "name": "mintPrice",
      "outputs": [
        {
          "internalType": "uint256",
          "name": "",
          "type": "uint256"
        }
      ],
      "stateMutability": "view",
      "type": "function",
      "constant": true
    },
    {
      "inputs": [],
      "name": "name",
      "outputs": [
        {
          "internalType": "string",
          "name": "",
          "type": "string"
        }
      ],
      "stateMutability": "view",
      "type": "function",
      "constant": true
    },
    {
      "inputs": [],
      "name": "owner",
      "outputs": [
        {
          "internalType": "address",
          "name": "",
          "type": "address"
        }
      ],
      "stateMutability": "view",
      "type": "function",
      "constant": true
    },
    {
      "inputs": [
        {
          "internalType": "uint256",
          "name": "tokenId",
          "type": "uint256"
        }
      ],
      "name": "ownerOf",
      "outputs": [
        {
          "internalType": "address",
          "name": "",
          "type": "address"
        }
      ],
      "stateMutability": "view",
      "type": "function",
      "constant": true
    },
    {
      "inputs": [],
      "name": "renounceOwnership",
      "outputs": [],
      "stateMutability": "nonpayable",
      "type": "function"
    },
    {
      "inputs": [
        {
          "internalType": "address",
          "name": "from",
          "type": "address"
        },
        {
          "internalType": "address",
          "name": "to",
          "type": "address"
        },
        {
          "internalType": "uint256",
          "name": "tokenId",
          "type": "uint256"
        }
      ],
      "name": "safeTransferFrom",
      "outputs": [],
      "stateMutability": "nonpayable",
      "type": "function"
    },
    {
      "inputs": [
        {
          "internalType": "address",
          "name": "from",
          "type": "address"
        },
        {
          "internalType": "address",
          "name": "to",
          "type": "address"
        },
        {
          "internalType": "uint256",
          "name": "tokenId",
          "type": "uint256"
        },
        {
          "internalType": "bytes",
          "name": "_data",
          "type": "bytes"
        }
      ],
      "name": "safeTransferFrom",
      "outputs": [],
      "stateMutability": "nonpayable",
      "type": "function"
    },
    {
      "inputs": [
        {
          "internalType": "address",
          "name": "operator",
          "type": "address"
        },
        {
          "internalType": "bool",
          "name": "approved",
          "type": "bool"
        }
      ],
      "name": "setApprovalForAll",
      "outputs": [],
      "stateMutability": "nonpayable",
      "type": "function"
    },
    {
      "inputs": [
        {
          "internalType": "bytes4",
          "name": "interfaceId",
          "type": "bytes4"
        }
      ],
      "name": "supportsInterface",
      "outputs": [
        {
          "internalType": "bool",
          "name": "",
          "type": "bool"
        }
      ],
      "stateMutability": "view",
      "type": "function",
      "constant": true
    },
    {
      "inputs": [],
      "name": "symbol",
      "outputs": [
        {
          "internalType": "string",
          "name": "",
          "type": "string"
        }
      ],
      "stateMutability": "view",
      "type": "function",
      "constant": true
    },
    {
      "inputs": [
        {
          "internalType": "address",
          "name": "from",
          "type": "address"
        },
        {
          "internalType": "address",
          "name": "to",
          "type": "address"
        },
        {
          "internalType": "uint256",
          "name": "tokenId",
          "type": "uint256"
        }
      ],
      "name": "transferFrom",
      "outputs": [],
      "stateMutability": "nonpayable",
      "type": "function"
    },
    {
      "inputs": [
        {
          "internalType": "address",
          "name": "newOwner",
          "type": "address"
        }
      ],
      "name": "transferOwnership",
      "outputs": [],
      "stateMutability": "nonpayable",
      "type": "function"
    },
    {
      "inputs": [
        {
          "internalType": "string",
          "name": "_name",
          "type": "string"
        }
      ],
      "name": "updateName",
      "outputs": [],
      "stateMutability": "nonpayable",
      "type": "function"
    },
    {
      "inputs": [
        {
          "internalType": "uint256",
          "name": "tokenId",
          "type": "uint256"
        }
      ],
      "name": "getContributors",
      "outputs": [
        {
          "internalType": "address[]",
          "name": "",
          "type": "address[]"
        }
      ],
      "stateMutability": "view",
      "type": "function",
      "constant": true
    },
    {
      "inputs": [
        {
          "internalType": "uint256",
          "name": "tokenId",
          "type": "uint256"
        }
      ],
      "name": "tokenURI",
      "outputs": [
        {
          "internalType": "string",
          "name": "",
          "type": "string"
        }
      ],
      "stateMutability": "view",
      "type": "function",
      "constant": true
    },
    {
      "inputs": [
        {
          "internalType": "address",
          "name": "_buyer",
          "type": "address"
        },
        {
          "internalType": "string",
          "name": "_metadataURI",
          "type": "string"
        },
        {
          "internalType": "address payable[]",
          "name": "_contributors",
          "type": "address[]"
        }
      ],
      "name": "mint",
      "outputs": [
        {
          "internalType": "string",
          "name": "",
          "type": "string"
        }
      ],
      "stateMutability": "payable",
      "type": "function",
      "payable": true
    }
  ],
  "bytecode": "0x60806040526040518060400160405280601581526020017f53616d706c656420506f6c794563686f204e4654210000000000000000000000815250600890805190602001906200005192919062000242565b506040518060400160405280600881526020017f506f6c794563686f000000000000000000000000000000000000000000000000815250600990805190602001906200009f92919062000242565b50348015620000ad57600080fd5b506040518060400160405280600e81526020017f506f6c794563686f53616d706c650000000000000000000000000000000000008152506040518060400160405280600381526020017f504553000000000000000000000000000000000000000000000000000000000081525081600090805190602001906200013292919062000242565b5080600190805190602001906200014b92919062000242565b5050506200016e620001626200017460201b60201c565b6200017c60201b60201c565b62000357565b600033905090565b6000600660009054906101000a900473ffffffffffffffffffffffffffffffffffffffff16905081600660006101000a81548173ffffffffffffffffffffffffffffffffffffffff021916908373ffffffffffffffffffffffffffffffffffffffff1602179055508173ffffffffffffffffffffffffffffffffffffffff168173ffffffffffffffffffffffffffffffffffffffff167f8be0079c531659141344cd1fd0a4f28419497f9722a3daafe3b4186f6b6457e060405160405180910390a35050565b8280546200025090620002f2565b90600052602060002090601f016020900481019282620002745760008555620002c0565b82601f106200028f57805160ff1916838001178555620002c0565b82800160010185558215620002c0579182015b82811115620002bf578251825591602001919060010190620002a2565b5b509050620002cf9190620002d3565b5090565b5b80821115620002ee576000816000905550600101620002d4565b5090565b600060028204905060018216806200030b57607f821691505b6020821081141562000322576200032162000328565b5b50919050565b7f4e487b7100000000000000000000000000000000000000000000000000000000600052602260045260246000fd5b61350880620003676000396000f3fe6080604052600436106101405760003560e01c806370a08231116100b6578063b88d4fde1161006f578063b88d4fde1461046e578063c87b56dd14610497578063e67e63f4146104d4578063e985e9c514610504578063f2fde38b14610541578063f5ec2eed1461056a57610140565b806370a0823114610372578063715018a6146103af57806384da92a7146103c65780638da5cb5b146103ef57806395d89b411461041a578063a22cb4651461044557610140565b80633c1ab00f116101085780633c1ab00f1461023c57806342842e0e146102795780634affb260146102a257806354346b66146102cd5780636352211e1461030a5780636817c76c1461034757610140565b806301ffc9a71461014557806306fdde0314610182578063081812fc146101ad578063095ea7b3146101ea57806323b872dd14610213575b600080fd5b34801561015157600080fd5b5061016c60048036038101906101679190612430565b610595565b6040516101799190612959565b60405180910390f35b34801561018e57600080fd5b50610197610677565b6040516101a49190612998565b60405180910390f35b3480156101b957600080fd5b506101d460048036038101906101cf91906124c7565b610709565b6040516101e191906128d0565b60405180910390f35b3480156101f657600080fd5b50610211600480360381019061020c91906123f4565b61078e565b005b34801561021f57600080fd5b5061023a60048036038101906102359190612265565b6108a6565b005b34801561024857600080fd5b50610263600480360381019061025e91906124c7565b610906565b6040516102709190612937565b60405180910390f35b34801561028557600080fd5b506102a0600480360381019061029b9190612265565b6109ef565b005b3480156102ae57600080fd5b506102b7610a0f565b6040516102c49190612998565b60405180910390f35b3480156102d957600080fd5b506102f460048036038101906102ef91906124f0565b610a9d565b60405161030191906128d0565b60405180910390f35b34801561031657600080fd5b50610331600480360381019061032c91906124c7565b610aeb565b60405161033e91906128d0565b60405180910390f35b34801561035357600080fd5b5061035c610b9d565b6040516103699190612bda565b60405180910390f35b34801561037e57600080fd5b50610399600480360381019061039491906121d7565b610ba8565b6040516103a69190612bda565b60405180910390f35b3480156103bb57600080fd5b506103c4610c60565b005b3480156103d257600080fd5b506103ed60048036038101906103e89190612482565b610ce8565b005b3480156103fb57600080fd5b50610404610db3565b60405161041191906128d0565b60405180910390f35b34801561042657600080fd5b5061042f610ddd565b60405161043c9190612998565b60405180910390f35b34801561045157600080fd5b5061046c6004803603810190610467919061232f565b610e6f565b005b34801561047a57600080fd5b50610495600480360381019061049091906122b4565b610e85565b005b3480156104a357600080fd5b506104be60048036038101906104b991906124c7565b610ee7565b6040516104cb9190612998565b60405180910390f35b6104ee60048036038101906104e9919061236b565b610fd4565b6040516104fb9190612998565b60405180910390f35b34801561051057600080fd5b5061052b60048036038101906105269190612229565b61115a565b6040516105389190612959565b60405180910390f35b34801561054d57600080fd5b50610568600480360381019061056391906121d7565b6111ee565b005b34801561057657600080fd5b5061057f6112e6565b60405161058c9190612998565b60405180910390f35b60007f80ac58cd000000000000000000000000000000000000000000000000000000007bffffffffffffffffffffffffffffffffffffffffffffffffffffffff1916827bffffffffffffffffffffffffffffffffffffffffffffffffffffffff1916148061066057507f5b5e139f000000000000000000000000000000000000000000000000000000007bffffffffffffffffffffffffffffffffffffffffffffffffffffffff1916827bffffffffffffffffffffffffffffffffffffffffffffffffffffffff1916145b80610670575061066f82611374565b5b9050919050565b60606000805461068690612e3f565b80601f01602080910402602001604051908101604052809291908181526020018280546106b290612e3f565b80156106ff5780601f106106d4576101008083540402835291602001916106ff565b820191906000526020600020905b8154815290600101906020018083116106e257829003601f168201915b5050505050905090565b6000610714826113de565b610753576040517f08c379a000000000000000000000000000000000000000000000000000000000815260040161074a90612b1a565b60405180910390fd5b6004600083815260200190815260200160002060009054906101000a900473ffffffffffffffffffffffffffffffffffffffff169050919050565b600061079982610aeb565b90508073ffffffffffffffffffffffffffffffffffffffff168373ffffffffffffffffffffffffffffffffffffffff16141561080a576040517f08c379a000000000000000000000000000000000000000000000000000000000815260040161080190612b7a565b60405180910390fd5b8073ffffffffffffffffffffffffffffffffffffffff1661082961144a565b73ffffffffffffffffffffffffffffffffffffffff16148061085857506108578161085261144a565b61115a565b5b610897576040517f08c379a000000000000000000000000000000000000000000000000000000000815260040161088e90612a9a565b60405180910390fd5b6108a18383611452565b505050565b6108b76108b161144a565b8261150b565b6108f6576040517f08c379a00000000000000000000000000000000000000000000000000000000081526004016108ed90612b9a565b60405180910390fd5b6109018383836115e9565b505050565b6060610911826113de565b610950576040517f08c379a000000000000000000000000000000000000000000000000000000000815260040161094790612bba565b60405180910390fd5b600a60008381526020019081526020016000208054806020026020016040519081016040528092919081815260200182805480156109e357602002820191906000526020600020905b8160009054906101000a900473ffffffffffffffffffffffffffffffffffffffff1673ffffffffffffffffffffffffffffffffffffffff1681526020019060010190808311610999575b50505050509050919050565b610a0a83838360405180602001604052806000815250610e85565b505050565b60088054610a1c90612e3f565b80601f0160208091040260200160405190810160405280929190818152602001828054610a4890612e3f565b8015610a955780601f10610a6a57610100808354040283529160200191610a95565b820191906000526020600020905b815481529060010190602001808311610a7857829003601f168201915b505050505081565b600a6020528160005260406000208181548110610ab957600080fd5b906000526020600020016000915091509054906101000a900473ffffffffffffffffffffffffffffffffffffffff1681565b6000806002600084815260200190815260200160002060009054906101000a900473ffffffffffffffffffffffffffffffffffffffff169050600073ffffffffffffffffffffffffffffffffffffffff168173ffffffffffffffffffffffffffffffffffffffff161415610b94576040517f08c379a0000000000000000000000000000000000000000000000000000000008152600401610b8b90612ada565b60405180910390fd5b80915050919050565b662386f26fc1000081565b60008073ffffffffffffffffffffffffffffffffffffffff168273ffffffffffffffffffffffffffffffffffffffff161415610c19576040517f08c379a0000000000000000000000000000000000000000000000000000000008152600401610c1090612aba565b60405180910390fd5b600360008373ffffffffffffffffffffffffffffffffffffffff1673ffffffffffffffffffffffffffffffffffffffff168152602001908152602001600020549050919050565b610c6861144a565b73ffffffffffffffffffffffffffffffffffffffff16610c86610db3565b73ffffffffffffffffffffffffffffffffffffffff1614610cdc576040517f08c379a0000000000000000000000000000000000000000000000000000000008152600401610cd390612b3a565b60405180910390fd5b610ce66000611850565b565b610cf061144a565b73ffffffffffffffffffffffffffffffffffffffff16610d0e610db3565b73ffffffffffffffffffffffffffffffffffffffff1614610d64576040517f08c379a0000000000000000000000000000000000000000000000000000000008152600401610d5b90612b3a565b60405180910390fd5b818160089190610d75929190611f1a565b507f9f7688a97f1ac51fe03bac18af18d6810f9f11f0db08c59b1938a9ac825ef7448282604051610da7929190612974565b60405180910390a15050565b6000600660009054906101000a900473ffffffffffffffffffffffffffffffffffffffff16905090565b606060018054610dec90612e3f565b80601f0160208091040260200160405190810160405280929190818152602001828054610e1890612e3f565b8015610e655780601f10610e3a57610100808354040283529160200191610e65565b820191906000526020600020905b815481529060010190602001808311610e4857829003601f168201915b5050505050905090565b610e81610e7a61144a565b8383611916565b5050565b610e96610e9061144a565b8361150b565b610ed5576040517f08c379a0000000000000000000000000000000000000000000000000000000008152600401610ecc90612b9a565b60405180910390fd5b610ee184848484611a83565b50505050565b6060610ef2826113de565b610f31576040517f08c379a0000000000000000000000000000000000000000000000000000000008152600401610f2890612b5a565b60405180910390fd5b600b60008381526020019081526020016000208054610f4f90612e3f565b80601f0160208091040260200160405190810160405280929190818152602001828054610f7b90612e3f565b8015610fc85780601f10610f9d57610100808354040283529160200191610fc8565b820191906000526020600020905b815481529060010190602001808311610fab57829003601f168201915b50505050509050919050565b60606000610fe26007611adf565b90508585600b60008481526020019081526020016000209190611006929190611f1a565b508383600a60008481526020019081526020016000209190611029929190611fa0565b506110348782611aed565b60005b848490508110156110fd57600085858381811061107d577f4e487b7100000000000000000000000000000000000000000000000000000000600052603260045260246000fd5b90506020020160208101906110929190612200565b90508073ffffffffffffffffffffffffffffffffffffffff166108fc87879050346110bd9190612d12565b9081150290604051600060405180830381858888f193505050501580156110e8573d6000803e3d6000fd5b505080806110f590612ea2565b915050611037565b50600061110982610ee7565b90507fc380bb6abc247ec4ba5a3fd8ac5f6c39b8f37ce3baf14a7fb316ac4c6eca66318160405161113a9190612998565b60405180910390a161114c6007611b0b565b809250505095945050505050565b6000600560008473ffffffffffffffffffffffffffffffffffffffff1673ffffffffffffffffffffffffffffffffffffffff16815260200190815260200160002060008373ffffffffffffffffffffffffffffffffffffffff1673ffffffffffffffffffffffffffffffffffffffff16815260200190815260200160002060009054906101000a900460ff16905092915050565b6111f661144a565b73ffffffffffffffffffffffffffffffffffffffff16611214610db3565b73ffffffffffffffffffffffffffffffffffffffff161461126a576040517f08c379a000000000000000000000000000000000000000000000000000000000815260040161126190612b3a565b60405180910390fd5b600073ffffffffffffffffffffffffffffffffffffffff168173ffffffffffffffffffffffffffffffffffffffff1614156112da576040517f08c379a00000000000000000000000000000000000000000000000000000000081526004016112d1906129da565b60405180910390fd5b6112e381611850565b50565b600980546112f390612e3f565b80601f016020809104026020016040519081016040528092919081815260200182805461131f90612e3f565b801561136c5780601f106113415761010080835404028352916020019161136c565b820191906000526020600020905b81548152906001019060200180831161134f57829003601f168201915b505050505081565b60007f01ffc9a7000000000000000000000000000000000000000000000000000000007bffffffffffffffffffffffffffffffffffffffffffffffffffffffff1916827bffffffffffffffffffffffffffffffffffffffffffffffffffffffff1916149050919050565b60008073ffffffffffffffffffffffffffffffffffffffff166002600084815260200190815260200160002060009054906101000a900473ffffffffffffffffffffffffffffffffffffffff1673ffffffffffffffffffffffffffffffffffffffff1614159050919050565b600033905090565b816004600083815260200190815260200160002060006101000a81548173ffffffffffffffffffffffffffffffffffffffff021916908373ffffffffffffffffffffffffffffffffffffffff160217905550808273ffffffffffffffffffffffffffffffffffffffff166114c583610aeb565b73ffffffffffffffffffffffffffffffffffffffff167f8c5be1e5ebec7d5bd14f71427d1e84f3dd0314c0f7b2291e5b200ac8c7c3b92560405160405180910390a45050565b6000611516826113de565b611555576040517f08c379a000000000000000000000000000000000000000000000000000000000815260040161154c90612a7a565b60405180910390fd5b600061156083610aeb565b90508073ffffffffffffffffffffffffffffffffffffffff168473ffffffffffffffffffffffffffffffffffffffff1614806115cf57508373ffffffffffffffffffffffffffffffffffffffff166115b784610709565b73ffffffffffffffffffffffffffffffffffffffff16145b806115e057506115df818561115a565b5b91505092915050565b8273ffffffffffffffffffffffffffffffffffffffff1661160982610aeb565b73ffffffffffffffffffffffffffffffffffffffff161461165f576040517f08c379a0000000000000000000000000000000000000000000000000000000008152600401611656906129fa565b60405180910390fd5b600073ffffffffffffffffffffffffffffffffffffffff168273ffffffffffffffffffffffffffffffffffffffff1614156116cf576040517f08c379a00000000000000000000000000000000000000000000000000000000081526004016116c690612a3a565b60405180910390fd5b6116da838383611b21565b6116e5600082611452565b6001600360008573ffffffffffffffffffffffffffffffffffffffff1673ffffffffffffffffffffffffffffffffffffffff16815260200190815260200160002060008282546117359190612d43565b925050819055506001600360008473ffffffffffffffffffffffffffffffffffffffff1673ffffffffffffffffffffffffffffffffffffffff168152602001908152602001600020600082825461178c9190612cbc565b92505081905550816002600083815260200190815260200160002060006101000a81548173ffffffffffffffffffffffffffffffffffffffff021916908373ffffffffffffffffffffffffffffffffffffffff160217905550808273ffffffffffffffffffffffffffffffffffffffff168473ffffffffffffffffffffffffffffffffffffffff167fddf252ad1be2c89b69c2b068fc378daa952ba7f163c4a11628f55a4df523b3ef60405160405180910390a461184b838383611b26565b505050565b6000600660009054906101000a900473ffffffffffffffffffffffffffffffffffffffff16905081600660006101000a81548173ffffffffffffffffffffffffffffffffffffffff021916908373ffffffffffffffffffffffffffffffffffffffff1602179055508173ffffffffffffffffffffffffffffffffffffffff168173ffffffffffffffffffffffffffffffffffffffff167f8be0079c531659141344cd1fd0a4f28419497f9722a3daafe3b4186f6b6457e060405160405180910390a35050565b8173ffffffffffffffffffffffffffffffffffffffff168373ffffffffffffffffffffffffffffffffffffffff161415611985576040517f08c379a000000000000000000000000000000000000000000000000000000000815260040161197c90612a5a565b60405180910390fd5b80600560008573ffffffffffffffffffffffffffffffffffffffff1673ffffffffffffffffffffffffffffffffffffffff16815260200190815260200160002060008473ffffffffffffffffffffffffffffffffffffffff1673ffffffffffffffffffffffffffffffffffffffff16815260200190815260200160002060006101000a81548160ff0219169083151502179055508173ffffffffffffffffffffffffffffffffffffffff168373ffffffffffffffffffffffffffffffffffffffff167f17307eab39ab6107e8899845ad3d59bd9653f200f220920489ca2b5937696c3183604051611a769190612959565b60405180910390a3505050565b611a8e8484846115e9565b611a9a84848484611b2b565b611ad9576040517f08c379a0000000000000000000000000000000000000000000000000000000008152600401611ad0906129ba565b60405180910390fd5b50505050565b600081600001549050919050565b611b07828260405180602001604052806000815250611cc2565b5050565b6001816000016000828254019250508190555050565b505050565b505050565b6000611b4c8473ffffffffffffffffffffffffffffffffffffffff16611d1d565b15611cb5578373ffffffffffffffffffffffffffffffffffffffff1663150b7a02611b7561144a565b8786866040518563ffffffff1660e01b8152600401611b9794939291906128eb565b602060405180830381600087803b158015611bb157600080fd5b505af1925050508015611be257506040513d601f19601f82011682018060405250810190611bdf9190612459565b60015b611c65573d8060008114611c12576040519150601f19603f3d011682016040523d82523d6000602084013e611c17565b606091505b50600081511415611c5d576040517f08c379a0000000000000000000000000000000000000000000000000000000008152600401611c54906129ba565b60405180910390fd5b805181602001fd5b63150b7a0260e01b7bffffffffffffffffffffffffffffffffffffffffffffffffffffffff1916817bffffffffffffffffffffffffffffffffffffffffffffffffffffffff191614915050611cba565b600190505b949350505050565b611ccc8383611d40565b611cd96000848484611b2b565b611d18576040517f08c379a0000000000000000000000000000000000000000000000000000000008152600401611d0f906129ba565b60405180910390fd5b505050565b6000808273ffffffffffffffffffffffffffffffffffffffff163b119050919050565b600073ffffffffffffffffffffffffffffffffffffffff168273ffffffffffffffffffffffffffffffffffffffff161415611db0576040517f08c379a0000000000000000000000000000000000000000000000000000000008152600401611da790612afa565b60405180910390fd5b611db9816113de565b15611df9576040517f08c379a0000000000000000000000000000000000000000000000000000000008152600401611df090612a1a565b60405180910390fd5b611e0560008383611b21565b6001600360008473ffffffffffffffffffffffffffffffffffffffff1673ffffffffffffffffffffffffffffffffffffffff1681526020019081526020016000206000828254611e559190612cbc565b92505081905550816002600083815260200190815260200160002060006101000a81548173ffffffffffffffffffffffffffffffffffffffff021916908373ffffffffffffffffffffffffffffffffffffffff160217905550808273ffffffffffffffffffffffffffffffffffffffff16600073ffffffffffffffffffffffffffffffffffffffff167fddf252ad1be2c89b69c2b068fc378daa952ba7f163c4a11628f55a4df523b3ef60405160405180910390a4611f1660008383611b26565b5050565b828054611f2690612e3f565b90600052602060002090601f016020900481019282611f485760008555611f8f565b82601f10611f6157803560ff1916838001178555611f8f565b82800160010185558215611f8f579182015b82811115611f8e578235825591602001919060010190611f73565b5b509050611f9c9190612040565b5090565b82805482825590600052602060002090810192821561202f579160200282015b8281111561202e57823573ffffffffffffffffffffffffffffffffffffffff168260006101000a81548173ffffffffffffffffffffffffffffffffffffffff021916908373ffffffffffffffffffffffffffffffffffffffff16021790555091602001919060010190611fc0565b5b50905061203c9190612040565b5090565b5b80821115612059576000816000905550600101612041565b5090565b600061207061206b84612c1a565b612bf5565b90508281526020810184848401111561208857600080fd5b612093848285612dfd565b509392505050565b6000813590506120aa8161345f565b92915050565b6000813590506120bf81613476565b92915050565b60008083601f8401126120d757600080fd5b8235905067ffffffffffffffff8111156120f057600080fd5b60208301915083602082028301111561210857600080fd5b9250929050565b60008135905061211e8161348d565b92915050565b600081359050612133816134a4565b92915050565b600081519050612148816134a4565b92915050565b600082601f83011261215f57600080fd5b813561216f84826020860161205d565b91505092915050565b60008083601f84011261218a57600080fd5b8235905067ffffffffffffffff8111156121a357600080fd5b6020830191508360018202830111156121bb57600080fd5b9250929050565b6000813590506121d1816134bb565b92915050565b6000602082840312156121e957600080fd5b60006121f78482850161209b565b91505092915050565b60006020828403121561221257600080fd5b6000612220848285016120b0565b91505092915050565b6000806040838503121561223c57600080fd5b600061224a8582860161209b565b925050602061225b8582860161209b565b9150509250929050565b60008060006060848603121561227a57600080fd5b60006122888682870161209b565b93505060206122998682870161209b565b92505060406122aa868287016121c2565b9150509250925092565b600080600080608085870312156122ca57600080fd5b60006122d88782880161209b565b94505060206122e98782880161209b565b93505060406122fa878288016121c2565b925050606085013567ffffffffffffffff81111561231757600080fd5b6123238782880161214e565b91505092959194509250565b6000806040838503121561234257600080fd5b60006123508582860161209b565b92505060206123618582860161210f565b9150509250929050565b60008060008060006060868803121561238357600080fd5b60006123918882890161209b565b955050602086013567ffffffffffffffff8111156123ae57600080fd5b6123ba88828901612178565b9450945050604086013567ffffffffffffffff8111156123d957600080fd5b6123e5888289016120c5565b92509250509295509295909350565b6000806040838503121561240757600080fd5b60006124158582860161209b565b9250506020612426858286016121c2565b9150509250929050565b60006020828403121561244257600080fd5b600061245084828501612124565b91505092915050565b60006020828403121561246b57600080fd5b600061247984828501612139565b91505092915050565b6000806020838503121561249557600080fd5b600083013567ffffffffffffffff8111156124af57600080fd5b6124bb85828601612178565b92509250509250929050565b6000602082840312156124d957600080fd5b60006124e7848285016121c2565b91505092915050565b6000806040838503121561250357600080fd5b6000612511858286016121c2565b9250506020612522858286016121c2565b9150509250929050565b60006125388383612544565b60208301905092915050565b61254d81612d77565b82525050565b61255c81612d77565b82525050565b600061256d82612c5b565b6125778185612c89565b935061258283612c4b565b8060005b838110156125b357815161259a888261252c565b97506125a583612c7c565b925050600181019050612586565b5085935050505092915050565b6125c981612d9b565b82525050565b60006125da82612c66565b6125e48185612c9a565b93506125f4818560208601612e0c565b6125fd81612fa7565b840191505092915050565b60006126148385612cab565b9350612621838584612dfd565b61262a83612fa7565b840190509392505050565b600061264082612c71565b61264a8185612cab565b935061265a818560208601612e0c565b61266381612fa7565b840191505092915050565b600061267b603283612cab565b915061268682612fb8565b604082019050919050565b600061269e602683612cab565b91506126a982613007565b604082019050919050565b60006126c1602583612cab565b91506126cc82613056565b604082019050919050565b60006126e4601c83612cab565b91506126ef826130a5565b602082019050919050565b6000612707602483612cab565b9150612712826130ce565b604082019050919050565b600061272a601983612cab565b91506127358261311d565b602082019050919050565b600061274d602c83612cab565b915061275882613146565b604082019050919050565b6000612770603883612cab565b915061277b82613195565b604082019050919050565b6000612793602a83612cab565b915061279e826131e4565b604082019050919050565b60006127b6602983612cab565b91506127c182613233565b604082019050919050565b60006127d9602083612cab565b91506127e482613282565b602082019050919050565b60006127fc602c83612cab565b9150612807826132ab565b604082019050919050565b600061281f602083612cab565b915061282a826132fa565b602082019050919050565b6000612842602f83612cab565b915061284d82613323565b604082019050919050565b6000612865602183612cab565b915061287082613372565b604082019050919050565b6000612888603183612cab565b9150612893826133c1565b604082019050919050565b60006128ab602f83612cab565b91506128b682613410565b604082019050919050565b6128ca81612df3565b82525050565b60006020820190506128e56000830184612553565b92915050565b60006080820190506129006000830187612553565b61290d6020830186612553565b61291a60408301856128c1565b818103606083015261292c81846125cf565b905095945050505050565b600060208201905081810360008301526129518184612562565b905092915050565b600060208201905061296e60008301846125c0565b92915050565b6000602082019050818103600083015261298f818486612608565b90509392505050565b600060208201905081810360008301526129b28184612635565b905092915050565b600060208201905081810360008301526129d38161266e565b9050919050565b600060208201905081810360008301526129f381612691565b9050919050565b60006020820190508181036000830152612a13816126b4565b9050919050565b60006020820190508181036000830152612a33816126d7565b9050919050565b60006020820190508181036000830152612a53816126fa565b9050919050565b60006020820190508181036000830152612a738161271d565b9050919050565b60006020820190508181036000830152612a9381612740565b9050919050565b60006020820190508181036000830152612ab381612763565b9050919050565b60006020820190508181036000830152612ad381612786565b9050919050565b60006020820190508181036000830152612af3816127a9565b9050919050565b60006020820190508181036000830152612b13816127cc565b9050919050565b60006020820190508181036000830152612b33816127ef565b9050919050565b60006020820190508181036000830152612b5381612812565b9050919050565b60006020820190508181036000830152612b7381612835565b9050919050565b60006020820190508181036000830152612b9381612858565b9050919050565b60006020820190508181036000830152612bb38161287b565b9050919050565b60006020820190508181036000830152612bd38161289e565b9050919050565b6000602082019050612bef60008301846128c1565b92915050565b6000612bff612c10565b9050612c0b8282612e71565b919050565b6000604051905090565b600067ffffffffffffffff821115612c3557612c34612f78565b5b612c3e82612fa7565b9050602081019050919050565b6000819050602082019050919050565b600081519050919050565b600081519050919050565b600081519050919050565b6000602082019050919050565b600082825260208201905092915050565b600082825260208201905092915050565b600082825260208201905092915050565b6000612cc782612df3565b9150612cd283612df3565b9250827fffffffffffffffffffffffffffffffffffffffffffffffffffffffffffffffff03821115612d0757612d06612eeb565b5b828201905092915050565b6000612d1d82612df3565b9150612d2883612df3565b925082612d3857612d37612f1a565b5b828204905092915050565b6000612d4e82612df3565b9150612d5983612df3565b925082821015612d6c57612d6b612eeb565b5b828203905092915050565b6000612d8282612dd3565b9050919050565b6000612d9482612dd3565b9050919050565b60008115159050919050565b60007fffffffff0000000000000000000000000000000000000000000000000000000082169050919050565b600073ffffffffffffffffffffffffffffffffffffffff82169050919050565b6000819050919050565b82818337600083830152505050565b60005b83811015612e2a578082015181840152602081019050612e0f565b83811115612e39576000848401525b50505050565b60006002820490506001821680612e5757607f821691505b60208210811415612e6b57612e6a612f49565b5b50919050565b612e7a82612fa7565b810181811067ffffffffffffffff82111715612e9957612e98612f78565b5b80604052505050565b6000612ead82612df3565b91507fffffffffffffffffffffffffffffffffffffffffffffffffffffffffffffffff821415612ee057612edf612eeb565b5b600182019050919050565b7f4e487b7100000000000000000000000000000000000000000000000000000000600052601160045260246000fd5b7f4e487b7100000000000000000000000000000000000000000000000000000000600052601260045260246000fd5b7f4e487b7100000000000000000000000000000000000000000000000000000000600052602260045260246000fd5b7f4e487b7100000000000000000000000000000000000000000000000000000000600052604160045260246000fd5b6000601f19601f8301169050919050565b7f4552433732313a207472616e7366657220746f206e6f6e20455243373231526560008201527f63656976657220696d706c656d656e7465720000000000000000000000000000602082015250565b7f4f776e61626c653a206e6577206f776e657220697320746865207a65726f206160008201527f6464726573730000000000000000000000000000000000000000000000000000602082015250565b7f4552433732313a207472616e736665722066726f6d20696e636f72726563742060008201527f6f776e6572000000000000000000000000000000000000000000000000000000602082015250565b7f4552433732313a20746f6b656e20616c7265616479206d696e74656400000000600082015250565b7f4552433732313a207472616e7366657220746f20746865207a65726f2061646460008201527f7265737300000000000000000000000000000000000000000000000000000000602082015250565b7f4552433732313a20617070726f766520746f2063616c6c657200000000000000600082015250565b7f4552433732313a206f70657261746f7220717565727920666f72206e6f6e657860008201527f697374656e7420746f6b656e0000000000000000000000000000000000000000602082015250565b7f4552433732313a20617070726f76652063616c6c6572206973206e6f74206f7760008201527f6e6572206e6f7220617070726f76656420666f7220616c6c0000000000000000602082015250565b7f4552433732313a2062616c616e636520717565727920666f7220746865207a6560008201527f726f206164647265737300000000000000000000000000000000000000000000602082015250565b7f4552433732313a206f776e657220717565727920666f72206e6f6e657869737460008201527f656e7420746f6b656e0000000000000000000000000000000000000000000000602082015250565b7f4552433732313a206d696e7420746f20746865207a65726f2061646472657373600082015250565b7f4552433732313a20617070726f76656420717565727920666f72206e6f6e657860008201527f697374656e7420746f6b656e0000000000000000000000000000000000000000602082015250565b7f4f776e61626c653a2063616c6c6572206973206e6f7420746865206f776e6572600082015250565b7f4552433732314d657461646174613a2055524920717565727920666f72206e6f60008201527f6e6578697374656e7420746f6b656e0000000000000000000000000000000000602082015250565b7f4552433732313a20617070726f76616c20746f2063757272656e74206f776e6560008201527f7200000000000000000000000000000000000000000000000000000000000000602082015250565b7f4552433732313a207472616e736665722063616c6c6572206973206e6f74206f60008201527f776e6572206e6f7220617070726f766564000000000000000000000000000000602082015250565b7f4552433732313a20436f6e7472696275746f7220717565727920666f72206e6f60008201527f6e6578697374656e7420746f6b656e0000000000000000000000000000000000602082015250565b61346881612d77565b811461347357600080fd5b50565b61347f81612d89565b811461348a57600080fd5b50565b61349681612d9b565b81146134a157600080fd5b50565b6134ad81612da7565b81146134b857600080fd5b50565b6134c481612df3565b81146134cf57600080fd5b5056fea264697066735822122075b1696b0f47f3d50d30aeab27d3931fe9245e4f334ec8edb9d9a97debd57cf764736f6c63430008010033",
  "immutableReferences": {},
  "source": "// contracts/GameItem.sol\n// SPDX-License-Identifier: MIT\npragma solidity >=0.8.0;\n\nimport \"@openzeppelin/contracts/token/ERC721/ERC721.sol\";\nimport \"@openzeppelin/contracts/utils/Counters.sol\";\nimport \"@openzeppelin/contracts/access/Ownable.sol\";\n\ncontract PolyechoSample is ERC721, Ownable {\n    using Counters for Counters.Counter;\n    Counters.Counter private _tokenIds;\n\n    // Fields\n    string public displayName = \"Sampled PolyEcho NFT!\";\n    string public companyName = \"PolyEcho\";\n    mapping(uint256 => address[]) public contributors;\n    mapping(uint256 => string) tokenURIs;\n    uint256 public constant mintPrice = 10000000000000000; // 0.01 ETH\n    // Events\n    event NameUpdated(string name);\n    event TokenCreated(string tokenURI);\n\n    constructor() ERC721(\"PolyEchoSample\", \"PES\") {}\n\n    function updateName(string calldata _name) external onlyOwner {\n        displayName = _name;\n        emit NameUpdated(_name);\n    }\n\n    function getContributors(uint256 tokenId)\n        public\n        view\n        returns (address[] memory)\n    {\n        require(\n            _exists(tokenId),\n            \"ERC721: Contributor query for nonexistent token\"\n        );\n\n        return contributors[tokenId];\n    }\n\n    function tokenURI(uint256 tokenId)\n        public\n        view\n        override\n        returns (string memory)\n    {\n        require(\n            _exists(tokenId),\n            \"ERC721Metadata: URI query for nonexistent token\"\n        );\n        return tokenURIs[tokenId];\n    }\n\n    function mint(\n        address _buyer,\n        string calldata _metadataURI,\n        address payable[] calldata _contributors\n    ) public payable returns (string memory) {\n        // require(\n        //     msg.value >= mintPrice,\n        //     \"Sent ether value is not enough to mint\"\n        // );\n\n        uint256 tokenId = _tokenIds.current();\n        tokenURIs[tokenId] = _metadataURI;\n        contributors[tokenId] = _contributors;\n\n        _safeMint(_buyer, tokenId);\n\n        for (uint256 i = 0; i < _contributors.length; i++) {\n            address payable contributor = _contributors[i];\n            contributor.transfer(msg.value / _contributors.length);\n        }\n\n        string memory newURI = tokenURI(tokenId);\n        emit TokenCreated(newURI);\n\n        _tokenIds.increment();\n        return newURI;\n    }\n}\n",
  "sourcePath": "/home/zeus/projects/polyecho/web3/contracts/PolyechoSample.sol",
  "compiler": {
    "name": "solc",
    "version": "0.8.1+commit.df193b15.Emscripten.clang"
  },
  "schemaVersion": "3.4.6",
  "updatedAt": "2022-03-17T08:11:41.495Z",
  "networkType": "ethereum",
  "devdoc": {
    "kind": "dev",
    "methods": {
      "approve(address,uint256)": {
        "details": "See {IERC721-approve}."
      },
      "balanceOf(address)": {
        "details": "See {IERC721-balanceOf}."
      },
      "getApproved(uint256)": {
        "details": "See {IERC721-getApproved}."
      },
      "isApprovedForAll(address,address)": {
        "details": "See {IERC721-isApprovedForAll}."
      },
      "name()": {
        "details": "See {IERC721Metadata-name}."
      },
      "owner()": {
        "details": "Returns the address of the current owner."
      },
      "ownerOf(uint256)": {
        "details": "See {IERC721-ownerOf}."
      },
      "renounceOwnership()": {
        "details": "Leaves the contract without owner. It will not be possible to call `onlyOwner` functions anymore. Can only be called by the current owner. NOTE: Renouncing ownership will leave the contract without an owner, thereby removing any functionality that is only available to the owner."
      },
      "safeTransferFrom(address,address,uint256)": {
        "details": "See {IERC721-safeTransferFrom}."
      },
      "safeTransferFrom(address,address,uint256,bytes)": {
        "details": "See {IERC721-safeTransferFrom}."
      },
      "setApprovalForAll(address,bool)": {
        "details": "See {IERC721-setApprovalForAll}."
      },
      "supportsInterface(bytes4)": {
        "details": "See {IERC165-supportsInterface}."
      },
      "symbol()": {
        "details": "See {IERC721Metadata-symbol}."
      },
      "tokenURI(uint256)": {
        "details": "See {IERC721Metadata-tokenURI}."
      },
      "transferFrom(address,address,uint256)": {
        "details": "See {IERC721-transferFrom}."
      },
      "transferOwnership(address)": {
        "details": "Transfers ownership of the contract to a new account (`newOwner`). Can only be called by the current owner."
      }
    },
    "version": 1
  },
  "userdoc": {
    "kind": "user",
    "methods": {},
    "version": 1
  }
}