{
  "contractName": "Sample",
  "abi": [
    {
      "inputs": [],
      "stateMutability": "nonpayable",
      "type": "constructor"
    },
    {
      "anonymous": false,
      "inputs": [
        {
          "indexed": true,
          "internalType": "address",
          "name": "owner",
          "type": "address"
        },
        {
          "indexed": true,
          "internalType": "address",
          "name": "approved",
          "type": "address"
        },
        {
          "indexed": true,
          "internalType": "uint256",
          "name": "tokenId",
          "type": "uint256"
        }
      ],
      "name": "Approval",
      "type": "event"
    },
    {
      "anonymous": false,
      "inputs": [
        {
          "indexed": true,
          "internalType": "address",
          "name": "owner",
          "type": "address"
        },
        {
          "indexed": true,
          "internalType": "address",
          "name": "operator",
          "type": "address"
        },
        {
          "indexed": false,
          "internalType": "bool",
          "name": "approved",
          "type": "bool"
        }
      ],
      "name": "ApprovalForAll",
      "type": "event"
    },
    {
      "anonymous": false,
      "inputs": [
        {
          "indexed": false,
          "internalType": "string",
          "name": "name",
          "type": "string"
        }
      ],
      "name": "NameUpdated",
      "type": "event"
    },
    {
      "anonymous": false,
      "inputs": [
        {
          "indexed": true,
          "internalType": "address",
          "name": "previousOwner",
          "type": "address"
        },
        {
          "indexed": true,
          "internalType": "address",
          "name": "newOwner",
          "type": "address"
        }
      ],
      "name": "OwnershipTransferred",
      "type": "event"
    },
    {
      "anonymous": false,
      "inputs": [
        {
          "indexed": false,
          "internalType": "string",
          "name": "tokenURI",
          "type": "string"
        }
      ],
      "name": "TokenCreated",
      "type": "event"
    },
    {
      "anonymous": false,
      "inputs": [
        {
          "indexed": true,
          "internalType": "address",
          "name": "from",
          "type": "address"
        },
        {
          "indexed": true,
          "internalType": "address",
          "name": "to",
          "type": "address"
        },
        {
          "indexed": true,
          "internalType": "uint256",
          "name": "tokenId",
          "type": "uint256"
        }
      ],
      "name": "Transfer",
      "type": "event"
    },
    {
      "inputs": [
        {
          "internalType": "address",
          "name": "to",
          "type": "address"
        },
        {
          "internalType": "uint256",
          "name": "tokenId",
          "type": "uint256"
        }
      ],
      "name": "approve",
      "outputs": [],
      "stateMutability": "nonpayable",
      "type": "function"
    },
    {
      "inputs": [
        {
          "internalType": "address",
          "name": "owner",
          "type": "address"
        }
      ],
      "name": "balanceOf",
      "outputs": [
        {
          "internalType": "uint256",
          "name": "",
          "type": "uint256"
        }
      ],
      "stateMutability": "view",
      "type": "function"
    },
    {
      "inputs": [],
      "name": "companyName",
      "outputs": [
        {
          "internalType": "string",
          "name": "",
          "type": "string"
        }
      ],
      "stateMutability": "view",
      "type": "function"
    },
    {
      "inputs": [
        {
          "internalType": "uint256",
          "name": "",
          "type": "uint256"
        },
        {
          "internalType": "uint256",
          "name": "",
          "type": "uint256"
        }
      ],
      "name": "contributors",
      "outputs": [
        {
          "internalType": "address",
          "name": "",
          "type": "address"
        }
      ],
      "stateMutability": "view",
      "type": "function"
    },
    {
      "inputs": [],
      "name": "displayName",
      "outputs": [
        {
          "internalType": "string",
          "name": "",
          "type": "string"
        }
      ],
      "stateMutability": "view",
      "type": "function"
    },
    {
      "inputs": [
        {
          "internalType": "uint256",
          "name": "tokenId",
          "type": "uint256"
        }
      ],
      "name": "getApproved",
      "outputs": [
        {
          "internalType": "address",
          "name": "",
          "type": "address"
        }
      ],
      "stateMutability": "view",
      "type": "function"
    },
    {
      "inputs": [
        {
          "internalType": "address",
          "name": "owner",
          "type": "address"
        },
        {
          "internalType": "address",
          "name": "operator",
          "type": "address"
        }
      ],
      "name": "isApprovedForAll",
      "outputs": [
        {
          "internalType": "bool",
          "name": "",
          "type": "bool"
        }
      ],
      "stateMutability": "view",
      "type": "function"
    },
    {
      "inputs": [],
      "name": "name",
      "outputs": [
        {
          "internalType": "string",
          "name": "",
          "type": "string"
        }
      ],
      "stateMutability": "view",
      "type": "function"
    },
    {
      "inputs": [],
      "name": "owner",
      "outputs": [
        {
          "internalType": "address",
          "name": "",
          "type": "address"
        }
      ],
      "stateMutability": "view",
      "type": "function"
    },
    {
      "inputs": [
        {
          "internalType": "uint256",
          "name": "tokenId",
          "type": "uint256"
        }
      ],
      "name": "ownerOf",
      "outputs": [
        {
          "internalType": "address",
          "name": "",
          "type": "address"
        }
      ],
      "stateMutability": "view",
      "type": "function"
    },
    {
      "inputs": [],
      "name": "renounceOwnership",
      "outputs": [],
      "stateMutability": "nonpayable",
      "type": "function"
    },
    {
      "inputs": [
        {
          "internalType": "address",
          "name": "from",
          "type": "address"
        },
        {
          "internalType": "address",
          "name": "to",
          "type": "address"
        },
        {
          "internalType": "uint256",
          "name": "tokenId",
          "type": "uint256"
        }
      ],
      "name": "safeTransferFrom",
      "outputs": [],
      "stateMutability": "nonpayable",
      "type": "function"
    },
    {
      "inputs": [
        {
          "internalType": "address",
          "name": "from",
          "type": "address"
        },
        {
          "internalType": "address",
          "name": "to",
          "type": "address"
        },
        {
          "internalType": "uint256",
          "name": "tokenId",
          "type": "uint256"
        },
        {
          "internalType": "bytes",
          "name": "_data",
          "type": "bytes"
        }
      ],
      "name": "safeTransferFrom",
      "outputs": [],
      "stateMutability": "nonpayable",
      "type": "function"
    },
    {
      "inputs": [
        {
          "internalType": "address",
          "name": "operator",
          "type": "address"
        },
        {
          "internalType": "bool",
          "name": "approved",
          "type": "bool"
        }
      ],
      "name": "setApprovalForAll",
      "outputs": [],
      "stateMutability": "nonpayable",
      "type": "function"
    },
    {
      "inputs": [
        {
          "internalType": "bytes4",
          "name": "interfaceId",
          "type": "bytes4"
        }
      ],
      "name": "supportsInterface",
      "outputs": [
        {
          "internalType": "bool",
          "name": "",
          "type": "bool"
        }
      ],
      "stateMutability": "view",
      "type": "function"
    },
    {
      "inputs": [],
      "name": "symbol",
      "outputs": [
        {
          "internalType": "string",
          "name": "",
          "type": "string"
        }
      ],
      "stateMutability": "view",
      "type": "function"
    },
    {
      "inputs": [
        {
          "internalType": "address",
          "name": "from",
          "type": "address"
        },
        {
          "internalType": "address",
          "name": "to",
          "type": "address"
        },
        {
          "internalType": "uint256",
          "name": "tokenId",
          "type": "uint256"
        }
      ],
      "name": "transferFrom",
      "outputs": [],
      "stateMutability": "nonpayable",
      "type": "function"
    },
    {
      "inputs": [
        {
          "internalType": "address",
          "name": "newOwner",
          "type": "address"
        }
      ],
      "name": "transferOwnership",
      "outputs": [],
      "stateMutability": "nonpayable",
      "type": "function"
    },
    {
      "inputs": [
        {
          "internalType": "string",
          "name": "_name",
          "type": "string"
        }
      ],
      "name": "updateName",
      "outputs": [],
      "stateMutability": "nonpayable",
      "type": "function"
    },
    {
      "inputs": [
        {
          "internalType": "uint256",
          "name": "tokenId",
          "type": "uint256"
        }
      ],
      "name": "getContributors",
      "outputs": [
        {
          "internalType": "address[]",
          "name": "",
          "type": "address[]"
        }
      ],
      "stateMutability": "view",
      "type": "function"
    },
    {
      "inputs": [
        {
          "internalType": "uint256",
          "name": "tokenId",
          "type": "uint256"
        }
      ],
      "name": "tokenURI",
      "outputs": [
        {
          "internalType": "string",
          "name": "",
          "type": "string"
        }
      ],
      "stateMutability": "view",
      "type": "function"
    },
    {
      "inputs": [
        {
          "internalType": "address",
          "name": "_buyer",
          "type": "address"
        },
        {
          "internalType": "string",
          "name": "_metadataURI",
          "type": "string"
        },
        {
          "internalType": "address[]",
          "name": "_contributors",
          "type": "address[]"
        }
      ],
      "name": "mint",
      "outputs": [
        {
          "internalType": "string",
          "name": "",
          "type": "string"
        }
      ],
      "stateMutability": "nonpayable",
      "type": "function"
    }
  ],
  "bytecode": "0x60806040526040518060400160405280601581526020017f53616d706c656420506f6c794563686f204e4654210000000000000000000000815250600890805190602001906200005192919062000242565b506040518060400160405280600881526020017f506f6c794563686f000000000000000000000000000000000000000000000000815250600990805190602001906200009f92919062000242565b50348015620000ad57600080fd5b506040518060400160405280600e81526020017f506f6c794563686f53616d706c650000000000000000000000000000000000008152506040518060400160405280600381526020017f504553000000000000000000000000000000000000000000000000000000000081525081600090805190602001906200013292919062000242565b5080600190805190602001906200014b92919062000242565b5050506200016e620001626200017460201b60201c565b6200017c60201b60201c565b62000357565b600033905090565b6000600660009054906101000a900473ffffffffffffffffffffffffffffffffffffffff16905081600660006101000a81548173ffffffffffffffffffffffffffffffffffffffff021916908373ffffffffffffffffffffffffffffffffffffffff1602179055508173ffffffffffffffffffffffffffffffffffffffff168173ffffffffffffffffffffffffffffffffffffffff167f8be0079c531659141344cd1fd0a4f28419497f9722a3daafe3b4186f6b6457e060405160405180910390a35050565b8280546200025090620002f2565b90600052602060002090601f016020900481019282620002745760008555620002c0565b82601f106200028f57805160ff1916838001178555620002c0565b82800160010185558215620002c0579182015b82811115620002bf578251825591602001919060010190620002a2565b5b509050620002cf9190620002d3565b5090565b5b80821115620002ee576000816000905550600101620002d4565b5090565b600060028204905060018216806200030b57607f821691505b6020821081141562000322576200032162000328565b5b50919050565b7f4e487b7100000000000000000000000000000000000000000000000000000000600052602260045260246000fd5b6131e980620003676000396000f3fe608060405234801561001057600080fd5b50600436106101425760003560e01c8063715018a6116100b8578063b88d4fde1161007c578063b88d4fde14610375578063c87b56dd14610391578063e67e63f4146103c1578063e985e9c5146103f1578063f2fde38b14610421578063f5ec2eed1461043d57610142565b8063715018a6146102f757806384da92a7146103015780638da5cb5b1461031d57806395d89b411461033b578063a22cb4651461035957610142565b80633c1ab00f1161010a5780633c1ab00f146101fd57806342842e0e1461022d5780634affb2601461024957806354346b66146102675780636352211e1461029757806370a08231146102c757610142565b806301ffc9a71461014757806306fdde0314610177578063081812fc14610195578063095ea7b3146101c557806323b872dd146101e1575b600080fd5b610161600480360381019061015c91906121e3565b61045b565b60405161016e919061270c565b60405180910390f35b61017f61053d565b60405161018c919061274b565b60405180910390f35b6101af60048036038101906101aa919061227a565b6105cf565b6040516101bc9190612683565b60405180910390f35b6101df60048036038101906101da91906121a7565b610654565b005b6101fb60048036038101906101f69190612018565b61076c565b005b6102176004803603810190610212919061227a565b6107cc565b60405161022491906126ea565b60405180910390f35b61024760048036038101906102429190612018565b6108b5565b005b6102516108d5565b60405161025e919061274b565b60405180910390f35b610281600480360381019061027c91906122a3565b610963565b60405161028e9190612683565b60405180910390f35b6102b160048036038101906102ac919061227a565b6109b1565b6040516102be9190612683565b60405180910390f35b6102e160048036038101906102dc9190611fb3565b610a63565b6040516102ee919061298d565b60405180910390f35b6102ff610b1b565b005b61031b60048036038101906103169190612235565b610ba3565b005b610325610c6e565b6040516103329190612683565b60405180910390f35b610343610c98565b604051610350919061274b565b60405180910390f35b610373600480360381019061036e91906120e2565b610d2a565b005b61038f600480360381019061038a9190612067565b610d40565b005b6103ab60048036038101906103a6919061227a565b610da2565b6040516103b8919061274b565b60405180910390f35b6103db60048036038101906103d6919061211e565b610e8f565b6040516103e8919061274b565b60405180910390f35b61040b60048036038101906104069190611fdc565b610f4b565b604051610418919061270c565b60405180910390f35b61043b60048036038101906104369190611fb3565b610fdf565b005b6104456110d7565b604051610452919061274b565b60405180910390f35b60007f80ac58cd000000000000000000000000000000000000000000000000000000007bffffffffffffffffffffffffffffffffffffffffffffffffffffffff1916827bffffffffffffffffffffffffffffffffffffffffffffffffffffffff1916148061052657507f5b5e139f000000000000000000000000000000000000000000000000000000007bffffffffffffffffffffffffffffffffffffffffffffffffffffffff1916827bffffffffffffffffffffffffffffffffffffffffffffffffffffffff1916145b80610536575061053582611165565b5b9050919050565b60606000805461054c90612baf565b80601f016020809104026020016040519081016040528092919081815260200182805461057890612baf565b80156105c55780601f1061059a576101008083540402835291602001916105c5565b820191906000526020600020905b8154815290600101906020018083116105a857829003601f168201915b5050505050905090565b60006105da826111cf565b610619576040517f08c379a0000000000000000000000000000000000000000000000000000000008152600401610610906128cd565b60405180910390fd5b6004600083815260200190815260200160002060009054906101000a900473ffffffffffffffffffffffffffffffffffffffff169050919050565b600061065f826109b1565b90508073ffffffffffffffffffffffffffffffffffffffff168373ffffffffffffffffffffffffffffffffffffffff1614156106d0576040517f08c379a00000000000000000000000000000000000000000000000000000000081526004016106c79061292d565b60405180910390fd5b8073ffffffffffffffffffffffffffffffffffffffff166106ef61123b565b73ffffffffffffffffffffffffffffffffffffffff16148061071e575061071d8161071861123b565b610f4b565b5b61075d576040517f08c379a00000000000000000000000000000000000000000000000000000000081526004016107549061284d565b60405180910390fd5b6107678383611243565b505050565b61077d61077761123b565b826112fc565b6107bc576040517f08c379a00000000000000000000000000000000000000000000000000000000081526004016107b39061294d565b60405180910390fd5b6107c78383836113da565b505050565b60606107d7826111cf565b610816576040517f08c379a000000000000000000000000000000000000000000000000000000000815260040161080d9061296d565b60405180910390fd5b600a60008381526020019081526020016000208054806020026020016040519081016040528092919081815260200182805480156108a957602002820191906000526020600020905b8160009054906101000a900473ffffffffffffffffffffffffffffffffffffffff1673ffffffffffffffffffffffffffffffffffffffff168152602001906001019080831161085f575b50505050509050919050565b6108d083838360405180602001604052806000815250610d40565b505050565b600880546108e290612baf565b80601f016020809104026020016040519081016040528092919081815260200182805461090e90612baf565b801561095b5780601f106109305761010080835404028352916020019161095b565b820191906000526020600020905b81548152906001019060200180831161093e57829003601f168201915b505050505081565b600a602052816000526040600020818154811061097f57600080fd5b906000526020600020016000915091509054906101000a900473ffffffffffffffffffffffffffffffffffffffff1681565b6000806002600084815260200190815260200160002060009054906101000a900473ffffffffffffffffffffffffffffffffffffffff169050600073ffffffffffffffffffffffffffffffffffffffff168173ffffffffffffffffffffffffffffffffffffffff161415610a5a576040517f08c379a0000000000000000000000000000000000000000000000000000000008152600401610a519061288d565b60405180910390fd5b80915050919050565b60008073ffffffffffffffffffffffffffffffffffffffff168273ffffffffffffffffffffffffffffffffffffffff161415610ad4576040517f08c379a0000000000000000000000000000000000000000000000000000000008152600401610acb9061286d565b60405180910390fd5b600360008373ffffffffffffffffffffffffffffffffffffffff1673ffffffffffffffffffffffffffffffffffffffff168152602001908152602001600020549050919050565b610b2361123b565b73ffffffffffffffffffffffffffffffffffffffff16610b41610c6e565b73ffffffffffffffffffffffffffffffffffffffff1614610b97576040517f08c379a0000000000000000000000000000000000000000000000000000000008152600401610b8e906128ed565b60405180910390fd5b610ba16000611641565b565b610bab61123b565b73ffffffffffffffffffffffffffffffffffffffff16610bc9610c6e565b73ffffffffffffffffffffffffffffffffffffffff1614610c1f576040517f08c379a0000000000000000000000000000000000000000000000000000000008152600401610c16906128ed565b60405180910390fd5b818160089190610c30929190611d0b565b507f9f7688a97f1ac51fe03bac18af18d6810f9f11f0db08c59b1938a9ac825ef7448282604051610c62929190612727565b60405180910390a15050565b6000600660009054906101000a900473ffffffffffffffffffffffffffffffffffffffff16905090565b606060018054610ca790612baf565b80601f0160208091040260200160405190810160405280929190818152602001828054610cd390612baf565b8015610d205780601f10610cf557610100808354040283529160200191610d20565b820191906000526020600020905b815481529060010190602001808311610d0357829003601f168201915b5050505050905090565b610d3c610d3561123b565b8383611707565b5050565b610d51610d4b61123b565b836112fc565b610d90576040517f08c379a0000000000000000000000000000000000000000000000000000000008152600401610d879061294d565b60405180910390fd5b610d9c84848484611874565b50505050565b6060610dad826111cf565b610dec576040517f08c379a0000000000000000000000000000000000000000000000000000000008152600401610de39061290d565b60405180910390fd5b600b60008381526020019081526020016000208054610e0a90612baf565b80601f0160208091040260200160405190810160405280929190818152602001828054610e3690612baf565b8015610e835780601f10610e5857610100808354040283529160200191610e83565b820191906000526020600020905b815481529060010190602001808311610e6657829003601f168201915b50505050509050919050565b6060610e9b60076118d0565b6000610ea760076118e6565b90508585600b60008481526020019081526020016000209190610ecb929190611d0b565b508383600a60008481526020019081526020016000209190610eee929190611d91565b50610ef987826118f4565b6000610f0482610da2565b90507fc380bb6abc247ec4ba5a3fd8ac5f6c39b8f37ce3baf14a7fb316ac4c6eca663181604051610f35919061274b565b60405180910390a1809250505095945050505050565b6000600560008473ffffffffffffffffffffffffffffffffffffffff1673ffffffffffffffffffffffffffffffffffffffff16815260200190815260200160002060008373ffffffffffffffffffffffffffffffffffffffff1673ffffffffffffffffffffffffffffffffffffffff16815260200190815260200160002060009054906101000a900460ff16905092915050565b610fe761123b565b73ffffffffffffffffffffffffffffffffffffffff16611005610c6e565b73ffffffffffffffffffffffffffffffffffffffff161461105b576040517f08c379a0000000000000000000000000000000000000000000000000000000008152600401611052906128ed565b60405180910390fd5b600073ffffffffffffffffffffffffffffffffffffffff168173ffffffffffffffffffffffffffffffffffffffff1614156110cb576040517f08c379a00000000000000000000000000000000000000000000000000000000081526004016110c29061278d565b60405180910390fd5b6110d481611641565b50565b600980546110e490612baf565b80601f016020809104026020016040519081016040528092919081815260200182805461111090612baf565b801561115d5780601f106111325761010080835404028352916020019161115d565b820191906000526020600020905b81548152906001019060200180831161114057829003601f168201915b505050505081565b60007f01ffc9a7000000000000000000000000000000000000000000000000000000007bffffffffffffffffffffffffffffffffffffffffffffffffffffffff1916827bffffffffffffffffffffffffffffffffffffffffffffffffffffffff1916149050919050565b60008073ffffffffffffffffffffffffffffffffffffffff166002600084815260200190815260200160002060009054906101000a900473ffffffffffffffffffffffffffffffffffffffff1673ffffffffffffffffffffffffffffffffffffffff1614159050919050565b600033905090565b816004600083815260200190815260200160002060006101000a81548173ffffffffffffffffffffffffffffffffffffffff021916908373ffffffffffffffffffffffffffffffffffffffff160217905550808273ffffffffffffffffffffffffffffffffffffffff166112b6836109b1565b73ffffffffffffffffffffffffffffffffffffffff167f8c5be1e5ebec7d5bd14f71427d1e84f3dd0314c0f7b2291e5b200ac8c7c3b92560405160405180910390a45050565b6000611307826111cf565b611346576040517f08c379a000000000000000000000000000000000000000000000000000000000815260040161133d9061282d565b60405180910390fd5b6000611351836109b1565b90508073ffffffffffffffffffffffffffffffffffffffff168473ffffffffffffffffffffffffffffffffffffffff1614806113c057508373ffffffffffffffffffffffffffffffffffffffff166113a8846105cf565b73ffffffffffffffffffffffffffffffffffffffff16145b806113d157506113d08185610f4b565b5b91505092915050565b8273ffffffffffffffffffffffffffffffffffffffff166113fa826109b1565b73ffffffffffffffffffffffffffffffffffffffff1614611450576040517f08c379a0000000000000000000000000000000000000000000000000000000008152600401611447906127ad565b60405180910390fd5b600073ffffffffffffffffffffffffffffffffffffffff168273ffffffffffffffffffffffffffffffffffffffff1614156114c0576040517f08c379a00000000000000000000000000000000000000000000000000000000081526004016114b7906127ed565b60405180910390fd5b6114cb838383611912565b6114d6600082611243565b6001600360008573ffffffffffffffffffffffffffffffffffffffff1673ffffffffffffffffffffffffffffffffffffffff16815260200190815260200160002060008282546115269190612ac5565b925050819055506001600360008473ffffffffffffffffffffffffffffffffffffffff1673ffffffffffffffffffffffffffffffffffffffff168152602001908152602001600020600082825461157d9190612a6f565b92505081905550816002600083815260200190815260200160002060006101000a81548173ffffffffffffffffffffffffffffffffffffffff021916908373ffffffffffffffffffffffffffffffffffffffff160217905550808273ffffffffffffffffffffffffffffffffffffffff168473ffffffffffffffffffffffffffffffffffffffff167fddf252ad1be2c89b69c2b068fc378daa952ba7f163c4a11628f55a4df523b3ef60405160405180910390a461163c838383611917565b505050565b6000600660009054906101000a900473ffffffffffffffffffffffffffffffffffffffff16905081600660006101000a81548173ffffffffffffffffffffffffffffffffffffffff021916908373ffffffffffffffffffffffffffffffffffffffff1602179055508173ffffffffffffffffffffffffffffffffffffffff168173ffffffffffffffffffffffffffffffffffffffff167f8be0079c531659141344cd1fd0a4f28419497f9722a3daafe3b4186f6b6457e060405160405180910390a35050565b8173ffffffffffffffffffffffffffffffffffffffff168373ffffffffffffffffffffffffffffffffffffffff161415611776576040517f08c379a000000000000000000000000000000000000000000000000000000000815260040161176d9061280d565b60405180910390fd5b80600560008573ffffffffffffffffffffffffffffffffffffffff1673ffffffffffffffffffffffffffffffffffffffff16815260200190815260200160002060008473ffffffffffffffffffffffffffffffffffffffff1673ffffffffffffffffffffffffffffffffffffffff16815260200190815260200160002060006101000a81548160ff0219169083151502179055508173ffffffffffffffffffffffffffffffffffffffff168373ffffffffffffffffffffffffffffffffffffffff167f17307eab39ab6107e8899845ad3d59bd9653f200f220920489ca2b5937696c3183604051611867919061270c565b60405180910390a3505050565b61187f8484846113da565b61188b8484848461191c565b6118ca576040517f08c379a00000000000000000000000000000000000000000000000000000000081526004016118c19061276d565b60405180910390fd5b50505050565b6001816000016000828254019250508190555050565b600081600001549050919050565b61190e828260405180602001604052806000815250611ab3565b5050565b505050565b505050565b600061193d8473ffffffffffffffffffffffffffffffffffffffff16611b0e565b15611aa6578373ffffffffffffffffffffffffffffffffffffffff1663150b7a0261196661123b565b8786866040518563ffffffff1660e01b8152600401611988949392919061269e565b602060405180830381600087803b1580156119a257600080fd5b505af19250505080156119d357506040513d601f19601f820116820180604052508101906119d0919061220c565b60015b611a56573d8060008114611a03576040519150601f19603f3d011682016040523d82523d6000602084013e611a08565b606091505b50600081511415611a4e576040517f08c379a0000000000000000000000000000000000000000000000000000000008152600401611a459061276d565b60405180910390fd5b805181602001fd5b63150b7a0260e01b7bffffffffffffffffffffffffffffffffffffffffffffffffffffffff1916817bffffffffffffffffffffffffffffffffffffffffffffffffffffffff191614915050611aab565b600190505b949350505050565b611abd8383611b31565b611aca600084848461191c565b611b09576040517f08c379a0000000000000000000000000000000000000000000000000000000008152600401611b009061276d565b60405180910390fd5b505050565b6000808273ffffffffffffffffffffffffffffffffffffffff163b119050919050565b600073ffffffffffffffffffffffffffffffffffffffff168273ffffffffffffffffffffffffffffffffffffffff161415611ba1576040517f08c379a0000000000000000000000000000000000000000000000000000000008152600401611b98906128ad565b60405180910390fd5b611baa816111cf565b15611bea576040517f08c379a0000000000000000000000000000000000000000000000000000000008152600401611be1906127cd565b60405180910390fd5b611bf660008383611912565b6001600360008473ffffffffffffffffffffffffffffffffffffffff1673ffffffffffffffffffffffffffffffffffffffff1681526020019081526020016000206000828254611c469190612a6f565b92505081905550816002600083815260200190815260200160002060006101000a81548173ffffffffffffffffffffffffffffffffffffffff021916908373ffffffffffffffffffffffffffffffffffffffff160217905550808273ffffffffffffffffffffffffffffffffffffffff16600073ffffffffffffffffffffffffffffffffffffffff167fddf252ad1be2c89b69c2b068fc378daa952ba7f163c4a11628f55a4df523b3ef60405160405180910390a4611d0760008383611917565b5050565b828054611d1790612baf565b90600052602060002090601f016020900481019282611d395760008555611d80565b82601f10611d5257803560ff1916838001178555611d80565b82800160010185558215611d80579182015b82811115611d7f578235825591602001919060010190611d64565b5b509050611d8d9190611e31565b5090565b828054828255906000526020600020908101928215611e20579160200282015b82811115611e1f57823573ffffffffffffffffffffffffffffffffffffffff168260006101000a81548173ffffffffffffffffffffffffffffffffffffffff021916908373ffffffffffffffffffffffffffffffffffffffff16021790555091602001919060010190611db1565b5b509050611e2d9190611e31565b5090565b5b80821115611e4a576000816000905550600101611e32565b5090565b6000611e61611e5c846129cd565b6129a8565b905082815260208101848484011115611e7957600080fd5b611e84848285612b6d565b509392505050565b600081359050611e9b81613157565b92915050565b60008083601f840112611eb357600080fd5b8235905067ffffffffffffffff811115611ecc57600080fd5b602083019150836020820283011115611ee457600080fd5b9250929050565b600081359050611efa8161316e565b92915050565b600081359050611f0f81613185565b92915050565b600081519050611f2481613185565b92915050565b600082601f830112611f3b57600080fd5b8135611f4b848260208601611e4e565b91505092915050565b60008083601f840112611f6657600080fd5b8235905067ffffffffffffffff811115611f7f57600080fd5b602083019150836001820283011115611f9757600080fd5b9250929050565b600081359050611fad8161319c565b92915050565b600060208284031215611fc557600080fd5b6000611fd384828501611e8c565b91505092915050565b60008060408385031215611fef57600080fd5b6000611ffd85828601611e8c565b925050602061200e85828601611e8c565b9150509250929050565b60008060006060848603121561202d57600080fd5b600061203b86828701611e8c565b935050602061204c86828701611e8c565b925050604061205d86828701611f9e565b9150509250925092565b6000806000806080858703121561207d57600080fd5b600061208b87828801611e8c565b945050602061209c87828801611e8c565b93505060406120ad87828801611f9e565b925050606085013567ffffffffffffffff8111156120ca57600080fd5b6120d687828801611f2a565b91505092959194509250565b600080604083850312156120f557600080fd5b600061210385828601611e8c565b925050602061211485828601611eeb565b9150509250929050565b60008060008060006060868803121561213657600080fd5b600061214488828901611e8c565b955050602086013567ffffffffffffffff81111561216157600080fd5b61216d88828901611f54565b9450945050604086013567ffffffffffffffff81111561218c57600080fd5b61219888828901611ea1565b92509250509295509295909350565b600080604083850312156121ba57600080fd5b60006121c885828601611e8c565b92505060206121d985828601611f9e565b9150509250929050565b6000602082840312156121f557600080fd5b600061220384828501611f00565b91505092915050565b60006020828403121561221e57600080fd5b600061222c84828501611f15565b91505092915050565b6000806020838503121561224857600080fd5b600083013567ffffffffffffffff81111561226257600080fd5b61226e85828601611f54565b92509250509250929050565b60006020828403121561228c57600080fd5b600061229a84828501611f9e565b91505092915050565b600080604083850312156122b657600080fd5b60006122c485828601611f9e565b92505060206122d585828601611f9e565b9150509250929050565b60006122eb83836122f7565b60208301905092915050565b61230081612af9565b82525050565b61230f81612af9565b82525050565b600061232082612a0e565b61232a8185612a3c565b9350612335836129fe565b8060005b8381101561236657815161234d88826122df565b975061235883612a2f565b925050600181019050612339565b5085935050505092915050565b61237c81612b0b565b82525050565b600061238d82612a19565b6123978185612a4d565b93506123a7818560208601612b7c565b6123b081612c9f565b840191505092915050565b60006123c78385612a5e565b93506123d4838584612b6d565b6123dd83612c9f565b840190509392505050565b60006123f382612a24565b6123fd8185612a5e565b935061240d818560208601612b7c565b61241681612c9f565b840191505092915050565b600061242e603283612a5e565b915061243982612cb0565b604082019050919050565b6000612451602683612a5e565b915061245c82612cff565b604082019050919050565b6000612474602583612a5e565b915061247f82612d4e565b604082019050919050565b6000612497601c83612a5e565b91506124a282612d9d565b602082019050919050565b60006124ba602483612a5e565b91506124c582612dc6565b604082019050919050565b60006124dd601983612a5e565b91506124e882612e15565b602082019050919050565b6000612500602c83612a5e565b915061250b82612e3e565b604082019050919050565b6000612523603883612a5e565b915061252e82612e8d565b604082019050919050565b6000612546602a83612a5e565b915061255182612edc565b604082019050919050565b6000612569602983612a5e565b915061257482612f2b565b604082019050919050565b600061258c602083612a5e565b915061259782612f7a565b602082019050919050565b60006125af602c83612a5e565b91506125ba82612fa3565b604082019050919050565b60006125d2602083612a5e565b91506125dd82612ff2565b602082019050919050565b60006125f5602f83612a5e565b91506126008261301b565b604082019050919050565b6000612618602183612a5e565b91506126238261306a565b604082019050919050565b600061263b603183612a5e565b9150612646826130b9565b604082019050919050565b600061265e602f83612a5e565b915061266982613108565b604082019050919050565b61267d81612b63565b82525050565b60006020820190506126986000830184612306565b92915050565b60006080820190506126b36000830187612306565b6126c06020830186612306565b6126cd6040830185612674565b81810360608301526126df8184612382565b905095945050505050565b600060208201905081810360008301526127048184612315565b905092915050565b60006020820190506127216000830184612373565b92915050565b600060208201905081810360008301526127428184866123bb565b90509392505050565b6000602082019050818103600083015261276581846123e8565b905092915050565b6000602082019050818103600083015261278681612421565b9050919050565b600060208201905081810360008301526127a681612444565b9050919050565b600060208201905081810360008301526127c681612467565b9050919050565b600060208201905081810360008301526127e68161248a565b9050919050565b60006020820190508181036000830152612806816124ad565b9050919050565b60006020820190508181036000830152612826816124d0565b9050919050565b60006020820190508181036000830152612846816124f3565b9050919050565b6000602082019050818103600083015261286681612516565b9050919050565b6000602082019050818103600083015261288681612539565b9050919050565b600060208201905081810360008301526128a68161255c565b9050919050565b600060208201905081810360008301526128c68161257f565b9050919050565b600060208201905081810360008301526128e6816125a2565b9050919050565b60006020820190508181036000830152612906816125c5565b9050919050565b60006020820190508181036000830152612926816125e8565b9050919050565b600060208201905081810360008301526129468161260b565b9050919050565b600060208201905081810360008301526129668161262e565b9050919050565b6000602082019050818103600083015261298681612651565b9050919050565b60006020820190506129a26000830184612674565b92915050565b60006129b26129c3565b90506129be8282612be1565b919050565b6000604051905090565b600067ffffffffffffffff8211156129e8576129e7612c70565b5b6129f182612c9f565b9050602081019050919050565b6000819050602082019050919050565b600081519050919050565b600081519050919050565b600081519050919050565b6000602082019050919050565b600082825260208201905092915050565b600082825260208201905092915050565b600082825260208201905092915050565b6000612a7a82612b63565b9150612a8583612b63565b9250827fffffffffffffffffffffffffffffffffffffffffffffffffffffffffffffffff03821115612aba57612ab9612c12565b5b828201905092915050565b6000612ad082612b63565b9150612adb83612b63565b925082821015612aee57612aed612c12565b5b828203905092915050565b6000612b0482612b43565b9050919050565b60008115159050919050565b60007fffffffff0000000000000000000000000000000000000000000000000000000082169050919050565b600073ffffffffffffffffffffffffffffffffffffffff82169050919050565b6000819050919050565b82818337600083830152505050565b60005b83811015612b9a578082015181840152602081019050612b7f565b83811115612ba9576000848401525b50505050565b60006002820490506001821680612bc757607f821691505b60208210811415612bdb57612bda612c41565b5b50919050565b612bea82612c9f565b810181811067ffffffffffffffff82111715612c0957612c08612c70565b5b80604052505050565b7f4e487b7100000000000000000000000000000000000000000000000000000000600052601160045260246000fd5b7f4e487b7100000000000000000000000000000000000000000000000000000000600052602260045260246000fd5b7f4e487b7100000000000000000000000000000000000000000000000000000000600052604160045260246000fd5b6000601f19601f8301169050919050565b7f4552433732313a207472616e7366657220746f206e6f6e20455243373231526560008201527f63656976657220696d706c656d656e7465720000000000000000000000000000602082015250565b7f4f776e61626c653a206e6577206f776e657220697320746865207a65726f206160008201527f6464726573730000000000000000000000000000000000000000000000000000602082015250565b7f4552433732313a207472616e736665722066726f6d20696e636f72726563742060008201527f6f776e6572000000000000000000000000000000000000000000000000000000602082015250565b7f4552433732313a20746f6b656e20616c7265616479206d696e74656400000000600082015250565b7f4552433732313a207472616e7366657220746f20746865207a65726f2061646460008201527f7265737300000000000000000000000000000000000000000000000000000000602082015250565b7f4552433732313a20617070726f766520746f2063616c6c657200000000000000600082015250565b7f4552433732313a206f70657261746f7220717565727920666f72206e6f6e657860008201527f697374656e7420746f6b656e0000000000000000000000000000000000000000602082015250565b7f4552433732313a20617070726f76652063616c6c6572206973206e6f74206f7760008201527f6e6572206e6f7220617070726f76656420666f7220616c6c0000000000000000602082015250565b7f4552433732313a2062616c616e636520717565727920666f7220746865207a6560008201527f726f206164647265737300000000000000000000000000000000000000000000602082015250565b7f4552433732313a206f776e657220717565727920666f72206e6f6e657869737460008201527f656e7420746f6b656e0000000000000000000000000000000000000000000000602082015250565b7f4552433732313a206d696e7420746f20746865207a65726f2061646472657373600082015250565b7f4552433732313a20617070726f76656420717565727920666f72206e6f6e657860008201527f697374656e7420746f6b656e0000000000000000000000000000000000000000602082015250565b7f4f776e61626c653a2063616c6c6572206973206e6f7420746865206f776e6572600082015250565b7f4552433732314d657461646174613a2055524920717565727920666f72206e6f60008201527f6e6578697374656e7420746f6b656e0000000000000000000000000000000000602082015250565b7f4552433732313a20617070726f76616c20746f2063757272656e74206f776e6560008201527f7200000000000000000000000000000000000000000000000000000000000000602082015250565b7f4552433732313a207472616e736665722063616c6c6572206973206e6f74206f60008201527f776e6572206e6f7220617070726f766564000000000000000000000000000000602082015250565b7f4552433732313a20436f6e7472696275746f7220717565727920666f72206e6f60008201527f6e6578697374656e7420746f6b656e0000000000000000000000000000000000602082015250565b61316081612af9565b811461316b57600080fd5b50565b61317781612b0b565b811461318257600080fd5b50565b61318e81612b17565b811461319957600080fd5b50565b6131a581612b63565b81146131b057600080fd5b5056fea26469706673582212209c14e9af8520e3063919e41a9eb15a94a3e23b5e5d2e11d98d3070a4134dc0d664736f6c63430008010033",
  "immutableReferences": {},
  "source": "// contracts/GameItem.sol\n// SPDX-License-Identifier: MIT\npragma solidity >=0.8.0;\n\nimport \"@openzeppelin/contracts/token/ERC721/ERC721.sol\";\nimport \"@openzeppelin/contracts/utils/Counters.sol\";\nimport \"@openzeppelin/contracts/access/Ownable.sol\";\n\ncontract Sample is ERC721, Ownable {\n    using Counters for Counters.Counter;\n    Counters.Counter private _tokenIds;\n\n    // Fields\n    string public displayName = \"Sampled PolyEcho NFT!\";\n    string public companyName = \"PolyEcho\";\n    mapping(uint256=> address[]) public contributors;\n    mapping(uint256=> string) tokenURIs;\n    // Events\n    event NameUpdated(string name);\n    event TokenCreated(string tokenURI);\n\n    constructor() ERC721(\"PolyEchoSample\", \"PES\") {}\n\n    function updateName(string calldata _name) external onlyOwner {\n        displayName = _name;\n        emit NameUpdated(_name);\n    }\n\n    function getContributors(uint256 tokenId) public view returns (address[] memory){\n        require(_exists(tokenId), \"ERC721: Contributor query for nonexistent token\");\n\n        return contributors[tokenId];\n    }\n\n\n    function tokenURI(uint256 tokenId) public view override returns (string memory) {\n        require(_exists(tokenId), \"ERC721Metadata: URI query for nonexistent token\");\n        return tokenURIs[tokenId];\n    }\n\n\n    // address, string calldata _sampleMetadataURI, address[] calldata _contributors\n    function mint(address _buyer, string calldata _metadataURI, address[] calldata _contributors) public returns (string memory) {\n        \n\n        // 2. Increment to create uniqueness\n        // Increament the counter to ensure uniqueness (Chainline VRF?)\n        _tokenIds.increment();\n        uint256 tokenId = _tokenIds.current();\n\n        tokenURIs[tokenId] = _metadataURI;        \n        contributors[tokenId] = _contributors;\n        // 3. Mint and transfer to buyer\n        _safeMint(_buyer, tokenId);\n\n        // 4. Transfer proceeds out equally to contributors\n        // Maybe the function is built into the ERC721 standard? safeTransferFrom()? _safeTransfer()?\n\n        // Update the tokenUri and emit event ?? THIS NEEDS SOME IRONING OUT\n        string memory newURI = tokenURI(tokenId);\n        emit TokenCreated(newURI);\n\n        // Return the new URI\n        return newURI;\n    }\n}\n",
  "sourcePath": "/home/zeus/projects/ethden-hack-web/web3/contracts/PolyechoSample.sol",
  "compiler": {
    "name": "solc",
    "version": "0.8.1+commit.df193b15.Emscripten.clang"
  },
  "schemaVersion": "3.4.5",
  "updatedAt": "2022-02-20T09:42:39.785Z",
  "devdoc": {
    "kind": "dev",
    "methods": {
      "approve(address,uint256)": {
        "details": "See {IERC721-approve}."
      },
      "balanceOf(address)": {
        "details": "See {IERC721-balanceOf}."
      },
      "getApproved(uint256)": {
        "details": "See {IERC721-getApproved}."
      },
      "isApprovedForAll(address,address)": {
        "details": "See {IERC721-isApprovedForAll}."
      },
      "name()": {
        "details": "See {IERC721Metadata-name}."
      },
      "owner()": {
        "details": "Returns the address of the current owner."
      },
      "ownerOf(uint256)": {
        "details": "See {IERC721-ownerOf}."
      },
      "renounceOwnership()": {
        "details": "Leaves the contract without owner. It will not be possible to call `onlyOwner` functions anymore. Can only be called by the current owner. NOTE: Renouncing ownership will leave the contract without an owner, thereby removing any functionality that is only available to the owner."
      },
      "safeTransferFrom(address,address,uint256)": {
        "details": "See {IERC721-safeTransferFrom}."
      },
      "safeTransferFrom(address,address,uint256,bytes)": {
        "details": "See {IERC721-safeTransferFrom}."
      },
      "setApprovalForAll(address,bool)": {
        "details": "See {IERC721-setApprovalForAll}."
      },
      "supportsInterface(bytes4)": {
        "details": "See {IERC165-supportsInterface}."
      },
      "symbol()": {
        "details": "See {IERC721Metadata-symbol}."
      },
      "tokenURI(uint256)": {
        "details": "See {IERC721Metadata-tokenURI}."
      },
      "transferFrom(address,address,uint256)": {
        "details": "See {IERC721-transferFrom}."
      },
      "transferOwnership(address)": {
        "details": "Transfers ownership of the contract to a new account (`newOwner`). Can only be called by the current owner."
      }
    },
    "version": 1
  },
  "userdoc": {
    "kind": "user",
    "methods": {},
    "version": 1
  }
}