{
  "contractName": "Sample",
  "abi": [
    {
      "inputs": [],
      "stateMutability": "nonpayable",
      "type": "constructor"
    },
    {
      "anonymous": false,
      "inputs": [
        {
          "indexed": true,
          "internalType": "address",
          "name": "owner",
          "type": "address"
        },
        {
          "indexed": true,
          "internalType": "address",
          "name": "approved",
          "type": "address"
        },
        {
          "indexed": true,
          "internalType": "uint256",
          "name": "tokenId",
          "type": "uint256"
        }
      ],
      "name": "Approval",
      "type": "event"
    },
    {
      "anonymous": false,
      "inputs": [
        {
          "indexed": true,
          "internalType": "address",
          "name": "owner",
          "type": "address"
        },
        {
          "indexed": true,
          "internalType": "address",
          "name": "operator",
          "type": "address"
        },
        {
          "indexed": false,
          "internalType": "bool",
          "name": "approved",
          "type": "bool"
        }
      ],
      "name": "ApprovalForAll",
      "type": "event"
    },
    {
      "anonymous": false,
      "inputs": [
        {
          "indexed": false,
          "internalType": "string",
          "name": "name",
          "type": "string"
        }
      ],
      "name": "NameUpdated",
      "type": "event"
    },
    {
      "anonymous": false,
      "inputs": [
        {
          "indexed": true,
          "internalType": "address",
          "name": "previousOwner",
          "type": "address"
        },
        {
          "indexed": true,
          "internalType": "address",
          "name": "newOwner",
          "type": "address"
        }
      ],
      "name": "OwnershipTransferred",
      "type": "event"
    },
    {
      "anonymous": false,
      "inputs": [
        {
          "indexed": false,
          "internalType": "string",
          "name": "tokenURI",
          "type": "string"
        }
      ],
      "name": "TokenCreated",
      "type": "event"
    },
    {
      "anonymous": false,
      "inputs": [
        {
          "indexed": true,
          "internalType": "address",
          "name": "from",
          "type": "address"
        },
        {
          "indexed": true,
          "internalType": "address",
          "name": "to",
          "type": "address"
        },
        {
          "indexed": true,
          "internalType": "uint256",
          "name": "tokenId",
          "type": "uint256"
        }
      ],
      "name": "Transfer",
      "type": "event"
    },
    {
      "inputs": [
        {
          "internalType": "address",
          "name": "to",
          "type": "address"
        },
        {
          "internalType": "uint256",
          "name": "tokenId",
          "type": "uint256"
        }
      ],
      "name": "approve",
      "outputs": [],
      "stateMutability": "nonpayable",
      "type": "function"
    },
    {
      "inputs": [
        {
          "internalType": "address",
          "name": "owner",
          "type": "address"
        }
      ],
      "name": "balanceOf",
      "outputs": [
        {
          "internalType": "uint256",
          "name": "",
          "type": "uint256"
        }
      ],
      "stateMutability": "view",
      "type": "function",
      "constant": true
    },
    {
      "inputs": [],
      "name": "companyName",
      "outputs": [
        {
          "internalType": "string",
          "name": "",
          "type": "string"
        }
      ],
      "stateMutability": "view",
      "type": "function",
      "constant": true
    },
    {
      "inputs": [
        {
          "internalType": "uint256",
          "name": "",
          "type": "uint256"
        }
      ],
      "name": "contributors",
      "outputs": [
        {
          "internalType": "address",
          "name": "",
          "type": "address"
        }
      ],
      "stateMutability": "view",
      "type": "function",
      "constant": true
    },
    {
      "inputs": [],
      "name": "displayName",
      "outputs": [
        {
          "internalType": "string",
          "name": "",
          "type": "string"
        }
      ],
      "stateMutability": "view",
      "type": "function",
      "constant": true
    },
    {
      "inputs": [
        {
          "internalType": "uint256",
          "name": "tokenId",
          "type": "uint256"
        }
      ],
      "name": "getApproved",
      "outputs": [
        {
          "internalType": "address",
          "name": "",
          "type": "address"
        }
      ],
      "stateMutability": "view",
      "type": "function",
      "constant": true
    },
    {
      "inputs": [
        {
          "internalType": "address",
          "name": "owner",
          "type": "address"
        },
        {
          "internalType": "address",
          "name": "operator",
          "type": "address"
        }
      ],
      "name": "isApprovedForAll",
      "outputs": [
        {
          "internalType": "bool",
          "name": "",
          "type": "bool"
        }
      ],
      "stateMutability": "view",
      "type": "function",
      "constant": true
    },
    {
      "inputs": [],
      "name": "name",
      "outputs": [
        {
          "internalType": "string",
          "name": "",
          "type": "string"
        }
      ],
      "stateMutability": "view",
      "type": "function",
      "constant": true
    },
    {
      "inputs": [],
      "name": "owner",
      "outputs": [
        {
          "internalType": "address",
          "name": "",
          "type": "address"
        }
      ],
      "stateMutability": "view",
      "type": "function",
      "constant": true
    },
    {
      "inputs": [
        {
          "internalType": "uint256",
          "name": "tokenId",
          "type": "uint256"
        }
      ],
      "name": "ownerOf",
      "outputs": [
        {
          "internalType": "address",
          "name": "",
          "type": "address"
        }
      ],
      "stateMutability": "view",
      "type": "function",
      "constant": true
    },
    {
      "inputs": [],
      "name": "renounceOwnership",
      "outputs": [],
      "stateMutability": "nonpayable",
      "type": "function"
    },
    {
      "inputs": [
        {
          "internalType": "address",
          "name": "from",
          "type": "address"
        },
        {
          "internalType": "address",
          "name": "to",
          "type": "address"
        },
        {
          "internalType": "uint256",
          "name": "tokenId",
          "type": "uint256"
        }
      ],
      "name": "safeTransferFrom",
      "outputs": [],
      "stateMutability": "nonpayable",
      "type": "function"
    },
    {
      "inputs": [
        {
          "internalType": "address",
          "name": "from",
          "type": "address"
        },
        {
          "internalType": "address",
          "name": "to",
          "type": "address"
        },
        {
          "internalType": "uint256",
          "name": "tokenId",
          "type": "uint256"
        },
        {
          "internalType": "bytes",
          "name": "_data",
          "type": "bytes"
        }
      ],
      "name": "safeTransferFrom",
      "outputs": [],
      "stateMutability": "nonpayable",
      "type": "function"
    },
    {
      "inputs": [
        {
          "internalType": "address",
          "name": "operator",
          "type": "address"
        },
        {
          "internalType": "bool",
          "name": "approved",
          "type": "bool"
        }
      ],
      "name": "setApprovalForAll",
      "outputs": [],
      "stateMutability": "nonpayable",
      "type": "function"
    },
    {
      "inputs": [
        {
          "internalType": "bytes4",
          "name": "interfaceId",
          "type": "bytes4"
        }
      ],
      "name": "supportsInterface",
      "outputs": [
        {
          "internalType": "bool",
          "name": "",
          "type": "bool"
        }
      ],
      "stateMutability": "view",
      "type": "function",
      "constant": true
    },
    {
      "inputs": [],
      "name": "symbol",
      "outputs": [
        {
          "internalType": "string",
          "name": "",
          "type": "string"
        }
      ],
      "stateMutability": "view",
      "type": "function",
      "constant": true
    },
    {
      "inputs": [
        {
          "internalType": "uint256",
          "name": "tokenId",
          "type": "uint256"
        }
      ],
      "name": "tokenURI",
      "outputs": [
        {
          "internalType": "string",
          "name": "",
          "type": "string"
        }
      ],
      "stateMutability": "view",
      "type": "function",
      "constant": true
    },
    {
      "inputs": [
        {
          "internalType": "address",
          "name": "from",
          "type": "address"
        },
        {
          "internalType": "address",
          "name": "to",
          "type": "address"
        },
        {
          "internalType": "uint256",
          "name": "tokenId",
          "type": "uint256"
        }
      ],
      "name": "transferFrom",
      "outputs": [],
      "stateMutability": "nonpayable",
      "type": "function"
    },
    {
      "inputs": [
        {
          "internalType": "address",
          "name": "newOwner",
          "type": "address"
        }
      ],
      "name": "transferOwnership",
      "outputs": [],
      "stateMutability": "nonpayable",
      "type": "function"
    },
    {
      "inputs": [
        {
          "internalType": "string",
          "name": "_name",
          "type": "string"
        }
      ],
      "name": "updateName",
      "outputs": [],
      "stateMutability": "nonpayable",
      "type": "function"
    },
    {
      "inputs": [
        {
          "internalType": "address",
          "name": "_buyer",
          "type": "address"
        }
      ],
      "name": "buySample",
      "outputs": [
        {
          "internalType": "string",
          "name": "",
          "type": "string"
        }
      ],
      "stateMutability": "nonpayable",
      "type": "function"
    }
  ],
  "bytecode": "0x60806040526040518060400160405280601481526020017f53616d706c656420506f6c794563686f204e4654000000000000000000000000815250600890805190602001906200005192919062000242565b506040518060400160405280600881526020017f506f6c794563686f000000000000000000000000000000000000000000000000815250600990805190602001906200009f92919062000242565b50348015620000ad57600080fd5b506040518060400160405280600e81526020017f506f6c794563686f53616d706c650000000000000000000000000000000000008152506040518060400160405280600381526020017f504553000000000000000000000000000000000000000000000000000000000081525081600090805190602001906200013292919062000242565b5080600190805190602001906200014b92919062000242565b5050506200016e620001626200017460201b60201c565b6200017c60201b60201c565b62000357565b600033905090565b6000600660009054906101000a900473ffffffffffffffffffffffffffffffffffffffff16905081600660006101000a81548173ffffffffffffffffffffffffffffffffffffffff021916908373ffffffffffffffffffffffffffffffffffffffff1602179055508173ffffffffffffffffffffffffffffffffffffffff168173ffffffffffffffffffffffffffffffffffffffff167f8be0079c531659141344cd1fd0a4f28419497f9722a3daafe3b4186f6b6457e060405160405180910390a35050565b8280546200025090620002f2565b90600052602060002090601f016020900481019282620002745760008555620002c0565b82601f106200028f57805160ff1916838001178555620002c0565b82800160010185558215620002c0579182015b82811115620002bf578251825591602001919060010190620002a2565b5b509050620002cf9190620002d3565b5090565b5b80821115620002ee576000816000905550600101620002d4565b5090565b600060028204905060018216806200030b57607f821691505b6020821081141562000322576200032162000328565b5b50919050565b7f4e487b7100000000000000000000000000000000000000000000000000000000600052602260045260246000fd5b61300380620003676000396000f3fe608060405234801561001057600080fd5b50600436106101375760003560e01c8063715018a6116100b8578063b604fd481161007c578063b604fd481461033a578063b88d4fde1461036a578063c87b56dd14610386578063e985e9c5146103b6578063f2fde38b146103e6578063f5ec2eed1461040257610137565b8063715018a6146102bc57806384da92a7146102c65780638da5cb5b146102e257806395d89b4114610300578063a22cb4651461031e57610137565b80633cb5d100116100ff5780633cb5d100146101f257806342842e0e146102225780634affb2601461023e5780636352211e1461025c57806370a082311461028c57610137565b806301ffc9a71461013c57806306fdde031461016c578063081812fc1461018a578063095ea7b3146101ba57806323b872dd146101d6575b600080fd5b61015660048036038101906101519190612071565b610420565b60405161016391906124e9565b60405180910390f35b610174610502565b6040516101819190612528565b60405180910390f35b6101a4600480360381019061019f9190612108565b610594565b6040516101b19190612482565b60405180910390f35b6101d460048036038101906101cf9190612035565b610619565b005b6101f060048036038101906101eb9190611f2f565b610731565b005b61020c60048036038101906102079190612108565b610791565b6040516102199190612482565b60405180910390f35b61023c60048036038101906102379190611f2f565b6107d0565b005b6102466107f0565b6040516102539190612528565b60405180910390f35b61027660048036038101906102719190612108565b61087e565b6040516102839190612482565b60405180910390f35b6102a660048036038101906102a19190611eca565b610930565b6040516102b3919061274a565b60405180910390f35b6102c46109e8565b005b6102e060048036038101906102db91906120c3565b610a70565b005b6102ea610b3b565b6040516102f79190612482565b60405180910390f35b610308610b65565b6040516103159190612528565b60405180910390f35b61033860048036038101906103339190611ff9565b610bf7565b005b610354600480360381019061034f9190611eca565b610c0d565b6040516103619190612528565b60405180910390f35b610384600480360381019061037f9190611f7e565b610c7f565b005b6103a0600480360381019061039b9190612108565b610ce1565b6040516103ad9190612528565b60405180910390f35b6103d060048036038101906103cb9190611ef3565b610d88565b6040516103dd91906124e9565b60405180910390f35b61040060048036038101906103fb9190611eca565b610e1c565b005b61040a610f14565b6040516104179190612528565b60405180910390f35b60007f80ac58cd000000000000000000000000000000000000000000000000000000007bffffffffffffffffffffffffffffffffffffffffffffffffffffffff1916827bffffffffffffffffffffffffffffffffffffffffffffffffffffffff191614806104eb57507f5b5e139f000000000000000000000000000000000000000000000000000000007bffffffffffffffffffffffffffffffffffffffffffffffffffffffff1916827bffffffffffffffffffffffffffffffffffffffffffffffffffffffff1916145b806104fb57506104fa82610fa2565b5b9050919050565b6060600080546105119061296f565b80601f016020809104026020016040519081016040528092919081815260200182805461053d9061296f565b801561058a5780601f1061055f5761010080835404028352916020019161058a565b820191906000526020600020905b81548152906001019060200180831161056d57829003601f168201915b5050505050905090565b600061059f8261100c565b6105de576040517f08c379a00000000000000000000000000000000000000000000000000000000081526004016105d5906126aa565b60405180910390fd5b6004600083815260200190815260200160002060009054906101000a900473ffffffffffffffffffffffffffffffffffffffff169050919050565b60006106248261087e565b90508073ffffffffffffffffffffffffffffffffffffffff168373ffffffffffffffffffffffffffffffffffffffff161415610695576040517f08c379a000000000000000000000000000000000000000000000000000000000815260040161068c9061270a565b60405180910390fd5b8073ffffffffffffffffffffffffffffffffffffffff166106b4611078565b73ffffffffffffffffffffffffffffffffffffffff1614806106e357506106e2816106dd611078565b610d88565b5b610722576040517f08c379a00000000000000000000000000000000000000000000000000000000081526004016107199061262a565b60405180910390fd5b61072c8383611080565b505050565b61074261073c611078565b82611139565b610781576040517f08c379a00000000000000000000000000000000000000000000000000000000081526004016107789061272a565b60405180910390fd5b61078c838383611217565b505050565b600a81815481106107a157600080fd5b906000526020600020016000915054906101000a900473ffffffffffffffffffffffffffffffffffffffff1681565b6107eb83838360405180602001604052806000815250610c7f565b505050565b600880546107fd9061296f565b80601f01602080910402602001604051908101604052809291908181526020018280546108299061296f565b80156108765780601f1061084b57610100808354040283529160200191610876565b820191906000526020600020905b81548152906001019060200180831161085957829003601f168201915b505050505081565b6000806002600084815260200190815260200160002060009054906101000a900473ffffffffffffffffffffffffffffffffffffffff169050600073ffffffffffffffffffffffffffffffffffffffff168173ffffffffffffffffffffffffffffffffffffffff161415610927576040517f08c379a000000000000000000000000000000000000000000000000000000000815260040161091e9061266a565b60405180910390fd5b80915050919050565b60008073ffffffffffffffffffffffffffffffffffffffff168273ffffffffffffffffffffffffffffffffffffffff1614156109a1576040517f08c379a00000000000000000000000000000000000000000000000000000000081526004016109989061264a565b60405180910390fd5b600360008373ffffffffffffffffffffffffffffffffffffffff1673ffffffffffffffffffffffffffffffffffffffff168152602001908152602001600020549050919050565b6109f0611078565b73ffffffffffffffffffffffffffffffffffffffff16610a0e610b3b565b73ffffffffffffffffffffffffffffffffffffffff1614610a64576040517f08c379a0000000000000000000000000000000000000000000000000000000008152600401610a5b906126ca565b60405180910390fd5b610a6e600061147e565b565b610a78611078565b73ffffffffffffffffffffffffffffffffffffffff16610a96610b3b565b73ffffffffffffffffffffffffffffffffffffffff1614610aec576040517f08c379a0000000000000000000000000000000000000000000000000000000008152600401610ae3906126ca565b60405180910390fd5b818160089190610afd929190611d0c565b507f9f7688a97f1ac51fe03bac18af18d6810f9f11f0db08c59b1938a9ac825ef7448282604051610b2f929190612504565b60405180910390a15050565b6000600660009054906101000a900473ffffffffffffffffffffffffffffffffffffffff16905090565b606060018054610b749061296f565b80601f0160208091040260200160405190810160405280929190818152602001828054610ba09061296f565b8015610bed5780601f10610bc257610100808354040283529160200191610bed565b820191906000526020600020905b815481529060010190602001808311610bd057829003601f168201915b5050505050905090565b610c09610c02611078565b8383611544565b5050565b6060610c1960076116b1565b6000610c2560076116c7565b9050610c3183826116d5565b6000610c3c82610ce1565b90507fc380bb6abc247ec4ba5a3fd8ac5f6c39b8f37ce3baf14a7fb316ac4c6eca663181604051610c6d9190612528565b60405180910390a18092505050919050565b610c90610c8a611078565b83611139565b610ccf576040517f08c379a0000000000000000000000000000000000000000000000000000000008152600401610cc69061272a565b60405180910390fd5b610cdb848484846116f3565b50505050565b6060610cec8261100c565b610d2b576040517f08c379a0000000000000000000000000000000000000000000000000000000008152600401610d22906126ea565b60405180910390fd5b6000610d3561174f565b90506000815111610d555760405180602001604052806000815250610d80565b80610d5f84611766565b604051602001610d7092919061245e565b6040516020818303038152906040525b915050919050565b6000600560008473ffffffffffffffffffffffffffffffffffffffff1673ffffffffffffffffffffffffffffffffffffffff16815260200190815260200160002060008373ffffffffffffffffffffffffffffffffffffffff1673ffffffffffffffffffffffffffffffffffffffff16815260200190815260200160002060009054906101000a900460ff16905092915050565b610e24611078565b73ffffffffffffffffffffffffffffffffffffffff16610e42610b3b565b73ffffffffffffffffffffffffffffffffffffffff1614610e98576040517f08c379a0000000000000000000000000000000000000000000000000000000008152600401610e8f906126ca565b60405180910390fd5b600073ffffffffffffffffffffffffffffffffffffffff168173ffffffffffffffffffffffffffffffffffffffff161415610f08576040517f08c379a0000000000000000000000000000000000000000000000000000000008152600401610eff9061256a565b60405180910390fd5b610f118161147e565b50565b60098054610f219061296f565b80601f0160208091040260200160405190810160405280929190818152602001828054610f4d9061296f565b8015610f9a5780601f10610f6f57610100808354040283529160200191610f9a565b820191906000526020600020905b815481529060010190602001808311610f7d57829003601f168201915b505050505081565b60007f01ffc9a7000000000000000000000000000000000000000000000000000000007bffffffffffffffffffffffffffffffffffffffffffffffffffffffff1916827bffffffffffffffffffffffffffffffffffffffffffffffffffffffff1916149050919050565b60008073ffffffffffffffffffffffffffffffffffffffff166002600084815260200190815260200160002060009054906101000a900473ffffffffffffffffffffffffffffffffffffffff1673ffffffffffffffffffffffffffffffffffffffff1614159050919050565b600033905090565b816004600083815260200190815260200160002060006101000a81548173ffffffffffffffffffffffffffffffffffffffff021916908373ffffffffffffffffffffffffffffffffffffffff160217905550808273ffffffffffffffffffffffffffffffffffffffff166110f38361087e565b73ffffffffffffffffffffffffffffffffffffffff167f8c5be1e5ebec7d5bd14f71427d1e84f3dd0314c0f7b2291e5b200ac8c7c3b92560405160405180910390a45050565b60006111448261100c565b611183576040517f08c379a000000000000000000000000000000000000000000000000000000000815260040161117a9061260a565b60405180910390fd5b600061118e8361087e565b90508073ffffffffffffffffffffffffffffffffffffffff168473ffffffffffffffffffffffffffffffffffffffff1614806111fd57508373ffffffffffffffffffffffffffffffffffffffff166111e584610594565b73ffffffffffffffffffffffffffffffffffffffff16145b8061120e575061120d8185610d88565b5b91505092915050565b8273ffffffffffffffffffffffffffffffffffffffff166112378261087e565b73ffffffffffffffffffffffffffffffffffffffff161461128d576040517f08c379a00000000000000000000000000000000000000000000000000000000081526004016112849061258a565b60405180910390fd5b600073ffffffffffffffffffffffffffffffffffffffff168273ffffffffffffffffffffffffffffffffffffffff1614156112fd576040517f08c379a00000000000000000000000000000000000000000000000000000000081526004016112f4906125ca565b60405180910390fd5b611308838383611913565b611313600082611080565b6001600360008573ffffffffffffffffffffffffffffffffffffffff1673ffffffffffffffffffffffffffffffffffffffff16815260200190815260200160002060008282546113639190612885565b925050819055506001600360008473ffffffffffffffffffffffffffffffffffffffff1673ffffffffffffffffffffffffffffffffffffffff16815260200190815260200160002060008282546113ba91906127fe565b92505081905550816002600083815260200190815260200160002060006101000a81548173ffffffffffffffffffffffffffffffffffffffff021916908373ffffffffffffffffffffffffffffffffffffffff160217905550808273ffffffffffffffffffffffffffffffffffffffff168473ffffffffffffffffffffffffffffffffffffffff167fddf252ad1be2c89b69c2b068fc378daa952ba7f163c4a11628f55a4df523b3ef60405160405180910390a4611479838383611918565b505050565b6000600660009054906101000a900473ffffffffffffffffffffffffffffffffffffffff16905081600660006101000a81548173ffffffffffffffffffffffffffffffffffffffff021916908373ffffffffffffffffffffffffffffffffffffffff1602179055508173ffffffffffffffffffffffffffffffffffffffff168173ffffffffffffffffffffffffffffffffffffffff167f8be0079c531659141344cd1fd0a4f28419497f9722a3daafe3b4186f6b6457e060405160405180910390a35050565b8173ffffffffffffffffffffffffffffffffffffffff168373ffffffffffffffffffffffffffffffffffffffff1614156115b3576040517f08c379a00000000000000000000000000000000000000000000000000000000081526004016115aa906125ea565b60405180910390fd5b80600560008573ffffffffffffffffffffffffffffffffffffffff1673ffffffffffffffffffffffffffffffffffffffff16815260200190815260200160002060008473ffffffffffffffffffffffffffffffffffffffff1673ffffffffffffffffffffffffffffffffffffffff16815260200190815260200160002060006101000a81548160ff0219169083151502179055508173ffffffffffffffffffffffffffffffffffffffff168373ffffffffffffffffffffffffffffffffffffffff167f17307eab39ab6107e8899845ad3d59bd9653f200f220920489ca2b5937696c31836040516116a491906124e9565b60405180910390a3505050565b6001816000016000828254019250508190555050565b600081600001549050919050565b6116ef82826040518060200160405280600081525061191d565b5050565b6116fe848484611217565b61170a84848484611978565b611749576040517f08c379a00000000000000000000000000000000000000000000000000000000081526004016117409061254a565b60405180910390fd5b50505050565b606060405180602001604052806000815250905090565b606060008214156117ae576040518060400160405280600181526020017f3000000000000000000000000000000000000000000000000000000000000000815250905061190e565b600082905060005b600082146117e05780806117c9906129d2565b915050600a826117d99190612854565b91506117b6565b60008167ffffffffffffffff811115611822577f4e487b7100000000000000000000000000000000000000000000000000000000600052604160045260246000fd5b6040519080825280601f01601f1916602001820160405280156118545781602001600182028036833780820191505090505b5090505b600085146119075760018261186d9190612885565b9150600a8561187c9190612a1b565b603061188891906127fe565b60f81b8183815181106118c4577f4e487b7100000000000000000000000000000000000000000000000000000000600052603260045260246000fd5b60200101907effffffffffffffffffffffffffffffffffffffffffffffffffffffffffffff1916908160001a905350600a856119009190612854565b9450611858565b8093505050505b919050565b505050565b505050565b6119278383611b0f565b6119346000848484611978565b611973576040517f08c379a000000000000000000000000000000000000000000000000000000000815260040161196a9061254a565b60405180910390fd5b505050565b60006119998473ffffffffffffffffffffffffffffffffffffffff16611ce9565b15611b02578373ffffffffffffffffffffffffffffffffffffffff1663150b7a026119c2611078565b8786866040518563ffffffff1660e01b81526004016119e4949392919061249d565b602060405180830381600087803b1580156119fe57600080fd5b505af1925050508015611a2f57506040513d601f19601f82011682018060405250810190611a2c919061209a565b60015b611ab2573d8060008114611a5f576040519150601f19603f3d011682016040523d82523d6000602084013e611a64565b606091505b50600081511415611aaa576040517f08c379a0000000000000000000000000000000000000000000000000000000008152600401611aa19061254a565b60405180910390fd5b805181602001fd5b63150b7a0260e01b7bffffffffffffffffffffffffffffffffffffffffffffffffffffffff1916817bffffffffffffffffffffffffffffffffffffffffffffffffffffffff191614915050611b07565b600190505b949350505050565b600073ffffffffffffffffffffffffffffffffffffffff168273ffffffffffffffffffffffffffffffffffffffff161415611b7f576040517f08c379a0000000000000000000000000000000000000000000000000000000008152600401611b769061268a565b60405180910390fd5b611b888161100c565b15611bc8576040517f08c379a0000000000000000000000000000000000000000000000000000000008152600401611bbf906125aa565b60405180910390fd5b611bd460008383611913565b6001600360008473ffffffffffffffffffffffffffffffffffffffff1673ffffffffffffffffffffffffffffffffffffffff1681526020019081526020016000206000828254611c2491906127fe565b92505081905550816002600083815260200190815260200160002060006101000a81548173ffffffffffffffffffffffffffffffffffffffff021916908373ffffffffffffffffffffffffffffffffffffffff160217905550808273ffffffffffffffffffffffffffffffffffffffff16600073ffffffffffffffffffffffffffffffffffffffff167fddf252ad1be2c89b69c2b068fc378daa952ba7f163c4a11628f55a4df523b3ef60405160405180910390a4611ce560008383611918565b5050565b6000808273ffffffffffffffffffffffffffffffffffffffff163b119050919050565b828054611d189061296f565b90600052602060002090601f016020900481019282611d3a5760008555611d81565b82601f10611d5357803560ff1916838001178555611d81565b82800160010185558215611d81579182015b82811115611d80578235825591602001919060010190611d65565b5b509050611d8e9190611d92565b5090565b5b80821115611dab576000816000905550600101611d93565b5090565b6000611dc2611dbd8461278a565b612765565b905082815260208101848484011115611dda57600080fd5b611de584828561292d565b509392505050565b600081359050611dfc81612f71565b92915050565b600081359050611e1181612f88565b92915050565b600081359050611e2681612f9f565b92915050565b600081519050611e3b81612f9f565b92915050565b600082601f830112611e5257600080fd5b8135611e62848260208601611daf565b91505092915050565b60008083601f840112611e7d57600080fd5b8235905067ffffffffffffffff811115611e9657600080fd5b602083019150836001820283011115611eae57600080fd5b9250929050565b600081359050611ec481612fb6565b92915050565b600060208284031215611edc57600080fd5b6000611eea84828501611ded565b91505092915050565b60008060408385031215611f0657600080fd5b6000611f1485828601611ded565b9250506020611f2585828601611ded565b9150509250929050565b600080600060608486031215611f4457600080fd5b6000611f5286828701611ded565b9350506020611f6386828701611ded565b9250506040611f7486828701611eb5565b9150509250925092565b60008060008060808587031215611f9457600080fd5b6000611fa287828801611ded565b9450506020611fb387828801611ded565b9350506040611fc487828801611eb5565b925050606085013567ffffffffffffffff811115611fe157600080fd5b611fed87828801611e41565b91505092959194509250565b6000806040838503121561200c57600080fd5b600061201a85828601611ded565b925050602061202b85828601611e02565b9150509250929050565b6000806040838503121561204857600080fd5b600061205685828601611ded565b925050602061206785828601611eb5565b9150509250929050565b60006020828403121561208357600080fd5b600061209184828501611e17565b91505092915050565b6000602082840312156120ac57600080fd5b60006120ba84828501611e2c565b91505092915050565b600080602083850312156120d657600080fd5b600083013567ffffffffffffffff8111156120f057600080fd5b6120fc85828601611e6b565b92509250509250929050565b60006020828403121561211a57600080fd5b600061212884828501611eb5565b91505092915050565b61213a816128b9565b82525050565b612149816128cb565b82525050565b600061215a826127bb565b61216481856127d1565b935061217481856020860161293c565b61217d81612b08565b840191505092915050565b600061219483856127e2565b93506121a183858461292d565b6121aa83612b08565b840190509392505050565b60006121c0826127c6565b6121ca81856127e2565b93506121da81856020860161293c565b6121e381612b08565b840191505092915050565b60006121f9826127c6565b61220381856127f3565b935061221381856020860161293c565b80840191505092915050565b600061222c6032836127e2565b915061223782612b19565b604082019050919050565b600061224f6026836127e2565b915061225a82612b68565b604082019050919050565b60006122726025836127e2565b915061227d82612bb7565b604082019050919050565b6000612295601c836127e2565b91506122a082612c06565b602082019050919050565b60006122b86024836127e2565b91506122c382612c2f565b604082019050919050565b60006122db6019836127e2565b91506122e682612c7e565b602082019050919050565b60006122fe602c836127e2565b915061230982612ca7565b604082019050919050565b60006123216038836127e2565b915061232c82612cf6565b604082019050919050565b6000612344602a836127e2565b915061234f82612d45565b604082019050919050565b60006123676029836127e2565b915061237282612d94565b604082019050919050565b600061238a6020836127e2565b915061239582612de3565b602082019050919050565b60006123ad602c836127e2565b91506123b882612e0c565b604082019050919050565b60006123d06020836127e2565b91506123db82612e5b565b602082019050919050565b60006123f3602f836127e2565b91506123fe82612e84565b604082019050919050565b60006124166021836127e2565b915061242182612ed3565b604082019050919050565b60006124396031836127e2565b915061244482612f22565b604082019050919050565b61245881612923565b82525050565b600061246a82856121ee565b915061247682846121ee565b91508190509392505050565b60006020820190506124976000830184612131565b92915050565b60006080820190506124b26000830187612131565b6124bf6020830186612131565b6124cc604083018561244f565b81810360608301526124de818461214f565b905095945050505050565b60006020820190506124fe6000830184612140565b92915050565b6000602082019050818103600083015261251f818486612188565b90509392505050565b6000602082019050818103600083015261254281846121b5565b905092915050565b600060208201905081810360008301526125638161221f565b9050919050565b6000602082019050818103600083015261258381612242565b9050919050565b600060208201905081810360008301526125a381612265565b9050919050565b600060208201905081810360008301526125c381612288565b9050919050565b600060208201905081810360008301526125e3816122ab565b9050919050565b60006020820190508181036000830152612603816122ce565b9050919050565b60006020820190508181036000830152612623816122f1565b9050919050565b6000602082019050818103600083015261264381612314565b9050919050565b6000602082019050818103600083015261266381612337565b9050919050565b600060208201905081810360008301526126838161235a565b9050919050565b600060208201905081810360008301526126a38161237d565b9050919050565b600060208201905081810360008301526126c3816123a0565b9050919050565b600060208201905081810360008301526126e3816123c3565b9050919050565b60006020820190508181036000830152612703816123e6565b9050919050565b6000602082019050818103600083015261272381612409565b9050919050565b600060208201905081810360008301526127438161242c565b9050919050565b600060208201905061275f600083018461244f565b92915050565b600061276f612780565b905061277b82826129a1565b919050565b6000604051905090565b600067ffffffffffffffff8211156127a5576127a4612ad9565b5b6127ae82612b08565b9050602081019050919050565b600081519050919050565b600081519050919050565b600082825260208201905092915050565b600082825260208201905092915050565b600081905092915050565b600061280982612923565b915061281483612923565b9250827fffffffffffffffffffffffffffffffffffffffffffffffffffffffffffffffff0382111561284957612848612a4c565b5b828201905092915050565b600061285f82612923565b915061286a83612923565b92508261287a57612879612a7b565b5b828204905092915050565b600061289082612923565b915061289b83612923565b9250828210156128ae576128ad612a4c565b5b828203905092915050565b60006128c482612903565b9050919050565b60008115159050919050565b60007fffffffff0000000000000000000000000000000000000000000000000000000082169050919050565b600073ffffffffffffffffffffffffffffffffffffffff82169050919050565b6000819050919050565b82818337600083830152505050565b60005b8381101561295a57808201518184015260208101905061293f565b83811115612969576000848401525b50505050565b6000600282049050600182168061298757607f821691505b6020821081141561299b5761299a612aaa565b5b50919050565b6129aa82612b08565b810181811067ffffffffffffffff821117156129c9576129c8612ad9565b5b80604052505050565b60006129dd82612923565b91507fffffffffffffffffffffffffffffffffffffffffffffffffffffffffffffffff821415612a1057612a0f612a4c565b5b600182019050919050565b6000612a2682612923565b9150612a3183612923565b925082612a4157612a40612a7b565b5b828206905092915050565b7f4e487b7100000000000000000000000000000000000000000000000000000000600052601160045260246000fd5b7f4e487b7100000000000000000000000000000000000000000000000000000000600052601260045260246000fd5b7f4e487b7100000000000000000000000000000000000000000000000000000000600052602260045260246000fd5b7f4e487b7100000000000000000000000000000000000000000000000000000000600052604160045260246000fd5b6000601f19601f8301169050919050565b7f4552433732313a207472616e7366657220746f206e6f6e20455243373231526560008201527f63656976657220696d706c656d656e7465720000000000000000000000000000602082015250565b7f4f776e61626c653a206e6577206f776e657220697320746865207a65726f206160008201527f6464726573730000000000000000000000000000000000000000000000000000602082015250565b7f4552433732313a207472616e736665722066726f6d20696e636f72726563742060008201527f6f776e6572000000000000000000000000000000000000000000000000000000602082015250565b7f4552433732313a20746f6b656e20616c7265616479206d696e74656400000000600082015250565b7f4552433732313a207472616e7366657220746f20746865207a65726f2061646460008201527f7265737300000000000000000000000000000000000000000000000000000000602082015250565b7f4552433732313a20617070726f766520746f2063616c6c657200000000000000600082015250565b7f4552433732313a206f70657261746f7220717565727920666f72206e6f6e657860008201527f697374656e7420746f6b656e0000000000000000000000000000000000000000602082015250565b7f4552433732313a20617070726f76652063616c6c6572206973206e6f74206f7760008201527f6e6572206e6f7220617070726f76656420666f7220616c6c0000000000000000602082015250565b7f4552433732313a2062616c616e636520717565727920666f7220746865207a6560008201527f726f206164647265737300000000000000000000000000000000000000000000602082015250565b7f4552433732313a206f776e657220717565727920666f72206e6f6e657869737460008201527f656e7420746f6b656e0000000000000000000000000000000000000000000000602082015250565b7f4552433732313a206d696e7420746f20746865207a65726f2061646472657373600082015250565b7f4552433732313a20617070726f76656420717565727920666f72206e6f6e657860008201527f697374656e7420746f6b656e0000000000000000000000000000000000000000602082015250565b7f4f776e61626c653a2063616c6c6572206973206e6f7420746865206f776e6572600082015250565b7f4552433732314d657461646174613a2055524920717565727920666f72206e6f60008201527f6e6578697374656e7420746f6b656e0000000000000000000000000000000000602082015250565b7f4552433732313a20617070726f76616c20746f2063757272656e74206f776e6560008201527f7200000000000000000000000000000000000000000000000000000000000000602082015250565b7f4552433732313a207472616e736665722063616c6c6572206973206e6f74206f60008201527f776e6572206e6f7220617070726f766564000000000000000000000000000000602082015250565b612f7a816128b9565b8114612f8557600080fd5b50565b612f91816128cb565b8114612f9c57600080fd5b50565b612fa8816128d7565b8114612fb357600080fd5b50565b612fbf81612923565b8114612fca57600080fd5b5056fea26469706673582212205452c6336eb634c7a2bab58c38674facd8a3ec299a11b9e0f22c3e7c79ecb70d64736f6c63430008010033",
  "immutableReferences": {},
  "source": "// contracts/GameItem.sol\n// SPDX-License-Identifier: MIT\npragma solidity >=0.8.0;\n\nimport \"@openzeppelin/contracts/token/ERC721/ERC721.sol\";\nimport \"@openzeppelin/contracts/utils/Counters.sol\";\nimport \"@openzeppelin/contracts/access/Ownable.sol\";\n\ncontract Sample is ERC721, Ownable {\n    using Counters for Counters.Counter;\n    Counters.Counter private _tokenIds;\n\n    // Fields\n    string public displayName = \"Sampled PolyEcho NFT\";\n    string public companyName = \"PolyEcho\";\n    address[] public contributors;\n\n    // Events\n    event NameUpdated(string name);\n    event TokenCreated(string tokenURI);\n\n    constructor() ERC721(\"PolyEchoSample\", \"PES\") {}\n\n    function updateName(string calldata _name) external onlyOwner {\n        displayName = _name;\n        emit NameUpdated(_name);\n    }\n\n    function buySample(address _buyer) public returns (string memory) {\n        // TODO: attach all the contributors to this token prior to mint?\n\n        // Increament the counter to ensure uniqueness (Chainline VRF?)\n        _tokenIds.increment();\n        uint256 newSampleId = _tokenIds.current();\n\n        // Mint and transfer to buyer\n        _safeMint(_buyer, newSampleId);\n\n        // Update the tokenUri and emit event\n        string memory newSampleURI = tokenURI(newSampleId);\n        emit TokenCreated(newSampleURI);\n\n        // Return the new URI\n        return newSampleURI;\n    }\n}\n",
  "sourcePath": "/Users/shaula/Library/Mobile Documents/com~apple~CloudDocs/repos/ethden-hack-web/web3/contracts/Sample.sol",
  "compiler": {
    "name": "solc",
    "version": "0.8.1+commit.df193b15.Emscripten.clang"
  },
  "schemaVersion": "3.4.3",
  "updatedAt": "2022-02-20T01:55:23.889Z",
  "networkType": "ethereum",
  "devdoc": {
    "kind": "dev",
    "methods": {
      "approve(address,uint256)": {
        "details": "See {IERC721-approve}."
      },
      "balanceOf(address)": {
        "details": "See {IERC721-balanceOf}."
      },
      "getApproved(uint256)": {
        "details": "See {IERC721-getApproved}."
      },
      "isApprovedForAll(address,address)": {
        "details": "See {IERC721-isApprovedForAll}."
      },
      "name()": {
        "details": "See {IERC721Metadata-name}."
      },
      "owner()": {
        "details": "Returns the address of the current owner."
      },
      "ownerOf(uint256)": {
        "details": "See {IERC721-ownerOf}."
      },
      "renounceOwnership()": {
        "details": "Leaves the contract without owner. It will not be possible to call `onlyOwner` functions anymore. Can only be called by the current owner. NOTE: Renouncing ownership will leave the contract without an owner, thereby removing any functionality that is only available to the owner."
      },
      "safeTransferFrom(address,address,uint256)": {
        "details": "See {IERC721-safeTransferFrom}."
      },
      "safeTransferFrom(address,address,uint256,bytes)": {
        "details": "See {IERC721-safeTransferFrom}."
      },
      "setApprovalForAll(address,bool)": {
        "details": "See {IERC721-setApprovalForAll}."
      },
      "supportsInterface(bytes4)": {
        "details": "See {IERC165-supportsInterface}."
      },
      "symbol()": {
        "details": "See {IERC721Metadata-symbol}."
      },
      "tokenURI(uint256)": {
        "details": "See {IERC721Metadata-tokenURI}."
      },
      "transferFrom(address,address,uint256)": {
        "details": "See {IERC721-transferFrom}."
      },
      "transferOwnership(address)": {
        "details": "Transfers ownership of the contract to a new account (`newOwner`). Can only be called by the current owner."
      }
    },
    "version": 1
  },
  "userdoc": {
    "kind": "user",
    "methods": {},
    "version": 1
  }
}