{
  "contractName": "StemQueue",
  "abi": [
    {
      "inputs": [
        {
          "internalType": "uint256",
          "name": "_voters",
          "type": "uint256"
        },
        {
          "internalType": "address",
          "name": "_verifier",
          "type": "address"
        }
      ],
      "stateMutability": "nonpayable",
      "type": "constructor"
    },
    {
      "anonymous": false,
      "inputs": [
        {
          "indexed": false,
          "internalType": "bytes32",
          "name": "vote",
          "type": "bytes32"
        }
      ],
      "name": "NewVote",
      "type": "event"
    },
    {
      "anonymous": false,
      "inputs": [
        {
          "indexed": false,
          "internalType": "uint256",
          "name": "nullifierHash",
          "type": "uint256"
        }
      ],
      "name": "NullifierHashAdded",
      "type": "event"
    },
    {
      "anonymous": false,
      "inputs": [
        {
          "indexed": true,
          "internalType": "address",
          "name": "previousOwner",
          "type": "address"
        },
        {
          "indexed": true,
          "internalType": "address",
          "name": "newOwner",
          "type": "address"
        }
      ],
      "name": "OwnershipTransferred",
      "type": "event"
    },
    {
      "inputs": [],
      "name": "owner",
      "outputs": [
        {
          "internalType": "address",
          "name": "",
          "type": "address"
        }
      ],
      "stateMutability": "view",
      "type": "function"
    },
    {
      "inputs": [],
      "name": "renounceOwnership",
      "outputs": [],
      "stateMutability": "nonpayable",
      "type": "function"
    },
    {
      "inputs": [
        {
          "internalType": "address",
          "name": "newOwner",
          "type": "address"
        }
      ],
      "name": "transferOwnership",
      "outputs": [],
      "stateMutability": "nonpayable",
      "type": "function"
    },
    {
      "inputs": [],
      "name": "verifier",
      "outputs": [
        {
          "internalType": "contract IVerifier",
          "name": "",
          "type": "address"
        }
      ],
      "stateMutability": "view",
      "type": "function"
    },
    {
      "inputs": [],
      "name": "voters",
      "outputs": [
        {
          "internalType": "uint256",
          "name": "",
          "type": "uint256"
        }
      ],
      "stateMutability": "view",
      "type": "function"
    },
    {
      "inputs": [
        {
          "internalType": "bytes32",
          "name": "_vote",
          "type": "bytes32"
        },
        {
          "internalType": "uint256",
          "name": "_nullifierHash",
          "type": "uint256"
        },
        {
          "internalType": "uint256[8]",
          "name": "_proof",
          "type": "uint256[8]"
        }
      ],
      "name": "vote",
      "outputs": [],
      "stateMutability": "nonpayable",
      "type": "function"
    }
  ],
  "bytecode": "0x60806040523480156200001157600080fd5b5060405162001174380380620011748339818101604052810190620000379190620001a3565b620000576200004b620000a760201b60201c565b620000af60201b60201c565b8160028190555080600360006101000a81548173ffffffffffffffffffffffffffffffffffffffff021916908373ffffffffffffffffffffffffffffffffffffffff160217905550505062000256565b600033905090565b6000600160009054906101000a900473ffffffffffffffffffffffffffffffffffffffff16905081600160006101000a81548173ffffffffffffffffffffffffffffffffffffffff021916908373ffffffffffffffffffffffffffffffffffffffff1602179055508173ffffffffffffffffffffffffffffffffffffffff168173ffffffffffffffffffffffffffffffffffffffff167f8be0079c531659141344cd1fd0a4f28419497f9722a3daafe3b4186f6b6457e060405160405180910390a35050565b600081519050620001868162000222565b92915050565b6000815190506200019d816200023c565b92915050565b60008060408385031215620001b757600080fd5b6000620001c7858286016200018c565b9250506020620001da8582860162000175565b9150509250929050565b6000620001f182620001f8565b9050919050565b600073ffffffffffffffffffffffffffffffffffffffff82169050919050565b6000819050919050565b6200022d81620001e4565b81146200023957600080fd5b50565b620002478162000218565b81146200025357600080fd5b50565b610f0e80620002666000396000f3fe608060405234801561001057600080fd5b50600436106100625760003560e01c80632b7ac3f314610067578063350580ea14610085578063715018a6146100a35780638da5cb5b146100ad578063ae31d856146100cb578063f2fde38b146100e7575b600080fd5b61006f610103565b60405161007c9190610c1f565b60405180910390f35b61008d610129565b60405161009a9190610c9a565b60405180910390f35b6100ab61012f565b005b6100b56101b7565b6040516100c29190610ba2565b60405180910390f35b6100e560048036038101906100e091906108e0565b6101e1565b005b61010160048036038101906100fc91906108b7565b6102d6565b005b600360009054906101000a900473ffffffffffffffffffffffffffffffffffffffff1681565b60025481565b6101376103ce565b73ffffffffffffffffffffffffffffffffffffffff166101556101b7565b73ffffffffffffffffffffffffffffffffffffffff16146101ab576040517f08c379a00000000000000000000000000000000000000000000000000000000081526004016101a290610c7a565b60405180910390fd5b6101b560006103d6565b565b6000600160009054906101000a900473ffffffffffffffffffffffffffffffffffffffff16905090565b6101e96103ce565b73ffffffffffffffffffffffffffffffffffffffff166102076101b7565b73ffffffffffffffffffffffffffffffffffffffff161461025d576040517f08c379a000000000000000000000000000000000000000000000000000000000815260040161025490610c7a565b60405180910390fd5b610291836002548460025485600360009054906101000a900473ffffffffffffffffffffffffffffffffffffffff1661049c565b61029a826107f5565b7fd11f40af0b3c54462335a335e34a81d6d23dfd5e837d93907231333fab114649836040516102c99190610c04565b60405180910390a1505050565b6102de6103ce565b73ffffffffffffffffffffffffffffffffffffffff166102fc6101b7565b73ffffffffffffffffffffffffffffffffffffffff1614610352576040517f08c379a000000000000000000000000000000000000000000000000000000000815260040161034990610c7a565b60405180910390fd5b600073ffffffffffffffffffffffffffffffffffffffff168173ffffffffffffffffffffffffffffffffffffffff1614156103c2576040517f08c379a00000000000000000000000000000000000000000000000000000000081526004016103b990610c5a565b60405180910390fd5b6103cb816103d6565b50565b600033905090565b6000600160009054906101000a900473ffffffffffffffffffffffffffffffffffffffff16905081600160006101000a81548173ffffffffffffffffffffffffffffffffffffffff021916908373ffffffffffffffffffffffffffffffffffffffff1602179055508173ffffffffffffffffffffffffffffffffffffffff168173ffffffffffffffffffffffffffffffffffffffff167f8be0079c531659141344cd1fd0a4f28419497f9722a3daafe3b4186f6b6457e060405160405180910390a35050565b60008085815260200190815260200160002060009054906101000a900460ff16156104fc576040517f08c379a00000000000000000000000000000000000000000000000000000000081526004016104f390610c3a565b60405180910390fd5b600061050787610823565b90508173ffffffffffffffffffffffffffffffffffffffff16635fe8c13b60405180604001604052808660006008811061056a577f4e487b7100000000000000000000000000000000000000000000000000000000600052603260045260246000fd5b60200201358152602001866001600881106105ae577f4e487b7100000000000000000000000000000000000000000000000000000000600052603260045260246000fd5b60200201358152506040518060400160405280604051806040016040528089600260088110610606577f4e487b7100000000000000000000000000000000000000000000000000000000600052603260045260246000fd5b602002013581526020018960036008811061064a577f4e487b7100000000000000000000000000000000000000000000000000000000600052603260045260246000fd5b6020020135815250815260200160405180604001604052808960046008811061069c577f4e487b7100000000000000000000000000000000000000000000000000000000600052603260045260246000fd5b60200201358152602001896005600881106106e0577f4e487b7100000000000000000000000000000000000000000000000000000000600052603260045260246000fd5b6020020135815250815250604051806040016040528088600660088110610730577f4e487b7100000000000000000000000000000000000000000000000000000000600052603260045260246000fd5b6020020135815260200188600760088110610774577f4e487b7100000000000000000000000000000000000000000000000000000000600052603260045260246000fd5b602002013581525060405180608001604052808c81526020018b81526020018781526020018a8152506040518563ffffffff1660e01b81526004016107bc9493929190610bbd565b60006040518083038186803b1580156107d457600080fd5b505afa1580156107e8573d6000803e3d6000fd5b5050505050505050505050565b600160008083815260200190815260200160002060006101000a81548160ff02191690831515021790555050565b60006008826040516020016108389190610b87565b6040516020818303038152906040528051906020012060001c901c9050919050565b60008135905061086981610e93565b92915050565b60008190508260206008028201111561088757600080fd5b92915050565b60008135905061089c81610eaa565b92915050565b6000813590506108b181610ec1565b92915050565b6000602082840312156108c957600080fd5b60006108d78482850161085a565b91505092915050565b600080600061014084860312156108f657600080fd5b60006109048682870161088d565b9350506020610915868287016108a2565b92505060406109268682870161086f565b9150509250925092565b600061093c83836109c6565b60408301905092915050565b60006109548383610b69565b60208301905092915050565b61096981610d58565b82525050565b61097881610cd3565b6109828184610d1b565b925061098d82610cb5565b8060005b838110156109be5781516109a58782610930565b96506109b083610cf4565b925050600181019050610991565b505050505050565b6109cf81610cde565b6109d98184610d26565b92506109e482610cbf565b8060005b83811015610a155781516109fc8782610948565b9650610a0783610d01565b9250506001810190506109e8565b505050505050565b610a2681610cde565b610a308184610d31565b9250610a3b82610cbf565b8060005b83811015610a6c578151610a538782610948565b9650610a5e83610d01565b925050600181019050610a3f565b505050505050565b610a7d81610ce9565b610a878184610d3c565b9250610a9282610cc9565b8060005b83811015610ac3578151610aaa8782610948565b9650610ab583610d0e565b925050600181019050610a96565b505050505050565b610ad481610d6a565b82525050565b610aeb610ae682610d6a565b610dc2565b82525050565b610afa81610d9e565b82525050565b6000610b0d603683610d47565b9150610b1882610dcc565b604082019050919050565b6000610b30602683610d47565b9150610b3b82610e1b565b604082019050919050565b6000610b53602083610d47565b9150610b5e82610e6a565b602082019050919050565b610b7281610d94565b82525050565b610b8181610d94565b82525050565b6000610b938284610ada565b60208201915081905092915050565b6000602082019050610bb76000830184610960565b92915050565b600061018082019050610bd36000830187610a1d565b610be0604083018661096f565b610bed60c0830185610a1d565b610bfb610100830184610a74565b95945050505050565b6000602082019050610c196000830184610acb565b92915050565b6000602082019050610c346000830184610af1565b92915050565b60006020820190508181036000830152610c5381610b00565b9050919050565b60006020820190508181036000830152610c7381610b23565b9050919050565b60006020820190508181036000830152610c9381610b46565b9050919050565b6000602082019050610caf6000830184610b78565b92915050565b6000819050919050565b6000819050919050565b6000819050919050565b600060029050919050565b600060029050919050565b600060049050919050565b6000602082019050919050565b6000602082019050919050565b6000602082019050919050565b600081905092915050565b600081905092915050565b600081905092915050565b600081905092915050565b600082825260208201905092915050565b6000610d6382610d74565b9050919050565b6000819050919050565b600073ffffffffffffffffffffffffffffffffffffffff82169050919050565b6000819050919050565b6000610da982610db0565b9050919050565b6000610dbb82610d74565b9050919050565b6000819050919050565b7f53656d6170686f7265436f72653a20796f752063616e6e6f742075736520746860008201527f652073616d65206e756c6c696669657220747769636500000000000000000000602082015250565b7f4f776e61626c653a206e6577206f776e657220697320746865207a65726f206160008201527f6464726573730000000000000000000000000000000000000000000000000000602082015250565b7f4f776e61626c653a2063616c6c6572206973206e6f7420746865206f776e6572600082015250565b610e9c81610d58565b8114610ea757600080fd5b50565b610eb381610d6a565b8114610ebe57600080fd5b50565b610eca81610d94565b8114610ed557600080fd5b5056fea2646970667358221220cc042c5c0ee29159c4bdd9b4de912f78305ac7ff2c21a09c8523acb40281e65f64736f6c63430008040033",
  "immutableReferences": {},
  "source": "//SPDX-License-Identifier: MIT\npragma solidity >=0.8.0;\n\nimport \"@semaphore-protocol/contracts/interfaces/IVerifier.sol\";\nimport \"@semaphore-protocol/contracts/base/SemaphoreCore.sol\";\nimport \"@openzeppelin/contracts/access/Ownable.sol\";\n\n/// @title StemQueue contract.\n/// @dev The following code is just a example to show how Semaphore con be used.\n/// @dev StemQueue holds the votes around the stems within each project's stem queue\ncontract StemQueue is SemaphoreCore, Ownable {\n    // A new vote is published every time a user's proof is validated.\n    event NewVote(bytes32 vote);\n\n    // Voters are identified by a Merkle root.\n    // The offchain Merkle tree contains the voters' identity commitments.\n    uint256 public voters;\n\n    // The external verifier used to verify Semaphore proofs.\n    IVerifier public verifier;\n\n    constructor(uint256 _voters, address _verifier) {\n        voters = _voters;\n        verifier = IVerifier(_verifier);\n    }\n\n    // Only users who create valid proofs can vote.\n    // The contract owner must only send the transaction and they will not know anything about the identity of the voters.\n    // The external nullifier is in this example the root of the Merkle tree.\n    function vote(\n        bytes32 _vote,\n        uint256 _nullifierHash,\n        uint256[8] calldata _proof\n    ) external onlyOwner {\n        _verifyProof(_vote, voters, _nullifierHash, voters, _proof, verifier);\n\n        // Prevent double-voting (nullifierHash = hash(root + identityNullifier)).\n        // Every user can vote once.\n        _saveNullifierHash(_nullifierHash);\n\n        emit NewVote(_vote);\n    }\n}\n\n\n// // TODO: this should be the proof generated from ZK\n// interface Proof {}\n\n// \t// TODO: this should extend another implementation, likely the SparseMerkleTree from zk-kit\n// contract MerkleTree {}\n\n\n// contract StemQueue {\n\n// \t// Mapping of project IDs to their Merkle trees which represent the state of stems in the queue and votes tallied against them\n//   mapping(uint256 => MerkleTree) projectStemQueues;\n\n// \tfunction castVote(Proof _validityProof, uint256 _projectId, uint256 _stemId, uint256 _userKey) internal returns (uint) {\n// \t\t// TODO: flesh this function out\n// \t\treturn 1;\n// \t}\n// }\n",
  "sourcePath": "/Users/shaula/Documents/repos/polyecho-web/web3/contracts/StemQueue.sol",
  "compiler": {
    "name": "solc",
    "version": "0.8.4+commit.c7e474f2.Emscripten.clang"
  },
  "schemaVersion": "3.4.7",
  "updatedAt": "2022-06-24T16:46:45.907Z",
  "devdoc": {
    "details": "The following code is just a example to show how Semaphore con be used.StemQueue holds the votes around the stems within each project's stem queue",
    "kind": "dev",
    "methods": {
      "owner()": {
        "details": "Returns the address of the current owner."
      },
      "renounceOwnership()": {
        "details": "Leaves the contract without owner. It will not be possible to call `onlyOwner` functions anymore. Can only be called by the current owner. NOTE: Renouncing ownership will leave the contract without an owner, thereby removing any functionality that is only available to the owner."
      },
      "transferOwnership(address)": {
        "details": "Transfers ownership of the contract to a new account (`newOwner`). Can only be called by the current owner."
      }
    },
    "title": "StemQueue contract.",
    "version": 1
  },
  "userdoc": {
    "events": {
      "NullifierHashAdded(uint256)": {
        "notice": "Emitted when a proof is verified correctly and a new nullifier hash is added."
      }
    },
    "kind": "user",
    "methods": {},
    "version": 1
  }
}