{
  "_format": "hh-sol-artifact-1",
  "contractName": "StemQueue",
  "sourceName": "contracts/StemQueue.sol",
  "abi": [
    {
      "inputs": [
        {
          "internalType": "uint256",
          "name": "_voters",
          "type": "uint256"
        },
        {
          "internalType": "address",
          "name": "_verifier",
          "type": "address"
        }
      ],
      "stateMutability": "nonpayable",
      "type": "constructor"
    },
    {
      "anonymous": false,
      "inputs": [
        {
          "indexed": true,
          "internalType": "uint256",
          "name": "groupId",
          "type": "uint256"
        },
        {
          "indexed": true,
          "internalType": "address",
          "name": "oldAdmin",
          "type": "address"
        },
        {
          "indexed": true,
          "internalType": "address",
          "name": "newAdmin",
          "type": "address"
        }
      ],
      "name": "GroupAdminUpdated",
      "type": "event"
    },
    {
      "anonymous": false,
      "inputs": [
        {
          "indexed": true,
          "internalType": "uint256",
          "name": "groupId",
          "type": "uint256"
        },
        {
          "indexed": false,
          "internalType": "uint8",
          "name": "depth",
          "type": "uint8"
        },
        {
          "indexed": false,
          "internalType": "uint256",
          "name": "zeroValue",
          "type": "uint256"
        }
      ],
      "name": "GroupCreated",
      "type": "event"
    },
    {
      "anonymous": false,
      "inputs": [
        {
          "indexed": true,
          "internalType": "uint256",
          "name": "groupId",
          "type": "uint256"
        },
        {
          "indexed": false,
          "internalType": "uint256",
          "name": "identityCommitment",
          "type": "uint256"
        },
        {
          "indexed": false,
          "internalType": "uint256",
          "name": "root",
          "type": "uint256"
        }
      ],
      "name": "MemberAdded",
      "type": "event"
    },
    {
      "anonymous": false,
      "inputs": [
        {
          "indexed": true,
          "internalType": "uint256",
          "name": "groupId",
          "type": "uint256"
        },
        {
          "indexed": false,
          "internalType": "uint256",
          "name": "identityCommitment",
          "type": "uint256"
        },
        {
          "indexed": false,
          "internalType": "uint256",
          "name": "root",
          "type": "uint256"
        }
      ],
      "name": "MemberRemoved",
      "type": "event"
    },
    {
      "anonymous": false,
      "inputs": [
        {
          "indexed": false,
          "internalType": "bytes32",
          "name": "vote",
          "type": "bytes32"
        }
      ],
      "name": "NewVote",
      "type": "event"
    },
    {
      "anonymous": false,
      "inputs": [
        {
          "indexed": false,
          "internalType": "uint256",
          "name": "nullifierHash",
          "type": "uint256"
        }
      ],
      "name": "NullifierHashAdded",
      "type": "event"
    },
    {
      "inputs": [
        {
          "internalType": "uint256",
          "name": "groupId",
          "type": "uint256"
        },
        {
          "internalType": "uint256",
          "name": "identityCommitment",
          "type": "uint256"
        }
      ],
      "name": "addMemberToProjectGroup",
      "outputs": [],
      "stateMutability": "nonpayable",
      "type": "function"
    },
    {
      "inputs": [
        {
          "internalType": "uint256",
          "name": "groupId",
          "type": "uint256"
        },
        {
          "internalType": "uint8",
          "name": "depth",
          "type": "uint8"
        },
        {
          "internalType": "uint256",
          "name": "zeroValue",
          "type": "uint256"
        },
        {
          "internalType": "address",
          "name": "admin",
          "type": "address"
        }
      ],
      "name": "createProjectGroup",
      "outputs": [],
      "stateMutability": "nonpayable",
      "type": "function"
    },
    {
      "inputs": [
        {
          "internalType": "uint256",
          "name": "groupId",
          "type": "uint256"
        }
      ],
      "name": "getDepth",
      "outputs": [
        {
          "internalType": "uint8",
          "name": "",
          "type": "uint8"
        }
      ],
      "stateMutability": "view",
      "type": "function"
    },
    {
      "inputs": [
        {
          "internalType": "uint256",
          "name": "groupId",
          "type": "uint256"
        }
      ],
      "name": "getNumberOfLeaves",
      "outputs": [
        {
          "internalType": "uint256",
          "name": "",
          "type": "uint256"
        }
      ],
      "stateMutability": "view",
      "type": "function"
    },
    {
      "inputs": [
        {
          "internalType": "uint256",
          "name": "groupId",
          "type": "uint256"
        }
      ],
      "name": "getRoot",
      "outputs": [
        {
          "internalType": "uint256",
          "name": "",
          "type": "uint256"
        }
      ],
      "stateMutability": "view",
      "type": "function"
    },
    {
      "inputs": [
        {
          "internalType": "uint256",
          "name": "",
          "type": "uint256"
        }
      ],
      "name": "groupAdmins",
      "outputs": [
        {
          "internalType": "address",
          "name": "",
          "type": "address"
        }
      ],
      "stateMutability": "view",
      "type": "function"
    },
    {
      "inputs": [
        {
          "internalType": "uint256",
          "name": "groupId",
          "type": "uint256"
        },
        {
          "internalType": "uint256",
          "name": "identityCommitment",
          "type": "uint256"
        },
        {
          "internalType": "uint256[]",
          "name": "proofSiblings",
          "type": "uint256[]"
        },
        {
          "internalType": "uint8[]",
          "name": "proofPathIndices",
          "type": "uint8[]"
        }
      ],
      "name": "removeMemberFromProjectGroup",
      "outputs": [],
      "stateMutability": "nonpayable",
      "type": "function"
    },
    {
      "inputs": [
        {
          "internalType": "bytes32",
          "name": "",
          "type": "bytes32"
        }
      ],
      "name": "stemVoteCounts",
      "outputs": [
        {
          "internalType": "uint256",
          "name": "_value",
          "type": "uint256"
        }
      ],
      "stateMutability": "view",
      "type": "function"
    },
    {
      "inputs": [],
      "name": "verifier",
      "outputs": [
        {
          "internalType": "contract IVerifier",
          "name": "",
          "type": "address"
        }
      ],
      "stateMutability": "view",
      "type": "function"
    },
    {
      "inputs": [
        {
          "internalType": "bytes32",
          "name": "_vote",
          "type": "bytes32"
        },
        {
          "internalType": "uint256",
          "name": "groupId",
          "type": "uint256"
        },
        {
          "internalType": "uint256",
          "name": "externalNullifier",
          "type": "uint256"
        },
        {
          "internalType": "uint256",
          "name": "_nullifierHash",
          "type": "uint256"
        },
        {
          "internalType": "uint256[8]",
          "name": "_proof",
          "type": "uint256[8]"
        }
      ],
      "name": "vote",
      "outputs": [],
      "stateMutability": "nonpayable",
      "type": "function"
    },
    {
      "inputs": [],
      "name": "voters",
      "outputs": [
        {
          "internalType": "uint256",
          "name": "",
          "type": "uint256"
        }
      ],
      "stateMutability": "view",
      "type": "function"
    }
  ],
  "bytecode": "0x608060405234801561001057600080fd5b50604051610df6380380610df683398101604081905261002f91610059565b600391909155600480546001600160a01b0319166001600160a01b03909216919091179055610094565b6000806040838503121561006b578182fd5b825160208401519092506001600160a01b0381168114610089578182fd5b809150509250929050565b610d53806100a36000396000f3fe608060405234801561001057600080fd5b50600436106100a95760003560e01c806375e618c91161007157806375e618c9146101305780639b24b3b014610165578063a183e46d14610189578063ac28eacd1461019c578063b9c78c2b146101c5578063c65ea2e2146101e857600080fd5b806303511e75146100ae5780632b7ac3f3146100c3578063350580ea146100f35780636407b9cb1461010a57806364ce8d421461011d575b600080fd5b6100c16100bc366004610b50565b610208565b005b6004546100d6906001600160a01b031681565b6040516001600160a01b0390911681526020015b60405180910390f35b6100fc60035481565b6040519081526020016100ea565b6100c1610118366004610ad0565b610270565b6100c161012b366004610a5e565b610305565b61015361013e366004610a46565b60009081526001602052604090205460ff1690565b60405160ff90911681526020016100ea565b6100fc610173366004610a46565b6000908152600160208190526040909120015490565b6100c1610197366004610aaf565b6103a6565b6100d66101aa366004610a46565b6005602052600090815260409020546001600160a01b031681565b6100fc6101d3366004610a46565b60009081526001602052604090206002015490565b6100fc6101f6366004610a46565b60066020526000908152604090205481565b6102138484846103b4565b60008481526005602052604080822080546001600160a01b0319166001600160a01b038516908117909155905190919086907f0ba83579a0e79193ef649b9f5a8759d35af086ba62a3e207b52e4a8ae30d49e3908390a450505050565b60008681526005602052604090205486906001600160a01b031633146102ee5760405162461bcd60e51b815260206004820152602860248201527f53656d6170686f72653a2063616c6c6572206973206e6f74207468652067726f6044820152673ab81030b236b4b760c11b60648201526084015b60405180910390fd5b6102fc878787878787610576565b50505050505050565b6000848152600160208190526040909120015460045461033790879083908690889087906001600160a01b031661067e565b610356836000908152602081905260409020805460ff19166001179055565b6000868152600660205260409020805460010190556040518681527fd11f40af0b3c54462335a335e34a81d6d23dfd5e837d93907231333fab1146499060200160405180910390a1505050505050565b6103b082826108bb565b5050565b7f30644e72e131a029b85045b68181585d2833e84879b9709143e1f593f000000183106104425760405162461bcd60e51b815260206004820152603660248201527f53656d6170686f726547726f7570733a2067726f7570206964206d757374206260448201527519480f0814d3905492d7d4d0d053105497d19251531160521b60648201526084016102e5565b60008381526001602052604090205460ff16156104af5760405162461bcd60e51b815260206004820152602560248201527f53656d6170686f726547726f7570733a2067726f757020616c72656164792065604482015264786973747360d81b60648201526084016102e5565b60008381526001602052604090819020905163b4bdd11760e01b8152600481019190915260ff831660248201526044810182905273__$4c0484323457fe1a856f46a4759b553fe4$__9063b4bdd1179060640160006040518083038186803b15801561051a57600080fd5b505af415801561052e573d6000803e3d6000fd5b50506040805160ff86168152602081018590528693507fc3082aa494e9088c2c9f0fb62a0b6bd46e6699acb94cfba35be29b95a93f68c89250015b60405180910390a2505050565b60008681526001602052604090205460ff166105a45760405162461bcd60e51b81526004016102e590610c4f565b600086815260016020526040908190209051630629596f60e01b815273__$4c0484323457fe1a856f46a4759b553fe4$__91630629596f916105f3919089908990899089908990600401610c94565b60006040518083038186803b15801561060b57600080fd5b505af415801561061f573d6000803e3d6000fd5b505050600087815260016020819052604082200154909150604080518881526020810183905291925088917fe270325ded177064d7bda473e6519ef40a291058c41286f71a6e4872f1e9ab5c910160405180910390a250505050505050565b60008481526020819052604090205460ff16156106fc5760405162461bcd60e51b815260206004820152603660248201527f53656d6170686f7265436f72653a20796f752063616e6e6f7420757365207468604482015275652073616d65206e756c6c696669657220747769636560501b60648201526084016102e5565b6000610707876109af565b9050816001600160a01b0316635fe8c13b60405180604001604052808660006008811061074457634e487b7160e01b600052603260045260246000fd5b602002013581526020018660016008811061076f57634e487b7160e01b600052603260045260246000fd5b60200201359052604080516080810182528782013591810191825290819060608201896003602002013581525081526020016040518060400160405280896004600881106107cd57634e487b7160e01b600052603260045260246000fd5b60200201358152602001896005600881106107f857634e487b7160e01b600052603260045260246000fd5b6020020135905290526040805180820190915280886006602002013581526020018860076008811061083a57634e487b7160e01b600052603260045260246000fd5b602002013581525060405180608001604052808c81526020018b81526020018781526020018a8152506040518563ffffffff1660e01b81526004016108829493929190610bcb565b60006040518083038186803b15801561089a57600080fd5b505afa1580156108ae573d6000803e3d6000fd5b5050505050505050505050565b60008281526001602052604090205460ff166108e95760405162461bcd60e51b81526004016102e590610c4f565b600082815260016020526040908190209051630b4381fd60e11b815260048101919091526024810182905273__$4c0484323457fe1a856f46a4759b553fe4$__9063168703fa9060440160006040518083038186803b15801561094b57600080fd5b505af415801561095f573d6000803e3d6000fd5b505050600083815260016020818152604092839020909101548251858152918201819052925084917f03fd27265b7dd1f55558bedc22a58fa3b10afb1be776e614bd5a7ba7b94994069101610569565b60006008826040516020016109c691815260200190565b60408051601f198184030181529190528051602090910120901c92915050565b60008083601f8401126109f7578182fd5b50813567ffffffffffffffff811115610a0e578182fd5b6020830191508360208260051b8501011115610a2957600080fd5b9250929050565b803560ff81168114610a4157600080fd5b919050565b600060208284031215610a57578081fd5b5035919050565b6000806000806000610180808789031215610a77578182fd5b86359550602087013594506040870135935060608701359250878188011115610a9e578182fd5b506080860190509295509295909350565b60008060408385031215610ac1578182fd5b50508035926020909101359150565b60008060008060008060808789031215610ae8578081fd5b8635955060208701359450604087013567ffffffffffffffff80821115610b0d578283fd5b610b198a838b016109e6565b90965094506060890135915080821115610b31578283fd5b50610b3e89828a016109e6565b979a9699509497509295939492505050565b60008060008060808587031215610b65578384fd5b84359350610b7560208601610a30565b92506040850135915060608501356001600160a01b0381168114610b97578182fd5b939692955090935050565b8060005b6002811015610bc5578151845260209384019390910190600101610ba6565b50505050565b6101808101610bda8287610ba2565b60408083018660005b6002811015610c0a57610bf7838351610ba2565b9183019160209190910190600101610be3565b50505050610c1b60c0830185610ba2565b61010082018360005b6004811015610c43578151835260209283019290910190600101610c24565b50505095945050505050565b60208082526025908201527f53656d6170686f726547726f7570733a2067726f757020646f6573206e6f7420604082015264195e1a5cdd60da1b606082015260800190565b8681526000602087818401526080604084015285608084015260018060fb1b03861115610cbf578182fd5b8560051b808860a0860137830183810360a0908101606086015281018590528590839060c0015b86821015610d0e5760ff610cf984610a30565b16815291830191600191909101908301610ce6565b9b9a505050505050505050505056fea26469706673582212209b5eb2ac53c8b99faf14d9b0a72cddf10cf8386f7bb296557b47943511b4709b64736f6c63430008040033",
  "linkReferences": {
    "@zk-kit/incremental-merkle-tree.sol/contracts/IncrementalBinaryTree.sol": {
      "IncrementalBinaryTree": [
        {
          "length": 20,
          "start": 1416
        },
        {
          "length": 20,
          "start": 1637
        },
        {
          "length": 20,
          "start": 2489
        }
      ]
    }
  },
  "deployedLinkReferences": {
    "@zk-kit/incremental-merkle-tree.sol/contracts/IncrementalBinaryTree.sol": {
      "IncrementalBinaryTree": [
        {
          "length": 20,
          "start": 1253
        },
        {
          "length": 20,
          "start": 1474
        },
        {
          "length": 20,
          "start": 2326
        }
      ]
    }
  }
}