{
  "_format": "hh-sol-artifact-1",
  "contractName": "StemQueue",
  "sourceName": "contracts/StemQueue.sol",
  "abi": [
    {
      "inputs": [
        {
          "internalType": "uint256",
          "name": "_voters",
          "type": "uint256"
        },
        {
          "internalType": "address",
          "name": "_verifier",
          "type": "address"
        }
      ],
      "stateMutability": "nonpayable",
      "type": "constructor"
    },
    {
      "anonymous": false,
      "inputs": [
        {
          "indexed": true,
          "internalType": "uint256",
          "name": "groupId",
          "type": "uint256"
        },
        {
          "indexed": true,
          "internalType": "address",
          "name": "oldAdmin",
          "type": "address"
        },
        {
          "indexed": true,
          "internalType": "address",
          "name": "newAdmin",
          "type": "address"
        }
      ],
      "name": "GroupAdminUpdated",
      "type": "event"
    },
    {
      "anonymous": false,
      "inputs": [
        {
          "indexed": true,
          "internalType": "uint256",
          "name": "groupId",
          "type": "uint256"
        },
        {
          "indexed": false,
          "internalType": "uint8",
          "name": "depth",
          "type": "uint8"
        },
        {
          "indexed": false,
          "internalType": "uint256",
          "name": "zeroValue",
          "type": "uint256"
        }
      ],
      "name": "GroupCreated",
      "type": "event"
    },
    {
      "anonymous": false,
      "inputs": [
        {
          "indexed": true,
          "internalType": "uint256",
          "name": "groupId",
          "type": "uint256"
        },
        {
          "indexed": false,
          "internalType": "uint256",
          "name": "identityCommitment",
          "type": "uint256"
        },
        {
          "indexed": false,
          "internalType": "uint256",
          "name": "root",
          "type": "uint256"
        }
      ],
      "name": "MemberAdded",
      "type": "event"
    },
    {
      "anonymous": false,
      "inputs": [
        {
          "indexed": true,
          "internalType": "uint256",
          "name": "groupId",
          "type": "uint256"
        },
        {
          "indexed": false,
          "internalType": "uint256",
          "name": "identityCommitment",
          "type": "uint256"
        },
        {
          "indexed": false,
          "internalType": "uint256",
          "name": "root",
          "type": "uint256"
        }
      ],
      "name": "MemberRemoved",
      "type": "event"
    },
    {
      "anonymous": false,
      "inputs": [
        {
          "indexed": false,
          "internalType": "bytes32",
          "name": "vote",
          "type": "bytes32"
        }
      ],
      "name": "NewVote",
      "type": "event"
    },
    {
      "anonymous": false,
      "inputs": [
        {
          "indexed": false,
          "internalType": "uint256",
          "name": "nullifierHash",
          "type": "uint256"
        }
      ],
      "name": "NullifierHashAdded",
      "type": "event"
    },
    {
      "inputs": [
        {
          "internalType": "uint256",
          "name": "groupId",
          "type": "uint256"
        },
        {
          "internalType": "uint256",
          "name": "identityCommitment",
          "type": "uint256"
        }
      ],
      "name": "addMemberToProjectGroup",
      "outputs": [],
      "stateMutability": "nonpayable",
      "type": "function"
    },
    {
      "inputs": [
        {
          "internalType": "uint256",
          "name": "groupId",
          "type": "uint256"
        },
        {
          "internalType": "uint8",
          "name": "depth",
          "type": "uint8"
        },
        {
          "internalType": "uint256",
          "name": "zeroValue",
          "type": "uint256"
        },
        {
          "internalType": "address",
          "name": "admin",
          "type": "address"
        }
      ],
      "name": "createProjectGroup",
      "outputs": [],
      "stateMutability": "nonpayable",
      "type": "function"
    },
    {
      "inputs": [
        {
          "internalType": "uint256",
          "name": "groupId",
          "type": "uint256"
        }
      ],
      "name": "getDepth",
      "outputs": [
        {
          "internalType": "uint8",
          "name": "",
          "type": "uint8"
        }
      ],
      "stateMutability": "view",
      "type": "function"
    },
    {
      "inputs": [
        {
          "internalType": "uint256",
          "name": "groupId",
          "type": "uint256"
        }
      ],
      "name": "getNumberOfLeaves",
      "outputs": [
        {
          "internalType": "uint256",
          "name": "",
          "type": "uint256"
        }
      ],
      "stateMutability": "view",
      "type": "function"
    },
    {
      "inputs": [
        {
          "internalType": "uint256",
          "name": "groupId",
          "type": "uint256"
        }
      ],
      "name": "getRoot",
      "outputs": [
        {
          "internalType": "uint256",
          "name": "",
          "type": "uint256"
        }
      ],
      "stateMutability": "view",
      "type": "function"
    },
    {
      "inputs": [
        {
          "internalType": "uint256",
          "name": "",
          "type": "uint256"
        }
      ],
      "name": "groupAdmins",
      "outputs": [
        {
          "internalType": "address",
          "name": "",
          "type": "address"
        }
      ],
      "stateMutability": "view",
      "type": "function"
    },
    {
      "inputs": [
        {
          "internalType": "uint256",
          "name": "groupId",
          "type": "uint256"
        },
        {
          "internalType": "uint256",
          "name": "identityCommitment",
          "type": "uint256"
        },
        {
          "internalType": "uint256[]",
          "name": "proofSiblings",
          "type": "uint256[]"
        },
        {
          "internalType": "uint8[]",
          "name": "proofPathIndices",
          "type": "uint8[]"
        }
      ],
      "name": "removeMemberFromProjectGroup",
      "outputs": [],
      "stateMutability": "nonpayable",
      "type": "function"
    },
    {
      "inputs": [
        {
          "internalType": "bytes32",
          "name": "",
          "type": "bytes32"
        }
      ],
      "name": "stemVoteCounts",
      "outputs": [
        {
          "internalType": "uint256",
          "name": "_value",
          "type": "uint256"
        }
      ],
      "stateMutability": "view",
      "type": "function"
    },
    {
      "inputs": [],
      "name": "verifier",
      "outputs": [
        {
          "internalType": "contract IVerifier",
          "name": "",
          "type": "address"
        }
      ],
      "stateMutability": "view",
      "type": "function"
    },
    {
      "inputs": [
        {
          "internalType": "bytes32",
          "name": "_vote",
          "type": "bytes32"
        },
        {
          "internalType": "uint256",
          "name": "groupId",
          "type": "uint256"
        },
        {
          "internalType": "uint256",
          "name": "_nullifierHash",
          "type": "uint256"
        },
        {
          "internalType": "uint256[8]",
          "name": "_proof",
          "type": "uint256[8]"
        }
      ],
      "name": "vote",
      "outputs": [],
      "stateMutability": "nonpayable",
      "type": "function"
    },
    {
      "inputs": [],
      "name": "voters",
      "outputs": [
        {
          "internalType": "uint256",
          "name": "",
          "type": "uint256"
        }
      ],
      "stateMutability": "view",
      "type": "function"
    }
  ],
  "bytecode": "0x608060405234801561001057600080fd5b50604051610de9380380610de983398101604081905261002f91610059565b600391909155600480546001600160a01b0319166001600160a01b03909216919091179055610094565b6000806040838503121561006b578182fd5b825160208401519092506001600160a01b0381168114610089578182fd5b809150509250929050565b610d46806100a36000396000f3fe608060405234801561001057600080fd5b50600436106100a95760003560e01c80639b24b3b0116100715780639b24b3b014610152578063a183e46d14610176578063ac28eacd14610189578063b9c78c2b146101b2578063c65ea2e2146101d5578063f5f25c86146101f557600080fd5b806303511e75146100ae5780632b7ac3f3146100c3578063350580ea146100f35780636407b9cb1461010a57806375e618c91461011d575b600080fd5b6100c16100bc366004610b43565b610208565b005b6004546100d6906001600160a01b031681565b6040516001600160a01b0390911681526020015b60405180910390f35b6100fc60035481565b6040519081526020016100ea565b6100c1610118366004610ac3565b610270565b61014061012b366004610a45565b60009081526001602052604090205460ff1690565b60405160ff90911681526020016100ea565b6100fc610160366004610a45565b6000908152600160208190526040909120015490565b6100c1610184366004610aa2565b610305565b6100d6610197366004610a45565b6005602052600090815260409020546001600160a01b031681565b6100fc6101c0366004610a45565b60009081526001602052604090206002015490565b6100fc6101e3366004610a45565b60066020526000908152604090205481565b6100c1610203366004610a5d565b610313565b6102138484846103b3565b60008481526005602052604080822080546001600160a01b0319166001600160a01b038516908117909155905190919086907f0ba83579a0e79193ef649b9f5a8759d35af086ba62a3e207b52e4a8ae30d49e3908390a450505050565b60008681526005602052604090205486906001600160a01b031633146102ee5760405162461bcd60e51b815260206004820152602860248201527f53656d6170686f72653a2063616c6c6572206973206e6f74207468652067726f6044820152673ab81030b236b4b760c11b60648201526084015b60405180910390fd5b6102fc878787878787610575565b50505050505050565b61030f828261067d565b5050565b6000838152600160208190526040909120015460045461034590869083908690829087906001600160a01b0316610771565b610364836000908152602081905260409020805460ff19166001179055565b6000858152600660205260409020805460010190556040518581527fd11f40af0b3c54462335a335e34a81d6d23dfd5e837d93907231333fab1146499060200160405180910390a15050505050565b7f30644e72e131a029b85045b68181585d2833e84879b9709143e1f593f000000183106104415760405162461bcd60e51b815260206004820152603660248201527f53656d6170686f726547726f7570733a2067726f7570206964206d757374206260448201527519480f0814d3905492d7d4d0d053105497d19251531160521b60648201526084016102e5565b60008381526001602052604090205460ff16156104ae5760405162461bcd60e51b815260206004820152602560248201527f53656d6170686f726547726f7570733a2067726f757020616c72656164792065604482015264786973747360d81b60648201526084016102e5565b60008381526001602052604090819020905163b4bdd11760e01b8152600481019190915260ff831660248201526044810182905273__$4c0484323457fe1a856f46a4759b553fe4$__9063b4bdd1179060640160006040518083038186803b15801561051957600080fd5b505af415801561052d573d6000803e3d6000fd5b50506040805160ff86168152602081018590528693507fc3082aa494e9088c2c9f0fb62a0b6bd46e6699acb94cfba35be29b95a93f68c89250015b60405180910390a2505050565b60008681526001602052604090205460ff166105a35760405162461bcd60e51b81526004016102e590610c42565b600086815260016020526040908190209051630629596f60e01b815273__$4c0484323457fe1a856f46a4759b553fe4$__91630629596f916105f2919089908990899089908990600401610c87565b60006040518083038186803b15801561060a57600080fd5b505af415801561061e573d6000803e3d6000fd5b505050600087815260016020819052604082200154909150604080518881526020810183905291925088917fe270325ded177064d7bda473e6519ef40a291058c41286f71a6e4872f1e9ab5c910160405180910390a250505050505050565b60008281526001602052604090205460ff166106ab5760405162461bcd60e51b81526004016102e590610c42565b600082815260016020526040908190209051630b4381fd60e11b815260048101919091526024810182905273__$4c0484323457fe1a856f46a4759b553fe4$__9063168703fa9060440160006040518083038186803b15801561070d57600080fd5b505af4158015610721573d6000803e3d6000fd5b505050600083815260016020818152604092839020909101548251858152918201819052925084917f03fd27265b7dd1f55558bedc22a58fa3b10afb1be776e614bd5a7ba7b94994069101610568565b60008481526020819052604090205460ff16156107ef5760405162461bcd60e51b815260206004820152603660248201527f53656d6170686f7265436f72653a20796f752063616e6e6f7420757365207468604482015275652073616d65206e756c6c696669657220747769636560501b60648201526084016102e5565b60006107fa876109ae565b9050816001600160a01b0316635fe8c13b60405180604001604052808660006008811061083757634e487b7160e01b600052603260045260246000fd5b602002013581526020018660016008811061086257634e487b7160e01b600052603260045260246000fd5b60200201359052604080516080810182528782013591810191825290819060608201896003602002013581525081526020016040518060400160405280896004600881106108c057634e487b7160e01b600052603260045260246000fd5b60200201358152602001896005600881106108eb57634e487b7160e01b600052603260045260246000fd5b6020020135905290526040805180820190915280886006602002013581526020018860076008811061092d57634e487b7160e01b600052603260045260246000fd5b602002013581525060405180608001604052808c81526020018b81526020018781526020018a8152506040518563ffffffff1660e01b81526004016109759493929190610bbe565b60006040518083038186803b15801561098d57600080fd5b505afa1580156109a1573d6000803e3d6000fd5b5050505050505050505050565b60006008826040516020016109c591815260200190565b60408051601f198184030181529190528051602090910120901c92915050565b60008083601f8401126109f6578182fd5b50813567ffffffffffffffff811115610a0d578182fd5b6020830191508360208260051b8501011115610a2857600080fd5b9250929050565b803560ff81168114610a4057600080fd5b919050565b600060208284031215610a56578081fd5b5035919050565b600080600080610160808688031215610a74578384fd5b853594506020860135935060408601359250868187011115610a94578182fd5b509295919450926060019150565b60008060408385031215610ab4578182fd5b50508035926020909101359150565b60008060008060008060808789031215610adb578182fd5b8635955060208701359450604087013567ffffffffffffffff80821115610b00578384fd5b610b0c8a838b016109e5565b90965094506060890135915080821115610b24578384fd5b50610b3189828a016109e5565b979a9699509497509295939492505050565b60008060008060808587031215610b58578384fd5b84359350610b6860208601610a2f565b92506040850135915060608501356001600160a01b0381168114610b8a578182fd5b939692955090935050565b8060005b6002811015610bb8578151845260209384019390910190600101610b99565b50505050565b6101808101610bcd8287610b95565b60408083018660005b6002811015610bfd57610bea838351610b95565b9183019160209190910190600101610bd6565b50505050610c0e60c0830185610b95565b61010082018360005b6004811015610c36578151835260209283019290910190600101610c17565b50505095945050505050565b60208082526025908201527f53656d6170686f726547726f7570733a2067726f757020646f6573206e6f7420604082015264195e1a5cdd60da1b606082015260800190565b8681526000602087818401526080604084015285608084015260018060fb1b03861115610cb2578182fd5b8560051b808860a0860137830183810360a0908101606086015281018590528590839060c0015b86821015610d015760ff610cec84610a2f565b16815291830191600191909101908301610cd9565b9b9a505050505050505050505056fea2646970667358221220e808fa746c628e2f238c1005b6c7c3bb90c28fb5d7fc0fac995b396a43d6655364736f6c63430008040033",
  "linkReferences": {
    "@zk-kit/incremental-merkle-tree.sol/contracts/IncrementalBinaryTree.sol": {
      "IncrementalBinaryTree": [
        {
          "length": 20,
          "start": 1415
        },
        {
          "length": 20,
          "start": 1636
        },
        {
          "length": 20,
          "start": 1915
        }
      ]
    }
  },
  "deployedLinkReferences": {
    "@zk-kit/incremental-merkle-tree.sol/contracts/IncrementalBinaryTree.sol": {
      "IncrementalBinaryTree": [
        {
          "length": 20,
          "start": 1252
        },
        {
          "length": 20,
          "start": 1473
        },
        {
          "length": 20,
          "start": 1752
        }
      ]
    }
  }
}