{
  "_format": "hh-sol-artifact-1",
  "contractName": "StemQueue",
  "sourceName": "contracts/StemQueue.sol",
  "abi": [
    {
      "inputs": [
        {
          "internalType": "uint256",
          "name": "_voters",
          "type": "uint256"
        },
        {
          "internalType": "address",
          "name": "_verifier",
          "type": "address"
        }
      ],
      "stateMutability": "nonpayable",
      "type": "constructor"
    },
    {
      "anonymous": false,
      "inputs": [
        {
          "indexed": true,
          "internalType": "uint256",
          "name": "groupId",
          "type": "uint256"
        },
        {
          "indexed": true,
          "internalType": "address",
          "name": "oldAdmin",
          "type": "address"
        },
        {
          "indexed": true,
          "internalType": "address",
          "name": "newAdmin",
          "type": "address"
        }
      ],
      "name": "GroupAdminUpdated",
      "type": "event"
    },
    {
      "anonymous": false,
      "inputs": [
        {
          "indexed": true,
          "internalType": "uint256",
          "name": "groupId",
          "type": "uint256"
        },
        {
          "indexed": false,
          "internalType": "uint8",
          "name": "depth",
          "type": "uint8"
        },
        {
          "indexed": false,
          "internalType": "uint256",
          "name": "zeroValue",
          "type": "uint256"
        }
      ],
      "name": "GroupCreated",
      "type": "event"
    },
    {
      "anonymous": false,
      "inputs": [
        {
          "indexed": true,
          "internalType": "uint256",
          "name": "groupId",
          "type": "uint256"
        },
        {
          "indexed": false,
          "internalType": "uint256",
          "name": "identityCommitment",
          "type": "uint256"
        },
        {
          "indexed": false,
          "internalType": "uint256",
          "name": "root",
          "type": "uint256"
        }
      ],
      "name": "MemberAdded",
      "type": "event"
    },
    {
      "anonymous": false,
      "inputs": [
        {
          "indexed": true,
          "internalType": "uint256",
          "name": "groupId",
          "type": "uint256"
        },
        {
          "indexed": false,
          "internalType": "uint256",
          "name": "identityCommitment",
          "type": "uint256"
        },
        {
          "indexed": false,
          "internalType": "uint256",
          "name": "root",
          "type": "uint256"
        }
      ],
      "name": "MemberRemoved",
      "type": "event"
    },
    {
      "anonymous": false,
      "inputs": [
        {
          "indexed": false,
          "internalType": "bytes32",
          "name": "vote",
          "type": "bytes32"
        }
      ],
      "name": "NewVote",
      "type": "event"
    },
    {
      "anonymous": false,
      "inputs": [
        {
          "indexed": false,
          "internalType": "uint256",
          "name": "nullifierHash",
          "type": "uint256"
        }
      ],
      "name": "NullifierHashAdded",
      "type": "event"
    },
    {
      "inputs": [
        {
          "internalType": "uint256",
          "name": "groupId",
          "type": "uint256"
        },
        {
          "internalType": "uint256",
          "name": "identityCommitment",
          "type": "uint256"
        }
      ],
      "name": "addMemberToProjectGroup",
      "outputs": [],
      "stateMutability": "nonpayable",
      "type": "function"
    },
    {
      "inputs": [
        {
          "internalType": "uint256",
          "name": "groupId",
          "type": "uint256"
        },
        {
          "internalType": "uint8",
          "name": "depth",
          "type": "uint8"
        },
        {
          "internalType": "uint256",
          "name": "zeroValue",
          "type": "uint256"
        },
        {
          "internalType": "address",
          "name": "admin",
          "type": "address"
        }
      ],
      "name": "createProjectGroup",
      "outputs": [],
      "stateMutability": "nonpayable",
      "type": "function"
    },
    {
      "inputs": [
        {
          "internalType": "uint256",
          "name": "groupId",
          "type": "uint256"
        }
      ],
      "name": "getDepth",
      "outputs": [
        {
          "internalType": "uint8",
          "name": "",
          "type": "uint8"
        }
      ],
      "stateMutability": "view",
      "type": "function"
    },
    {
      "inputs": [
        {
          "internalType": "uint256",
          "name": "groupId",
          "type": "uint256"
        }
      ],
      "name": "getNumberOfLeaves",
      "outputs": [
        {
          "internalType": "uint256",
          "name": "",
          "type": "uint256"
        }
      ],
      "stateMutability": "view",
      "type": "function"
    },
    {
      "inputs": [
        {
          "internalType": "uint256",
          "name": "groupId",
          "type": "uint256"
        }
      ],
      "name": "getRoot",
      "outputs": [
        {
          "internalType": "uint256",
          "name": "",
          "type": "uint256"
        }
      ],
      "stateMutability": "view",
      "type": "function"
    },
    {
      "inputs": [
        {
          "internalType": "uint256",
          "name": "",
          "type": "uint256"
        }
      ],
      "name": "groupAdmins",
      "outputs": [
        {
          "internalType": "address",
          "name": "",
          "type": "address"
        }
      ],
      "stateMutability": "view",
      "type": "function"
    },
    {
      "inputs": [
        {
          "internalType": "uint256",
          "name": "groupId",
          "type": "uint256"
        },
        {
          "internalType": "uint256",
          "name": "identityCommitment",
          "type": "uint256"
        },
        {
          "internalType": "uint256[]",
          "name": "proofSiblings",
          "type": "uint256[]"
        },
        {
          "internalType": "uint8[]",
          "name": "proofPathIndices",
          "type": "uint8[]"
        }
      ],
      "name": "removeMemberFromProjectGroup",
      "outputs": [],
      "stateMutability": "nonpayable",
      "type": "function"
    },
    {
      "inputs": [],
      "name": "verifier",
      "outputs": [
        {
          "internalType": "contract IVerifier",
          "name": "",
          "type": "address"
        }
      ],
      "stateMutability": "view",
      "type": "function"
    },
    {
      "inputs": [
        {
          "internalType": "bytes32",
          "name": "_vote",
          "type": "bytes32"
        },
        {
          "internalType": "uint256",
          "name": "_nullifierHash",
          "type": "uint256"
        },
        {
          "internalType": "uint256[8]",
          "name": "_proof",
          "type": "uint256[8]"
        }
      ],
      "name": "vote",
      "outputs": [],
      "stateMutability": "nonpayable",
      "type": "function"
    },
    {
      "inputs": [],
      "name": "voters",
      "outputs": [
        {
          "internalType": "uint256",
          "name": "",
          "type": "uint256"
        }
      ],
      "stateMutability": "view",
      "type": "function"
    }
  ],
  "bytecode": "0x60806040523480156200001157600080fd5b5060405162001a6138038062001a618339818101604052810190620000379190620000b5565b8160038190555080600460006101000a81548173ffffffffffffffffffffffffffffffffffffffff021916908373ffffffffffffffffffffffffffffffffffffffff160217905550505062000168565b600081519050620000988162000134565b92915050565b600081519050620000af816200014e565b92915050565b60008060408385031215620000c957600080fd5b6000620000d9858286016200009e565b9250506020620000ec8582860162000087565b9150509250929050565b600062000103826200010a565b9050919050565b600073ffffffffffffffffffffffffffffffffffffffff82169050919050565b6000819050919050565b6200013f81620000f6565b81146200014b57600080fd5b50565b62000159816200012a565b81146200016557600080fd5b50565b6118e980620001786000396000f3fe608060405234801561001057600080fd5b506004361061009e5760003560e01c80639b24b3b0116100665780639b24b3b014610147578063a183e46d14610177578063ac28eacd14610193578063ae31d856146101c3578063b9c78c2b146101df5761009e565b806303511e75146100a35780632b7ac3f3146100bf578063350580ea146100dd5780636407b9cb146100fb57806375e618c914610117575b600080fd5b6100bd60048036038101906100b89190610ea7565b61020f565b005b6100c76102ce565b6040516100d4919061134f565b60405180910390f35b6100e56102f4565b6040516100f291906114c1565b60405180910390f35b61011560048036038101906101109190610e0c565b6102fa565b005b610131600480360381019061012c9190610da7565b6103ba565b60405161013e9190611505565b60405180910390f35b610161600480360381019061015c9190610da7565b6103e7565b60405161016e91906114c1565b60405180910390f35b610191600480360381019061018c9190610dd0565b610407565b005b6101ad60048036038101906101a89190610da7565b610415565b6040516101ba91906112d2565b60405180910390f35b6101dd60048036038101906101d89190610d57565b610448565b005b6101f960048036038101906101f49190610da7565b6104c1565b60405161020691906114c1565b60405180910390f35b61021a8484846104e1565b806005600086815260200190815260200160002060006101000a81548173ffffffffffffffffffffffffffffffffffffffff021916908373ffffffffffffffffffffffffffffffffffffffff1602179055508073ffffffffffffffffffffffffffffffffffffffff16600073ffffffffffffffffffffffffffffffffffffffff16857f0ba83579a0e79193ef649b9f5a8759d35af086ba62a3e207b52e4a8ae30d49e360405160405180910390a450505050565b600460009054906101000a900473ffffffffffffffffffffffffffffffffffffffff1681565b60035481565b8561030361064f565b73ffffffffffffffffffffffffffffffffffffffff166005600083815260200190815260200160002060009054906101000a900473ffffffffffffffffffffffffffffffffffffffff1673ffffffffffffffffffffffffffffffffffffffff16146103a3576040517f08c379a000000000000000000000000000000000000000000000000000000000815260040161039a906113ca565b60405180910390fd5b6103b1878787878787610657565b50505050505050565b60006001600083815260200190815260200160002060000160009054906101000a900460ff169050919050565b600060016000838152602001908152602001600020600101549050919050565b610411828261077b565b5050565b60056020528060005260406000206000915054906101000a900473ffffffffffffffffffffffffffffffffffffffff1681565b61047c836003548460035485600460009054906101000a900473ffffffffffffffffffffffffffffffffffffffff16610893565b61048582610bec565b7fd11f40af0b3c54462335a335e34a81d6d23dfd5e837d93907231333fab114649836040516104b49190611334565b60405180910390a1505050565b600060016000838152602001908152602001600020600201549050919050565b7f30644e72e131a029b85045b68181585d2833e84879b9709143e1f593f00000018310610543576040517f08c379a000000000000000000000000000000000000000000000000000000000815260040161053a906113ea565b60405180910390fd5b600061054e846103ba565b60ff1614610591576040517f08c379a00000000000000000000000000000000000000000000000000000000081526004016105889061138a565b60405180910390fd5b6001600084815260200190815260200160002073__$4c0484323457fe1a856f46a4759b553fe4$__63b4bdd117909184846040518463ffffffff1660e01b81526004016105e09392919061148a565b60006040518083038186803b1580156105f857600080fd5b505af415801561060c573d6000803e3d6000fd5b50505050827fc3082aa494e9088c2c9f0fb62a0b6bd46e6699acb94cfba35be29b95a93f68c88383604051610642929190611520565b60405180910390a2505050565b600033905090565b6000610662876103ba565b60ff1614156106a6576040517f08c379a000000000000000000000000000000000000000000000000000000000815260040161069d906113aa565b60405180910390fd5b6001600087815260200190815260200160002073__$4c0484323457fe1a856f46a4759b553fe4$__630629596f909187878787876040518763ffffffff1660e01b81526004016106fb96959493929190611433565b60006040518083038186803b15801561071357600080fd5b505af4158015610727573d6000803e3d6000fd5b505050506000610736876103e7565b9050867fe270325ded177064d7bda473e6519ef40a291058c41286f71a6e4872f1e9ab5c878360405161076a9291906114dc565b60405180910390a250505050505050565b6000610786836103ba565b60ff1614156107ca576040517f08c379a00000000000000000000000000000000000000000000000000000000081526004016107c1906113aa565b60405180910390fd5b6001600083815260200190815260200160002073__$4c0484323457fe1a856f46a4759b553fe4$__63168703fa9091836040518363ffffffff1660e01b815260040161081792919061140a565b60006040518083038186803b15801561082f57600080fd5b505af4158015610843573d6000803e3d6000fd5b505050506000610852836103e7565b9050827f03fd27265b7dd1f55558bedc22a58fa3b10afb1be776e614bd5a7ba7b949940683836040516108869291906114dc565b60405180910390a2505050565b60008085815260200190815260200160002060009054906101000a900460ff16156108f3576040517f08c379a00000000000000000000000000000000000000000000000000000000081526004016108ea9061136a565b60405180910390fd5b60006108fe87610c1a565b90508173ffffffffffffffffffffffffffffffffffffffff16635fe8c13b604051806040016040528086600060088110610961577f4e487b7100000000000000000000000000000000000000000000000000000000600052603260045260246000fd5b60200201358152602001866001600881106109a5577f4e487b7100000000000000000000000000000000000000000000000000000000600052603260045260246000fd5b602002013581525060405180604001604052806040518060400160405280896002600881106109fd577f4e487b7100000000000000000000000000000000000000000000000000000000600052603260045260246000fd5b6020020135815260200189600360088110610a41577f4e487b7100000000000000000000000000000000000000000000000000000000600052603260045260246000fd5b60200201358152508152602001604051806040016040528089600460088110610a93577f4e487b7100000000000000000000000000000000000000000000000000000000600052603260045260246000fd5b6020020135815260200189600560088110610ad7577f4e487b7100000000000000000000000000000000000000000000000000000000600052603260045260246000fd5b6020020135815250815250604051806040016040528088600660088110610b27577f4e487b7100000000000000000000000000000000000000000000000000000000600052603260045260246000fd5b6020020135815260200188600760088110610b6b577f4e487b7100000000000000000000000000000000000000000000000000000000600052603260045260246000fd5b602002013581525060405180608001604052808c81526020018b81526020018781526020018a8152506040518563ffffffff1660e01b8152600401610bb394939291906112ed565b60006040518083038186803b158015610bcb57600080fd5b505afa158015610bdf573d6000803e3d6000fd5b5050505050505050505050565b600160008083815260200190815260200160002060006101000a81548160ff02191690831515021790555050565b6000600882604051602001610c2f91906112b7565b6040516020818303038152906040528051906020012060001c901c9050919050565b600081359050610c6081611857565b92915050565b600081905082602060080282011115610c7e57600080fd5b92915050565b60008083601f840112610c9657600080fd5b8235905067ffffffffffffffff811115610caf57600080fd5b602083019150836020820283011115610cc757600080fd5b9250929050565b60008083601f840112610ce057600080fd5b8235905067ffffffffffffffff811115610cf957600080fd5b602083019150836020820283011115610d1157600080fd5b9250929050565b600081359050610d278161186e565b92915050565b600081359050610d3c81611885565b92915050565b600081359050610d518161189c565b92915050565b60008060006101408486031215610d6d57600080fd5b6000610d7b86828701610d18565b9350506020610d8c86828701610d2d565b9250506040610d9d86828701610c66565b9150509250925092565b600060208284031215610db957600080fd5b6000610dc784828501610d2d565b91505092915050565b60008060408385031215610de357600080fd5b6000610df185828601610d2d565b9250506020610e0285828601610d2d565b9150509250929050565b60008060008060008060808789031215610e2557600080fd5b6000610e3389828a01610d2d565b9650506020610e4489828a01610d2d565b955050604087013567ffffffffffffffff811115610e6157600080fd5b610e6d89828a01610c84565b9450945050606087013567ffffffffffffffff811115610e8c57600080fd5b610e9889828a01610cce565b92509250509295509295509295565b60008060008060808587031215610ebd57600080fd5b6000610ecb87828801610d2d565b9450506020610edc87828801610d42565b9350506040610eed87828801610d2d565b9250506060610efe87828801610c51565b91505092959194509250565b6000610f168383610fb8565b60408301905092915050565b6000610f2e838361125d565b60208301905092915050565b6000610f4683836112a8565b60208301905092915050565b610f5b8161163c565b82525050565b610f6a81611571565b610f7481846115c6565b9250610f7f82611549565b8060005b83811015610fb0578151610f978782610f0a565b9650610fa283611592565b925050600181019050610f83565b505050505050565b610fc18161157c565b610fcb81846115d1565b9250610fd682611553565b8060005b83811015611007578151610fee8782610f22565b9650610ff98361159f565b925050600181019050610fda565b505050505050565b6110188161157c565b61102281846115dc565b925061102d82611553565b8060005b8381101561105e5781516110458782610f22565b96506110508361159f565b925050600181019050611031565b505050505050565b61106f81611587565b61107981846115e7565b92506110848261155d565b8060005b838110156110b557815161109c8782610f22565b96506110a7836115ac565b925050600181019050611088565b505050505050565b60006110c983856115f2565b93507f07ffffffffffffffffffffffffffffffffffffffffffffffffffffffffffffff8311156110f857600080fd5b6020830292506111098385846116b3565b82840190509392505050565b60006111218385611603565b935061112c82611567565b8060005b85811015611165576111428284611625565b61114c8882610f3a565b9750611157836115b9565b925050600181019050611130565b5085925050509392505050565b61117b8161164e565b82525050565b61119261118d8261164e565b6116c2565b82525050565b6111a18161168f565b82525050565b60006111b4603683611614565b91506111bf826116cc565b604082019050919050565b60006111d7602583611614565b91506111e28261171b565b604082019050919050565b60006111fa602583611614565b91506112058261176a565b604082019050919050565b600061121d602883611614565b9150611228826117b9565b604082019050919050565b6000611240603683611614565b915061124b82611808565b604082019050919050565b8082525050565b61126681611678565b82525050565b61127581611678565b82525050565b61128481611678565b82525050565b61129381611682565b82525050565b6112a281611682565b82525050565b6112b181611682565b82525050565b60006112c38284611181565b60208201915081905092915050565b60006020820190506112e76000830184610f52565b92915050565b600061018082019050611303600083018761100f565b6113106040830186610f61565b61131d60c083018561100f565b61132b610100830184611066565b95945050505050565b60006020820190506113496000830184611172565b92915050565b60006020820190506113646000830184611198565b92915050565b60006020820190508181036000830152611383816111a7565b9050919050565b600060208201905081810360008301526113a3816111ca565b9050919050565b600060208201905081810360008301526113c3816111ed565b9050919050565b600060208201905081810360008301526113e381611210565b9050919050565b6000602082019050818103600083015261140381611233565b9050919050565b600060408201905061141f6000830185611256565b61142c602083018461127b565b9392505050565b60006080820190506114486000830189611256565b611455602083018861127b565b81810360408301526114688186886110bd565b9050818103606083015261147d818486611115565b9050979650505050505050565b600060608201905061149f6000830186611256565b6114ac6020830185611299565b6114b9604083018461127b565b949350505050565b60006020820190506114d6600083018461126c565b92915050565b60006040820190506114f1600083018561126c565b6114fe602083018461126c565b9392505050565b600060208201905061151a600083018461128a565b92915050565b6000604082019050611535600083018561128a565b611542602083018461126c565b9392505050565b6000819050919050565b6000819050919050565b6000819050919050565b6000819050919050565b600060029050919050565b600060029050919050565b600060049050919050565b6000602082019050919050565b6000602082019050919050565b6000602082019050919050565b6000602082019050919050565b600081905092915050565b600081905092915050565b600081905092915050565b600081905092915050565b600082825260208201905092915050565b600082825260208201905092915050565b600082825260208201905092915050565b60006116346020840184610d42565b905092915050565b600061164782611658565b9050919050565b6000819050919050565b600073ffffffffffffffffffffffffffffffffffffffff82169050919050565b6000819050919050565b600060ff82169050919050565b600061169a826116a1565b9050919050565b60006116ac82611658565b9050919050565b82818337600083830152505050565b6000819050919050565b7f53656d6170686f7265436f72653a20796f752063616e6e6f742075736520746860008201527f652073616d65206e756c6c696669657220747769636500000000000000000000602082015250565b7f53656d6170686f726547726f7570733a2067726f757020616c7265616479206560008201527f7869737473000000000000000000000000000000000000000000000000000000602082015250565b7f53656d6170686f726547726f7570733a2067726f757020646f6573206e6f742060008201527f6578697374000000000000000000000000000000000000000000000000000000602082015250565b7f53656d6170686f72653a2063616c6c6572206973206e6f74207468652067726f60008201527f75702061646d696e000000000000000000000000000000000000000000000000602082015250565b7f53656d6170686f726547726f7570733a2067726f7570206964206d757374206260008201527f65203c20534e41524b5f5343414c41525f4649454c4400000000000000000000602082015250565b6118608161163c565b811461186b57600080fd5b50565b6118778161164e565b811461188257600080fd5b50565b61188e81611678565b811461189957600080fd5b50565b6118a581611682565b81146118b057600080fd5b5056fea2646970667358221220d7346a4440d79865902967301ec7cea1a792fd7dc535e673f049e28cd5bd007564736f6c63430008040033",
  "linkReferences": {
    "@zk-kit/incremental-merkle-tree.sol/contracts/IncrementalBinaryTree.sol": {
      "IncrementalBinaryTree": [
        {
          "length": 20,
          "start": 1822
        },
        {
          "length": 20,
          "start": 2099
        },
        {
          "length": 20,
          "start": 2391
        }
      ]
    }
  },
  "deployedLinkReferences": {
    "@zk-kit/incremental-merkle-tree.sol/contracts/IncrementalBinaryTree.sol": {
      "IncrementalBinaryTree": [
        {
          "length": 20,
          "start": 1446
        },
        {
          "length": 20,
          "start": 1723
        },
        {
          "length": 20,
          "start": 2015
        }
      ]
    }
  }
}