{
  "_format": "hh-sol-artifact-1",
  "contractName": "StemQueue",
  "sourceName": "contracts/StemQueue.sol",
  "abi": [
    {
      "inputs": [
        {
          "internalType": "uint256",
          "name": "_voters",
          "type": "uint256"
        },
        {
          "internalType": "address",
          "name": "_verifier",
          "type": "address"
        }
      ],
      "stateMutability": "nonpayable",
      "type": "constructor"
    },
    {
      "anonymous": false,
      "inputs": [
        {
          "indexed": true,
          "internalType": "uint256",
          "name": "groupId",
          "type": "uint256"
        },
        {
          "indexed": true,
          "internalType": "address",
          "name": "oldAdmin",
          "type": "address"
        },
        {
          "indexed": true,
          "internalType": "address",
          "name": "newAdmin",
          "type": "address"
        }
      ],
      "name": "GroupAdminUpdated",
      "type": "event"
    },
    {
      "anonymous": false,
      "inputs": [
        {
          "indexed": true,
          "internalType": "uint256",
          "name": "groupId",
          "type": "uint256"
        },
        {
          "indexed": false,
          "internalType": "uint8",
          "name": "depth",
          "type": "uint8"
        },
        {
          "indexed": false,
          "internalType": "uint256",
          "name": "zeroValue",
          "type": "uint256"
        }
      ],
      "name": "GroupCreated",
      "type": "event"
    },
    {
      "anonymous": false,
      "inputs": [
        {
          "indexed": true,
          "internalType": "uint256",
          "name": "groupId",
          "type": "uint256"
        },
        {
          "indexed": false,
          "internalType": "uint256",
          "name": "identityCommitment",
          "type": "uint256"
        },
        {
          "indexed": false,
          "internalType": "uint256",
          "name": "root",
          "type": "uint256"
        }
      ],
      "name": "MemberAdded",
      "type": "event"
    },
    {
      "anonymous": false,
      "inputs": [
        {
          "indexed": true,
          "internalType": "uint256",
          "name": "groupId",
          "type": "uint256"
        },
        {
          "indexed": false,
          "internalType": "uint256",
          "name": "identityCommitment",
          "type": "uint256"
        },
        {
          "indexed": false,
          "internalType": "uint256",
          "name": "root",
          "type": "uint256"
        }
      ],
      "name": "MemberRemoved",
      "type": "event"
    },
    {
      "anonymous": false,
      "inputs": [
        {
          "indexed": false,
          "internalType": "bytes32",
          "name": "vote",
          "type": "bytes32"
        }
      ],
      "name": "NewVote",
      "type": "event"
    },
    {
      "anonymous": false,
      "inputs": [
        {
          "indexed": false,
          "internalType": "uint256",
          "name": "nullifierHash",
          "type": "uint256"
        }
      ],
      "name": "NullifierHashAdded",
      "type": "event"
    },
    {
      "inputs": [
        {
          "internalType": "uint256",
          "name": "groupId",
          "type": "uint256"
        },
        {
          "internalType": "uint256",
          "name": "identityCommitment",
          "type": "uint256"
        }
      ],
      "name": "addMemberToProjectGroup",
      "outputs": [],
      "stateMutability": "nonpayable",
      "type": "function"
    },
    {
      "inputs": [
        {
          "internalType": "uint256",
          "name": "groupId",
          "type": "uint256"
        },
        {
          "internalType": "uint8",
          "name": "depth",
          "type": "uint8"
        },
        {
          "internalType": "uint256",
          "name": "zeroValue",
          "type": "uint256"
        },
        {
          "internalType": "address",
          "name": "admin",
          "type": "address"
        }
      ],
      "name": "createProjectGroup",
      "outputs": [],
      "stateMutability": "nonpayable",
      "type": "function"
    },
    {
      "inputs": [
        {
          "internalType": "uint256",
          "name": "groupId",
          "type": "uint256"
        }
      ],
      "name": "getDepth",
      "outputs": [
        {
          "internalType": "uint8",
          "name": "",
          "type": "uint8"
        }
      ],
      "stateMutability": "view",
      "type": "function"
    },
    {
      "inputs": [
        {
          "internalType": "uint256",
          "name": "groupId",
          "type": "uint256"
        }
      ],
      "name": "getNumberOfLeaves",
      "outputs": [
        {
          "internalType": "uint256",
          "name": "",
          "type": "uint256"
        }
      ],
      "stateMutability": "view",
      "type": "function"
    },
    {
      "inputs": [
        {
          "internalType": "uint256",
          "name": "groupId",
          "type": "uint256"
        }
      ],
      "name": "getRoot",
      "outputs": [
        {
          "internalType": "uint256",
          "name": "",
          "type": "uint256"
        }
      ],
      "stateMutability": "view",
      "type": "function"
    },
    {
      "inputs": [
        {
          "internalType": "uint256",
          "name": "",
          "type": "uint256"
        }
      ],
      "name": "groupAdmins",
      "outputs": [
        {
          "internalType": "address",
          "name": "",
          "type": "address"
        }
      ],
      "stateMutability": "view",
      "type": "function"
    },
    {
      "inputs": [
        {
          "internalType": "uint256",
          "name": "groupId",
          "type": "uint256"
        },
        {
          "internalType": "uint256",
          "name": "identityCommitment",
          "type": "uint256"
        },
        {
          "internalType": "uint256[]",
          "name": "proofSiblings",
          "type": "uint256[]"
        },
        {
          "internalType": "uint8[]",
          "name": "proofPathIndices",
          "type": "uint8[]"
        }
      ],
      "name": "removeMemberFromProjectGroup",
      "outputs": [],
      "stateMutability": "nonpayable",
      "type": "function"
    },
    {
      "inputs": [
        {
          "internalType": "bytes32",
          "name": "",
          "type": "bytes32"
        }
      ],
      "name": "stemVoteCounts",
      "outputs": [
        {
          "internalType": "uint256",
          "name": "_value",
          "type": "uint256"
        }
      ],
      "stateMutability": "view",
      "type": "function"
    },
    {
      "inputs": [],
      "name": "verifier",
      "outputs": [
        {
          "internalType": "contract IVerifier",
          "name": "",
          "type": "address"
        }
      ],
      "stateMutability": "view",
      "type": "function"
    },
    {
      "inputs": [
        {
          "internalType": "bytes32",
          "name": "_vote",
          "type": "bytes32"
        },
        {
          "internalType": "uint256",
          "name": "_nullifierHash",
          "type": "uint256"
        },
        {
          "internalType": "uint256[8]",
          "name": "_proof",
          "type": "uint256[8]"
        }
      ],
      "name": "vote",
      "outputs": [],
      "stateMutability": "nonpayable",
      "type": "function"
    },
    {
      "inputs": [],
      "name": "voters",
      "outputs": [
        {
          "internalType": "uint256",
          "name": "",
          "type": "uint256"
        }
      ],
      "stateMutability": "view",
      "type": "function"
    }
  ],
  "bytecode": "0x608060405234801561001057600080fd5b50604051610a20380380610a2083398101604081905261002f91610059565b600391909155600480546001600160a01b0319166001600160a01b03909216919091179055610094565b6000806040838503121561006b578182fd5b825160208401519092506001600160a01b0381168114610089578182fd5b809150509250929050565b61097d806100a36000396000f3fe608060405234801561001057600080fd5b50600436106100a95760003560e01c80639b24b3b0116100715780639b24b3b014610152578063a183e46d14610176578063ac28eacd14610189578063ae31d856146101b2578063b9c78c2b146101c5578063c65ea2e2146101e857600080fd5b806303511e75146100ae5780632b7ac3f3146100c3578063350580ea146100f35780636407b9cb1461010a57806375e618c91461011d575b600080fd5b6100c16100bc366004610827565b610208565b005b6004546100d6906001600160a01b031681565b6040516001600160a01b0390911681526020015b60405180910390f35b6100fc60035481565b6040519081526020016100ea565b6100c16101183660046107a7565b610270565b61014061012b366004610731565b60009081526001602052604090205460ff1690565b60405160ff90911681526020016100ea565b6100fc610160366004610731565b6000908152600160208190526040909120015490565b6100c1610184366004610786565b610305565b6100d6610197366004610731565b6005602052600090815260409020546001600160a01b031681565b6100c16101c0366004610749565b505050565b6100fc6101d3366004610731565b60009081526001602052604090206002015490565b6100fc6101f6366004610731565b60066020526000908152604090205481565b610213848484610313565b60008481526005602052604080822080546001600160a01b0319166001600160a01b038516908117909155905190919086907f0ba83579a0e79193ef649b9f5a8759d35af086ba62a3e207b52e4a8ae30d49e3908390a450505050565b60008681526005602052604090205486906001600160a01b031633146102ee5760405162461bcd60e51b815260206004820152602860248201527f53656d6170686f72653a2063616c6c6572206973206e6f74207468652067726f6044820152673ab81030b236b4b760c11b60648201526084015b60405180910390fd5b6102fc8787878787876104d5565b50505050505050565b61030f82826105dd565b5050565b7f30644e72e131a029b85045b68181585d2833e84879b9709143e1f593f000000183106103a15760405162461bcd60e51b815260206004820152603660248201527f53656d6170686f726547726f7570733a2067726f7570206964206d757374206260448201527519480f0814d3905492d7d4d0d053105497d19251531160521b60648201526084016102e5565b60008381526001602052604090205460ff161561040e5760405162461bcd60e51b815260206004820152602560248201527f53656d6170686f726547726f7570733a2067726f757020616c72656164792065604482015264786973747360d81b60648201526084016102e5565b60008381526001602052604090819020905163b4bdd11760e01b8152600481019190915260ff831660248201526044810182905273__$4c0484323457fe1a856f46a4759b553fe4$__9063b4bdd1179060640160006040518083038186803b15801561047957600080fd5b505af415801561048d573d6000803e3d6000fd5b50506040805160ff86168152602081018590528693507fc3082aa494e9088c2c9f0fb62a0b6bd46e6699acb94cfba35be29b95a93f68c89250015b60405180910390a2505050565b60008681526001602052604090205460ff166105035760405162461bcd60e51b81526004016102e590610879565b600086815260016020526040908190209051630629596f60e01b815273__$4c0484323457fe1a856f46a4759b553fe4$__91630629596f916105529190899089908990899089906004016108be565b60006040518083038186803b15801561056a57600080fd5b505af415801561057e573d6000803e3d6000fd5b505050600087815260016020819052604082200154909150604080518881526020810183905291925088917fe270325ded177064d7bda473e6519ef40a291058c41286f71a6e4872f1e9ab5c910160405180910390a250505050505050565b60008281526001602052604090205460ff1661060b5760405162461bcd60e51b81526004016102e590610879565b600082815260016020526040908190209051630b4381fd60e11b815260048101919091526024810182905273__$4c0484323457fe1a856f46a4759b553fe4$__9063168703fa9060440160006040518083038186803b15801561066d57600080fd5b505af4158015610681573d6000803e3d6000fd5b505050600083815260016020818152604092839020909101548251858152918201819052925084917f03fd27265b7dd1f55558bedc22a58fa3b10afb1be776e614bd5a7ba7b949940691016104c8565b60008083601f8401126106e2578182fd5b50813567ffffffffffffffff8111156106f9578182fd5b6020830191508360208260051b850101111561071457600080fd5b9250929050565b803560ff8116811461072c57600080fd5b919050565b600060208284031215610742578081fd5b5035919050565b600080600061014080858703121561075f578283fd5b8435935060208501359250858186011115610778578182fd5b506040840190509250925092565b60008060408385031215610798578182fd5b50508035926020909101359150565b600080600080600080608087890312156107bf578182fd5b8635955060208701359450604087013567ffffffffffffffff808211156107e4578384fd5b6107f08a838b016106d1565b90965094506060890135915080821115610808578384fd5b5061081589828a016106d1565b979a9699509497509295939492505050565b6000806000806080858703121561083c578384fd5b8435935061084c6020860161071b565b92506040850135915060608501356001600160a01b038116811461086e578182fd5b939692955090935050565b60208082526025908201527f53656d6170686f726547726f7570733a2067726f757020646f6573206e6f7420604082015264195e1a5cdd60da1b606082015260800190565b8681526000602087818401526080604084015285608084015260018060fb1b038611156108e9578182fd5b8560051b808860a0860137830183810360a0908101606086015281018590528590839060c0015b868210156109385760ff6109238461071b565b16815291830191600191909101908301610910565b9b9a505050505050505050505056fea2646970667358221220340f89f4621c8169fe12558dd38ea5e89629f2b2903cab28e6f673bc5d42259064736f6c63430008040033",
  "linkReferences": {
    "@zk-kit/incremental-merkle-tree.sol/contracts/IncrementalBinaryTree.sol": {
      "IncrementalBinaryTree": [
        {
          "length": 20,
          "start": 1255
        },
        {
          "length": 20,
          "start": 1476
        },
        {
          "length": 20,
          "start": 1755
        }
      ]
    }
  },
  "deployedLinkReferences": {
    "@zk-kit/incremental-merkle-tree.sol/contracts/IncrementalBinaryTree.sol": {
      "IncrementalBinaryTree": [
        {
          "length": 20,
          "start": 1092
        },
        {
          "length": 20,
          "start": 1313
        },
        {
          "length": 20,
          "start": 1592
        }
      ]
    }
  }
}