{
  "_format": "hh-sol-artifact-1",
  "contractName": "StemQueue",
  "sourceName": "contracts/StemQueue.sol",
  "abi": [
    {
      "inputs": [
        {
          "internalType": "uint256",
          "name": "_voters",
          "type": "uint256"
        },
        {
          "internalType": "address",
          "name": "_verifier",
          "type": "address"
        }
      ],
      "stateMutability": "nonpayable",
      "type": "constructor"
    },
    {
      "inputs": [],
      "name": "Semaphore__GroupAlreadyExists",
      "type": "error"
    },
    {
      "inputs": [],
      "name": "Semaphore__GroupDoesNotExist",
      "type": "error"
    },
    {
      "inputs": [],
      "name": "Semaphore__GroupIdIsNotLessThanSnarkScalarField",
      "type": "error"
    },
    {
      "anonymous": false,
      "inputs": [
        {
          "indexed": true,
          "internalType": "uint256",
          "name": "groupId",
          "type": "uint256"
        },
        {
          "indexed": true,
          "internalType": "address",
          "name": "oldAdmin",
          "type": "address"
        },
        {
          "indexed": true,
          "internalType": "address",
          "name": "newAdmin",
          "type": "address"
        }
      ],
      "name": "GroupAdminUpdated",
      "type": "event"
    },
    {
      "anonymous": false,
      "inputs": [
        {
          "indexed": true,
          "internalType": "uint256",
          "name": "groupId",
          "type": "uint256"
        },
        {
          "indexed": false,
          "internalType": "uint256",
          "name": "merkleTreeDepth",
          "type": "uint256"
        },
        {
          "indexed": false,
          "internalType": "uint256",
          "name": "zeroValue",
          "type": "uint256"
        }
      ],
      "name": "GroupCreated",
      "type": "event"
    },
    {
      "anonymous": false,
      "inputs": [
        {
          "indexed": true,
          "internalType": "uint256",
          "name": "groupId",
          "type": "uint256"
        },
        {
          "indexed": false,
          "internalType": "uint256",
          "name": "index",
          "type": "uint256"
        },
        {
          "indexed": false,
          "internalType": "uint256",
          "name": "identityCommitment",
          "type": "uint256"
        },
        {
          "indexed": false,
          "internalType": "uint256",
          "name": "merkleTreeRoot",
          "type": "uint256"
        }
      ],
      "name": "MemberAdded",
      "type": "event"
    },
    {
      "anonymous": false,
      "inputs": [
        {
          "indexed": true,
          "internalType": "uint256",
          "name": "groupId",
          "type": "uint256"
        },
        {
          "indexed": false,
          "internalType": "uint256",
          "name": "index",
          "type": "uint256"
        },
        {
          "indexed": false,
          "internalType": "uint256",
          "name": "identityCommitment",
          "type": "uint256"
        },
        {
          "indexed": false,
          "internalType": "uint256",
          "name": "merkleTreeRoot",
          "type": "uint256"
        }
      ],
      "name": "MemberRemoved",
      "type": "event"
    },
    {
      "anonymous": false,
      "inputs": [
        {
          "indexed": true,
          "internalType": "uint256",
          "name": "groupId",
          "type": "uint256"
        },
        {
          "indexed": false,
          "internalType": "uint256",
          "name": "index",
          "type": "uint256"
        },
        {
          "indexed": false,
          "internalType": "uint256",
          "name": "identityCommitment",
          "type": "uint256"
        },
        {
          "indexed": false,
          "internalType": "uint256",
          "name": "newIdentityCommitment",
          "type": "uint256"
        },
        {
          "indexed": false,
          "internalType": "uint256",
          "name": "merkleTreeRoot",
          "type": "uint256"
        }
      ],
      "name": "MemberUpdated",
      "type": "event"
    },
    {
      "anonymous": false,
      "inputs": [
        {
          "indexed": false,
          "internalType": "bytes32",
          "name": "vote",
          "type": "bytes32"
        }
      ],
      "name": "NewVote",
      "type": "event"
    },
    {
      "anonymous": false,
      "inputs": [
        {
          "indexed": false,
          "internalType": "uint256",
          "name": "nullifierHash",
          "type": "uint256"
        }
      ],
      "name": "NullifierHashAdded",
      "type": "event"
    },
    {
      "inputs": [
        {
          "internalType": "uint256",
          "name": "groupId",
          "type": "uint256"
        },
        {
          "internalType": "uint256",
          "name": "identityCommitment",
          "type": "uint256"
        }
      ],
      "name": "addMemberToProjectGroup",
      "outputs": [],
      "stateMutability": "nonpayable",
      "type": "function"
    },
    {
      "inputs": [
        {
          "internalType": "uint256",
          "name": "groupId",
          "type": "uint256"
        },
        {
          "internalType": "uint8",
          "name": "depth",
          "type": "uint8"
        },
        {
          "internalType": "uint256",
          "name": "zeroValue",
          "type": "uint256"
        },
        {
          "internalType": "address",
          "name": "admin",
          "type": "address"
        }
      ],
      "name": "createProjectGroup",
      "outputs": [],
      "stateMutability": "nonpayable",
      "type": "function"
    },
    {
      "inputs": [
        {
          "internalType": "uint256",
          "name": "groupId",
          "type": "uint256"
        }
      ],
      "name": "getMerkleTreeDepth",
      "outputs": [
        {
          "internalType": "uint256",
          "name": "",
          "type": "uint256"
        }
      ],
      "stateMutability": "view",
      "type": "function"
    },
    {
      "inputs": [
        {
          "internalType": "uint256",
          "name": "groupId",
          "type": "uint256"
        }
      ],
      "name": "getMerkleTreeRoot",
      "outputs": [
        {
          "internalType": "uint256",
          "name": "",
          "type": "uint256"
        }
      ],
      "stateMutability": "view",
      "type": "function"
    },
    {
      "inputs": [
        {
          "internalType": "uint256",
          "name": "groupId",
          "type": "uint256"
        }
      ],
      "name": "getNumberOfMerkleTreeLeaves",
      "outputs": [
        {
          "internalType": "uint256",
          "name": "",
          "type": "uint256"
        }
      ],
      "stateMutability": "view",
      "type": "function"
    },
    {
      "inputs": [
        {
          "internalType": "uint256",
          "name": "",
          "type": "uint256"
        }
      ],
      "name": "groupAdmins",
      "outputs": [
        {
          "internalType": "address",
          "name": "",
          "type": "address"
        }
      ],
      "stateMutability": "view",
      "type": "function"
    },
    {
      "inputs": [
        {
          "internalType": "uint256",
          "name": "groupId",
          "type": "uint256"
        },
        {
          "internalType": "uint256",
          "name": "identityCommitment",
          "type": "uint256"
        },
        {
          "internalType": "uint256[]",
          "name": "proofSiblings",
          "type": "uint256[]"
        },
        {
          "internalType": "uint8[]",
          "name": "proofPathIndices",
          "type": "uint8[]"
        }
      ],
      "name": "removeMemberFromProjectGroup",
      "outputs": [],
      "stateMutability": "nonpayable",
      "type": "function"
    },
    {
      "inputs": [
        {
          "internalType": "bytes32",
          "name": "",
          "type": "bytes32"
        }
      ],
      "name": "stemVoteCounts",
      "outputs": [
        {
          "internalType": "uint256",
          "name": "_value",
          "type": "uint256"
        }
      ],
      "stateMutability": "view",
      "type": "function"
    },
    {
      "inputs": [],
      "name": "verifier",
      "outputs": [
        {
          "internalType": "contract IVerifier",
          "name": "",
          "type": "address"
        }
      ],
      "stateMutability": "view",
      "type": "function"
    },
    {
      "inputs": [
        {
          "internalType": "bytes32",
          "name": "_vote",
          "type": "bytes32"
        },
        {
          "internalType": "uint256",
          "name": "groupId",
          "type": "uint256"
        },
        {
          "internalType": "uint256",
          "name": "externalNullifier",
          "type": "uint256"
        },
        {
          "internalType": "uint256",
          "name": "_nullifierHash",
          "type": "uint256"
        },
        {
          "internalType": "uint256[8]",
          "name": "_proof",
          "type": "uint256[8]"
        }
      ],
      "name": "vote",
      "outputs": [],
      "stateMutability": "nonpayable",
      "type": "function"
    },
    {
      "inputs": [],
      "name": "voters",
      "outputs": [
        {
          "internalType": "uint256",
          "name": "",
          "type": "uint256"
        }
      ],
      "stateMutability": "view",
      "type": "function"
    }
  ],
  "bytecode": "0x608060405234801561001057600080fd5b50604051610e27380380610e2783398101604081905261002f91610059565b600291909155600380546001600160a01b0319166001600160a01b03909216919091179055610094565b6000806040838503121561006b578182fd5b825160208401519092506001600160a01b0381168114610089578182fd5b809150509250929050565b610d84806100a36000396000f3fe608060405234801561001057600080fd5b50600436106100a95760003560e01c80636407b9cb116100715780636407b9cb1461014d57806364ce8d4214610160578063a183e46d14610173578063ac28eacd14610186578063c65ea2e2146101af578063dabc4d51146101cf57600080fd5b806303511e75146100ae5780632b7ac3f3146100c3578063350580ea146100f3578063638480be1461010a5780636389e1071461012d575b600080fd5b6100c16100bc366004610b1e565b6101f2565b005b6003546100d6906001600160a01b031681565b6040516001600160a01b0390911681526020015b60405180910390f35b6100fc60025481565b6040519081526020016100ea565b6100fc610118366004610a14565b60009081526020819052604090206002015490565b6100fc61013b366004610a14565b60009081526020819052604090205490565b6100c161015b366004610a9e565b61025d565b6100c161016e366004610a2c565b6102f1565b6100c1610181366004610a7d565b610372565b6100d6610194366004610a14565b6004602052600090815260409020546001600160a01b031681565b6100fc6101bd366004610a14565b60056020526000908152604090205481565b6100fc6101dd366004610a14565b60009081526020819052604090206001015490565b610200848460ff1684610380565b60008481526004602052604080822080546001600160a01b0319166001600160a01b038516908117909155905190919086907f0ba83579a0e79193ef649b9f5a8759d35af086ba62a3e207b52e4a8ae30d49e3908390a450505050565b60008681526004602052604090205486906001600160a01b031633146102da5760405162461bcd60e51b815260206004820152602860248201527f53656d6170686f72653a2063616c6c6572206973206e6f74207468652067726f6044820152673ab81030b236b4b760c11b606482015260840160405180910390fd5b6102e88787878787876104ae565b50505050505050565b60008481526020819052604090206001015460035461032290879083908690889087906001600160a01b03166105c9565b6000868152600560205260409020805460010190556040518681527fd11f40af0b3c54462335a335e34a81d6d23dfd5e837d93907231333fab1146499060200160405180910390a1505050505050565b61037c8282610788565b5050565b7f30644e72e131a029b85045b68181585d2833e84879b9709143e1f593f000000183106103c05760405163530e3c6560e11b815260040160405180910390fd5b600083815260208190526040902054156103ed57604051638121725b60e01b815260040160405180910390fd5b6000838152602081905260409081902090516304257eed60e21b81526004810191909152602481018390526044810182905273__$0c6eb7207c37accf1552a1c47686411ac0$__90631095fbb49060640160006040518083038186803b15801561045657600080fd5b505af415801561046a573d6000803e3d6000fd5b505060408051858152602081018590528693507f0d000126c26c1bbe400fd2332187f75d58b69306f9ec47b408686189d3a0083392500160405180910390a2505050565b6000868152602081905260409020600101546104dd5760405163029f057960e01b815260040160405180910390fd5b600086815260208190526040908190209051630629596f60e01b815273__$0c6eb7207c37accf1552a1c47686411ac0$__91630629596f9161052c919089908990899089908990600401610c3e565b60006040518083038186803b15801561054457600080fd5b505af4158015610558573d6000803e3d6000fd5b5050506000878152602081905260408120600101549150610579848461089f565b60408051828152602081018a905290810184905290915088907f3108849c053c77b8073a11256dffb5ffd5b55e93e105a355e1c9061db890d8719060600160405180910390a25050505050505050565b60006105d48761097d565b9050816001600160a01b0316635fe8c13b60405180604001604052808660006008811061061157634e487b7160e01b600052603260045260246000fd5b602002013581526020018660016008811061063c57634e487b7160e01b600052603260045260246000fd5b602002013590526040805160808101825287820135918101918252908190606082018960036020020135815250815260200160405180604001604052808960046008811061069a57634e487b7160e01b600052603260045260246000fd5b60200201358152602001896005600881106106c557634e487b7160e01b600052603260045260246000fd5b6020020135905290526040805180820190915280886006602002013581526020018860076008811061070757634e487b7160e01b600052603260045260246000fd5b602002013581525060405180608001604052808c81526020018b81526020018781526020018a8152506040518563ffffffff1660e01b815260040161074f9493929190610bba565b60006040518083038186803b15801561076757600080fd5b505afa15801561077b573d6000803e3d6000fd5b5050505050505050505050565b6000828152602081905260409020546107b45760405163029f057960e01b815260040160405180910390fd5b600082815260208190526040908190209051630b4381fd60e11b815260048101919091526024810182905273__$0c6eb7207c37accf1552a1c47686411ac0$__9063168703fa9060440160006040518083038186803b15801561081657600080fd5b505af415801561082a573d6000803e3d6000fd5b505050600083815260208190526040812060018082015460029092015491935061085391610cfe565b604080518281526020810186905290810184905290915084907f19239b3f93cd10558aaf11423af70c77763bf54f52bcc75bfa74d4d13548cde99060600160405180910390a250505050565b600080825b60ff8116156109755760008211806108ff575084846108c4600184610d15565b60ff168181106108e457634e487b7160e01b600052603260045260246000fd5b90506020020160208101906108f99190610b70565b60ff1615155b1561096c5761090f600283610cdf565b9150848461091e600184610d15565b60ff1681811061093e57634e487b7160e01b600052603260045260246000fd5b90506020020160208101906109539190610b70565b60ff166001141561096c57610969600183610cc7565b91505b600019016108a4565b509392505050565b600060088260405160200161099491815260200190565b60408051601f198184030181529190528051602090910120901c92915050565b60008083601f8401126109c5578182fd5b50813567ffffffffffffffff8111156109dc578182fd5b6020830191508360208260051b85010111156109f757600080fd5b9250929050565b803560ff81168114610a0f57600080fd5b919050565b600060208284031215610a25578081fd5b5035919050565b6000806000806000610180808789031215610a45578182fd5b86359550602087013594506040870135935060608701359250878188011115610a6c578182fd5b506080860190509295509295909350565b60008060408385031215610a8f578182fd5b50508035926020909101359150565b60008060008060008060808789031215610ab6578081fd5b8635955060208701359450604087013567ffffffffffffffff80821115610adb578283fd5b610ae78a838b016109b4565b90965094506060890135915080821115610aff578283fd5b50610b0c89828a016109b4565b979a9699509497509295939492505050565b60008060008060808587031215610b33578384fd5b84359350610b43602086016109fe565b92506040850135915060608501356001600160a01b0381168114610b65578182fd5b939692955090935050565b600060208284031215610b81578081fd5b610b8a826109fe565b9392505050565b8060005b6002811015610bb4578151845260209384019390910190600101610b95565b50505050565b6101808101610bc98287610b91565b60408083018660005b6002811015610bf957610be6838351610b91565b9183019160209190910190600101610bd2565b50505050610c0a60c0830185610b91565b61010082018360005b6004811015610c32578151835260209283019290910190600101610c13565b50505095945050505050565b8681526000602087818401526080604084015285608084015260018060fb1b03861115610c69578182fd5b8560051b808860a0860137830183810360a0908101606086015281018590528590839060c0015b86821015610cb85760ff610ca3846109fe565b16815291830191600191909101908301610c90565b9b9a5050505050505050505050565b60008219821115610cda57610cda610d38565b500190565b6000816000190483118215151615610cf957610cf9610d38565b500290565b600082821015610d1057610d10610d38565b500390565b600060ff821660ff841680821015610d2f57610d2f610d38565b90039392505050565b634e487b7160e01b600052601160045260246000fdfea2646970667358221220e35da1117ab81e3794f262cbf313b8ad20bdfc1bb37c3bdd1148a889b912c0a364736f6c63430008040033",
  "linkReferences": {
    "@zk-kit/incremental-merkle-tree.sol/IncrementalBinaryTree.sol": {
      "IncrementalBinaryTree": [
        {
          "length": 20,
          "start": 1220
        },
        {
          "length": 20,
          "start": 1438
        },
        {
          "length": 20,
          "start": 2180
        }
      ]
    }
  },
  "deployedLinkReferences": {
    "@zk-kit/incremental-merkle-tree.sol/IncrementalBinaryTree.sol": {
      "IncrementalBinaryTree": [
        {
          "length": 20,
          "start": 1057
        },
        {
          "length": 20,
          "start": 1275
        },
        {
          "length": 20,
          "start": 2017
        }
      ]
    }
  }
}