{
  "_format": "hh-sol-artifact-1",
  "contractName": "StemQueue",
  "sourceName": "contracts/StemQueue.sol",
  "abi": [
    {
      "inputs": [
        {
          "internalType": "uint256",
          "name": "_voters",
          "type": "uint256"
        },
        {
          "internalType": "address",
          "name": "_verifier",
          "type": "address"
        }
      ],
      "stateMutability": "nonpayable",
      "type": "constructor"
    },
    {
      "inputs": [],
      "name": "Semaphore__GroupAlreadyExists",
      "type": "error"
    },
    {
      "inputs": [],
      "name": "Semaphore__GroupDoesNotExist",
      "type": "error"
    },
    {
      "inputs": [],
      "name": "Semaphore__GroupIdIsNotLessThanSnarkScalarField",
      "type": "error"
    },
    {
      "anonymous": false,
      "inputs": [
        {
          "indexed": true,
          "internalType": "uint256",
          "name": "groupId",
          "type": "uint256"
        },
        {
          "indexed": true,
          "internalType": "address",
          "name": "oldAdmin",
          "type": "address"
        },
        {
          "indexed": true,
          "internalType": "address",
          "name": "newAdmin",
          "type": "address"
        }
      ],
      "name": "GroupAdminUpdated",
      "type": "event"
    },
    {
      "anonymous": false,
      "inputs": [
        {
          "indexed": true,
          "internalType": "uint256",
          "name": "groupId",
          "type": "uint256"
        },
        {
          "indexed": false,
          "internalType": "uint256",
          "name": "merkleTreeDepth",
          "type": "uint256"
        },
        {
          "indexed": false,
          "internalType": "uint256",
          "name": "zeroValue",
          "type": "uint256"
        }
      ],
      "name": "GroupCreated",
      "type": "event"
    },
    {
      "anonymous": false,
      "inputs": [
        {
          "indexed": true,
          "internalType": "uint256",
          "name": "groupId",
          "type": "uint256"
        },
        {
          "indexed": false,
          "internalType": "uint256",
          "name": "index",
          "type": "uint256"
        },
        {
          "indexed": false,
          "internalType": "uint256",
          "name": "identityCommitment",
          "type": "uint256"
        },
        {
          "indexed": false,
          "internalType": "uint256",
          "name": "merkleTreeRoot",
          "type": "uint256"
        }
      ],
      "name": "MemberAdded",
      "type": "event"
    },
    {
      "anonymous": false,
      "inputs": [
        {
          "indexed": true,
          "internalType": "uint256",
          "name": "groupId",
          "type": "uint256"
        },
        {
          "indexed": false,
          "internalType": "uint256",
          "name": "index",
          "type": "uint256"
        },
        {
          "indexed": false,
          "internalType": "uint256",
          "name": "identityCommitment",
          "type": "uint256"
        },
        {
          "indexed": false,
          "internalType": "uint256",
          "name": "merkleTreeRoot",
          "type": "uint256"
        }
      ],
      "name": "MemberRemoved",
      "type": "event"
    },
    {
      "anonymous": false,
      "inputs": [
        {
          "indexed": true,
          "internalType": "uint256",
          "name": "groupId",
          "type": "uint256"
        },
        {
          "indexed": false,
          "internalType": "uint256",
          "name": "index",
          "type": "uint256"
        },
        {
          "indexed": false,
          "internalType": "uint256",
          "name": "identityCommitment",
          "type": "uint256"
        },
        {
          "indexed": false,
          "internalType": "uint256",
          "name": "newIdentityCommitment",
          "type": "uint256"
        },
        {
          "indexed": false,
          "internalType": "uint256",
          "name": "merkleTreeRoot",
          "type": "uint256"
        }
      ],
      "name": "MemberUpdated",
      "type": "event"
    },
    {
      "anonymous": false,
      "inputs": [
        {
          "indexed": false,
          "internalType": "bytes32",
          "name": "vote",
          "type": "bytes32"
        }
      ],
      "name": "NewVote",
      "type": "event"
    },
    {
      "anonymous": false,
      "inputs": [
        {
          "indexed": false,
          "internalType": "uint256",
          "name": "nullifierHash",
          "type": "uint256"
        }
      ],
      "name": "NullifierHashAdded",
      "type": "event"
    },
    {
      "inputs": [
        {
          "internalType": "uint256",
          "name": "groupId",
          "type": "uint256"
        },
        {
          "internalType": "uint256",
          "name": "identityCommitment",
          "type": "uint256"
        }
      ],
      "name": "addMemberToProjectGroup",
      "outputs": [],
      "stateMutability": "nonpayable",
      "type": "function"
    },
    {
      "inputs": [
        {
          "internalType": "uint8",
          "name": "depth",
          "type": "uint8"
        },
        {
          "internalType": "uint256",
          "name": "zeroValue",
          "type": "uint256"
        },
        {
          "internalType": "address",
          "name": "admin",
          "type": "address"
        }
      ],
      "name": "createProjectGroup",
      "outputs": [],
      "stateMutability": "nonpayable",
      "type": "function"
    },
    {
      "inputs": [
        {
          "internalType": "uint256",
          "name": "groupId",
          "type": "uint256"
        }
      ],
      "name": "getMerkleTreeDepth",
      "outputs": [
        {
          "internalType": "uint256",
          "name": "",
          "type": "uint256"
        }
      ],
      "stateMutability": "view",
      "type": "function"
    },
    {
      "inputs": [
        {
          "internalType": "uint256",
          "name": "groupId",
          "type": "uint256"
        }
      ],
      "name": "getMerkleTreeRoot",
      "outputs": [
        {
          "internalType": "uint256",
          "name": "",
          "type": "uint256"
        }
      ],
      "stateMutability": "view",
      "type": "function"
    },
    {
      "inputs": [
        {
          "internalType": "uint256",
          "name": "groupId",
          "type": "uint256"
        }
      ],
      "name": "getNumberOfMerkleTreeLeaves",
      "outputs": [
        {
          "internalType": "uint256",
          "name": "",
          "type": "uint256"
        }
      ],
      "stateMutability": "view",
      "type": "function"
    },
    {
      "inputs": [
        {
          "internalType": "uint256",
          "name": "",
          "type": "uint256"
        }
      ],
      "name": "groupAdmins",
      "outputs": [
        {
          "internalType": "address",
          "name": "",
          "type": "address"
        }
      ],
      "stateMutability": "view",
      "type": "function"
    },
    {
      "inputs": [
        {
          "internalType": "uint256",
          "name": "groupId",
          "type": "uint256"
        },
        {
          "internalType": "uint256",
          "name": "identityCommitment",
          "type": "uint256"
        },
        {
          "internalType": "uint256[]",
          "name": "proofSiblings",
          "type": "uint256[]"
        },
        {
          "internalType": "uint8[]",
          "name": "proofPathIndices",
          "type": "uint8[]"
        }
      ],
      "name": "removeMemberFromProjectGroup",
      "outputs": [],
      "stateMutability": "nonpayable",
      "type": "function"
    },
    {
      "inputs": [
        {
          "internalType": "bytes32",
          "name": "",
          "type": "bytes32"
        }
      ],
      "name": "stemVoteCounts",
      "outputs": [
        {
          "internalType": "uint256",
          "name": "_value",
          "type": "uint256"
        }
      ],
      "stateMutability": "view",
      "type": "function"
    },
    {
      "inputs": [],
      "name": "verifier",
      "outputs": [
        {
          "internalType": "contract IVerifier",
          "name": "",
          "type": "address"
        }
      ],
      "stateMutability": "view",
      "type": "function"
    },
    {
      "inputs": [
        {
          "internalType": "bytes32",
          "name": "_vote",
          "type": "bytes32"
        },
        {
          "internalType": "uint256",
          "name": "groupId",
          "type": "uint256"
        },
        {
          "internalType": "uint256",
          "name": "externalNullifier",
          "type": "uint256"
        },
        {
          "internalType": "uint256",
          "name": "_nullifierHash",
          "type": "uint256"
        },
        {
          "internalType": "uint256[8]",
          "name": "_proof",
          "type": "uint256[8]"
        }
      ],
      "name": "vote",
      "outputs": [],
      "stateMutability": "nonpayable",
      "type": "function"
    },
    {
      "inputs": [],
      "name": "voters",
      "outputs": [
        {
          "internalType": "uint256",
          "name": "",
          "type": "uint256"
        }
      ],
      "stateMutability": "view",
      "type": "function"
    }
  ],
  "bytecode": "0x608060405234801561001057600080fd5b50604051610e09380380610e0983398101604081905261002f91610059565b600391909155600480546001600160a01b0319166001600160a01b03909216919091179055610094565b6000806040838503121561006b578182fd5b825160208401519092506001600160a01b0381168114610089578182fd5b809150509250929050565b610d66806100a36000396000f3fe608060405234801561001057600080fd5b50600436106100a95760003560e01c806375e618c91161007157806375e618c9146101305780639b24b3b014610165578063a183e46d14610189578063ac28eacd1461019c578063b9c78c2b146101c5578063c65ea2e2146101e857600080fd5b80632b7ac3f3146100ae578063350580ea146100de5780634001072f146100f55780636407b9cb1461010a57806364ce8d421461011d575b600080fd5b6004546100c1906001600160a01b031681565b6040516001600160a01b0390911681526020015b60405180910390f35b6100e760035481565b6040519081526020016100d5565b610108610103366004610b6b565b610208565b005b610108610118366004610aeb565b61028b565b61010861012b366004610a79565b610320565b61015361013e366004610a61565b60009081526001602052604090205460ff1690565b60405160ff90911681526020016100d5565b6100e7610173366004610a61565b6000908152600160208190526040909120015490565b610108610197366004610aca565b6103c1565b6100c16101aa366004610a61565b6005602052600090815260409020546001600160a01b031681565b6100e76101d3366004610a61565b60009081526001602052604090206002015490565b6100e76101f6366004610a61565b60066020526000908152604090205481565b610216600280546001019055565b600061022160025490565b905061022e8185856103cf565b60008181526005602052604080822080546001600160a01b0319166001600160a01b038616908117909155905190919083907f0ba83579a0e79193ef649b9f5a8759d35af086ba62a3e207b52e4a8ae30d49e3908390a450505050565b60008681526005602052604090205486906001600160a01b031633146103095760405162461bcd60e51b815260206004820152602860248201527f53656d6170686f72653a2063616c6c6572206973206e6f74207468652067726f6044820152673ab81030b236b4b760c11b60648201526084015b60405180910390fd5b610317878787878787610591565b50505050505050565b6000848152600160208190526040909120015460045461035290879083908690889087906001600160a01b0316610699565b610371836000908152602081905260409020805460ff19166001179055565b6000868152600660205260409020805460010190556040518681527fd11f40af0b3c54462335a335e34a81d6d23dfd5e837d93907231333fab1146499060200160405180910390a1505050505050565b6103cb82826108d6565b5050565b7f30644e72e131a029b85045b68181585d2833e84879b9709143e1f593f0000001831061045d5760405162461bcd60e51b815260206004820152603660248201527f53656d6170686f726547726f7570733a2067726f7570206964206d757374206260448201527519480f0814d3905492d7d4d0d053105497d19251531160521b6064820152608401610300565b60008381526001602052604090205460ff16156104ca5760405162461bcd60e51b815260206004820152602560248201527f53656d6170686f726547726f7570733a2067726f757020616c72656164792065604482015264786973747360d81b6064820152608401610300565b60008381526001602052604090819020905163b4bdd11760e01b8152600481019190915260ff831660248201526044810182905273__$4c0484323457fe1a856f46a4759b553fe4$__9063b4bdd1179060640160006040518083038186803b15801561053557600080fd5b505af4158015610549573d6000803e3d6000fd5b50506040805160ff86168152602081018590528693507fc3082aa494e9088c2c9f0fb62a0b6bd46e6699acb94cfba35be29b95a93f68c89250015b60405180910390a2505050565b60008681526001602052604090205460ff166105bf5760405162461bcd60e51b815260040161030090610c62565b600086815260016020526040908190209051630629596f60e01b815273__$4c0484323457fe1a856f46a4759b553fe4$__91630629596f9161060e919089908990899089908990600401610ca7565b60006040518083038186803b15801561062657600080fd5b505af415801561063a573d6000803e3d6000fd5b505050600087815260016020819052604082200154909150604080518881526020810183905291925088917fe270325ded177064d7bda473e6519ef40a291058c41286f71a6e4872f1e9ab5c910160405180910390a250505050505050565b60008481526020819052604090205460ff16156107175760405162461bcd60e51b815260206004820152603660248201527f53656d6170686f7265436f72653a20796f752063616e6e6f7420757365207468604482015275652073616d65206e756c6c696669657220747769636560501b6064820152608401610300565b6000610722876109ca565b9050816001600160a01b0316635fe8c13b60405180604001604052808660006008811061075f57634e487b7160e01b600052603260045260246000fd5b602002013581526020018660016008811061078a57634e487b7160e01b600052603260045260246000fd5b60200201359052604080516080810182528782013591810191825290819060608201896003602002013581525081526020016040518060400160405280896004600881106107e857634e487b7160e01b600052603260045260246000fd5b602002013581526020018960056008811061081357634e487b7160e01b600052603260045260246000fd5b6020020135905290526040805180820190915280886006602002013581526020018860076008811061085557634e487b7160e01b600052603260045260246000fd5b602002013581525060405180608001604052808c81526020018b81526020018781526020018a8152506040518563ffffffff1660e01b815260040161089d9493929190610bde565b60006040518083038186803b1580156108b557600080fd5b505afa1580156108c9573d6000803e3d6000fd5b5050505050505050505050565b60008281526001602052604090205460ff166109045760405162461bcd60e51b815260040161030090610c62565b600082815260016020526040908190209051630b4381fd60e11b815260048101919091526024810182905273__$4c0484323457fe1a856f46a4759b553fe4$__9063168703fa9060440160006040518083038186803b15801561096657600080fd5b505af415801561097a573d6000803e3d6000fd5b505050600083815260016020818152604092839020909101548251858152918201819052925084917f03fd27265b7dd1f55558bedc22a58fa3b10afb1be776e614bd5a7ba7b94994069101610584565b60006008826040516020016109e191815260200190565b60408051601f198184030181529190528051602090910120901c92915050565b60008083601f840112610a12578182fd5b50813567ffffffffffffffff811115610a29578182fd5b6020830191508360208260051b8501011115610a4457600080fd5b9250929050565b803560ff81168114610a5c57600080fd5b919050565b600060208284031215610a72578081fd5b5035919050565b6000806000806000610180808789031215610a92578182fd5b86359550602087013594506040870135935060608701359250878188011115610ab9578182fd5b506080860190509295509295909350565b60008060408385031215610adc578182fd5b50508035926020909101359150565b60008060008060008060808789031215610b03578081fd5b8635955060208701359450604087013567ffffffffffffffff80821115610b28578283fd5b610b348a838b01610a01565b90965094506060890135915080821115610b4c578283fd5b50610b5989828a01610a01565b979a9699509497509295939492505050565b600080600060608486031215610b7f578283fd5b610b8884610a4b565b92506020840135915060408401356001600160a01b0381168114610baa578182fd5b809150509250925092565b8060005b6002811015610bd8578151845260209384019390910190600101610bb9565b50505050565b6101808101610bed8287610bb5565b60408083018660005b6002811015610c1d57610c0a838351610bb5565b9183019160209190910190600101610bf6565b50505050610c2e60c0830185610bb5565b61010082018360005b6004811015610c56578151835260209283019290910190600101610c37565b50505095945050505050565b60208082526025908201527f53656d6170686f726547726f7570733a2067726f757020646f6573206e6f7420604082015264195e1a5cdd60da1b606082015260800190565b8681526000602087818401526080604084015285608084015260018060fb1b03861115610cd2578182fd5b8560051b808860a0860137830183810360a0908101606086015281018590528590839060c0015b86821015610d215760ff610d0c84610a4b565b16815291830191600191909101908301610cf9565b9b9a505050505050505050505056fea2646970667358221220d5e193c9aa6588a90dfea7b8c9e1877bdbd3c8cf56a5e4e6297fe670e58e060364736f6c63430008040033",
  "linkReferences": {
    "@zk-kit/incremental-merkle-tree.sol/IncrementalBinaryTree.sol": {
      "IncrementalBinaryTree": [
        {
          "length": 20,
          "start": 1443
        },
        {
          "length": 20,
          "start": 1664
        },
        {
          "length": 20,
          "start": 2516
        }
      ]
    }
  },
  "deployedLinkReferences": {
    "@zk-kit/incremental-merkle-tree.sol/IncrementalBinaryTree.sol": {
      "IncrementalBinaryTree": [
        {
          "length": 20,
          "start": 1280
        },
        {
          "length": 20,
          "start": 1501
        },
        {
          "length": 20,
          "start": 2353
        }
      ]
    }
  }
}