{
  "_format": "hh-sol-artifact-1",
  "contractName": "StemQueue",
  "sourceName": "contracts/StemQueue.sol",
  "abi": [
    {
      "inputs": [
        {
          "internalType": "uint256",
          "name": "_voters",
          "type": "uint256"
        },
        {
          "internalType": "address",
          "name": "_verifier",
          "type": "address"
        }
      ],
      "stateMutability": "nonpayable",
      "type": "constructor"
    },
    {
      "inputs": [],
      "name": "Semaphore__GroupAlreadyExists",
      "type": "error"
    },
    {
      "inputs": [],
      "name": "Semaphore__GroupDoesNotExist",
      "type": "error"
    },
    {
      "inputs": [],
      "name": "Semaphore__GroupIdIsNotLessThanSnarkScalarField",
      "type": "error"
    },
    {
      "anonymous": false,
      "inputs": [
        {
          "indexed": true,
          "internalType": "uint256",
          "name": "groupId",
          "type": "uint256"
        },
        {
          "indexed": true,
          "internalType": "address",
          "name": "oldAdmin",
          "type": "address"
        },
        {
          "indexed": true,
          "internalType": "address",
          "name": "newAdmin",
          "type": "address"
        }
      ],
      "name": "GroupAdminUpdated",
      "type": "event"
    },
    {
      "anonymous": false,
      "inputs": [
        {
          "indexed": true,
          "internalType": "uint256",
          "name": "groupId",
          "type": "uint256"
        },
        {
          "indexed": false,
          "internalType": "uint256",
          "name": "merkleTreeDepth",
          "type": "uint256"
        },
        {
          "indexed": false,
          "internalType": "uint256",
          "name": "zeroValue",
          "type": "uint256"
        }
      ],
      "name": "GroupCreated",
      "type": "event"
    },
    {
      "anonymous": false,
      "inputs": [
        {
          "indexed": true,
          "internalType": "uint256",
          "name": "groupId",
          "type": "uint256"
        },
        {
          "indexed": false,
          "internalType": "uint256",
          "name": "index",
          "type": "uint256"
        },
        {
          "indexed": false,
          "internalType": "uint256",
          "name": "identityCommitment",
          "type": "uint256"
        },
        {
          "indexed": false,
          "internalType": "uint256",
          "name": "merkleTreeRoot",
          "type": "uint256"
        }
      ],
      "name": "MemberAdded",
      "type": "event"
    },
    {
      "anonymous": false,
      "inputs": [
        {
          "indexed": true,
          "internalType": "uint256",
          "name": "groupId",
          "type": "uint256"
        },
        {
          "indexed": false,
          "internalType": "uint256",
          "name": "index",
          "type": "uint256"
        },
        {
          "indexed": false,
          "internalType": "uint256",
          "name": "identityCommitment",
          "type": "uint256"
        },
        {
          "indexed": false,
          "internalType": "uint256",
          "name": "merkleTreeRoot",
          "type": "uint256"
        }
      ],
      "name": "MemberRemoved",
      "type": "event"
    },
    {
      "anonymous": false,
      "inputs": [
        {
          "indexed": true,
          "internalType": "uint256",
          "name": "groupId",
          "type": "uint256"
        },
        {
          "indexed": false,
          "internalType": "uint256",
          "name": "index",
          "type": "uint256"
        },
        {
          "indexed": false,
          "internalType": "uint256",
          "name": "identityCommitment",
          "type": "uint256"
        },
        {
          "indexed": false,
          "internalType": "uint256",
          "name": "newIdentityCommitment",
          "type": "uint256"
        },
        {
          "indexed": false,
          "internalType": "uint256",
          "name": "merkleTreeRoot",
          "type": "uint256"
        }
      ],
      "name": "MemberUpdated",
      "type": "event"
    },
    {
      "anonymous": false,
      "inputs": [
        {
          "indexed": false,
          "internalType": "bytes32",
          "name": "vote",
          "type": "bytes32"
        }
      ],
      "name": "NewVote",
      "type": "event"
    },
    {
      "anonymous": false,
      "inputs": [
        {
          "indexed": false,
          "internalType": "uint256",
          "name": "nullifierHash",
          "type": "uint256"
        }
      ],
      "name": "NullifierHashAdded",
      "type": "event"
    },
    {
      "inputs": [
        {
          "internalType": "uint256",
          "name": "groupId",
          "type": "uint256"
        },
        {
          "internalType": "uint256",
          "name": "identityCommitment",
          "type": "uint256"
        }
      ],
      "name": "addMemberToProjectGroup",
      "outputs": [],
      "stateMutability": "nonpayable",
      "type": "function"
    },
    {
      "inputs": [
        {
          "internalType": "uint8",
          "name": "depth",
          "type": "uint8"
        },
        {
          "internalType": "uint256",
          "name": "zeroValue",
          "type": "uint256"
        },
        {
          "internalType": "address",
          "name": "admin",
          "type": "address"
        }
      ],
      "name": "createProjectGroup",
      "outputs": [],
      "stateMutability": "nonpayable",
      "type": "function"
    },
    {
      "inputs": [
        {
          "internalType": "uint256",
          "name": "groupId",
          "type": "uint256"
        }
      ],
      "name": "getMerkleTreeDepth",
      "outputs": [
        {
          "internalType": "uint256",
          "name": "",
          "type": "uint256"
        }
      ],
      "stateMutability": "view",
      "type": "function"
    },
    {
      "inputs": [
        {
          "internalType": "uint256",
          "name": "groupId",
          "type": "uint256"
        }
      ],
      "name": "getMerkleTreeRoot",
      "outputs": [
        {
          "internalType": "uint256",
          "name": "",
          "type": "uint256"
        }
      ],
      "stateMutability": "view",
      "type": "function"
    },
    {
      "inputs": [
        {
          "internalType": "uint256",
          "name": "groupId",
          "type": "uint256"
        }
      ],
      "name": "getNumberOfMerkleTreeLeaves",
      "outputs": [
        {
          "internalType": "uint256",
          "name": "",
          "type": "uint256"
        }
      ],
      "stateMutability": "view",
      "type": "function"
    },
    {
      "inputs": [
        {
          "internalType": "uint256",
          "name": "",
          "type": "uint256"
        }
      ],
      "name": "groupAdmins",
      "outputs": [
        {
          "internalType": "address",
          "name": "",
          "type": "address"
        }
      ],
      "stateMutability": "view",
      "type": "function"
    },
    {
      "inputs": [
        {
          "internalType": "uint256",
          "name": "groupId",
          "type": "uint256"
        },
        {
          "internalType": "uint256",
          "name": "identityCommitment",
          "type": "uint256"
        },
        {
          "internalType": "uint256[]",
          "name": "proofSiblings",
          "type": "uint256[]"
        },
        {
          "internalType": "uint8[]",
          "name": "proofPathIndices",
          "type": "uint8[]"
        }
      ],
      "name": "removeMemberFromProjectGroup",
      "outputs": [],
      "stateMutability": "nonpayable",
      "type": "function"
    },
    {
      "inputs": [
        {
          "internalType": "bytes32",
          "name": "",
          "type": "bytes32"
        }
      ],
      "name": "stemVoteCounts",
      "outputs": [
        {
          "internalType": "uint256",
          "name": "_value",
          "type": "uint256"
        }
      ],
      "stateMutability": "view",
      "type": "function"
    },
    {
      "inputs": [],
      "name": "verifier",
      "outputs": [
        {
          "internalType": "contract IVerifier",
          "name": "",
          "type": "address"
        }
      ],
      "stateMutability": "view",
      "type": "function"
    },
    {
      "inputs": [
        {
          "internalType": "bytes32",
          "name": "_vote",
          "type": "bytes32"
        },
        {
          "internalType": "uint256",
          "name": "groupId",
          "type": "uint256"
        },
        {
          "internalType": "uint256",
          "name": "externalNullifier",
          "type": "uint256"
        },
        {
          "internalType": "uint256",
          "name": "_nullifierHash",
          "type": "uint256"
        },
        {
          "internalType": "uint256[8]",
          "name": "_proof",
          "type": "uint256[8]"
        }
      ],
      "name": "vote",
      "outputs": [],
      "stateMutability": "nonpayable",
      "type": "function"
    },
    {
      "inputs": [],
      "name": "voters",
      "outputs": [
        {
          "internalType": "uint256",
          "name": "",
          "type": "uint256"
        }
      ],
      "stateMutability": "view",
      "type": "function"
    }
  ],
  "bytecode": "0x608060405234801561001057600080fd5b50604051610ec9380380610ec983398101604081905261002f91610059565b600291909155600380546001600160a01b0319166001600160a01b03909216919091179055610094565b6000806040838503121561006b578182fd5b825160208401519092506001600160a01b0381168114610089578182fd5b809150509250929050565b610e26806100a36000396000f3fe608060405234801561001057600080fd5b50600436106100a95760003560e01c80636407b9cb116100715780636407b9cb1461014d57806364ce8d4214610160578063a183e46d14610173578063ac28eacd14610186578063c65ea2e2146101af578063dabc4d51146101cf57600080fd5b80632b7ac3f3146100ae578063350580ea146100de5780634001072f146100f5578063638480be1461010a5780636389e1071461012d575b600080fd5b6003546100c1906001600160a01b031681565b6040516001600160a01b0390911681526020015b60405180910390f35b6100e760025481565b6040519081526020016100d5565b610108610103366004610be9565b6101f2565b005b6100e7610118366004610abe565b60009081526020819052604090206002015490565b6100e761013b366004610abe565b60009081526020819052604090205490565b61010861015b366004610b48565b610278565b61010861016e366004610ad6565b61030d565b610108610181366004610b27565b61041c565b6100c1610194366004610abe565b6004602052600090815260409020546001600160a01b031681565b6100e76101bd366004610abe565b60056020526000908152604090205481565b6100e76101dd366004610abe565b60009081526020819052604090206001015490565b610200600180546001019055565b600061020b60015490565b905061021b818560ff168561042a565b60008181526004602052604080822080546001600160a01b0319166001600160a01b038616908117909155905190919083907f0ba83579a0e79193ef649b9f5a8759d35af086ba62a3e207b52e4a8ae30d49e3908390a450505050565b60008681526004602052604090205486906001600160a01b031633146102f65760405162461bcd60e51b815260206004820152602860248201527f53656d6170686f72653a2063616c6c6572206973206e6f74207468652067726f6044820152673ab81030b236b4b760c11b60648201526084015b60405180910390fd5b610304878787878787610558565b50505050505050565b60008281526006602052604090205460ff161561037d5760405162461bcd60e51b815260206004820152602860248201527f596f752063616e206e6f7420757365207468652073616d65206e756c6c696669604482015267657220747769636560c01b60648201526084016102ed565b6000848152602081905260409020600101546003546103ae90879083908690889087906001600160a01b0316610673565b6000838152600660209081526040808320805460ff19166001179055888352600590915290206103e19080546001019055565b6040518681527fd11f40af0b3c54462335a335e34a81d6d23dfd5e837d93907231333fab1146499060200160405180910390a1505050505050565b6104268282610832565b5050565b7f30644e72e131a029b85045b68181585d2833e84879b9709143e1f593f0000001831061046a5760405163530e3c6560e11b815260040160405180910390fd5b6000838152602081905260409020541561049757604051638121725b60e01b815260040160405180910390fd5b6000838152602081905260409081902090516304257eed60e21b81526004810191909152602481018390526044810182905273__$0c6eb7207c37accf1552a1c47686411ac0$__90631095fbb49060640160006040518083038186803b15801561050057600080fd5b505af4158015610514573d6000803e3d6000fd5b505060408051858152602081018590528693507f0d000126c26c1bbe400fd2332187f75d58b69306f9ec47b408686189d3a0083392500160405180910390a2505050565b6000868152602081905260409020600101546105875760405163029f057960e01b815260040160405180910390fd5b600086815260208190526040908190209051630629596f60e01b815273__$0c6eb7207c37accf1552a1c47686411ac0$__91630629596f916105d6919089908990899089908990600401610ce0565b60006040518083038186803b1580156105ee57600080fd5b505af4158015610602573d6000803e3d6000fd5b50505060008781526020819052604081206001015491506106238484610949565b60408051828152602081018a905290810184905290915088907f3108849c053c77b8073a11256dffb5ffd5b55e93e105a355e1c9061db890d8719060600160405180910390a25050505050505050565b600061067e87610a27565b9050816001600160a01b0316635fe8c13b6040518060400160405280866000600881106106bb57634e487b7160e01b600052603260045260246000fd5b60200201358152602001866001600881106106e657634e487b7160e01b600052603260045260246000fd5b602002013590526040805160808101825287820135918101918252908190606082018960036020020135815250815260200160405180604001604052808960046008811061074457634e487b7160e01b600052603260045260246000fd5b602002013581526020018960056008811061076f57634e487b7160e01b600052603260045260246000fd5b602002013590529052604080518082019091528088600660200201358152602001886007600881106107b157634e487b7160e01b600052603260045260246000fd5b602002013581525060405180608001604052808c81526020018b81526020018781526020018a8152506040518563ffffffff1660e01b81526004016107f99493929190610c5c565b60006040518083038186803b15801561081157600080fd5b505afa158015610825573d6000803e3d6000fd5b5050505050505050505050565b60008281526020819052604090205461085e5760405163029f057960e01b815260040160405180910390fd5b600082815260208190526040908190209051630b4381fd60e11b815260048101919091526024810182905273__$0c6eb7207c37accf1552a1c47686411ac0$__9063168703fa9060440160006040518083038186803b1580156108c057600080fd5b505af41580156108d4573d6000803e3d6000fd5b50505060008381526020819052604081206001808201546002909201549193506108fd91610da0565b604080518281526020810186905290810184905290915084907f19239b3f93cd10558aaf11423af70c77763bf54f52bcc75bfa74d4d13548cde99060600160405180910390a250505050565b600080825b60ff811615610a1f5760008211806109a95750848461096e600184610db7565b60ff1681811061098e57634e487b7160e01b600052603260045260246000fd5b90506020020160208101906109a39190610bc8565b60ff1615155b15610a16576109b9600283610d81565b915084846109c8600184610db7565b60ff168181106109e857634e487b7160e01b600052603260045260246000fd5b90506020020160208101906109fd9190610bc8565b60ff1660011415610a1657610a13600183610d69565b91505b6000190161094e565b509392505050565b6000600882604051602001610a3e91815260200190565b60408051601f198184030181529190528051602090910120901c92915050565b60008083601f840112610a6f578182fd5b50813567ffffffffffffffff811115610a86578182fd5b6020830191508360208260051b8501011115610aa157600080fd5b9250929050565b803560ff81168114610ab957600080fd5b919050565b600060208284031215610acf578081fd5b5035919050565b6000806000806000610180808789031215610aef578182fd5b86359550602087013594506040870135935060608701359250878188011115610b16578182fd5b506080860190509295509295909350565b60008060408385031215610b39578182fd5b50508035926020909101359150565b60008060008060008060808789031215610b60578081fd5b8635955060208701359450604087013567ffffffffffffffff80821115610b85578283fd5b610b918a838b01610a5e565b90965094506060890135915080821115610ba9578283fd5b50610bb689828a01610a5e565b979a9699509497509295939492505050565b600060208284031215610bd9578081fd5b610be282610aa8565b9392505050565b600080600060608486031215610bfd578283fd5b610c0684610aa8565b92506020840135915060408401356001600160a01b0381168114610c28578182fd5b809150509250925092565b8060005b6002811015610c56578151845260209384019390910190600101610c37565b50505050565b6101808101610c6b8287610c33565b60408083018660005b6002811015610c9b57610c88838351610c33565b9183019160209190910190600101610c74565b50505050610cac60c0830185610c33565b61010082018360005b6004811015610cd4578151835260209283019290910190600101610cb5565b50505095945050505050565b8681526000602087818401526080604084015285608084015260018060fb1b03861115610d0b578182fd5b8560051b808860a0860137830183810360a0908101606086015281018590528590839060c0015b86821015610d5a5760ff610d4584610aa8565b16815291830191600191909101908301610d32565b9b9a5050505050505050505050565b60008219821115610d7c57610d7c610dda565b500190565b6000816000190483118215151615610d9b57610d9b610dda565b500290565b600082821015610db257610db2610dda565b500390565b600060ff821660ff841680821015610dd157610dd1610dda565b90039392505050565b634e487b7160e01b600052601160045260246000fdfea26469706673582212206e7575ff9bce099078160abfca8d64db333a9e36a27e690eb4d371a1a6419a0d64736f6c63430008040033",
  "linkReferences": {
    "@zk-kit/incremental-merkle-tree.sol/IncrementalBinaryTree.sol": {
      "IncrementalBinaryTree": [
        {
          "length": 20,
          "start": 1390
        },
        {
          "length": 20,
          "start": 1608
        },
        {
          "length": 20,
          "start": 2350
        }
      ]
    }
  },
  "deployedLinkReferences": {
    "@zk-kit/incremental-merkle-tree.sol/IncrementalBinaryTree.sol": {
      "IncrementalBinaryTree": [
        {
          "length": 20,
          "start": 1227
        },
        {
          "length": 20,
          "start": 1445
        },
        {
          "length": 20,
          "start": 2187
        }
      ]
    }
  }
}