{
  "_format": "hh-sol-artifact-1",
  "contractName": "StemQueue",
  "sourceName": "contracts/StemQueue.sol",
  "abi": [
    {
      "inputs": [
        {
          "internalType": "uint256",
          "name": "_voters",
          "type": "uint256"
        },
        {
          "internalType": "address",
          "name": "_verifier",
          "type": "address"
        }
      ],
      "stateMutability": "nonpayable",
      "type": "constructor"
    },
    {
      "anonymous": false,
      "inputs": [
        {
          "indexed": true,
          "internalType": "uint256",
          "name": "groupId",
          "type": "uint256"
        },
        {
          "indexed": true,
          "internalType": "address",
          "name": "oldAdmin",
          "type": "address"
        },
        {
          "indexed": true,
          "internalType": "address",
          "name": "newAdmin",
          "type": "address"
        }
      ],
      "name": "GroupAdminUpdated",
      "type": "event"
    },
    {
      "anonymous": false,
      "inputs": [
        {
          "indexed": true,
          "internalType": "uint256",
          "name": "groupId",
          "type": "uint256"
        },
        {
          "indexed": false,
          "internalType": "uint8",
          "name": "depth",
          "type": "uint8"
        },
        {
          "indexed": false,
          "internalType": "uint256",
          "name": "zeroValue",
          "type": "uint256"
        }
      ],
      "name": "GroupCreated",
      "type": "event"
    },
    {
      "anonymous": false,
      "inputs": [
        {
          "indexed": true,
          "internalType": "uint256",
          "name": "groupId",
          "type": "uint256"
        },
        {
          "indexed": false,
          "internalType": "uint256",
          "name": "identityCommitment",
          "type": "uint256"
        },
        {
          "indexed": false,
          "internalType": "uint256",
          "name": "root",
          "type": "uint256"
        }
      ],
      "name": "MemberAdded",
      "type": "event"
    },
    {
      "anonymous": false,
      "inputs": [
        {
          "indexed": true,
          "internalType": "uint256",
          "name": "groupId",
          "type": "uint256"
        },
        {
          "indexed": false,
          "internalType": "uint256",
          "name": "identityCommitment",
          "type": "uint256"
        },
        {
          "indexed": false,
          "internalType": "uint256",
          "name": "root",
          "type": "uint256"
        }
      ],
      "name": "MemberRemoved",
      "type": "event"
    },
    {
      "anonymous": false,
      "inputs": [
        {
          "indexed": false,
          "internalType": "bytes32",
          "name": "vote",
          "type": "bytes32"
        }
      ],
      "name": "NewVote",
      "type": "event"
    },
    {
      "anonymous": false,
      "inputs": [
        {
          "indexed": false,
          "internalType": "uint256",
          "name": "nullifierHash",
          "type": "uint256"
        }
      ],
      "name": "NullifierHashAdded",
      "type": "event"
    },
    {
      "inputs": [
        {
          "internalType": "uint256",
          "name": "groupId",
          "type": "uint256"
        },
        {
          "internalType": "uint256",
          "name": "identityCommitment",
          "type": "uint256"
        }
      ],
      "name": "addMemberToProjectGroup",
      "outputs": [],
      "stateMutability": "nonpayable",
      "type": "function"
    },
    {
      "inputs": [
        {
          "internalType": "uint256",
          "name": "groupId",
          "type": "uint256"
        },
        {
          "internalType": "uint8",
          "name": "depth",
          "type": "uint8"
        },
        {
          "internalType": "uint256",
          "name": "zeroValue",
          "type": "uint256"
        },
        {
          "internalType": "address",
          "name": "admin",
          "type": "address"
        }
      ],
      "name": "createProjectGroup",
      "outputs": [],
      "stateMutability": "nonpayable",
      "type": "function"
    },
    {
      "inputs": [
        {
          "internalType": "uint256",
          "name": "groupId",
          "type": "uint256"
        }
      ],
      "name": "getDepth",
      "outputs": [
        {
          "internalType": "uint8",
          "name": "",
          "type": "uint8"
        }
      ],
      "stateMutability": "view",
      "type": "function"
    },
    {
      "inputs": [
        {
          "internalType": "uint256",
          "name": "groupId",
          "type": "uint256"
        }
      ],
      "name": "getNumberOfLeaves",
      "outputs": [
        {
          "internalType": "uint256",
          "name": "",
          "type": "uint256"
        }
      ],
      "stateMutability": "view",
      "type": "function"
    },
    {
      "inputs": [
        {
          "internalType": "uint256",
          "name": "groupId",
          "type": "uint256"
        }
      ],
      "name": "getRoot",
      "outputs": [
        {
          "internalType": "uint256",
          "name": "",
          "type": "uint256"
        }
      ],
      "stateMutability": "view",
      "type": "function"
    },
    {
      "inputs": [
        {
          "internalType": "uint256",
          "name": "",
          "type": "uint256"
        }
      ],
      "name": "groupAdmins",
      "outputs": [
        {
          "internalType": "address",
          "name": "",
          "type": "address"
        }
      ],
      "stateMutability": "view",
      "type": "function"
    },
    {
      "inputs": [
        {
          "internalType": "uint256",
          "name": "groupId",
          "type": "uint256"
        },
        {
          "internalType": "uint256",
          "name": "identityCommitment",
          "type": "uint256"
        },
        {
          "internalType": "uint256[]",
          "name": "proofSiblings",
          "type": "uint256[]"
        },
        {
          "internalType": "uint8[]",
          "name": "proofPathIndices",
          "type": "uint8[]"
        }
      ],
      "name": "removeMemberFromProjectGroup",
      "outputs": [],
      "stateMutability": "nonpayable",
      "type": "function"
    },
    {
      "inputs": [
        {
          "internalType": "bytes32",
          "name": "",
          "type": "bytes32"
        }
      ],
      "name": "stemVoteCounts",
      "outputs": [
        {
          "internalType": "uint256",
          "name": "_value",
          "type": "uint256"
        }
      ],
      "stateMutability": "view",
      "type": "function"
    },
    {
      "inputs": [],
      "name": "verifier",
      "outputs": [
        {
          "internalType": "contract IVerifier",
          "name": "",
          "type": "address"
        }
      ],
      "stateMutability": "view",
      "type": "function"
    },
    {
      "inputs": [
        {
          "internalType": "bytes32",
          "name": "_vote",
          "type": "bytes32"
        },
        {
          "internalType": "uint256",
          "name": "_nullifierHash",
          "type": "uint256"
        },
        {
          "internalType": "uint256[8]",
          "name": "_proof",
          "type": "uint256[8]"
        }
      ],
      "name": "vote",
      "outputs": [],
      "stateMutability": "nonpayable",
      "type": "function"
    },
    {
      "inputs": [],
      "name": "voters",
      "outputs": [
        {
          "internalType": "uint256",
          "name": "",
          "type": "uint256"
        }
      ],
      "stateMutability": "view",
      "type": "function"
    }
  ],
  "bytecode": "0x608060405234801561001057600080fd5b50604051610dcd380380610dcd83398101604081905261002f91610059565b600391909155600480546001600160a01b0319166001600160a01b03909216919091179055610094565b6000806040838503121561006b578182fd5b825160208401519092506001600160a01b0381168114610089578182fd5b809150509250929050565b610d2a806100a36000396000f3fe608060405234801561001057600080fd5b50600436106100a95760003560e01c80639b24b3b0116100715780639b24b3b014610152578063a183e46d14610176578063ac28eacd14610189578063ae31d856146101b2578063b9c78c2b146101c5578063c65ea2e2146101e857600080fd5b806303511e75146100ae5780632b7ac3f3146100c3578063350580ea146100f35780636407b9cb1461010a57806375e618c91461011d575b600080fd5b6100c16100bc366004610b27565b610208565b005b6004546100d6906001600160a01b031681565b6040516001600160a01b0390911681526020015b60405180910390f35b6100fc60035481565b6040519081526020016100ea565b6100c1610118366004610aa7565b610270565b61014061012b366004610a31565b60009081526001602052604090205460ff1690565b60405160ff90911681526020016100ea565b6100fc610160366004610a31565b6000908152600160208190526040909120015490565b6100c1610184366004610a86565b610305565b6100d6610197366004610a31565b6005602052600090815260409020546001600160a01b031681565b6100c16101c0366004610a49565b610313565b6100fc6101d3366004610a31565b60009081526001602052604090206002015490565b6100fc6101f6366004610a31565b60066020526000908152604090205481565b61021384848461039f565b60008481526005602052604080822080546001600160a01b0319166001600160a01b038516908117909155905190919086907f0ba83579a0e79193ef649b9f5a8759d35af086ba62a3e207b52e4a8ae30d49e3908390a450505050565b60008681526005602052604090205486906001600160a01b031633146102ee5760405162461bcd60e51b815260206004820152602860248201527f53656d6170686f72653a2063616c6c6572206973206e6f74207468652067726f6044820152673ab81030b236b4b760c11b60648201526084015b60405180910390fd5b6102fc878787878787610561565b50505050505050565b61030f8282610669565b5050565b6003546004546103339185918590829086906001600160a01b031661075d565b610352826000908152602081905260409020805460ff19166001179055565b6000838152600660205260409020805460010190556040518381527fd11f40af0b3c54462335a335e34a81d6d23dfd5e837d93907231333fab1146499060200160405180910390a1505050565b7f30644e72e131a029b85045b68181585d2833e84879b9709143e1f593f0000001831061042d5760405162461bcd60e51b815260206004820152603660248201527f53656d6170686f726547726f7570733a2067726f7570206964206d757374206260448201527519480f0814d3905492d7d4d0d053105497d19251531160521b60648201526084016102e5565b60008381526001602052604090205460ff161561049a5760405162461bcd60e51b815260206004820152602560248201527f53656d6170686f726547726f7570733a2067726f757020616c72656164792065604482015264786973747360d81b60648201526084016102e5565b60008381526001602052604090819020905163b4bdd11760e01b8152600481019190915260ff831660248201526044810182905273__$4c0484323457fe1a856f46a4759b553fe4$__9063b4bdd1179060640160006040518083038186803b15801561050557600080fd5b505af4158015610519573d6000803e3d6000fd5b50506040805160ff86168152602081018590528693507fc3082aa494e9088c2c9f0fb62a0b6bd46e6699acb94cfba35be29b95a93f68c89250015b60405180910390a2505050565b60008681526001602052604090205460ff1661058f5760405162461bcd60e51b81526004016102e590610c26565b600086815260016020526040908190209051630629596f60e01b815273__$4c0484323457fe1a856f46a4759b553fe4$__91630629596f916105de919089908990899089908990600401610c6b565b60006040518083038186803b1580156105f657600080fd5b505af415801561060a573d6000803e3d6000fd5b505050600087815260016020819052604082200154909150604080518881526020810183905291925088917fe270325ded177064d7bda473e6519ef40a291058c41286f71a6e4872f1e9ab5c910160405180910390a250505050505050565b60008281526001602052604090205460ff166106975760405162461bcd60e51b81526004016102e590610c26565b600082815260016020526040908190209051630b4381fd60e11b815260048101919091526024810182905273__$4c0484323457fe1a856f46a4759b553fe4$__9063168703fa9060440160006040518083038186803b1580156106f957600080fd5b505af415801561070d573d6000803e3d6000fd5b505050600083815260016020818152604092839020909101548251858152918201819052925084917f03fd27265b7dd1f55558bedc22a58fa3b10afb1be776e614bd5a7ba7b94994069101610554565b60008481526020819052604090205460ff16156107db5760405162461bcd60e51b815260206004820152603660248201527f53656d6170686f7265436f72653a20796f752063616e6e6f7420757365207468604482015275652073616d65206e756c6c696669657220747769636560501b60648201526084016102e5565b60006107e68761099a565b9050816001600160a01b0316635fe8c13b60405180604001604052808660006008811061082357634e487b7160e01b600052603260045260246000fd5b602002013581526020018660016008811061084e57634e487b7160e01b600052603260045260246000fd5b60200201359052604080516080810182528782013591810191825290819060608201896003602002013581525081526020016040518060400160405280896004600881106108ac57634e487b7160e01b600052603260045260246000fd5b60200201358152602001896005600881106108d757634e487b7160e01b600052603260045260246000fd5b6020020135905290526040805180820190915280886006602002013581526020018860076008811061091957634e487b7160e01b600052603260045260246000fd5b602002013581525060405180608001604052808c81526020018b81526020018781526020018a8152506040518563ffffffff1660e01b81526004016109619493929190610ba2565b60006040518083038186803b15801561097957600080fd5b505afa15801561098d573d6000803e3d6000fd5b5050505050505050505050565b60006008826040516020016109b191815260200190565b60408051601f198184030181529190528051602090910120901c92915050565b60008083601f8401126109e2578182fd5b50813567ffffffffffffffff8111156109f9578182fd5b6020830191508360208260051b8501011115610a1457600080fd5b9250929050565b803560ff81168114610a2c57600080fd5b919050565b600060208284031215610a42578081fd5b5035919050565b6000806000610140808587031215610a5f578283fd5b8435935060208501359250858186011115610a78578182fd5b506040840190509250925092565b60008060408385031215610a98578182fd5b50508035926020909101359150565b60008060008060008060808789031215610abf578182fd5b8635955060208701359450604087013567ffffffffffffffff80821115610ae4578384fd5b610af08a838b016109d1565b90965094506060890135915080821115610b08578384fd5b50610b1589828a016109d1565b979a9699509497509295939492505050565b60008060008060808587031215610b3c578384fd5b84359350610b4c60208601610a1b565b92506040850135915060608501356001600160a01b0381168114610b6e578182fd5b939692955090935050565b8060005b6002811015610b9c578151845260209384019390910190600101610b7d565b50505050565b6101808101610bb18287610b79565b60408083018660005b6002811015610be157610bce838351610b79565b9183019160209190910190600101610bba565b50505050610bf260c0830185610b79565b61010082018360005b6004811015610c1a578151835260209283019290910190600101610bfb565b50505095945050505050565b60208082526025908201527f53656d6170686f726547726f7570733a2067726f757020646f6573206e6f7420604082015264195e1a5cdd60da1b606082015260800190565b8681526000602087818401526080604084015285608084015260018060fb1b03861115610c96578182fd5b8560051b808860a0860137830183810360a0908101606086015281018590528590839060c0015b86821015610ce55760ff610cd084610a1b565b16815291830191600191909101908301610cbd565b9b9a505050505050505050505056fea2646970667358221220870541918e67bab1d29a66a69ef50fbcb1f11ff4ced3ce3c3b9decfcaeafc69c64736f6c63430008040033",
  "linkReferences": {
    "@zk-kit/incremental-merkle-tree.sol/contracts/IncrementalBinaryTree.sol": {
      "IncrementalBinaryTree": [
        {
          "length": 20,
          "start": 1395
        },
        {
          "length": 20,
          "start": 1616
        },
        {
          "length": 20,
          "start": 1895
        }
      ]
    }
  },
  "deployedLinkReferences": {
    "@zk-kit/incremental-merkle-tree.sol/contracts/IncrementalBinaryTree.sol": {
      "IncrementalBinaryTree": [
        {
          "length": 20,
          "start": 1232
        },
        {
          "length": 20,
          "start": 1453
        },
        {
          "length": 20,
          "start": 1732
        }
      ]
    }
  }
}